{
	"TestSubmissionSystem.sol": {
		"TestSubmissionSystem": {
			"abi": [
				{
					"inputs": [],
					"stateMutability": "nonpayable",
					"type": "constructor"
				},
				{
					"anonymous": false,
					"inputs": [
						{
							"indexed": true,
							"internalType": "address",
							"name": "presenter",
							"type": "address"
						},
						{
							"indexed": false,
							"internalType": "bytes32",
							"name": "presentationHash",
							"type": "bytes32"
						},
						{
							"indexed": false,
							"internalType": "uint256",
							"name": "presentedAt",
							"type": "uint256"
						}
					],
					"name": "CredentialPresented",
					"type": "event"
				},
				{
					"anonymous": false,
					"inputs": [
						{
							"indexed": true,
							"internalType": "address",
							"name": "owner",
							"type": "address"
						},
						{
							"indexed": false,
							"internalType": "string",
							"name": "identifier",
							"type": "string"
						}
					],
					"name": "DIDCreated",
					"type": "event"
				},
				{
					"anonymous": false,
					"inputs": [
						{
							"indexed": true,
							"internalType": "address",
							"name": "user",
							"type": "address"
						},
						{
							"indexed": false,
							"internalType": "string",
							"name": "role",
							"type": "string"
						}
					],
					"name": "RoleAssign",
					"type": "event"
				},
				{
					"anonymous": false,
					"inputs": [
						{
							"indexed": true,
							"internalType": "address",
							"name": "user",
							"type": "address"
						},
						{
							"indexed": false,
							"internalType": "address",
							"name": "receiver",
							"type": "address"
						},
						{
							"indexed": false,
							"internalType": "string",
							"name": "role",
							"type": "string"
						},
						{
							"indexed": false,
							"internalType": "bytes32",
							"name": "hash",
							"type": "bytes32"
						}
					],
					"name": "RoleIssued",
					"type": "event"
				},
				{
					"anonymous": false,
					"inputs": [
						{
							"indexed": true,
							"internalType": "address",
							"name": "owner",
							"type": "address"
						},
						{
							"indexed": false,
							"internalType": "string",
							"name": "name",
							"type": "string"
						},
						{
							"indexed": false,
							"internalType": "string",
							"name": "email",
							"type": "string"
						},
						{
							"indexed": false,
							"internalType": "string",
							"name": "profilePicture",
							"type": "string"
						}
					],
					"name": "SetMetaData",
					"type": "event"
				},
				{
					"anonymous": false,
					"inputs": [
						{
							"indexed": true,
							"internalType": "address",
							"name": "user",
							"type": "address"
						},
						{
							"indexed": false,
							"internalType": "uint256",
							"name": "grade",
							"type": "uint256"
						},
						{
							"indexed": false,
							"internalType": "uint256",
							"name": "gradedTime",
							"type": "uint256"
						}
					],
					"name": "TestGraded",
					"type": "event"
				},
				{
					"anonymous": false,
					"inputs": [
						{
							"indexed": true,
							"internalType": "address",
							"name": "user",
							"type": "address"
						},
						{
							"indexed": false,
							"internalType": "string",
							"name": "answersHash",
							"type": "string"
						},
						{
							"indexed": false,
							"internalType": "uint256",
							"name": "submissionTime",
							"type": "uint256"
						}
					],
					"name": "TestSubmitted",
					"type": "event"
				},
				{
					"inputs": [
						{
							"internalType": "address",
							"name": "_user",
							"type": "address"
						},
						{
							"internalType": "string",
							"name": "_role",
							"type": "string"
						}
					],
					"name": "assignRole",
					"outputs": [],
					"stateMutability": "nonpayable",
					"type": "function"
				},
				{
					"inputs": [
						{
							"internalType": "string",
							"name": "selectedDataHash",
							"type": "string"
						}
					],
					"name": "createCredentialPresentation",
					"outputs": [],
					"stateMutability": "nonpayable",
					"type": "function"
				},
				{
					"inputs": [
						{
							"internalType": "string",
							"name": "_identifier",
							"type": "string"
						}
					],
					"name": "createDID",
					"outputs": [],
					"stateMutability": "nonpayable",
					"type": "function"
				},
				{
					"inputs": [
						{
							"internalType": "address",
							"name": "user",
							"type": "address"
						},
						{
							"internalType": "uint256",
							"name": "index",
							"type": "uint256"
						}
					],
					"name": "getCredentialPresentation",
					"outputs": [
						{
							"components": [
								{
									"internalType": "address",
									"name": "issuer",
									"type": "address"
								},
								{
									"internalType": "string",
									"name": "role",
									"type": "string"
								},
								{
									"internalType": "uint256",
									"name": "issueAt",
									"type": "uint256"
								},
								{
									"internalType": "bytes32",
									"name": "hashes",
									"type": "bytes32"
								},
								{
									"internalType": "bytes32",
									"name": "salaryHash",
									"type": "bytes32"
								},
								{
									"internalType": "bytes32",
									"name": "salary300Hash",
									"type": "bytes32"
								}
							],
							"internalType": "struct TestSubmissionSystem.Credential",
							"name": "",
							"type": "tuple"
						}
					],
					"stateMutability": "view",
					"type": "function"
				},
				{
					"inputs": [],
					"name": "getDID",
					"outputs": [
						{
							"internalType": "string",
							"name": "",
							"type": "string"
						}
					],
					"stateMutability": "view",
					"type": "function"
				},
				{
					"inputs": [],
					"name": "getMetadata",
					"outputs": [
						{
							"components": [
								{
									"internalType": "string",
									"name": "name",
									"type": "string"
								},
								{
									"internalType": "string",
									"name": "email",
									"type": "string"
								},
								{
									"internalType": "string",
									"name": "profilePicture",
									"type": "string"
								},
								{
									"internalType": "uint256",
									"name": "totalTestsSubmitted",
									"type": "uint256"
								},
								{
									"internalType": "uint256",
									"name": "lastTestScore",
									"type": "uint256"
								}
							],
							"internalType": "struct TestSubmissionSystem.MetaData",
							"name": "",
							"type": "tuple"
						}
					],
					"stateMutability": "view",
					"type": "function"
				},
				{
					"inputs": [],
					"name": "getRole",
					"outputs": [
						{
							"internalType": "string[]",
							"name": "",
							"type": "string[]"
						}
					],
					"stateMutability": "view",
					"type": "function"
				},
				{
					"inputs": [],
					"name": "getTestSubmissions",
					"outputs": [
						{
							"components": [
								{
									"internalType": "string",
									"name": "answersHash",
									"type": "string"
								},
								{
									"internalType": "uint256",
									"name": "submissionTime",
									"type": "uint256"
								},
								{
									"internalType": "uint256",
									"name": "grade",
									"type": "uint256"
								},
								{
									"internalType": "bool",
									"name": "graded",
									"type": "bool"
								}
							],
							"internalType": "struct TestSubmissionSystem.TestSubmission[]",
							"name": "",
							"type": "tuple[]"
						}
					],
					"stateMutability": "view",
					"type": "function"
				},
				{
					"inputs": [
						{
							"internalType": "address",
							"name": "user",
							"type": "address"
						},
						{
							"internalType": "uint256",
							"name": "testIndex",
							"type": "uint256"
						},
						{
							"internalType": "uint256",
							"name": "grade",
							"type": "uint256"
						}
					],
					"name": "gradeTest",
					"outputs": [],
					"stateMutability": "nonpayable",
					"type": "function"
				},
				{
					"inputs": [
						{
							"internalType": "address",
							"name": "_user",
							"type": "address"
						},
						{
							"internalType": "string",
							"name": "_role",
							"type": "string"
						},
						{
							"internalType": "bytes32",
							"name": "_salaryHash",
							"type": "bytes32"
						},
						{
							"internalType": "bytes32",
							"name": "_salary300Hash",
							"type": "bytes32"
						}
					],
					"name": "issueRole",
					"outputs": [],
					"stateMutability": "nonpayable",
					"type": "function"
				},
				{
					"inputs": [
						{
							"internalType": "string",
							"name": "name",
							"type": "string"
						},
						{
							"internalType": "string",
							"name": "email",
							"type": "string"
						},
						{
							"internalType": "string",
							"name": "profilePicture",
							"type": "string"
						}
					],
					"name": "setMetadata",
					"outputs": [],
					"stateMutability": "nonpayable",
					"type": "function"
				},
				{
					"inputs": [
						{
							"internalType": "string",
							"name": "answersHash",
							"type": "string"
						}
					],
					"name": "submitTest",
					"outputs": [],
					"stateMutability": "nonpayable",
					"type": "function"
				},
				{
					"inputs": [
						{
							"internalType": "address",
							"name": "user",
							"type": "address"
						},
						{
							"internalType": "string",
							"name": "role",
							"type": "string"
						},
						{
							"internalType": "address",
							"name": "issuerAddress",
							"type": "address"
						}
					],
					"name": "verifyRole",
					"outputs": [
						{
							"internalType": "bool",
							"name": "",
							"type": "bool"
						}
					],
					"stateMutability": "view",
					"type": "function"
				}
			],
			"devdoc": {
				"kind": "dev",
				"methods": {},
				"version": 1
			},
			"evm": {
				"assembly": "    /* \"TestSubmissionSystem.sol\":57:8122  contract TestSubmissionSystem {... */\n  mstore(0x40, 0x80)\n    /* \"TestSubmissionSystem.sol\":1187:1304  constructor() {... */\n  callvalue\n  dup1\n  iszero\n  tag_1\n  jumpi\n  0x00\n  dup1\n  revert\ntag_1:\n  pop\n    /* \"TestSubmissionSystem.sol\":1211:1244  roles[msg.sender] = \"super admin\" */\n  mload(0x40)\n  dup1\n  0x40\n  add\n  0x40\n  mstore\n  dup1\n  0x0b\n  dup2\n  mstore\n  0x20\n  add\n  0x73757065722061646d696e000000000000000000000000000000000000000000\n  dup2\n  mstore\n  pop\n    /* \"TestSubmissionSystem.sol\":1211:1216  roles */\n  0x01\n    /* \"TestSubmissionSystem.sol\":1211:1228  roles[msg.sender] */\n  0x00\n    /* \"TestSubmissionSystem.sol\":1217:1227  msg.sender */\n  caller\n    /* \"TestSubmissionSystem.sol\":1211:1228  roles[msg.sender] */\n  0xffffffffffffffffffffffffffffffffffffffff\n  and\n  0xffffffffffffffffffffffffffffffffffffffff\n  and\n  dup2\n  mstore\n  0x20\n  add\n  swap1\n  dup2\n  mstore\n  0x20\n  add\n  0x00\n  keccak256\n    /* \"TestSubmissionSystem.sol\":1211:1244  roles[msg.sender] = \"super admin\" */\n  swap1\n  dup2\n  tag_4\n  swap2\n  swap1\n  tag_5\n  jump\t// in\ntag_4:\n  pop\n    /* \"TestSubmissionSystem.sol\":1254:1265  roleHistory */\n  0x02\n    /* \"TestSubmissionSystem.sol\":1254:1277  roleHistory[msg.sender] */\n  0x00\n    /* \"TestSubmissionSystem.sol\":1266:1276  msg.sender */\n  caller\n    /* \"TestSubmissionSystem.sol\":1254:1277  roleHistory[msg.sender] */\n  0xffffffffffffffffffffffffffffffffffffffff\n  and\n  0xffffffffffffffffffffffffffffffffffffffff\n  and\n  dup2\n  mstore\n  0x20\n  add\n  swap1\n  dup2\n  mstore\n  0x20\n  add\n  0x00\n  keccak256\n    /* \"TestSubmissionSystem.sol\":1254:1297  roleHistory[msg.sender].push(\"super admin\") */\n  dup1\n  0x01\n  dup2\n  sload\n  add\n  dup1\n  dup3\n  sstore\n  dup1\n  swap2\n  pop\n  pop\n  0x01\n  swap1\n  sub\n  swap1\n  0x00\n  mstore\n  keccak256(0x00, 0x20)\n  add\n  0x00\n  mload(0x40)\n  dup1\n  0x40\n  add\n  0x40\n  mstore\n  dup1\n  0x0b\n  dup2\n  mstore\n  0x20\n  add\n  0x73757065722061646d696e000000000000000000000000000000000000000000\n  dup2\n  mstore\n  pop\n  swap1\n  swap2\n  swap1\n  swap2\n  pop\n  swap1\n  dup2\n  tag_7\n  swap2\n  swap1\n  tag_5\n  jump\t// in\ntag_7:\n  pop\n    /* \"TestSubmissionSystem.sol\":57:8122  contract TestSubmissionSystem {... */\n  jump(tag_8)\n    /* \"#utility.yul\":7:106   */\ntag_9:\n    /* \"#utility.yul\":59:65   */\n  0x00\n    /* \"#utility.yul\":93:98   */\n  dup2\n    /* \"#utility.yul\":87:99   */\n  mload\n    /* \"#utility.yul\":77:99   */\n  swap1\n  pop\n    /* \"#utility.yul\":7:106   */\n  swap2\n  swap1\n  pop\n  jump\t// out\n    /* \"#utility.yul\":112:292   */\ntag_10:\n    /* \"#utility.yul\":160:237   */\n  0x4e487b7100000000000000000000000000000000000000000000000000000000\n    /* \"#utility.yul\":157:158   */\n  0x00\n    /* \"#utility.yul\":150:238   */\n  mstore\n    /* \"#utility.yul\":257:261   */\n  0x41\n    /* \"#utility.yul\":254:255   */\n  0x04\n    /* \"#utility.yul\":247:262   */\n  mstore\n    /* \"#utility.yul\":281:285   */\n  0x24\n    /* \"#utility.yul\":278:279   */\n  0x00\n    /* \"#utility.yul\":271:286   */\n  revert\n    /* \"#utility.yul\":298:478   */\ntag_11:\n    /* \"#utility.yul\":346:423   */\n  0x4e487b7100000000000000000000000000000000000000000000000000000000\n    /* \"#utility.yul\":343:344   */\n  0x00\n    /* \"#utility.yul\":336:424   */\n  mstore\n    /* \"#utility.yul\":443:447   */\n  0x22\n    /* \"#utility.yul\":440:441   */\n  0x04\n    /* \"#utility.yul\":433:448   */\n  mstore\n    /* \"#utility.yul\":467:471   */\n  0x24\n    /* \"#utility.yul\":464:465   */\n  0x00\n    /* \"#utility.yul\":457:472   */\n  revert\n    /* \"#utility.yul\":484:804   */\ntag_12:\n    /* \"#utility.yul\":528:534   */\n  0x00\n    /* \"#utility.yul\":565:566   */\n  0x02\n    /* \"#utility.yul\":559:563   */\n  dup3\n    /* \"#utility.yul\":555:567   */\n  div\n    /* \"#utility.yul\":545:567   */\n  swap1\n  pop\n    /* \"#utility.yul\":612:613   */\n  0x01\n    /* \"#utility.yul\":606:610   */\n  dup3\n    /* \"#utility.yul\":602:614   */\n  and\n    /* \"#utility.yul\":633:651   */\n  dup1\n    /* \"#utility.yul\":623:704   */\n  tag_34\n  jumpi\n    /* \"#utility.yul\":689:693   */\n  0x7f\n    /* \"#utility.yul\":681:687   */\n  dup3\n    /* \"#utility.yul\":677:694   */\n  and\n    /* \"#utility.yul\":667:694   */\n  swap2\n  pop\n    /* \"#utility.yul\":623:704   */\ntag_34:\n    /* \"#utility.yul\":751:753   */\n  0x20\n    /* \"#utility.yul\":743:749   */\n  dup3\n    /* \"#utility.yul\":740:754   */\n  lt\n    /* \"#utility.yul\":720:738   */\n  dup2\n    /* \"#utility.yul\":717:755   */\n  sub\n    /* \"#utility.yul\":714:798   */\n  tag_35\n  jumpi\n    /* \"#utility.yul\":770:788   */\n  tag_36\n  tag_11\n  jump\t// in\ntag_36:\n    /* \"#utility.yul\":714:798   */\ntag_35:\n    /* \"#utility.yul\":535:804   */\n  pop\n    /* \"#utility.yul\":484:804   */\n  swap2\n  swap1\n  pop\n  jump\t// out\n    /* \"#utility.yul\":810:951   */\ntag_13:\n    /* \"#utility.yul\":859:863   */\n  0x00\n    /* \"#utility.yul\":882:885   */\n  dup2\n    /* \"#utility.yul\":874:885   */\n  swap1\n  pop\n    /* \"#utility.yul\":905:908   */\n  dup2\n    /* \"#utility.yul\":902:903   */\n  0x00\n    /* \"#utility.yul\":895:909   */\n  mstore\n    /* \"#utility.yul\":939:943   */\n  0x20\n    /* \"#utility.yul\":936:937   */\n  0x00\n    /* \"#utility.yul\":926:944   */\n  keccak256\n    /* \"#utility.yul\":918:944   */\n  swap1\n  pop\n    /* \"#utility.yul\":810:951   */\n  swap2\n  swap1\n  pop\n  jump\t// out\n    /* \"#utility.yul\":957:1050   */\ntag_14:\n    /* \"#utility.yul\":994:1000   */\n  0x00\n    /* \"#utility.yul\":1041:1043   */\n  0x20\n    /* \"#utility.yul\":1036:1038   */\n  0x1f\n    /* \"#utility.yul\":1029:1034   */\n  dup4\n    /* \"#utility.yul\":1025:1039   */\n  add\n    /* \"#utility.yul\":1021:1044   */\n  div\n    /* \"#utility.yul\":1011:1044   */\n  swap1\n  pop\n    /* \"#utility.yul\":957:1050   */\n  swap2\n  swap1\n  pop\n  jump\t// out\n    /* \"#utility.yul\":1056:1163   */\ntag_15:\n    /* \"#utility.yul\":1100:1108   */\n  0x00\n    /* \"#utility.yul\":1150:1155   */\n  dup3\n    /* \"#utility.yul\":1144:1148   */\n  dup3\n    /* \"#utility.yul\":1140:1156   */\n  shl\n    /* \"#utility.yul\":1119:1156   */\n  swap1\n  pop\n    /* \"#utility.yul\":1056:1163   */\n  swap3\n  swap2\n  pop\n  pop\n  jump\t// out\n    /* \"#utility.yul\":1169:1562   */\ntag_16:\n    /* \"#utility.yul\":1238:1244   */\n  0x00\n    /* \"#utility.yul\":1288:1289   */\n  0x08\n    /* \"#utility.yul\":1276:1286   */\n  dup4\n    /* \"#utility.yul\":1272:1290   */\n  mul\n    /* \"#utility.yul\":1311:1408   */\n  tag_41\n    /* \"#utility.yul\":1341:1407   */\n  0xffffffffffffffffffffffffffffffffffffffffffffffffffffffffffffffff\n    /* \"#utility.yul\":1330:1339   */\n  dup3\n    /* \"#utility.yul\":1311:1408   */\n  tag_15\n  jump\t// in\ntag_41:\n    /* \"#utility.yul\":1429:1468   */\n  tag_42\n    /* \"#utility.yul\":1459:1467   */\n  dup7\n    /* \"#utility.yul\":1448:1457   */\n  dup4\n    /* \"#utility.yul\":1429:1468   */\n  tag_15\n  jump\t// in\ntag_42:\n    /* \"#utility.yul\":1417:1468   */\n  swap6\n  pop\n    /* \"#utility.yul\":1501:1505   */\n  dup1\n    /* \"#utility.yul\":1497:1506   */\n  not\n    /* \"#utility.yul\":1490:1495   */\n  dup5\n    /* \"#utility.yul\":1486:1507   */\n  and\n    /* \"#utility.yul\":1477:1507   */\n  swap4\n  pop\n    /* \"#utility.yul\":1550:1554   */\n  dup1\n    /* \"#utility.yul\":1540:1548   */\n  dup7\n    /* \"#utility.yul\":1536:1555   */\n  and\n    /* \"#utility.yul\":1529:1534   */\n  dup5\n    /* \"#utility.yul\":1526:1556   */\n  or\n    /* \"#utility.yul\":1516:1556   */\n  swap3\n  pop\n    /* \"#utility.yul\":1245:1562   */\n  pop\n  pop\n    /* \"#utility.yul\":1169:1562   */\n  swap4\n  swap3\n  pop\n  pop\n  pop\n  jump\t// out\n    /* \"#utility.yul\":1568:1645   */\ntag_17:\n    /* \"#utility.yul\":1605:1612   */\n  0x00\n    /* \"#utility.yul\":1634:1639   */\n  dup2\n    /* \"#utility.yul\":1623:1639   */\n  swap1\n  pop\n    /* \"#utility.yul\":1568:1645   */\n  swap2\n  swap1\n  pop\n  jump\t// out\n    /* \"#utility.yul\":1651:1711   */\ntag_18:\n    /* \"#utility.yul\":1679:1682   */\n  0x00\n    /* \"#utility.yul\":1700:1705   */\n  dup2\n    /* \"#utility.yul\":1693:1705   */\n  swap1\n  pop\n    /* \"#utility.yul\":1651:1711   */\n  swap2\n  swap1\n  pop\n  jump\t// out\n    /* \"#utility.yul\":1717:1859   */\ntag_19:\n    /* \"#utility.yul\":1767:1776   */\n  0x00\n    /* \"#utility.yul\":1800:1853   */\n  tag_46\n    /* \"#utility.yul\":1818:1852   */\n  tag_47\n    /* \"#utility.yul\":1827:1851   */\n  tag_48\n    /* \"#utility.yul\":1845:1850   */\n  dup5\n    /* \"#utility.yul\":1827:1851   */\n  tag_17\n  jump\t// in\ntag_48:\n    /* \"#utility.yul\":1818:1852   */\n  tag_18\n  jump\t// in\ntag_47:\n    /* \"#utility.yul\":1800:1853   */\n  tag_17\n  jump\t// in\ntag_46:\n    /* \"#utility.yul\":1787:1853   */\n  swap1\n  pop\n    /* \"#utility.yul\":1717:1859   */\n  swap2\n  swap1\n  pop\n  jump\t// out\n    /* \"#utility.yul\":1865:1940   */\ntag_20:\n    /* \"#utility.yul\":1908:1911   */\n  0x00\n    /* \"#utility.yul\":1929:1934   */\n  dup2\n    /* \"#utility.yul\":1922:1934   */\n  swap1\n  pop\n    /* \"#utility.yul\":1865:1940   */\n  swap2\n  swap1\n  pop\n  jump\t// out\n    /* \"#utility.yul\":1946:2215   */\ntag_21:\n    /* \"#utility.yul\":2056:2095   */\n  tag_51\n    /* \"#utility.yul\":2087:2094   */\n  dup4\n    /* \"#utility.yul\":2056:2095   */\n  tag_19\n  jump\t// in\ntag_51:\n    /* \"#utility.yul\":2117:2208   */\n  tag_52\n    /* \"#utility.yul\":2166:2207   */\n  tag_53\n    /* \"#utility.yul\":2190:2206   */\n  dup3\n    /* \"#utility.yul\":2166:2207   */\n  tag_20\n  jump\t// in\ntag_53:\n    /* \"#utility.yul\":2158:2164   */\n  dup5\n    /* \"#utility.yul\":2151:2155   */\n  dup5\n    /* \"#utility.yul\":2145:2156   */\n  sload\n    /* \"#utility.yul\":2117:2208   */\n  tag_16\n  jump\t// in\ntag_52:\n    /* \"#utility.yul\":2111:2115   */\n  dup3\n    /* \"#utility.yul\":2104:2209   */\n  sstore\n    /* \"#utility.yul\":2022:2215   */\n  pop\n    /* \"#utility.yul\":1946:2215   */\n  pop\n  pop\n  pop\n  jump\t// out\n    /* \"#utility.yul\":2221:2294   */\ntag_22:\n    /* \"#utility.yul\":2266:2269   */\n  0x00\n    /* \"#utility.yul\":2221:2294   */\n  swap1\n  jump\t// out\n    /* \"#utility.yul\":2300:2489   */\ntag_23:\n    /* \"#utility.yul\":2377:2409   */\n  tag_56\n  tag_22\n  jump\t// in\ntag_56:\n    /* \"#utility.yul\":2418:2483   */\n  tag_57\n    /* \"#utility.yul\":2476:2482   */\n  dup2\n    /* \"#utility.yul\":2468:2474   */\n  dup5\n    /* \"#utility.yul\":2462:2466   */\n  dup5\n    /* \"#utility.yul\":2418:2483   */\n  tag_21\n  jump\t// in\ntag_57:\n    /* \"#utility.yul\":2353:2489   */\n  pop\n    /* \"#utility.yul\":2300:2489   */\n  pop\n  pop\n  jump\t// out\n    /* \"#utility.yul\":2495:2681   */\ntag_24:\n    /* \"#utility.yul\":2555:2675   */\ntag_59:\n    /* \"#utility.yul\":2572:2575   */\n  dup2\n    /* \"#utility.yul\":2565:2570   */\n  dup2\n    /* \"#utility.yul\":2562:2576   */\n  lt\n    /* \"#utility.yul\":2555:2675   */\n  iszero\n  tag_61\n  jumpi\n    /* \"#utility.yul\":2626:2665   */\n  tag_62\n    /* \"#utility.yul\":2663:2664   */\n  0x00\n    /* \"#utility.yul\":2656:2661   */\n  dup3\n    /* \"#utility.yul\":2626:2665   */\n  tag_23\n  jump\t// in\ntag_62:\n    /* \"#utility.yul\":2599:2600   */\n  0x01\n    /* \"#utility.yul\":2592:2597   */\n  dup2\n    /* \"#utility.yul\":2588:2601   */\n  add\n    /* \"#utility.yul\":2579:2601   */\n  swap1\n  pop\n    /* \"#utility.yul\":2555:2675   */\n  jump(tag_59)\ntag_61:\n    /* \"#utility.yul\":2495:2681   */\n  pop\n  pop\n  jump\t// out\n    /* \"#utility.yul\":2687:3230   */\ntag_25:\n    /* \"#utility.yul\":2788:2790   */\n  0x1f\n    /* \"#utility.yul\":2783:2786   */\n  dup3\n    /* \"#utility.yul\":2780:2791   */\n  gt\n    /* \"#utility.yul\":2777:3223   */\n  iszero\n  tag_64\n  jumpi\n    /* \"#utility.yul\":2822:2860   */\n  tag_65\n    /* \"#utility.yul\":2854:2859   */\n  dup2\n    /* \"#utility.yul\":2822:2860   */\n  tag_13\n  jump\t// in\ntag_65:\n    /* \"#utility.yul\":2906:2935   */\n  tag_66\n    /* \"#utility.yul\":2924:2934   */\n  dup5\n    /* \"#utility.yul\":2906:2935   */\n  tag_14\n  jump\t// in\ntag_66:\n    /* \"#utility.yul\":2896:2904   */\n  dup2\n    /* \"#utility.yul\":2892:2936   */\n  add\n    /* \"#utility.yul\":3089:3091   */\n  0x20\n    /* \"#utility.yul\":3077:3087   */\n  dup6\n    /* \"#utility.yul\":3074:3092   */\n  lt\n    /* \"#utility.yul\":3071:3120   */\n  iszero\n  tag_67\n  jumpi\n    /* \"#utility.yul\":3110:3118   */\n  dup2\n    /* \"#utility.yul\":3095:3118   */\n  swap1\n  pop\n    /* \"#utility.yul\":3071:3120   */\ntag_67:\n    /* \"#utility.yul\":3133:3213   */\n  tag_68\n    /* \"#utility.yul\":3189:3211   */\n  tag_69\n    /* \"#utility.yul\":3207:3210   */\n  dup6\n    /* \"#utility.yul\":3189:3211   */\n  tag_14\n  jump\t// in\ntag_69:\n    /* \"#utility.yul\":3179:3187   */\n  dup4\n    /* \"#utility.yul\":3175:3212   */\n  add\n    /* \"#utility.yul\":3162:3173   */\n  dup3\n    /* \"#utility.yul\":3133:3213   */\n  tag_24\n  jump\t// in\ntag_68:\n    /* \"#utility.yul\":2792:3223   */\n  pop\n  pop\n    /* \"#utility.yul\":2777:3223   */\ntag_64:\n    /* \"#utility.yul\":2687:3230   */\n  pop\n  pop\n  pop\n  jump\t// out\n    /* \"#utility.yul\":3236:3353   */\ntag_26:\n    /* \"#utility.yul\":3290:3298   */\n  0x00\n    /* \"#utility.yul\":3340:3345   */\n  dup3\n    /* \"#utility.yul\":3334:3338   */\n  dup3\n    /* \"#utility.yul\":3330:3346   */\n  shr\n    /* \"#utility.yul\":3309:3346   */\n  swap1\n  pop\n    /* \"#utility.yul\":3236:3353   */\n  swap3\n  swap2\n  pop\n  pop\n  jump\t// out\n    /* \"#utility.yul\":3359:3528   */\ntag_27:\n    /* \"#utility.yul\":3403:3409   */\n  0x00\n    /* \"#utility.yul\":3436:3487   */\n  tag_72\n    /* \"#utility.yul\":3484:3485   */\n  0x00\n    /* \"#utility.yul\":3480:3486   */\n  not\n    /* \"#utility.yul\":3472:3477   */\n  dup5\n    /* \"#utility.yul\":3469:3470   */\n  0x08\n    /* \"#utility.yul\":3465:3478   */\n  mul\n    /* \"#utility.yul\":3436:3487   */\n  tag_26\n  jump\t// in\ntag_72:\n    /* \"#utility.yul\":3432:3488   */\n  not\n    /* \"#utility.yul\":3517:3521   */\n  dup1\n    /* \"#utility.yul\":3511:3515   */\n  dup4\n    /* \"#utility.yul\":3507:3522   */\n  and\n    /* \"#utility.yul\":3497:3522   */\n  swap2\n  pop\n    /* \"#utility.yul\":3410:3528   */\n  pop\n    /* \"#utility.yul\":3359:3528   */\n  swap3\n  swap2\n  pop\n  pop\n  jump\t// out\n    /* \"#utility.yul\":3533:3828   */\ntag_28:\n    /* \"#utility.yul\":3609:3613   */\n  0x00\n    /* \"#utility.yul\":3755:3784   */\n  tag_74\n    /* \"#utility.yul\":3780:3783   */\n  dup4\n    /* \"#utility.yul\":3774:3778   */\n  dup4\n    /* \"#utility.yul\":3755:3784   */\n  tag_27\n  jump\t// in\ntag_74:\n    /* \"#utility.yul\":3747:3784   */\n  swap2\n  pop\n    /* \"#utility.yul\":3817:3820   */\n  dup3\n    /* \"#utility.yul\":3814:3815   */\n  0x02\n    /* \"#utility.yul\":3810:3821   */\n  mul\n    /* \"#utility.yul\":3804:3808   */\n  dup3\n    /* \"#utility.yul\":3801:3822   */\n  or\n    /* \"#utility.yul\":3793:3822   */\n  swap1\n  pop\n    /* \"#utility.yul\":3533:3828   */\n  swap3\n  swap2\n  pop\n  pop\n  jump\t// out\n    /* \"#utility.yul\":3833:5228   */\ntag_5:\n    /* \"#utility.yul\":3950:3987   */\n  tag_76\n    /* \"#utility.yul\":3983:3986   */\n  dup3\n    /* \"#utility.yul\":3950:3987   */\n  tag_9\n  jump\t// in\ntag_76:\n    /* \"#utility.yul\":4052:4070   */\n  0xffffffffffffffff\n    /* \"#utility.yul\":4044:4050   */\n  dup2\n    /* \"#utility.yul\":4041:4071   */\n  gt\n    /* \"#utility.yul\":4038:4094   */\n  iszero\n  tag_77\n  jumpi\n    /* \"#utility.yul\":4074:4092   */\n  tag_78\n  tag_10\n  jump\t// in\ntag_78:\n    /* \"#utility.yul\":4038:4094   */\ntag_77:\n    /* \"#utility.yul\":4118:4156   */\n  tag_79\n    /* \"#utility.yul\":4150:4154   */\n  dup3\n    /* \"#utility.yul\":4144:4155   */\n  sload\n    /* \"#utility.yul\":4118:4156   */\n  tag_12\n  jump\t// in\ntag_79:\n    /* \"#utility.yul\":4203:4270   */\n  tag_80\n    /* \"#utility.yul\":4263:4269   */\n  dup3\n    /* \"#utility.yul\":4255:4261   */\n  dup3\n    /* \"#utility.yul\":4249:4253   */\n  dup6\n    /* \"#utility.yul\":4203:4270   */\n  tag_25\n  jump\t// in\ntag_80:\n    /* \"#utility.yul\":4297:4298   */\n  0x00\n    /* \"#utility.yul\":4321:4325   */\n  0x20\n    /* \"#utility.yul\":4308:4325   */\n  swap1\n  pop\n    /* \"#utility.yul\":4353:4355   */\n  0x1f\n    /* \"#utility.yul\":4345:4351   */\n  dup4\n    /* \"#utility.yul\":4342:4356   */\n  gt\n    /* \"#utility.yul\":4370:4371   */\n  0x01\n    /* \"#utility.yul\":4365:4983   */\n  dup2\n  eq\n  tag_82\n  jumpi\n    /* \"#utility.yul\":5027:5028   */\n  0x00\n    /* \"#utility.yul\":5044:5050   */\n  dup5\n    /* \"#utility.yul\":5041:5118   */\n  iszero\n  tag_83\n  jumpi\n    /* \"#utility.yul\":5093:5102   */\n  dup3\n    /* \"#utility.yul\":5088:5091   */\n  dup8\n    /* \"#utility.yul\":5084:5103   */\n  add\n    /* \"#utility.yul\":5078:5104   */\n  mload\n    /* \"#utility.yul\":5069:5104   */\n  swap1\n  pop\n    /* \"#utility.yul\":5041:5118   */\ntag_83:\n    /* \"#utility.yul\":5144:5211   */\n  tag_84\n    /* \"#utility.yul\":5204:5210   */\n  dup6\n    /* \"#utility.yul\":5197:5202   */\n  dup3\n    /* \"#utility.yul\":5144:5211   */\n  tag_28\n  jump\t// in\ntag_84:\n    /* \"#utility.yul\":5138:5142   */\n  dup7\n    /* \"#utility.yul\":5131:5212   */\n  sstore\n    /* \"#utility.yul\":5000:5222   */\n  pop\n    /* \"#utility.yul\":4335:5222   */\n  jump(tag_81)\n    /* \"#utility.yul\":4365:4983   */\ntag_82:\n    /* \"#utility.yul\":4417:4421   */\n  0x1f\n    /* \"#utility.yul\":4413:4422   */\n  not\n    /* \"#utility.yul\":4405:4411   */\n  dup5\n    /* \"#utility.yul\":4401:4423   */\n  and\n    /* \"#utility.yul\":4451:4488   */\n  tag_85\n    /* \"#utility.yul\":4483:4487   */\n  dup7\n    /* \"#utility.yul\":4451:4488   */\n  tag_13\n  jump\t// in\ntag_85:\n    /* \"#utility.yul\":4510:4511   */\n  0x00\n    /* \"#utility.yul\":4524:4732   */\ntag_86:\n    /* \"#utility.yul\":4538:4545   */\n  dup3\n    /* \"#utility.yul\":4535:4536   */\n  dup2\n    /* \"#utility.yul\":4532:4546   */\n  lt\n    /* \"#utility.yul\":4524:4732   */\n  iszero\n  tag_88\n  jumpi\n    /* \"#utility.yul\":4617:4626   */\n  dup5\n    /* \"#utility.yul\":4612:4615   */\n  dup10\n    /* \"#utility.yul\":4608:4627   */\n  add\n    /* \"#utility.yul\":4602:4628   */\n  mload\n    /* \"#utility.yul\":4594:4600   */\n  dup3\n    /* \"#utility.yul\":4587:4629   */\n  sstore\n    /* \"#utility.yul\":4668:4669   */\n  0x01\n    /* \"#utility.yul\":4660:4666   */\n  dup3\n    /* \"#utility.yul\":4656:4670   */\n  add\n    /* \"#utility.yul\":4646:4670   */\n  swap2\n  pop\n    /* \"#utility.yul\":4715:4717   */\n  0x20\n    /* \"#utility.yul\":4704:4713   */\n  dup6\n    /* \"#utility.yul\":4700:4718   */\n  add\n    /* \"#utility.yul\":4687:4718   */\n  swap5\n  pop\n    /* \"#utility.yul\":4561:4565   */\n  0x20\n    /* \"#utility.yul\":4558:4559   */\n  dup2\n    /* \"#utility.yul\":4554:4566   */\n  add\n    /* \"#utility.yul\":4549:4566   */\n  swap1\n  pop\n    /* \"#utility.yul\":4524:4732   */\n  jump(tag_86)\ntag_88:\n    /* \"#utility.yul\":4760:4766   */\n  dup7\n    /* \"#utility.yul\":4751:4758   */\n  dup4\n    /* \"#utility.yul\":4748:4767   */\n  lt\n    /* \"#utility.yul\":4745:4924   */\n  iszero\n  tag_89\n  jumpi\n    /* \"#utility.yul\":4818:4827   */\n  dup5\n    /* \"#utility.yul\":4813:4816   */\n  dup10\n    /* \"#utility.yul\":4809:4828   */\n  add\n    /* \"#utility.yul\":4803:4829   */\n  mload\n    /* \"#utility.yul\":4861:4909   */\n  tag_90\n    /* \"#utility.yul\":4903:4907   */\n  0x1f\n    /* \"#utility.yul\":4895:4901   */\n  dup10\n    /* \"#utility.yul\":4891:4908   */\n  and\n    /* \"#utility.yul\":4880:4889   */\n  dup3\n    /* \"#utility.yul\":4861:4909   */\n  tag_27\n  jump\t// in\ntag_90:\n    /* \"#utility.yul\":4853:4859   */\n  dup4\n    /* \"#utility.yul\":4846:4910   */\n  sstore\n    /* \"#utility.yul\":4768:4924   */\n  pop\n    /* \"#utility.yul\":4745:4924   */\ntag_89:\n    /* \"#utility.yul\":4970:4971   */\n  0x01\n    /* \"#utility.yul\":4966:4967   */\n  0x02\n    /* \"#utility.yul\":4958:4964   */\n  dup9\n    /* \"#utility.yul\":4954:4968   */\n  mul\n    /* \"#utility.yul\":4950:4972   */\n  add\n    /* \"#utility.yul\":4944:4948   */\n  dup9\n    /* \"#utility.yul\":4937:4973   */\n  sstore\n    /* \"#utility.yul\":4372:4983   */\n  pop\n  pop\n  pop\n    /* \"#utility.yul\":4335:5222   */\ntag_81:\n  pop\n    /* \"#utility.yul\":3925:5228   */\n  pop\n  pop\n  pop\n    /* \"#utility.yul\":3833:5228   */\n  pop\n  pop\n  jump\t// out\n    /* \"TestSubmissionSystem.sol\":57:8122  contract TestSubmissionSystem {... */\ntag_8:\n  dataSize(sub_0)\n  dup1\n  dataOffset(sub_0)\n  0x00\n  codecopy\n  0x00\n  return\nstop\n\nsub_0: assembly {\n        /* \"TestSubmissionSystem.sol\":57:8122  contract TestSubmissionSystem {... */\n      mstore(0x40, 0x80)\n      callvalue\n      dup1\n      iszero\n      tag_1\n      jumpi\n      0x00\n      dup1\n      revert\n    tag_1:\n      pop\n      jumpi(tag_2, lt(calldatasize, 0x04))\n      shr(0xe0, calldataload(0x00))\n      dup1\n      0xab53c6ad\n      gt\n      tag_16\n      jumpi\n      dup1\n      0xbc9c2d55\n      gt\n      tag_17\n      jumpi\n      dup1\n      0xbc9c2d55\n      eq\n      tag_12\n      jumpi\n      dup1\n      0xc303e541\n      eq\n      tag_13\n      jumpi\n      dup1\n      0xde6db5c7\n      eq\n      tag_14\n      jumpi\n      dup1\n      0xfde08174\n      eq\n      tag_15\n      jumpi\n      jump(tag_2)\n    tag_17:\n      dup1\n      0xab53c6ad\n      eq\n      tag_9\n      jumpi\n      dup1\n      0xb4f30a54\n      eq\n      tag_10\n      jumpi\n      dup1\n      0xb7dfcbee\n      eq\n      tag_11\n      jumpi\n      jump(tag_2)\n    tag_16:\n      dup1\n      0x0890d80c\n      eq\n      tag_3\n      jumpi\n      dup1\n      0x0ab82802\n      eq\n      tag_4\n      jumpi\n      dup1\n      0x1391168d\n      eq\n      tag_5\n      jumpi\n      dup1\n      0x3457d3e2\n      eq\n      tag_6\n      jumpi\n      dup1\n      0x783d57c5\n      eq\n      tag_7\n      jumpi\n      dup1\n      0x7a5b4f59\n      eq\n      tag_8\n      jumpi\n    tag_2:\n      0x00\n      dup1\n      revert\n        /* \"TestSubmissionSystem.sol\":3574:4230  function setMetadata(... */\n    tag_3:\n      tag_18\n      0x04\n      dup1\n      calldatasize\n      sub\n      dup2\n      add\n      swap1\n      tag_19\n      swap2\n      swap1\n      tag_20\n      jump\t// in\n    tag_19:\n      tag_21\n      jump\t// in\n    tag_18:\n      stop\n        /* \"TestSubmissionSystem.sol\":7179:7738  function createCredentialPresentation(string memory selectedDataHash)... */\n    tag_4:\n      tag_22\n      0x04\n      dup1\n      calldatasize\n      sub\n      dup2\n      add\n      swap1\n      tag_23\n      swap2\n      swap1\n      tag_24\n      jump\t// in\n    tag_23:\n      tag_25\n      jump\t// in\n    tag_22:\n      stop\n        /* \"TestSubmissionSystem.sol\":2360:2989  function issueRole(address _user, string memory _role, bytes32 _salaryHash, bytes32 _salary300Hash) public {... */\n    tag_5:\n      tag_26\n      0x04\n      dup1\n      calldatasize\n      sub\n      dup2\n      add\n      swap1\n      tag_27\n      swap2\n      swap1\n      tag_28\n      jump\t// in\n    tag_27:\n      tag_29\n      jump\t// in\n    tag_26:\n      stop\n        /* \"TestSubmissionSystem.sol\":2995:3334  function createDID(string memory _identifier) public {... */\n    tag_6:\n      tag_30\n      0x04\n      dup1\n      calldatasize\n      sub\n      dup2\n      add\n      swap1\n      tag_31\n      swap2\n      swap1\n      tag_24\n      jump\t// in\n    tag_31:\n      tag_32\n      jump\t// in\n    tag_30:\n      stop\n        /* \"TestSubmissionSystem.sol\":7744:8120  function getCredentialPresentation(address user, uint256 index)... */\n    tag_7:\n      tag_33\n      0x04\n      dup1\n      calldatasize\n      sub\n      dup2\n      add\n      swap1\n      tag_34\n      swap2\n      swap1\n      tag_35\n      jump\t// in\n    tag_34:\n      tag_36\n      jump\t// in\n    tag_33:\n      mload(0x40)\n      tag_37\n      swap2\n      swap1\n      tag_38\n      jump\t// in\n    tag_37:\n      mload(0x40)\n      dup1\n      swap2\n      sub\n      swap1\n      return\n        /* \"TestSubmissionSystem.sol\":4236:4420  function getMetadata() public view returns (MetaData memory) {... */\n    tag_8:\n      tag_39\n      tag_40\n      jump\t// in\n    tag_39:\n      mload(0x40)\n      tag_41\n      swap2\n      swap1\n      tag_42\n      jump\t// in\n    tag_41:\n      mload(0x40)\n      dup1\n      swap2\n      sub\n      swap1\n      return\n        /* \"TestSubmissionSystem.sol\":4736:5761  function verifyRole(... */\n    tag_9:\n      tag_43\n      0x04\n      dup1\n      calldatasize\n      sub\n      dup2\n      add\n      swap1\n      tag_44\n      swap2\n      swap1\n      tag_45\n      jump\t// in\n    tag_44:\n      tag_46\n      jump\t// in\n    tag_43:\n      mload(0x40)\n      tag_47\n      swap2\n      swap1\n      tag_48\n      jump\t// in\n    tag_47:\n      mload(0x40)\n      dup1\n      swap2\n      sub\n      swap1\n      return\n        /* \"TestSubmissionSystem.sol\":6285:6890  function gradeTest(... */\n    tag_10:\n      tag_49\n      0x04\n      dup1\n      calldatasize\n      sub\n      dup2\n      add\n      swap1\n      tag_50\n      swap2\n      swap1\n      tag_51\n      jump\t// in\n    tag_50:\n      tag_52\n      jump\t// in\n    tag_49:\n      stop\n        /* \"TestSubmissionSystem.sol\":2028:2354  function assignRole(address _user, string memory _role) public {... */\n    tag_11:\n      tag_53\n      0x04\n      dup1\n      calldatasize\n      sub\n      dup2\n      add\n      swap1\n      tag_54\n      swap2\n      swap1\n      tag_55\n      jump\t// in\n    tag_54:\n      tag_56\n      jump\t// in\n    tag_53:\n      stop\n        /* \"TestSubmissionSystem.sol\":3340:3568  function getDID() public view returns (string memory) {... */\n    tag_12:\n      tag_57\n      tag_58\n      jump\t// in\n    tag_57:\n      mload(0x40)\n      tag_59\n      swap2\n      swap1\n      tag_60\n      jump\t// in\n    tag_59:\n      mload(0x40)\n      dup1\n      swap2\n      sub\n      swap1\n      return\n        /* \"TestSubmissionSystem.sol\":5767:6279  function submitTest(string memory answersHash) public {... */\n    tag_13:\n      tag_61\n      0x04\n      dup1\n      calldatasize\n      sub\n      dup2\n      add\n      swap1\n      tag_62\n      swap2\n      swap1\n      tag_24\n      jump\t// in\n    tag_62:\n      tag_63\n      jump\t// in\n    tag_61:\n      stop\n        /* \"TestSubmissionSystem.sol\":6896:7173  function getTestSubmissions()... */\n    tag_14:\n      tag_64\n      tag_65\n      jump\t// in\n    tag_64:\n      mload(0x40)\n      tag_66\n      swap2\n      swap1\n      tag_67\n      jump\t// in\n    tag_66:\n      mload(0x40)\n      dup1\n      swap2\n      sub\n      swap1\n      return\n        /* \"TestSubmissionSystem.sol\":4426:4730  function getRole() public view returns (string[] memory) {... */\n    tag_15:\n      tag_68\n      tag_69\n      jump\t// in\n    tag_68:\n      mload(0x40)\n      tag_70\n      swap2\n      swap1\n      tag_71\n      jump\t// in\n    tag_70:\n      mload(0x40)\n      dup1\n      swap2\n      sub\n      swap1\n      return\n        /* \"TestSubmissionSystem.sol\":3574:4230  function setMetadata(... */\n    tag_21:\n        /* \"TestSubmissionSystem.sol\":3768:3769  0 */\n      0x00\n        /* \"TestSubmissionSystem.sol\":3734:3770  dids[msg.sender].owner != address(0) */\n      0xffffffffffffffffffffffffffffffffffffffff\n      and\n        /* \"TestSubmissionSystem.sol\":3734:3738  dids */\n      0x00\n        /* \"TestSubmissionSystem.sol\":3734:3750  dids[msg.sender] */\n      dup1\n        /* \"TestSubmissionSystem.sol\":3739:3749  msg.sender */\n      caller\n        /* \"TestSubmissionSystem.sol\":3734:3750  dids[msg.sender] */\n      0xffffffffffffffffffffffffffffffffffffffff\n      and\n      0xffffffffffffffffffffffffffffffffffffffff\n      and\n      dup2\n      mstore\n      0x20\n      add\n      swap1\n      dup2\n      mstore\n      0x20\n      add\n      0x00\n      keccak256\n        /* \"TestSubmissionSystem.sol\":3734:3756  dids[msg.sender].owner */\n      0x01\n      add\n      0x00\n      swap1\n      sload\n      swap1\n      0x0100\n      exp\n      swap1\n      div\n      0xffffffffffffffffffffffffffffffffffffffff\n      and\n        /* \"TestSubmissionSystem.sol\":3734:3770  dids[msg.sender].owner != address(0) */\n      0xffffffffffffffffffffffffffffffffffffffff\n      and\n      sub\n        /* \"TestSubmissionSystem.sol\":3713:3825  require(... */\n      tag_73\n      jumpi\n      mload(0x40)\n      0x08c379a000000000000000000000000000000000000000000000000000000000\n      dup2\n      mstore\n      0x04\n      add\n      tag_74\n      swap1\n      tag_75\n      jump\t// in\n    tag_74:\n      mload(0x40)\n      dup1\n      swap2\n      sub\n      swap1\n      revert\n    tag_73:\n        /* \"TestSubmissionSystem.sol\":3864:3865  0 */\n      0x00\n        /* \"TestSubmissionSystem.sol\":3849:3853  name */\n      dup4\n        /* \"TestSubmissionSystem.sol\":3843:3861  bytes(name).length */\n      mload\n        /* \"TestSubmissionSystem.sol\":3843:3865  bytes(name).length > 0 */\n      gt\n        /* \"TestSubmissionSystem.sol\":3835:3890  require(bytes(name).length > 0, \"Name cannot be empty\") */\n      tag_76\n      jumpi\n      mload(0x40)\n      0x08c379a000000000000000000000000000000000000000000000000000000000\n      dup2\n      mstore\n      0x04\n      add\n      tag_77\n      swap1\n      tag_78\n      jump\t// in\n    tag_77:\n      mload(0x40)\n      dup1\n      swap2\n      sub\n      swap1\n      revert\n    tag_76:\n        /* \"TestSubmissionSystem.sol\":3930:3931  0 */\n      0x00\n        /* \"TestSubmissionSystem.sol\":3914:3919  email */\n      dup3\n        /* \"TestSubmissionSystem.sol\":3908:3927  bytes(email).length */\n      mload\n        /* \"TestSubmissionSystem.sol\":3908:3931  bytes(email).length > 0 */\n      gt\n        /* \"TestSubmissionSystem.sol\":3900:3957  require(bytes(email).length > 0, \"Email cannot be empty\") */\n      tag_79\n      jumpi\n      mload(0x40)\n      0x08c379a000000000000000000000000000000000000000000000000000000000\n      dup2\n      mstore\n      0x04\n      add\n      tag_80\n      swap1\n      tag_81\n      jump\t// in\n    tag_80:\n      mload(0x40)\n      dup1\n      swap2\n      sub\n      swap1\n      revert\n    tag_79:\n        /* \"TestSubmissionSystem.sol\":4019:4020  0 */\n      0x00\n        /* \"TestSubmissionSystem.sol\":3994:4008  profilePicture */\n      dup2\n        /* \"TestSubmissionSystem.sol\":3988:4016  bytes(profilePicture).length */\n      mload\n        /* \"TestSubmissionSystem.sol\":3988:4020  bytes(profilePicture).length > 0 */\n      gt\n        /* \"TestSubmissionSystem.sol\":3967:4077  require(... */\n      tag_82\n      jumpi\n      mload(0x40)\n      0x08c379a000000000000000000000000000000000000000000000000000000000\n      dup2\n      mstore\n      0x04\n      add\n      tag_83\n      swap1\n      tag_84\n      jump\t// in\n    tag_83:\n      mload(0x40)\n      dup1\n      swap2\n      sub\n      swap1\n      revert\n    tag_82:\n        /* \"TestSubmissionSystem.sol\":4112:4155  MetaData(name, email, profilePicture, 0, 0) */\n      mload(0x40)\n      dup1\n      0xa0\n      add\n      0x40\n      mstore\n      dup1\n        /* \"TestSubmissionSystem.sol\":4121:4125  name */\n      dup5\n        /* \"TestSubmissionSystem.sol\":4112:4155  MetaData(name, email, profilePicture, 0, 0) */\n      dup2\n      mstore\n      0x20\n      add\n        /* \"TestSubmissionSystem.sol\":4127:4132  email */\n      dup4\n        /* \"TestSubmissionSystem.sol\":4112:4155  MetaData(name, email, profilePicture, 0, 0) */\n      dup2\n      mstore\n      0x20\n      add\n        /* \"TestSubmissionSystem.sol\":4134:4148  profilePicture */\n      dup3\n        /* \"TestSubmissionSystem.sol\":4112:4155  MetaData(name, email, profilePicture, 0, 0) */\n      dup2\n      mstore\n      0x20\n      add\n        /* \"TestSubmissionSystem.sol\":4150:4151  0 */\n      0x00\n        /* \"TestSubmissionSystem.sol\":4112:4155  MetaData(name, email, profilePicture, 0, 0) */\n      dup2\n      mstore\n      0x20\n      add\n        /* \"TestSubmissionSystem.sol\":4153:4154  0 */\n      0x00\n        /* \"TestSubmissionSystem.sol\":4112:4155  MetaData(name, email, profilePicture, 0, 0) */\n      dup2\n      mstore\n      pop\n        /* \"TestSubmissionSystem.sol\":4088:4097  metadatas */\n      0x03\n        /* \"TestSubmissionSystem.sol\":4088:4109  metadatas[msg.sender] */\n      0x00\n        /* \"TestSubmissionSystem.sol\":4098:4108  msg.sender */\n      caller\n        /* \"TestSubmissionSystem.sol\":4088:4109  metadatas[msg.sender] */\n      0xffffffffffffffffffffffffffffffffffffffff\n      and\n      0xffffffffffffffffffffffffffffffffffffffff\n      and\n      dup2\n      mstore\n      0x20\n      add\n      swap1\n      dup2\n      mstore\n      0x20\n      add\n      0x00\n      keccak256\n        /* \"TestSubmissionSystem.sol\":4088:4155  metadatas[msg.sender] = MetaData(name, email, profilePicture, 0, 0) */\n      0x00\n      dup3\n      add\n      mload\n      dup2\n      0x00\n      add\n      swap1\n      dup2\n      tag_85\n      swap2\n      swap1\n      tag_86\n      jump\t// in\n    tag_85:\n      pop\n      0x20\n      dup3\n      add\n      mload\n      dup2\n      0x01\n      add\n      swap1\n      dup2\n      tag_87\n      swap2\n      swap1\n      tag_86\n      jump\t// in\n    tag_87:\n      pop\n      0x40\n      dup3\n      add\n      mload\n      dup2\n      0x02\n      add\n      swap1\n      dup2\n      tag_88\n      swap2\n      swap1\n      tag_86\n      jump\t// in\n    tag_88:\n      pop\n      0x60\n      dup3\n      add\n      mload\n      dup2\n      0x03\n      add\n      sstore\n      0x80\n      dup3\n      add\n      mload\n      dup2\n      0x04\n      add\n      sstore\n      swap1\n      pop\n      pop\n        /* \"TestSubmissionSystem.sol\":4183:4193  msg.sender */\n      caller\n        /* \"TestSubmissionSystem.sol\":4171:4223  SetMetaData(msg.sender, name, email, profilePicture) */\n      0xffffffffffffffffffffffffffffffffffffffff\n      and\n      0x65d0ee13464c98c4cc59b1e8669c3b1e26d6ccc62ec1811070773f0c7903df2f\n        /* \"TestSubmissionSystem.sol\":4195:4199  name */\n      dup5\n        /* \"TestSubmissionSystem.sol\":4201:4206  email */\n      dup5\n        /* \"TestSubmissionSystem.sol\":4208:4222  profilePicture */\n      dup5\n        /* \"TestSubmissionSystem.sol\":4171:4223  SetMetaData(msg.sender, name, email, profilePicture) */\n      mload(0x40)\n      tag_89\n      swap4\n      swap3\n      swap2\n      swap1\n      tag_90\n      jump\t// in\n    tag_89:\n      mload(0x40)\n      dup1\n      swap2\n      sub\n      swap1\n      log2\n        /* \"TestSubmissionSystem.sol\":3574:4230  function setMetadata(... */\n      pop\n      pop\n      pop\n      jump\t// out\n        /* \"TestSubmissionSystem.sol\":7179:7738  function createCredentialPresentation(string memory selectedDataHash)... */\n    tag_25:\n        /* \"TestSubmissionSystem.sol\":7333:7334  0 */\n      0x00\n        /* \"TestSubmissionSystem.sol\":7299:7335  dids[msg.sender].owner != address(0) */\n      0xffffffffffffffffffffffffffffffffffffffff\n      and\n        /* \"TestSubmissionSystem.sol\":7299:7303  dids */\n      0x00\n        /* \"TestSubmissionSystem.sol\":7299:7315  dids[msg.sender] */\n      dup1\n        /* \"TestSubmissionSystem.sol\":7304:7314  msg.sender */\n      caller\n        /* \"TestSubmissionSystem.sol\":7299:7315  dids[msg.sender] */\n      0xffffffffffffffffffffffffffffffffffffffff\n      and\n      0xffffffffffffffffffffffffffffffffffffffff\n      and\n      dup2\n      mstore\n      0x20\n      add\n      swap1\n      dup2\n      mstore\n      0x20\n      add\n      0x00\n      keccak256\n        /* \"TestSubmissionSystem.sol\":7299:7321  dids[msg.sender].owner */\n      0x01\n      add\n      0x00\n      swap1\n      sload\n      swap1\n      0x0100\n      exp\n      swap1\n      div\n      0xffffffffffffffffffffffffffffffffffffffff\n      and\n        /* \"TestSubmissionSystem.sol\":7299:7335  dids[msg.sender].owner != address(0) */\n      0xffffffffffffffffffffffffffffffffffffffff\n      and\n      sub\n        /* \"TestSubmissionSystem.sol\":7278:7390  require(... */\n      tag_92\n      jumpi\n      mload(0x40)\n      0x08c379a000000000000000000000000000000000000000000000000000000000\n      dup2\n      mstore\n      0x04\n      add\n      tag_93\n      swap1\n      tag_75\n      jump\t// in\n    tag_93:\n      mload(0x40)\n      dup1\n      swap2\n      sub\n      swap1\n      revert\n    tag_92:\n        /* \"TestSubmissionSystem.sol\":7454:7455  0 */\n      0x00\n        /* \"TestSubmissionSystem.sol\":7427:7443  selectedDataHash */\n      dup2\n        /* \"TestSubmissionSystem.sol\":7421:7451  bytes(selectedDataHash).length */\n      mload\n        /* \"TestSubmissionSystem.sol\":7421:7455  bytes(selectedDataHash).length > 0 */\n      gt\n        /* \"TestSubmissionSystem.sol\":7400:7515  require(... */\n      tag_94\n      jumpi\n      mload(0x40)\n      0x08c379a000000000000000000000000000000000000000000000000000000000\n      dup2\n      mstore\n      0x04\n      add\n      tag_95\n      swap1\n      tag_96\n      jump\t// in\n    tag_95:\n      mload(0x40)\n      dup1\n      swap2\n      sub\n      swap1\n      revert\n    tag_94:\n        /* \"TestSubmissionSystem.sol\":7526:7550  bytes32 presentationHash */\n      0x00\n        /* \"TestSubmissionSystem.sol\":7593:7603  msg.sender */\n      caller\n        /* \"TestSubmissionSystem.sol\":7605:7621  selectedDataHash */\n      dup3\n        /* \"TestSubmissionSystem.sol\":7623:7638  block.timestamp */\n      timestamp\n        /* \"TestSubmissionSystem.sol\":7576:7639  abi.encodePacked(msg.sender, selectedDataHash, block.timestamp) */\n      add(0x20, mload(0x40))\n      tag_97\n      swap4\n      swap3\n      swap2\n      swap1\n      tag_98\n      jump\t// in\n    tag_97:\n      mload(0x40)\n      0x20\n      dup2\n      dup4\n      sub\n      sub\n      dup2\n      mstore\n      swap1\n      0x40\n      mstore\n        /* \"TestSubmissionSystem.sol\":7553:7649  keccak256(... */\n      dup1\n      mload\n      swap1\n      0x20\n      add\n      keccak256\n        /* \"TestSubmissionSystem.sol\":7526:7649  bytes32 presentationHash = keccak256(... */\n      swap1\n      pop\n        /* \"TestSubmissionSystem.sol\":7685:7695  msg.sender */\n      caller\n        /* \"TestSubmissionSystem.sol\":7665:7731  CredentialPresented(msg.sender, presentationHash, block.timestamp) */\n      0xffffffffffffffffffffffffffffffffffffffff\n      and\n      0x5aeb6b13fc088ddbcc5740322767a110f7a1eb4071351d627c61c5e37edae83d\n        /* \"TestSubmissionSystem.sol\":7697:7713  presentationHash */\n      dup3\n        /* \"TestSubmissionSystem.sol\":7715:7730  block.timestamp */\n      timestamp\n        /* \"TestSubmissionSystem.sol\":7665:7731  CredentialPresented(msg.sender, presentationHash, block.timestamp) */\n      mload(0x40)\n      tag_99\n      swap3\n      swap2\n      swap1\n      tag_100\n      jump\t// in\n    tag_99:\n      mload(0x40)\n      dup1\n      swap2\n      sub\n      swap1\n      log2\n        /* \"TestSubmissionSystem.sol\":7268:7738  {... */\n      pop\n        /* \"TestSubmissionSystem.sol\":7179:7738  function createCredentialPresentation(string memory selectedDataHash)... */\n      pop\n      jump\t// out\n        /* \"TestSubmissionSystem.sol\":2360:2989  function issueRole(address _user, string memory _role, bytes32 _salaryHash, bytes32 _salary300Hash) public {... */\n    tag_29:\n        /* \"TestSubmissionSystem.sol\":2519:2520  0 */\n      0x00\n        /* \"TestSubmissionSystem.sol\":2485:2521  dids[msg.sender].owner != address(0) */\n      0xffffffffffffffffffffffffffffffffffffffff\n      and\n        /* \"TestSubmissionSystem.sol\":2485:2489  dids */\n      0x00\n        /* \"TestSubmissionSystem.sol\":2485:2501  dids[msg.sender] */\n      dup1\n        /* \"TestSubmissionSystem.sol\":2490:2500  msg.sender */\n      caller\n        /* \"TestSubmissionSystem.sol\":2485:2501  dids[msg.sender] */\n      0xffffffffffffffffffffffffffffffffffffffff\n      and\n      0xffffffffffffffffffffffffffffffffffffffff\n      and\n      dup2\n      mstore\n      0x20\n      add\n      swap1\n      dup2\n      mstore\n      0x20\n      add\n      0x00\n      keccak256\n        /* \"TestSubmissionSystem.sol\":2485:2507  dids[msg.sender].owner */\n      0x01\n      add\n      0x00\n      swap1\n      sload\n      swap1\n      0x0100\n      exp\n      swap1\n      div\n      0xffffffffffffffffffffffffffffffffffffffff\n      and\n        /* \"TestSubmissionSystem.sol\":2485:2521  dids[msg.sender].owner != address(0) */\n      0xffffffffffffffffffffffffffffffffffffffff\n      and\n      sub\n        /* \"TestSubmissionSystem.sol\":2477:2548  require(dids[msg.sender].owner != address(0), \"Issuer must have a DID\") */\n      tag_102\n      jumpi\n      mload(0x40)\n      0x08c379a000000000000000000000000000000000000000000000000000000000\n      dup2\n      mstore\n      0x04\n      add\n      tag_103\n      swap1\n      tag_104\n      jump\t// in\n    tag_103:\n      mload(0x40)\n      dup1\n      swap2\n      sub\n      swap1\n      revert\n    tag_102:\n        /* \"TestSubmissionSystem.sol\":2588:2589  0 */\n      0x00\n        /* \"TestSubmissionSystem.sol\":2572:2577  _role */\n      dup4\n        /* \"TestSubmissionSystem.sol\":2566:2585  bytes(_role).length */\n      mload\n        /* \"TestSubmissionSystem.sol\":2566:2589  bytes(_role).length > 0 */\n      gt\n        /* \"TestSubmissionSystem.sol\":2558:2614  require(bytes(_role).length > 0, \"Role cannot be empty\") */\n      tag_105\n      jumpi\n      mload(0x40)\n      0x08c379a000000000000000000000000000000000000000000000000000000000\n      dup2\n      mstore\n      0x04\n      add\n      tag_106\n      swap1\n      tag_107\n      jump\t// in\n    tag_106:\n      mload(0x40)\n      dup1\n      swap2\n      sub\n      swap1\n      revert\n    tag_105:\n        /* \"TestSubmissionSystem.sol\":2625:2641  bytes32 roleHash */\n      0x00\n        /* \"TestSubmissionSystem.sol\":2684:2694  msg.sender */\n      caller\n        /* \"TestSubmissionSystem.sol\":2696:2701  _user */\n      dup6\n        /* \"TestSubmissionSystem.sol\":2703:2708  _role */\n      dup6\n        /* \"TestSubmissionSystem.sol\":2710:2725  block.timestamp */\n      timestamp\n        /* \"TestSubmissionSystem.sol\":2667:2726  abi.encodePacked(msg.sender, _user, _role, block.timestamp) */\n      add(0x20, mload(0x40))\n      tag_108\n      swap5\n      swap4\n      swap3\n      swap2\n      swap1\n      tag_109\n      jump\t// in\n    tag_108:\n      mload(0x40)\n      0x20\n      dup2\n      dup4\n      sub\n      sub\n      dup2\n      mstore\n      swap1\n      0x40\n      mstore\n        /* \"TestSubmissionSystem.sol\":2644:2736  keccak256(... */\n      dup1\n      mload\n      swap1\n      0x20\n      add\n      keccak256\n        /* \"TestSubmissionSystem.sol\":2625:2736  bytes32 roleHash = keccak256(... */\n      swap1\n      pop\n        /* \"TestSubmissionSystem.sol\":2747:2758  credentials */\n      0x04\n        /* \"TestSubmissionSystem.sol\":2747:2765  credentials[_user] */\n      0x00\n        /* \"TestSubmissionSystem.sol\":2759:2764  _user */\n      dup7\n        /* \"TestSubmissionSystem.sol\":2747:2765  credentials[_user] */\n      0xffffffffffffffffffffffffffffffffffffffff\n      and\n      0xffffffffffffffffffffffffffffffffffffffff\n      and\n      dup2\n      mstore\n      0x20\n      add\n      swap1\n      dup2\n      mstore\n      0x20\n      add\n      0x00\n      keccak256\n        /* \"TestSubmissionSystem.sol\":2784:2869  Credential(msg.sender, _role, block.timestamp, roleHash, _salaryHash, _salary300Hash) */\n      mload(0x40)\n      dup1\n      0xc0\n      add\n      0x40\n      mstore\n      dup1\n        /* \"TestSubmissionSystem.sol\":2795:2805  msg.sender */\n      caller\n        /* \"TestSubmissionSystem.sol\":2784:2869  Credential(msg.sender, _role, block.timestamp, roleHash, _salaryHash, _salary300Hash) */\n      0xffffffffffffffffffffffffffffffffffffffff\n      and\n      dup2\n      mstore\n      0x20\n      add\n        /* \"TestSubmissionSystem.sol\":2807:2812  _role */\n      dup7\n        /* \"TestSubmissionSystem.sol\":2784:2869  Credential(msg.sender, _role, block.timestamp, roleHash, _salaryHash, _salary300Hash) */\n      dup2\n      mstore\n      0x20\n      add\n        /* \"TestSubmissionSystem.sol\":2814:2829  block.timestamp */\n      timestamp\n        /* \"TestSubmissionSystem.sol\":2784:2869  Credential(msg.sender, _role, block.timestamp, roleHash, _salaryHash, _salary300Hash) */\n      dup2\n      mstore\n      0x20\n      add\n        /* \"TestSubmissionSystem.sol\":2831:2839  roleHash */\n      dup4\n        /* \"TestSubmissionSystem.sol\":2784:2869  Credential(msg.sender, _role, block.timestamp, roleHash, _salaryHash, _salary300Hash) */\n      dup2\n      mstore\n      0x20\n      add\n        /* \"TestSubmissionSystem.sol\":2841:2852  _salaryHash */\n      dup6\n        /* \"TestSubmissionSystem.sol\":2784:2869  Credential(msg.sender, _role, block.timestamp, roleHash, _salaryHash, _salary300Hash) */\n      dup2\n      mstore\n      0x20\n      add\n        /* \"TestSubmissionSystem.sol\":2854:2868  _salary300Hash */\n      dup5\n        /* \"TestSubmissionSystem.sol\":2784:2869  Credential(msg.sender, _role, block.timestamp, roleHash, _salaryHash, _salary300Hash) */\n      dup2\n      mstore\n      pop\n        /* \"TestSubmissionSystem.sol\":2747:2879  credentials[_user].push(... */\n      swap1\n      dup1\n      0x01\n      dup2\n      sload\n      add\n      dup1\n      dup3\n      sstore\n      dup1\n      swap2\n      pop\n      pop\n      0x01\n      swap1\n      sub\n      swap1\n      0x00\n      mstore\n      keccak256(0x00, 0x20)\n      swap1\n      0x06\n      mul\n      add\n      0x00\n      swap1\n      swap2\n      swap1\n      swap2\n      swap1\n      swap2\n      pop\n      0x00\n      dup3\n      add\n      mload\n      dup2\n      0x00\n      add\n      exp(0x0100, 0x00)\n      dup2\n      sload\n      dup2\n      0xffffffffffffffffffffffffffffffffffffffff\n      mul\n      not\n      and\n      swap1\n      dup4\n      0xffffffffffffffffffffffffffffffffffffffff\n      and\n      mul\n      or\n      swap1\n      sstore\n      pop\n      0x20\n      dup3\n      add\n      mload\n      dup2\n      0x01\n      add\n      swap1\n      dup2\n      tag_111\n      swap2\n      swap1\n      tag_86\n      jump\t// in\n    tag_111:\n      pop\n      0x40\n      dup3\n      add\n      mload\n      dup2\n      0x02\n      add\n      sstore\n      0x60\n      dup3\n      add\n      mload\n      dup2\n      0x03\n      add\n      sstore\n      0x80\n      dup3\n      add\n      mload\n      dup2\n      0x04\n      add\n      sstore\n      0xa0\n      dup3\n      add\n      mload\n      dup2\n      0x05\n      add\n      sstore\n      pop\n      pop\n        /* \"TestSubmissionSystem.sol\":2890:2901  roleHistory */\n      0x02\n        /* \"TestSubmissionSystem.sol\":2890:2908  roleHistory[_user] */\n      0x00\n        /* \"TestSubmissionSystem.sol\":2902:2907  _user */\n      dup7\n        /* \"TestSubmissionSystem.sol\":2890:2908  roleHistory[_user] */\n      0xffffffffffffffffffffffffffffffffffffffff\n      and\n      0xffffffffffffffffffffffffffffffffffffffff\n      and\n      dup2\n      mstore\n      0x20\n      add\n      swap1\n      dup2\n      mstore\n      0x20\n      add\n      0x00\n      keccak256\n        /* \"TestSubmissionSystem.sol\":2914:2919  _role */\n      dup5\n        /* \"TestSubmissionSystem.sol\":2890:2920  roleHistory[_user].push(_role) */\n      swap1\n      dup1\n      0x01\n      dup2\n      sload\n      add\n      dup1\n      dup3\n      sstore\n      dup1\n      swap2\n      pop\n      pop\n      0x01\n      swap1\n      sub\n      swap1\n      0x00\n      mstore\n      keccak256(0x00, 0x20)\n      add\n      0x00\n      swap1\n      swap2\n      swap1\n      swap2\n      swap1\n      swap2\n      pop\n      swap1\n      dup2\n      tag_113\n      swap2\n      swap1\n      tag_86\n      jump\t// in\n    tag_113:\n      pop\n        /* \"TestSubmissionSystem.sol\":2947:2957  msg.sender */\n      caller\n        /* \"TestSubmissionSystem.sol\":2936:2982  RoleIssued(msg.sender, _user, _role, roleHash) */\n      0xffffffffffffffffffffffffffffffffffffffff\n      and\n      0xf4313cb022699889c6eddb590e42342301cdae4824fd424ffdfdeb23d4cdbbe9\n        /* \"TestSubmissionSystem.sol\":2959:2964  _user */\n      dup7\n        /* \"TestSubmissionSystem.sol\":2966:2971  _role */\n      dup7\n        /* \"TestSubmissionSystem.sol\":2973:2981  roleHash */\n      dup5\n        /* \"TestSubmissionSystem.sol\":2936:2982  RoleIssued(msg.sender, _user, _role, roleHash) */\n      mload(0x40)\n      tag_114\n      swap4\n      swap3\n      swap2\n      swap1\n      tag_115\n      jump\t// in\n    tag_114:\n      mload(0x40)\n      dup1\n      swap2\n      sub\n      swap1\n      log2\n        /* \"TestSubmissionSystem.sol\":2467:2989  {... */\n      pop\n        /* \"TestSubmissionSystem.sol\":2360:2989  function issueRole(address _user, string memory _role, bytes32 _salaryHash, bytes32 _salary300Hash) public {... */\n      pop\n      pop\n      pop\n      pop\n      jump\t// out\n        /* \"TestSubmissionSystem.sol\":2995:3334  function createDID(string memory _identifier) public {... */\n    tag_32:\n        /* \"TestSubmissionSystem.sol\":3094:3095  0 */\n      0x00\n        /* \"TestSubmissionSystem.sol\":3072:3083  _identifier */\n      dup2\n        /* \"TestSubmissionSystem.sol\":3066:3091  bytes(_identifier).length */\n      mload\n        /* \"TestSubmissionSystem.sol\":3066:3095  bytes(_identifier).length > 0 */\n      gt\n        /* \"TestSubmissionSystem.sol\":3058:3126  require(bytes(_identifier).length > 0, \"Identifier cannot be empty\") */\n      tag_117\n      jumpi\n      mload(0x40)\n      0x08c379a000000000000000000000000000000000000000000000000000000000\n      dup2\n      mstore\n      0x04\n      add\n      tag_118\n      swap1\n      tag_119\n      jump\t// in\n    tag_118:\n      mload(0x40)\n      dup1\n      swap2\n      sub\n      swap1\n      revert\n    tag_117:\n        /* \"TestSubmissionSystem.sol\":3178:3179  0 */\n      0x00\n        /* \"TestSubmissionSystem.sol\":3144:3180  dids[msg.sender].owner == address(0) */\n      0xffffffffffffffffffffffffffffffffffffffff\n      and\n        /* \"TestSubmissionSystem.sol\":3144:3148  dids */\n      0x00\n        /* \"TestSubmissionSystem.sol\":3144:3160  dids[msg.sender] */\n      dup1\n        /* \"TestSubmissionSystem.sol\":3149:3159  msg.sender */\n      caller\n        /* \"TestSubmissionSystem.sol\":3144:3160  dids[msg.sender] */\n      0xffffffffffffffffffffffffffffffffffffffff\n      and\n      0xffffffffffffffffffffffffffffffffffffffff\n      and\n      dup2\n      mstore\n      0x20\n      add\n      swap1\n      dup2\n      mstore\n      0x20\n      add\n      0x00\n      keccak256\n        /* \"TestSubmissionSystem.sol\":3144:3166  dids[msg.sender].owner */\n      0x01\n      add\n      0x00\n      swap1\n      sload\n      swap1\n      0x0100\n      exp\n      swap1\n      div\n      0xffffffffffffffffffffffffffffffffffffffff\n      and\n        /* \"TestSubmissionSystem.sol\":3144:3180  dids[msg.sender].owner == address(0) */\n      0xffffffffffffffffffffffffffffffffffffffff\n      and\n      eq\n        /* \"TestSubmissionSystem.sol\":3136:3203  require(dids[msg.sender].owner == address(0), \"DID already exists\") */\n      tag_120\n      jumpi\n      mload(0x40)\n      0x08c379a000000000000000000000000000000000000000000000000000000000\n      dup2\n      mstore\n      0x04\n      add\n      tag_121\n      swap1\n      tag_122\n      jump\t// in\n    tag_121:\n      mload(0x40)\n      dup1\n      swap2\n      sub\n      swap1\n      revert\n    tag_120:\n        /* \"TestSubmissionSystem.sol\":3232:3277  DID(_identifier, msg.sender, block.timestamp) */\n      mload(0x40)\n      dup1\n      0x60\n      add\n      0x40\n      mstore\n      dup1\n        /* \"TestSubmissionSystem.sol\":3236:3247  _identifier */\n      dup3\n        /* \"TestSubmissionSystem.sol\":3232:3277  DID(_identifier, msg.sender, block.timestamp) */\n      dup2\n      mstore\n      0x20\n      add\n        /* \"TestSubmissionSystem.sol\":3249:3259  msg.sender */\n      caller\n        /* \"TestSubmissionSystem.sol\":3232:3277  DID(_identifier, msg.sender, block.timestamp) */\n      0xffffffffffffffffffffffffffffffffffffffff\n      and\n      dup2\n      mstore\n      0x20\n      add\n        /* \"TestSubmissionSystem.sol\":3261:3276  block.timestamp */\n      timestamp\n        /* \"TestSubmissionSystem.sol\":3232:3277  DID(_identifier, msg.sender, block.timestamp) */\n      dup2\n      mstore\n      pop\n        /* \"TestSubmissionSystem.sol\":3213:3217  dids */\n      0x00\n        /* \"TestSubmissionSystem.sol\":3213:3229  dids[msg.sender] */\n      dup1\n        /* \"TestSubmissionSystem.sol\":3218:3228  msg.sender */\n      caller\n        /* \"TestSubmissionSystem.sol\":3213:3229  dids[msg.sender] */\n      0xffffffffffffffffffffffffffffffffffffffff\n      and\n      0xffffffffffffffffffffffffffffffffffffffff\n      and\n      dup2\n      mstore\n      0x20\n      add\n      swap1\n      dup2\n      mstore\n      0x20\n      add\n      0x00\n      keccak256\n        /* \"TestSubmissionSystem.sol\":3213:3277  dids[msg.sender] = DID(_identifier, msg.sender, block.timestamp) */\n      0x00\n      dup3\n      add\n      mload\n      dup2\n      0x00\n      add\n      swap1\n      dup2\n      tag_123\n      swap2\n      swap1\n      tag_86\n      jump\t// in\n    tag_123:\n      pop\n      0x20\n      dup3\n      add\n      mload\n      dup2\n      0x01\n      add\n      exp(0x0100, 0x00)\n      dup2\n      sload\n      dup2\n      0xffffffffffffffffffffffffffffffffffffffff\n      mul\n      not\n      and\n      swap1\n      dup4\n      0xffffffffffffffffffffffffffffffffffffffff\n      and\n      mul\n      or\n      swap1\n      sstore\n      pop\n      0x40\n      dup3\n      add\n      mload\n      dup2\n      0x02\n      add\n      sstore\n      swap1\n      pop\n      pop\n        /* \"TestSubmissionSystem.sol\":3303:3313  msg.sender */\n      caller\n        /* \"TestSubmissionSystem.sol\":3292:3327  DIDCreated(msg.sender, _identifier) */\n      0xffffffffffffffffffffffffffffffffffffffff\n      and\n      0x1b7934654ba536b6962955e057ce42885353bbaad8c605a5ce0678e632f28410\n        /* \"TestSubmissionSystem.sol\":3315:3326  _identifier */\n      dup3\n        /* \"TestSubmissionSystem.sol\":3292:3327  DIDCreated(msg.sender, _identifier) */\n      mload(0x40)\n      tag_124\n      swap2\n      swap1\n      tag_60\n      jump\t// in\n    tag_124:\n      mload(0x40)\n      dup1\n      swap2\n      sub\n      swap1\n      log2\n        /* \"TestSubmissionSystem.sol\":2995:3334  function createDID(string memory _identifier) public {... */\n      pop\n      jump\t// out\n        /* \"TestSubmissionSystem.sol\":7744:8120  function getCredentialPresentation(address user, uint256 index)... */\n    tag_36:\n        /* \"TestSubmissionSystem.sol\":7853:7870  Credential memory */\n      tag_125\n      tag_126\n      jump\t// in\n    tag_125:\n        /* \"TestSubmissionSystem.sol\":7935:7936  0 */\n      0x00\n        /* \"TestSubmissionSystem.sol\":7907:7937  dids[user].owner != address(0) */\n      0xffffffffffffffffffffffffffffffffffffffff\n      and\n        /* \"TestSubmissionSystem.sol\":7907:7911  dids */\n      0x00\n        /* \"TestSubmissionSystem.sol\":7907:7917  dids[user] */\n      dup1\n        /* \"TestSubmissionSystem.sol\":7912:7916  user */\n      dup6\n        /* \"TestSubmissionSystem.sol\":7907:7917  dids[user] */\n      0xffffffffffffffffffffffffffffffffffffffff\n      and\n      0xffffffffffffffffffffffffffffffffffffffff\n      and\n      dup2\n      mstore\n      0x20\n      add\n      swap1\n      dup2\n      mstore\n      0x20\n      add\n      0x00\n      keccak256\n        /* \"TestSubmissionSystem.sol\":7907:7923  dids[user].owner */\n      0x01\n      add\n      0x00\n      swap1\n      sload\n      swap1\n      0x0100\n      exp\n      swap1\n      div\n      0xffffffffffffffffffffffffffffffffffffffff\n      and\n        /* \"TestSubmissionSystem.sol\":7907:7937  dids[user].owner != address(0) */\n      0xffffffffffffffffffffffffffffffffffffffff\n      and\n      sub\n        /* \"TestSubmissionSystem.sol\":7886:7992  require(... */\n      tag_128\n      jumpi\n      mload(0x40)\n      0x08c379a000000000000000000000000000000000000000000000000000000000\n      dup2\n      mstore\n      0x04\n      add\n      tag_129\n      swap1\n      tag_75\n      jump\t// in\n    tag_129:\n      mload(0x40)\n      dup1\n      swap2\n      sub\n      swap1\n      revert\n    tag_128:\n        /* \"TestSubmissionSystem.sol\":8018:8029  credentials */\n      0x04\n        /* \"TestSubmissionSystem.sol\":8018:8035  credentials[user] */\n      0x00\n        /* \"TestSubmissionSystem.sol\":8030:8034  user */\n      dup5\n        /* \"TestSubmissionSystem.sol\":8018:8035  credentials[user] */\n      0xffffffffffffffffffffffffffffffffffffffff\n      and\n      0xffffffffffffffffffffffffffffffffffffffff\n      and\n      dup2\n      mstore\n      0x20\n      add\n      swap1\n      dup2\n      mstore\n      0x20\n      add\n      0x00\n      keccak256\n        /* \"TestSubmissionSystem.sol\":8018:8042  credentials[user].length */\n      dup1\n      sload\n      swap1\n      pop\n        /* \"TestSubmissionSystem.sol\":8010:8015  index */\n      dup3\n        /* \"TestSubmissionSystem.sol\":8010:8042  index < credentials[user].length */\n      lt\n        /* \"TestSubmissionSystem.sol\":8002:8071  require(index < credentials[user].length, \"Invalid credential index\") */\n      tag_130\n      jumpi\n      mload(0x40)\n      0x08c379a000000000000000000000000000000000000000000000000000000000\n      dup2\n      mstore\n      0x04\n      add\n      tag_131\n      swap1\n      tag_132\n      jump\t// in\n    tag_131:\n      mload(0x40)\n      dup1\n      swap2\n      sub\n      swap1\n      revert\n    tag_130:\n        /* \"TestSubmissionSystem.sol\":8089:8100  credentials */\n      0x04\n        /* \"TestSubmissionSystem.sol\":8089:8106  credentials[user] */\n      0x00\n        /* \"TestSubmissionSystem.sol\":8101:8105  user */\n      dup5\n        /* \"TestSubmissionSystem.sol\":8089:8106  credentials[user] */\n      0xffffffffffffffffffffffffffffffffffffffff\n      and\n      0xffffffffffffffffffffffffffffffffffffffff\n      and\n      dup2\n      mstore\n      0x20\n      add\n      swap1\n      dup2\n      mstore\n      0x20\n      add\n      0x00\n      keccak256\n        /* \"TestSubmissionSystem.sol\":8107:8112  index */\n      dup3\n        /* \"TestSubmissionSystem.sol\":8089:8113  credentials[user][index] */\n      dup2\n      sload\n      dup2\n      lt\n      tag_133\n      jumpi\n      tag_134\n      tag_135\n      jump\t// in\n    tag_134:\n    tag_133:\n      swap1\n      0x00\n      mstore\n      keccak256(0x00, 0x20)\n      swap1\n      0x06\n      mul\n      add\n        /* \"TestSubmissionSystem.sol\":8082:8113  return credentials[user][index] */\n      mload(0x40)\n      dup1\n      0xc0\n      add\n      0x40\n      mstore\n      swap1\n      dup2\n      0x00\n      dup3\n      add\n      0x00\n      swap1\n      sload\n      swap1\n      0x0100\n      exp\n      swap1\n      div\n      0xffffffffffffffffffffffffffffffffffffffff\n      and\n      0xffffffffffffffffffffffffffffffffffffffff\n      and\n      0xffffffffffffffffffffffffffffffffffffffff\n      and\n      dup2\n      mstore\n      0x20\n      add\n      0x01\n      dup3\n      add\n      dup1\n      sload\n      tag_137\n      swap1\n      tag_138\n      jump\t// in\n    tag_137:\n      dup1\n      0x1f\n      add\n      0x20\n      dup1\n      swap2\n      div\n      mul\n      0x20\n      add\n      mload(0x40)\n      swap1\n      dup2\n      add\n      0x40\n      mstore\n      dup1\n      swap3\n      swap2\n      swap1\n      dup2\n      dup2\n      mstore\n      0x20\n      add\n      dup3\n      dup1\n      sload\n      tag_139\n      swap1\n      tag_138\n      jump\t// in\n    tag_139:\n      dup1\n      iszero\n      tag_140\n      jumpi\n      dup1\n      0x1f\n      lt\n      tag_141\n      jumpi\n      0x0100\n      dup1\n      dup4\n      sload\n      div\n      mul\n      dup4\n      mstore\n      swap2\n      0x20\n      add\n      swap2\n      jump(tag_140)\n    tag_141:\n      dup3\n      add\n      swap2\n      swap1\n      0x00\n      mstore\n      keccak256(0x00, 0x20)\n      swap1\n    tag_142:\n      dup2\n      sload\n      dup2\n      mstore\n      swap1\n      0x01\n      add\n      swap1\n      0x20\n      add\n      dup1\n      dup4\n      gt\n      tag_142\n      jumpi\n      dup3\n      swap1\n      sub\n      0x1f\n      and\n      dup3\n      add\n      swap2\n    tag_140:\n      pop\n      pop\n      pop\n      pop\n      pop\n      dup2\n      mstore\n      0x20\n      add\n      0x02\n      dup3\n      add\n      sload\n      dup2\n      mstore\n      0x20\n      add\n      0x03\n      dup3\n      add\n      sload\n      dup2\n      mstore\n      0x20\n      add\n      0x04\n      dup3\n      add\n      sload\n      dup2\n      mstore\n      0x20\n      add\n      0x05\n      dup3\n      add\n      sload\n      dup2\n      mstore\n      pop\n      pop\n      swap1\n      pop\n        /* \"TestSubmissionSystem.sol\":7744:8120  function getCredentialPresentation(address user, uint256 index)... */\n      swap3\n      swap2\n      pop\n      pop\n      jump\t// out\n        /* \"TestSubmissionSystem.sol\":4236:4420  function getMetadata() public view returns (MetaData memory) {... */\n    tag_40:\n        /* \"TestSubmissionSystem.sol\":4280:4295  MetaData memory */\n      tag_143\n      tag_144\n      jump\t// in\n    tag_143:\n        /* \"TestSubmissionSystem.sol\":4349:4350  0 */\n      0x00\n        /* \"TestSubmissionSystem.sol\":4315:4351  dids[msg.sender].owner != address(0) */\n      0xffffffffffffffffffffffffffffffffffffffff\n      and\n        /* \"TestSubmissionSystem.sol\":4315:4319  dids */\n      0x00\n        /* \"TestSubmissionSystem.sol\":4315:4331  dids[msg.sender] */\n      dup1\n        /* \"TestSubmissionSystem.sol\":4320:4330  msg.sender */\n      caller\n        /* \"TestSubmissionSystem.sol\":4315:4331  dids[msg.sender] */\n      0xffffffffffffffffffffffffffffffffffffffff\n      and\n      0xffffffffffffffffffffffffffffffffffffffff\n      and\n      dup2\n      mstore\n      0x20\n      add\n      swap1\n      dup2\n      mstore\n      0x20\n      add\n      0x00\n      keccak256\n        /* \"TestSubmissionSystem.sol\":4315:4337  dids[msg.sender].owner */\n      0x01\n      add\n      0x00\n      swap1\n      sload\n      swap1\n      0x0100\n      exp\n      swap1\n      div\n      0xffffffffffffffffffffffffffffffffffffffff\n      and\n        /* \"TestSubmissionSystem.sol\":4315:4351  dids[msg.sender].owner != address(0) */\n      0xffffffffffffffffffffffffffffffffffffffff\n      and\n      sub\n        /* \"TestSubmissionSystem.sol\":4307:4375  require(dids[msg.sender].owner != address(0), \"Data does not exist\") */\n      tag_146\n      jumpi\n      mload(0x40)\n      0x08c379a000000000000000000000000000000000000000000000000000000000\n      dup2\n      mstore\n      0x04\n      add\n      tag_147\n      swap1\n      tag_148\n      jump\t// in\n    tag_147:\n      mload(0x40)\n      dup1\n      swap2\n      sub\n      swap1\n      revert\n    tag_146:\n        /* \"TestSubmissionSystem.sol\":4392:4401  metadatas */\n      0x03\n        /* \"TestSubmissionSystem.sol\":4392:4413  metadatas[msg.sender] */\n      0x00\n        /* \"TestSubmissionSystem.sol\":4402:4412  msg.sender */\n      caller\n        /* \"TestSubmissionSystem.sol\":4392:4413  metadatas[msg.sender] */\n      0xffffffffffffffffffffffffffffffffffffffff\n      and\n      0xffffffffffffffffffffffffffffffffffffffff\n      and\n      dup2\n      mstore\n      0x20\n      add\n      swap1\n      dup2\n      mstore\n      0x20\n      add\n      0x00\n      keccak256\n        /* \"TestSubmissionSystem.sol\":4385:4413  return metadatas[msg.sender] */\n      mload(0x40)\n      dup1\n      0xa0\n      add\n      0x40\n      mstore\n      swap1\n      dup2\n      0x00\n      dup3\n      add\n      dup1\n      sload\n      tag_149\n      swap1\n      tag_138\n      jump\t// in\n    tag_149:\n      dup1\n      0x1f\n      add\n      0x20\n      dup1\n      swap2\n      div\n      mul\n      0x20\n      add\n      mload(0x40)\n      swap1\n      dup2\n      add\n      0x40\n      mstore\n      dup1\n      swap3\n      swap2\n      swap1\n      dup2\n      dup2\n      mstore\n      0x20\n      add\n      dup3\n      dup1\n      sload\n      tag_150\n      swap1\n      tag_138\n      jump\t// in\n    tag_150:\n      dup1\n      iszero\n      tag_151\n      jumpi\n      dup1\n      0x1f\n      lt\n      tag_152\n      jumpi\n      0x0100\n      dup1\n      dup4\n      sload\n      div\n      mul\n      dup4\n      mstore\n      swap2\n      0x20\n      add\n      swap2\n      jump(tag_151)\n    tag_152:\n      dup3\n      add\n      swap2\n      swap1\n      0x00\n      mstore\n      keccak256(0x00, 0x20)\n      swap1\n    tag_153:\n      dup2\n      sload\n      dup2\n      mstore\n      swap1\n      0x01\n      add\n      swap1\n      0x20\n      add\n      dup1\n      dup4\n      gt\n      tag_153\n      jumpi\n      dup3\n      swap1\n      sub\n      0x1f\n      and\n      dup3\n      add\n      swap2\n    tag_151:\n      pop\n      pop\n      pop\n      pop\n      pop\n      dup2\n      mstore\n      0x20\n      add\n      0x01\n      dup3\n      add\n      dup1\n      sload\n      tag_154\n      swap1\n      tag_138\n      jump\t// in\n    tag_154:\n      dup1\n      0x1f\n      add\n      0x20\n      dup1\n      swap2\n      div\n      mul\n      0x20\n      add\n      mload(0x40)\n      swap1\n      dup2\n      add\n      0x40\n      mstore\n      dup1\n      swap3\n      swap2\n      swap1\n      dup2\n      dup2\n      mstore\n      0x20\n      add\n      dup3\n      dup1\n      sload\n      tag_155\n      swap1\n      tag_138\n      jump\t// in\n    tag_155:\n      dup1\n      iszero\n      tag_156\n      jumpi\n      dup1\n      0x1f\n      lt\n      tag_157\n      jumpi\n      0x0100\n      dup1\n      dup4\n      sload\n      div\n      mul\n      dup4\n      mstore\n      swap2\n      0x20\n      add\n      swap2\n      jump(tag_156)\n    tag_157:\n      dup3\n      add\n      swap2\n      swap1\n      0x00\n      mstore\n      keccak256(0x00, 0x20)\n      swap1\n    tag_158:\n      dup2\n      sload\n      dup2\n      mstore\n      swap1\n      0x01\n      add\n      swap1\n      0x20\n      add\n      dup1\n      dup4\n      gt\n      tag_158\n      jumpi\n      dup3\n      swap1\n      sub\n      0x1f\n      and\n      dup3\n      add\n      swap2\n    tag_156:\n      pop\n      pop\n      pop\n      pop\n      pop\n      dup2\n      mstore\n      0x20\n      add\n      0x02\n      dup3\n      add\n      dup1\n      sload\n      tag_159\n      swap1\n      tag_138\n      jump\t// in\n    tag_159:\n      dup1\n      0x1f\n      add\n      0x20\n      dup1\n      swap2\n      div\n      mul\n      0x20\n      add\n      mload(0x40)\n      swap1\n      dup2\n      add\n      0x40\n      mstore\n      dup1\n      swap3\n      swap2\n      swap1\n      dup2\n      dup2\n      mstore\n      0x20\n      add\n      dup3\n      dup1\n      sload\n      tag_160\n      swap1\n      tag_138\n      jump\t// in\n    tag_160:\n      dup1\n      iszero\n      tag_161\n      jumpi\n      dup1\n      0x1f\n      lt\n      tag_162\n      jumpi\n      0x0100\n      dup1\n      dup4\n      sload\n      div\n      mul\n      dup4\n      mstore\n      swap2\n      0x20\n      add\n      swap2\n      jump(tag_161)\n    tag_162:\n      dup3\n      add\n      swap2\n      swap1\n      0x00\n      mstore\n      keccak256(0x00, 0x20)\n      swap1\n    tag_163:\n      dup2\n      sload\n      dup2\n      mstore\n      swap1\n      0x01\n      add\n      swap1\n      0x20\n      add\n      dup1\n      dup4\n      gt\n      tag_163\n      jumpi\n      dup3\n      swap1\n      sub\n      0x1f\n      and\n      dup3\n      add\n      swap2\n    tag_161:\n      pop\n      pop\n      pop\n      pop\n      pop\n      dup2\n      mstore\n      0x20\n      add\n      0x03\n      dup3\n      add\n      sload\n      dup2\n      mstore\n      0x20\n      add\n      0x04\n      dup3\n      add\n      sload\n      dup2\n      mstore\n      pop\n      pop\n      swap1\n      pop\n        /* \"TestSubmissionSystem.sol\":4236:4420  function getMetadata() public view returns (MetaData memory) {... */\n      swap1\n      jump\t// out\n        /* \"TestSubmissionSystem.sol\":4736:5761  function verifyRole(... */\n    tag_46:\n        /* \"TestSubmissionSystem.sol\":4864:4868  bool */\n      0x00\n        /* \"TestSubmissionSystem.sol\":4929:4930  0 */\n      dup1\n        /* \"TestSubmissionSystem.sol\":4901:4931  dids[user].owner != address(0) */\n      0xffffffffffffffffffffffffffffffffffffffff\n      and\n        /* \"TestSubmissionSystem.sol\":4901:4905  dids */\n      0x00\n        /* \"TestSubmissionSystem.sol\":4901:4911  dids[user] */\n      dup1\n        /* \"TestSubmissionSystem.sol\":4906:4910  user */\n      dup7\n        /* \"TestSubmissionSystem.sol\":4901:4911  dids[user] */\n      0xffffffffffffffffffffffffffffffffffffffff\n      and\n      0xffffffffffffffffffffffffffffffffffffffff\n      and\n      dup2\n      mstore\n      0x20\n      add\n      swap1\n      dup2\n      mstore\n      0x20\n      add\n      0x00\n      keccak256\n        /* \"TestSubmissionSystem.sol\":4901:4917  dids[user].owner */\n      0x01\n      add\n      0x00\n      swap1\n      sload\n      swap1\n      0x0100\n      exp\n      swap1\n      div\n      0xffffffffffffffffffffffffffffffffffffffff\n      and\n        /* \"TestSubmissionSystem.sol\":4901:4931  dids[user].owner != address(0) */\n      0xffffffffffffffffffffffffffffffffffffffff\n      and\n      sub\n        /* \"TestSubmissionSystem.sol\":4880:4986  require(... */\n      tag_165\n      jumpi\n      mload(0x40)\n      0x08c379a000000000000000000000000000000000000000000000000000000000\n      dup2\n      mstore\n      0x04\n      add\n      tag_166\n      swap1\n      tag_75\n      jump\t// in\n    tag_166:\n      mload(0x40)\n      dup1\n      swap2\n      sub\n      swap1\n      revert\n    tag_165:\n        /* \"TestSubmissionSystem.sol\":5045:5046  0 */\n      0x00\n        /* \"TestSubmissionSystem.sol\":5023:5028  roles */\n      0x01\n        /* \"TestSubmissionSystem.sol\":5023:5034  roles[user] */\n      0x00\n        /* \"TestSubmissionSystem.sol\":5029:5033  user */\n      dup7\n        /* \"TestSubmissionSystem.sol\":5023:5034  roles[user] */\n      0xffffffffffffffffffffffffffffffffffffffff\n      and\n      0xffffffffffffffffffffffffffffffffffffffff\n      and\n      dup2\n      mstore\n      0x20\n      add\n      swap1\n      dup2\n      mstore\n      0x20\n      add\n      0x00\n      keccak256\n        /* \"TestSubmissionSystem.sol\":5017:5042  bytes(roles[user]).length */\n      dup1\n      sload\n      tag_167\n      swap1\n      tag_138\n      jump\t// in\n    tag_167:\n      swap1\n      pop\n        /* \"TestSubmissionSystem.sol\":5017:5046  bytes(roles[user]).length > 0 */\n      gt\n        /* \"TestSubmissionSystem.sol\":4996:5109  require(... */\n      tag_168\n      jumpi\n      mload(0x40)\n      0x08c379a000000000000000000000000000000000000000000000000000000000\n      dup2\n      mstore\n      0x04\n      add\n      tag_169\n      swap1\n      tag_170\n      jump\t// in\n    tag_169:\n      mload(0x40)\n      dup1\n      swap2\n      sub\n      swap1\n      revert\n    tag_168:\n        /* \"TestSubmissionSystem.sol\":5120:5136  bool roleMatches */\n      0x00\n        /* \"TestSubmissionSystem.sol\":5222:5226  role */\n      dup4\n        /* \"TestSubmissionSystem.sol\":5205:5227  abi.encodePacked(role) */\n      add(0x20, mload(0x40))\n      tag_171\n      swap2\n      swap1\n      tag_172\n      jump\t// in\n    tag_171:\n      mload(0x40)\n      0x20\n      dup2\n      dup4\n      sub\n      sub\n      dup2\n      mstore\n      swap1\n      0x40\n      mstore\n        /* \"TestSubmissionSystem.sol\":5195:5228  keccak256(abi.encodePacked(role)) */\n      dup1\n      mload\n      swap1\n      0x20\n      add\n      keccak256\n        /* \"TestSubmissionSystem.sol\":5166:5171  roles */\n      0x01\n        /* \"TestSubmissionSystem.sol\":5166:5177  roles[user] */\n      0x00\n        /* \"TestSubmissionSystem.sol\":5172:5176  user */\n      dup8\n        /* \"TestSubmissionSystem.sol\":5166:5177  roles[user] */\n      0xffffffffffffffffffffffffffffffffffffffff\n      and\n      0xffffffffffffffffffffffffffffffffffffffff\n      and\n      dup2\n      mstore\n      0x20\n      add\n      swap1\n      dup2\n      mstore\n      0x20\n      add\n      0x00\n      keccak256\n        /* \"TestSubmissionSystem.sol\":5149:5178  abi.encodePacked(roles[user]) */\n      add(0x20, mload(0x40))\n      tag_173\n      swap2\n      swap1\n      tag_174\n      jump\t// in\n    tag_173:\n      mload(0x40)\n      0x20\n      dup2\n      dup4\n      sub\n      sub\n      dup2\n      mstore\n      swap1\n      0x40\n      mstore\n        /* \"TestSubmissionSystem.sol\":5139:5179  keccak256(abi.encodePacked(roles[user])) */\n      dup1\n      mload\n      swap1\n      0x20\n      add\n      keccak256\n        /* \"TestSubmissionSystem.sol\":5139:5228  keccak256(abi.encodePacked(roles[user])) ==... */\n      eq\n        /* \"TestSubmissionSystem.sol\":5120:5228  bool roleMatches = keccak256(abi.encodePacked(roles[user])) ==... */\n      swap1\n      pop\n        /* \"TestSubmissionSystem.sol\":5238:5256  bool issuerMatches */\n      0x00\n        /* \"TestSubmissionSystem.sol\":5352:5361  uint256 i */\n      dup1\n        /* \"TestSubmissionSystem.sol\":5347:5709  for (uint256 i = 0; i < credentials[user].length; i++) {... */\n    tag_175:\n        /* \"TestSubmissionSystem.sol\":5371:5382  credentials */\n      0x04\n        /* \"TestSubmissionSystem.sol\":5371:5388  credentials[user] */\n      0x00\n        /* \"TestSubmissionSystem.sol\":5383:5387  user */\n      dup9\n        /* \"TestSubmissionSystem.sol\":5371:5388  credentials[user] */\n      0xffffffffffffffffffffffffffffffffffffffff\n      and\n      0xffffffffffffffffffffffffffffffffffffffff\n      and\n      dup2\n      mstore\n      0x20\n      add\n      swap1\n      dup2\n      mstore\n      0x20\n      add\n      0x00\n      keccak256\n        /* \"TestSubmissionSystem.sol\":5371:5395  credentials[user].length */\n      dup1\n      sload\n      swap1\n      pop\n        /* \"TestSubmissionSystem.sol\":5367:5368  i */\n      dup2\n        /* \"TestSubmissionSystem.sol\":5367:5395  i < credentials[user].length */\n      lt\n        /* \"TestSubmissionSystem.sol\":5347:5709  for (uint256 i = 0; i < credentials[user].length; i++) {... */\n      iszero\n      tag_176\n      jumpi\n        /* \"TestSubmissionSystem.sol\":5468:5481  issuerAddress */\n      dup5\n        /* \"TestSubmissionSystem.sol\":5437:5481  credentials[user][i].issuer == issuerAddress */\n      0xffffffffffffffffffffffffffffffffffffffff\n      and\n        /* \"TestSubmissionSystem.sol\":5437:5448  credentials */\n      0x04\n        /* \"TestSubmissionSystem.sol\":5437:5454  credentials[user] */\n      0x00\n        /* \"TestSubmissionSystem.sol\":5449:5453  user */\n      dup10\n        /* \"TestSubmissionSystem.sol\":5437:5454  credentials[user] */\n      0xffffffffffffffffffffffffffffffffffffffff\n      and\n      0xffffffffffffffffffffffffffffffffffffffff\n      and\n      dup2\n      mstore\n      0x20\n      add\n      swap1\n      dup2\n      mstore\n      0x20\n      add\n      0x00\n      keccak256\n        /* \"TestSubmissionSystem.sol\":5455:5456  i */\n      dup3\n        /* \"TestSubmissionSystem.sol\":5437:5457  credentials[user][i] */\n      dup2\n      sload\n      dup2\n      lt\n      tag_178\n      jumpi\n      tag_179\n      tag_135\n      jump\t// in\n    tag_179:\n    tag_178:\n      swap1\n      0x00\n      mstore\n      keccak256(0x00, 0x20)\n      swap1\n      0x06\n      mul\n      add\n        /* \"TestSubmissionSystem.sol\":5437:5464  credentials[user][i].issuer */\n      0x00\n      add\n      0x00\n      swap1\n      sload\n      swap1\n      0x0100\n      exp\n      swap1\n      div\n      0xffffffffffffffffffffffffffffffffffffffff\n      and\n        /* \"TestSubmissionSystem.sol\":5437:5481  credentials[user][i].issuer == issuerAddress */\n      0xffffffffffffffffffffffffffffffffffffffff\n      and\n      eq\n        /* \"TestSubmissionSystem.sol\":5437:5608  credentials[user][i].issuer == issuerAddress &&... */\n      dup1\n      iszero\n      tag_181\n      jumpi\n      pop\n        /* \"TestSubmissionSystem.sol\":5602:5606  role */\n      dup6\n        /* \"TestSubmissionSystem.sol\":5585:5607  abi.encodePacked(role) */\n      add(0x20, mload(0x40))\n      tag_182\n      swap2\n      swap1\n      tag_172\n      jump\t// in\n    tag_182:\n      mload(0x40)\n      0x20\n      dup2\n      dup4\n      sub\n      sub\n      dup2\n      mstore\n      swap1\n      0x40\n      mstore\n        /* \"TestSubmissionSystem.sol\":5575:5608  keccak256(abi.encodePacked(role)) */\n      dup1\n      mload\n      swap1\n      0x20\n      add\n      keccak256\n        /* \"TestSubmissionSystem.sol\":5528:5539  credentials */\n      0x04\n        /* \"TestSubmissionSystem.sol\":5528:5545  credentials[user] */\n      0x00\n        /* \"TestSubmissionSystem.sol\":5540:5544  user */\n      dup10\n        /* \"TestSubmissionSystem.sol\":5528:5545  credentials[user] */\n      0xffffffffffffffffffffffffffffffffffffffff\n      and\n      0xffffffffffffffffffffffffffffffffffffffff\n      and\n      dup2\n      mstore\n      0x20\n      add\n      swap1\n      dup2\n      mstore\n      0x20\n      add\n      0x00\n      keccak256\n        /* \"TestSubmissionSystem.sol\":5546:5547  i */\n      dup3\n        /* \"TestSubmissionSystem.sol\":5528:5548  credentials[user][i] */\n      dup2\n      sload\n      dup2\n      lt\n      tag_183\n      jumpi\n      tag_184\n      tag_135\n      jump\t// in\n    tag_184:\n    tag_183:\n      swap1\n      0x00\n      mstore\n      keccak256(0x00, 0x20)\n      swap1\n      0x06\n      mul\n      add\n        /* \"TestSubmissionSystem.sol\":5528:5553  credentials[user][i].role */\n      0x01\n      add\n        /* \"TestSubmissionSystem.sol\":5511:5554  abi.encodePacked(credentials[user][i].role) */\n      add(0x20, mload(0x40))\n      tag_186\n      swap2\n      swap1\n      tag_174\n      jump\t// in\n    tag_186:\n      mload(0x40)\n      0x20\n      dup2\n      dup4\n      sub\n      sub\n      dup2\n      mstore\n      swap1\n      0x40\n      mstore\n        /* \"TestSubmissionSystem.sol\":5501:5555  keccak256(abi.encodePacked(credentials[user][i].role)) */\n      dup1\n      mload\n      swap1\n      0x20\n      add\n      keccak256\n        /* \"TestSubmissionSystem.sol\":5501:5608  keccak256(abi.encodePacked(credentials[user][i].role)) ==... */\n      eq\n        /* \"TestSubmissionSystem.sol\":5437:5608  credentials[user][i].issuer == issuerAddress &&... */\n    tag_181:\n        /* \"TestSubmissionSystem.sol\":5416:5699  if (... */\n      iszero\n      tag_187\n      jumpi\n        /* \"TestSubmissionSystem.sol\":5657:5661  true */\n      0x01\n        /* \"TestSubmissionSystem.sol\":5641:5661  issuerMatches = true */\n      swap2\n      pop\n        /* \"TestSubmissionSystem.sol\":5679:5684  break */\n      jump(tag_176)\n        /* \"TestSubmissionSystem.sol\":5416:5699  if (... */\n    tag_187:\n        /* \"TestSubmissionSystem.sol\":5397:5400  i++ */\n      dup1\n      dup1\n      0x01\n      add\n      swap2\n      pop\n      pop\n        /* \"TestSubmissionSystem.sol\":5347:5709  for (uint256 i = 0; i < credentials[user].length; i++) {... */\n      jump(tag_175)\n    tag_176:\n      pop\n        /* \"TestSubmissionSystem.sol\":5726:5737  roleMatches */\n      dup2\n        /* \"TestSubmissionSystem.sol\":5726:5754  roleMatches && issuerMatches */\n      dup1\n      iszero\n      tag_188\n      jumpi\n      pop\n        /* \"TestSubmissionSystem.sol\":5741:5754  issuerMatches */\n      dup1\n        /* \"TestSubmissionSystem.sol\":5726:5754  roleMatches && issuerMatches */\n    tag_188:\n        /* \"TestSubmissionSystem.sol\":5719:5754  return roleMatches && issuerMatches */\n      swap3\n      pop\n      pop\n      pop\n        /* \"TestSubmissionSystem.sol\":4736:5761  function verifyRole(... */\n      swap4\n      swap3\n      pop\n      pop\n      pop\n      jump\t// out\n        /* \"TestSubmissionSystem.sol\":6285:6890  function gradeTest(... */\n    tag_52:\n        /* \"TestSubmissionSystem.sol\":6441:6442  0 */\n      0x00\n        /* \"TestSubmissionSystem.sol\":6407:6443  dids[msg.sender].owner != address(0) */\n      0xffffffffffffffffffffffffffffffffffffffff\n      and\n        /* \"TestSubmissionSystem.sol\":6407:6411  dids */\n      0x00\n        /* \"TestSubmissionSystem.sol\":6407:6423  dids[msg.sender] */\n      dup1\n        /* \"TestSubmissionSystem.sol\":6412:6422  msg.sender */\n      caller\n        /* \"TestSubmissionSystem.sol\":6407:6423  dids[msg.sender] */\n      0xffffffffffffffffffffffffffffffffffffffff\n      and\n      0xffffffffffffffffffffffffffffffffffffffff\n      and\n      dup2\n      mstore\n      0x20\n      add\n      swap1\n      dup2\n      mstore\n      0x20\n      add\n      0x00\n      keccak256\n        /* \"TestSubmissionSystem.sol\":6407:6429  dids[msg.sender].owner */\n      0x01\n      add\n      0x00\n      swap1\n      sload\n      swap1\n      0x0100\n      exp\n      swap1\n      div\n      0xffffffffffffffffffffffffffffffffffffffff\n      and\n        /* \"TestSubmissionSystem.sol\":6407:6443  dids[msg.sender].owner != address(0) */\n      0xffffffffffffffffffffffffffffffffffffffff\n      and\n      sub\n        /* \"TestSubmissionSystem.sol\":6399:6470  require(dids[msg.sender].owner != address(0), \"Issuer must have a DID\") */\n      tag_190\n      jumpi\n      mload(0x40)\n      0x08c379a000000000000000000000000000000000000000000000000000000000\n      dup2\n      mstore\n      0x04\n      add\n      tag_191\n      swap1\n      tag_104\n      jump\t// in\n    tag_191:\n      mload(0x40)\n      dup1\n      swap2\n      sub\n      swap1\n      revert\n    tag_190:\n        /* \"TestSubmissionSystem.sol\":6500:6515  testSubmissions */\n      0x05\n        /* \"TestSubmissionSystem.sol\":6500:6521  testSubmissions[user] */\n      0x00\n        /* \"TestSubmissionSystem.sol\":6516:6520  user */\n      dup5\n        /* \"TestSubmissionSystem.sol\":6500:6521  testSubmissions[user] */\n      0xffffffffffffffffffffffffffffffffffffffff\n      and\n      0xffffffffffffffffffffffffffffffffffffffff\n      and\n      dup2\n      mstore\n      0x20\n      add\n      swap1\n      dup2\n      mstore\n      0x20\n      add\n      0x00\n      keccak256\n        /* \"TestSubmissionSystem.sol\":6500:6528  testSubmissions[user].length */\n      dup1\n      sload\n      swap1\n      pop\n        /* \"TestSubmissionSystem.sol\":6488:6497  testIndex */\n      dup3\n        /* \"TestSubmissionSystem.sol\":6488:6528  testIndex < testSubmissions[user].length */\n      lt\n        /* \"TestSubmissionSystem.sol\":6480:6551  require(testIndex < testSubmissions[user].length, \"Invalid test index\") */\n      tag_192\n      jumpi\n      mload(0x40)\n      0x08c379a000000000000000000000000000000000000000000000000000000000\n      dup2\n      mstore\n      0x04\n      add\n      tag_193\n      swap1\n      tag_194\n      jump\t// in\n    tag_193:\n      mload(0x40)\n      dup1\n      swap2\n      sub\n      swap1\n      revert\n    tag_192:\n        /* \"TestSubmissionSystem.sol\":6583:6598  testSubmissions */\n      0x05\n        /* \"TestSubmissionSystem.sol\":6583:6604  testSubmissions[user] */\n      0x00\n        /* \"TestSubmissionSystem.sol\":6599:6603  user */\n      dup5\n        /* \"TestSubmissionSystem.sol\":6583:6604  testSubmissions[user] */\n      0xffffffffffffffffffffffffffffffffffffffff\n      and\n      0xffffffffffffffffffffffffffffffffffffffff\n      and\n      dup2\n      mstore\n      0x20\n      add\n      swap1\n      dup2\n      mstore\n      0x20\n      add\n      0x00\n      keccak256\n        /* \"TestSubmissionSystem.sol\":6605:6614  testIndex */\n      dup3\n        /* \"TestSubmissionSystem.sol\":6583:6615  testSubmissions[user][testIndex] */\n      dup2\n      sload\n      dup2\n      lt\n      tag_195\n      jumpi\n      tag_196\n      tag_135\n      jump\t// in\n    tag_196:\n    tag_195:\n      swap1\n      0x00\n      mstore\n      keccak256(0x00, 0x20)\n      swap1\n      0x04\n      mul\n      add\n        /* \"TestSubmissionSystem.sol\":6583:6622  testSubmissions[user][testIndex].graded */\n      0x03\n      add\n      0x00\n      swap1\n      sload\n      swap1\n      0x0100\n      exp\n      swap1\n      div\n      0xff\n      and\n        /* \"TestSubmissionSystem.sol\":6582:6622  !testSubmissions[user][testIndex].graded */\n      iszero\n        /* \"TestSubmissionSystem.sol\":6561:6667  require(... */\n      tag_198\n      jumpi\n      mload(0x40)\n      0x08c379a000000000000000000000000000000000000000000000000000000000\n      dup2\n      mstore\n      0x04\n      add\n      tag_199\n      swap1\n      tag_200\n      jump\t// in\n    tag_199:\n      mload(0x40)\n      dup1\n      swap2\n      sub\n      swap1\n      revert\n    tag_198:\n        /* \"TestSubmissionSystem.sol\":6719:6724  grade */\n      dup1\n        /* \"TestSubmissionSystem.sol\":6678:6693  testSubmissions */\n      0x05\n        /* \"TestSubmissionSystem.sol\":6678:6699  testSubmissions[user] */\n      0x00\n        /* \"TestSubmissionSystem.sol\":6694:6698  user */\n      dup6\n        /* \"TestSubmissionSystem.sol\":6678:6699  testSubmissions[user] */\n      0xffffffffffffffffffffffffffffffffffffffff\n      and\n      0xffffffffffffffffffffffffffffffffffffffff\n      and\n      dup2\n      mstore\n      0x20\n      add\n      swap1\n      dup2\n      mstore\n      0x20\n      add\n      0x00\n      keccak256\n        /* \"TestSubmissionSystem.sol\":6700:6709  testIndex */\n      dup4\n        /* \"TestSubmissionSystem.sol\":6678:6710  testSubmissions[user][testIndex] */\n      dup2\n      sload\n      dup2\n      lt\n      tag_201\n      jumpi\n      tag_202\n      tag_135\n      jump\t// in\n    tag_202:\n    tag_201:\n      swap1\n      0x00\n      mstore\n      keccak256(0x00, 0x20)\n      swap1\n      0x04\n      mul\n      add\n        /* \"TestSubmissionSystem.sol\":6678:6716  testSubmissions[user][testIndex].grade */\n      0x02\n      add\n        /* \"TestSubmissionSystem.sol\":6678:6724  testSubmissions[user][testIndex].grade = grade */\n      dup2\n      swap1\n      sstore\n      pop\n        /* \"TestSubmissionSystem.sol\":6776:6780  true */\n      0x01\n        /* \"TestSubmissionSystem.sol\":6734:6749  testSubmissions */\n      0x05\n        /* \"TestSubmissionSystem.sol\":6734:6755  testSubmissions[user] */\n      0x00\n        /* \"TestSubmissionSystem.sol\":6750:6754  user */\n      dup6\n        /* \"TestSubmissionSystem.sol\":6734:6755  testSubmissions[user] */\n      0xffffffffffffffffffffffffffffffffffffffff\n      and\n      0xffffffffffffffffffffffffffffffffffffffff\n      and\n      dup2\n      mstore\n      0x20\n      add\n      swap1\n      dup2\n      mstore\n      0x20\n      add\n      0x00\n      keccak256\n        /* \"TestSubmissionSystem.sol\":6756:6765  testIndex */\n      dup4\n        /* \"TestSubmissionSystem.sol\":6734:6766  testSubmissions[user][testIndex] */\n      dup2\n      sload\n      dup2\n      lt\n      tag_204\n      jumpi\n      tag_205\n      tag_135\n      jump\t// in\n    tag_205:\n    tag_204:\n      swap1\n      0x00\n      mstore\n      keccak256(0x00, 0x20)\n      swap1\n      0x04\n      mul\n      add\n        /* \"TestSubmissionSystem.sol\":6734:6773  testSubmissions[user][testIndex].graded */\n      0x03\n      add\n      0x00\n        /* \"TestSubmissionSystem.sol\":6734:6780  testSubmissions[user][testIndex].graded = true */\n      0x0100\n      exp\n      dup2\n      sload\n      dup2\n      0xff\n      mul\n      not\n      and\n      swap1\n      dup4\n      iszero\n      iszero\n      mul\n      or\n      swap1\n      sstore\n      pop\n        /* \"TestSubmissionSystem.sol\":6822:6827  grade */\n      dup1\n        /* \"TestSubmissionSystem.sol\":6790:6799  metadatas */\n      0x03\n        /* \"TestSubmissionSystem.sol\":6790:6805  metadatas[user] */\n      0x00\n        /* \"TestSubmissionSystem.sol\":6800:6804  user */\n      dup6\n        /* \"TestSubmissionSystem.sol\":6790:6805  metadatas[user] */\n      0xffffffffffffffffffffffffffffffffffffffff\n      and\n      0xffffffffffffffffffffffffffffffffffffffff\n      and\n      dup2\n      mstore\n      0x20\n      add\n      swap1\n      dup2\n      mstore\n      0x20\n      add\n      0x00\n      keccak256\n        /* \"TestSubmissionSystem.sol\":6790:6819  metadatas[user].lastTestScore */\n      0x04\n      add\n        /* \"TestSubmissionSystem.sol\":6790:6827  metadatas[user].lastTestScore = grade */\n      dup2\n      swap1\n      sstore\n      pop\n        /* \"TestSubmissionSystem.sol\":6854:6858  user */\n      dup3\n        /* \"TestSubmissionSystem.sol\":6843:6883  TestGraded(user, grade, block.timestamp) */\n      0xffffffffffffffffffffffffffffffffffffffff\n      and\n      0x209c5757f1301fd786e1870f9a0a61aee25af7d7b1a9c3940a421b72b68cae26\n        /* \"TestSubmissionSystem.sol\":6860:6865  grade */\n      dup3\n        /* \"TestSubmissionSystem.sol\":6867:6882  block.timestamp */\n      timestamp\n        /* \"TestSubmissionSystem.sol\":6843:6883  TestGraded(user, grade, block.timestamp) */\n      mload(0x40)\n      tag_207\n      swap3\n      swap2\n      swap1\n      tag_208\n      jump\t// in\n    tag_207:\n      mload(0x40)\n      dup1\n      swap2\n      sub\n      swap1\n      log2\n        /* \"TestSubmissionSystem.sol\":6285:6890  function gradeTest(... */\n      pop\n      pop\n      pop\n      jump\t// out\n        /* \"TestSubmissionSystem.sol\":2028:2354  function assignRole(address _user, string memory _role) public {... */\n    tag_56:\n        /* \"TestSubmissionSystem.sol\":2143:2144  0 */\n      0x00\n        /* \"TestSubmissionSystem.sol\":2109:2145  dids[msg.sender].owner != address(0) */\n      0xffffffffffffffffffffffffffffffffffffffff\n      and\n        /* \"TestSubmissionSystem.sol\":2109:2113  dids */\n      0x00\n        /* \"TestSubmissionSystem.sol\":2109:2125  dids[msg.sender] */\n      dup1\n        /* \"TestSubmissionSystem.sol\":2114:2124  msg.sender */\n      caller\n        /* \"TestSubmissionSystem.sol\":2109:2125  dids[msg.sender] */\n      0xffffffffffffffffffffffffffffffffffffffff\n      and\n      0xffffffffffffffffffffffffffffffffffffffff\n      and\n      dup2\n      mstore\n      0x20\n      add\n      swap1\n      dup2\n      mstore\n      0x20\n      add\n      0x00\n      keccak256\n        /* \"TestSubmissionSystem.sol\":2109:2131  dids[msg.sender].owner */\n      0x01\n      add\n      0x00\n      swap1\n      sload\n      swap1\n      0x0100\n      exp\n      swap1\n      div\n      0xffffffffffffffffffffffffffffffffffffffff\n      and\n        /* \"TestSubmissionSystem.sol\":2109:2145  dids[msg.sender].owner != address(0) */\n      0xffffffffffffffffffffffffffffffffffffffff\n      and\n      sub\n        /* \"TestSubmissionSystem.sol\":2101:2172  require(dids[msg.sender].owner != address(0), \"Issuer must have a DID\") */\n      tag_210\n      jumpi\n      mload(0x40)\n      0x08c379a000000000000000000000000000000000000000000000000000000000\n      dup2\n      mstore\n      0x04\n      add\n      tag_211\n      swap1\n      tag_104\n      jump\t// in\n    tag_211:\n      mload(0x40)\n      dup1\n      swap2\n      sub\n      swap1\n      revert\n    tag_210:\n        /* \"TestSubmissionSystem.sol\":2212:2213  0 */\n      0x00\n        /* \"TestSubmissionSystem.sol\":2196:2201  _role */\n      dup2\n        /* \"TestSubmissionSystem.sol\":2190:2209  bytes(_role).length */\n      mload\n        /* \"TestSubmissionSystem.sol\":2190:2213  bytes(_role).length > 0 */\n      gt\n        /* \"TestSubmissionSystem.sol\":2182:2238  require(bytes(_role).length > 0, \"Role cannot be empty\") */\n      tag_212\n      jumpi\n      mload(0x40)\n      0x08c379a000000000000000000000000000000000000000000000000000000000\n      dup2\n      mstore\n      0x04\n      add\n      tag_213\n      swap1\n      tag_107\n      jump\t// in\n    tag_213:\n      mload(0x40)\n      dup1\n      swap2\n      sub\n      swap1\n      revert\n    tag_212:\n        /* \"TestSubmissionSystem.sol\":2263:2268  _role */\n      dup1\n        /* \"TestSubmissionSystem.sol\":2248:2253  roles */\n      0x01\n        /* \"TestSubmissionSystem.sol\":2248:2260  roles[_user] */\n      0x00\n        /* \"TestSubmissionSystem.sol\":2254:2259  _user */\n      dup5\n        /* \"TestSubmissionSystem.sol\":2248:2260  roles[_user] */\n      0xffffffffffffffffffffffffffffffffffffffff\n      and\n      0xffffffffffffffffffffffffffffffffffffffff\n      and\n      dup2\n      mstore\n      0x20\n      add\n      swap1\n      dup2\n      mstore\n      0x20\n      add\n      0x00\n      keccak256\n        /* \"TestSubmissionSystem.sol\":2248:2268  roles[_user] = _role */\n      swap1\n      dup2\n      tag_214\n      swap2\n      swap1\n      tag_86\n      jump\t// in\n    tag_214:\n      pop\n        /* \"TestSubmissionSystem.sol\":2278:2289  roleHistory */\n      0x02\n        /* \"TestSubmissionSystem.sol\":2278:2296  roleHistory[_user] */\n      0x00\n        /* \"TestSubmissionSystem.sol\":2290:2295  _user */\n      dup4\n        /* \"TestSubmissionSystem.sol\":2278:2296  roleHistory[_user] */\n      0xffffffffffffffffffffffffffffffffffffffff\n      and\n      0xffffffffffffffffffffffffffffffffffffffff\n      and\n      dup2\n      mstore\n      0x20\n      add\n      swap1\n      dup2\n      mstore\n      0x20\n      add\n      0x00\n      keccak256\n        /* \"TestSubmissionSystem.sol\":2302:2307  _role */\n      dup2\n        /* \"TestSubmissionSystem.sol\":2278:2308  roleHistory[_user].push(_role) */\n      swap1\n      dup1\n      0x01\n      dup2\n      sload\n      add\n      dup1\n      dup3\n      sstore\n      dup1\n      swap2\n      pop\n      pop\n      0x01\n      swap1\n      sub\n      swap1\n      0x00\n      mstore\n      keccak256(0x00, 0x20)\n      add\n      0x00\n      swap1\n      swap2\n      swap1\n      swap2\n      swap1\n      swap2\n      pop\n      swap1\n      dup2\n      tag_216\n      swap2\n      swap1\n      tag_86\n      jump\t// in\n    tag_216:\n      pop\n        /* \"TestSubmissionSystem.sol\":2334:2339  _user */\n      dup2\n        /* \"TestSubmissionSystem.sol\":2323:2347  RoleAssign(_user, _role) */\n      0xffffffffffffffffffffffffffffffffffffffff\n      and\n      0x955a8164e26d3082026a4713bbcc2102183cd483ccf49d50cc35fb4e97d540d0\n        /* \"TestSubmissionSystem.sol\":2341:2346  _role */\n      dup3\n        /* \"TestSubmissionSystem.sol\":2323:2347  RoleAssign(_user, _role) */\n      mload(0x40)\n      tag_217\n      swap2\n      swap1\n      tag_60\n      jump\t// in\n    tag_217:\n      mload(0x40)\n      dup1\n      swap2\n      sub\n      swap1\n      log2\n        /* \"TestSubmissionSystem.sol\":2028:2354  function assignRole(address _user, string memory _role) public {... */\n      pop\n      pop\n      jump\t// out\n        /* \"TestSubmissionSystem.sol\":3340:3568  function getDID() public view returns (string memory) {... */\n    tag_58:\n        /* \"TestSubmissionSystem.sol\":3379:3392  string memory */\n      0x60\n        /* \"TestSubmissionSystem.sol\":3459:3460  0 */\n      0x00\n        /* \"TestSubmissionSystem.sol\":3425:3461  dids[msg.sender].owner != address(0) */\n      0xffffffffffffffffffffffffffffffffffffffff\n      and\n        /* \"TestSubmissionSystem.sol\":3425:3429  dids */\n      0x00\n        /* \"TestSubmissionSystem.sol\":3425:3441  dids[msg.sender] */\n      dup1\n        /* \"TestSubmissionSystem.sol\":3430:3440  msg.sender */\n      caller\n        /* \"TestSubmissionSystem.sol\":3425:3441  dids[msg.sender] */\n      0xffffffffffffffffffffffffffffffffffffffff\n      and\n      0xffffffffffffffffffffffffffffffffffffffff\n      and\n      dup2\n      mstore\n      0x20\n      add\n      swap1\n      dup2\n      mstore\n      0x20\n      add\n      0x00\n      keccak256\n        /* \"TestSubmissionSystem.sol\":3425:3447  dids[msg.sender].owner */\n      0x01\n      add\n      0x00\n      swap1\n      sload\n      swap1\n      0x0100\n      exp\n      swap1\n      div\n      0xffffffffffffffffffffffffffffffffffffffff\n      and\n        /* \"TestSubmissionSystem.sol\":3425:3461  dids[msg.sender].owner != address(0) */\n      0xffffffffffffffffffffffffffffffffffffffff\n      and\n      sub\n        /* \"TestSubmissionSystem.sol\":3404:3516  require(... */\n      tag_219\n      jumpi\n      mload(0x40)\n      0x08c379a000000000000000000000000000000000000000000000000000000000\n      dup2\n      mstore\n      0x04\n      add\n      tag_220\n      swap1\n      tag_75\n      jump\t// in\n    tag_220:\n      mload(0x40)\n      dup1\n      swap2\n      sub\n      swap1\n      revert\n    tag_219:\n        /* \"TestSubmissionSystem.sol\":3534:3538  dids */\n      0x00\n        /* \"TestSubmissionSystem.sol\":3534:3550  dids[msg.sender] */\n      dup1\n        /* \"TestSubmissionSystem.sol\":3539:3549  msg.sender */\n      caller\n        /* \"TestSubmissionSystem.sol\":3534:3550  dids[msg.sender] */\n      0xffffffffffffffffffffffffffffffffffffffff\n      and\n      0xffffffffffffffffffffffffffffffffffffffff\n      and\n      dup2\n      mstore\n      0x20\n      add\n      swap1\n      dup2\n      mstore\n      0x20\n      add\n      0x00\n      keccak256\n        /* \"TestSubmissionSystem.sol\":3534:3561  dids[msg.sender].identifier */\n      0x00\n      add\n        /* \"TestSubmissionSystem.sol\":3527:3561  return dids[msg.sender].identifier */\n      dup1\n      sload\n      tag_221\n      swap1\n      tag_138\n      jump\t// in\n    tag_221:\n      dup1\n      0x1f\n      add\n      0x20\n      dup1\n      swap2\n      div\n      mul\n      0x20\n      add\n      mload(0x40)\n      swap1\n      dup2\n      add\n      0x40\n      mstore\n      dup1\n      swap3\n      swap2\n      swap1\n      dup2\n      dup2\n      mstore\n      0x20\n      add\n      dup3\n      dup1\n      sload\n      tag_222\n      swap1\n      tag_138\n      jump\t// in\n    tag_222:\n      dup1\n      iszero\n      tag_223\n      jumpi\n      dup1\n      0x1f\n      lt\n      tag_224\n      jumpi\n      0x0100\n      dup1\n      dup4\n      sload\n      div\n      mul\n      dup4\n      mstore\n      swap2\n      0x20\n      add\n      swap2\n      jump(tag_223)\n    tag_224:\n      dup3\n      add\n      swap2\n      swap1\n      0x00\n      mstore\n      keccak256(0x00, 0x20)\n      swap1\n    tag_225:\n      dup2\n      sload\n      dup2\n      mstore\n      swap1\n      0x01\n      add\n      swap1\n      0x20\n      add\n      dup1\n      dup4\n      gt\n      tag_225\n      jumpi\n      dup3\n      swap1\n      sub\n      0x1f\n      and\n      dup3\n      add\n      swap2\n    tag_223:\n      pop\n      pop\n      pop\n      pop\n      pop\n      swap1\n      pop\n        /* \"TestSubmissionSystem.sol\":3340:3568  function getDID() public view returns (string memory) {... */\n      swap1\n      jump\t// out\n        /* \"TestSubmissionSystem.sol\":5767:6279  function submitTest(string memory answersHash) public {... */\n    tag_63:\n        /* \"TestSubmissionSystem.sol\":5886:5887  0 */\n      0x00\n        /* \"TestSubmissionSystem.sol\":5852:5888  dids[msg.sender].owner != address(0) */\n      0xffffffffffffffffffffffffffffffffffffffff\n      and\n        /* \"TestSubmissionSystem.sol\":5852:5856  dids */\n      0x00\n        /* \"TestSubmissionSystem.sol\":5852:5868  dids[msg.sender] */\n      dup1\n        /* \"TestSubmissionSystem.sol\":5857:5867  msg.sender */\n      caller\n        /* \"TestSubmissionSystem.sol\":5852:5868  dids[msg.sender] */\n      0xffffffffffffffffffffffffffffffffffffffff\n      and\n      0xffffffffffffffffffffffffffffffffffffffff\n      and\n      dup2\n      mstore\n      0x20\n      add\n      swap1\n      dup2\n      mstore\n      0x20\n      add\n      0x00\n      keccak256\n        /* \"TestSubmissionSystem.sol\":5852:5874  dids[msg.sender].owner */\n      0x01\n      add\n      0x00\n      swap1\n      sload\n      swap1\n      0x0100\n      exp\n      swap1\n      div\n      0xffffffffffffffffffffffffffffffffffffffff\n      and\n        /* \"TestSubmissionSystem.sol\":5852:5888  dids[msg.sender].owner != address(0) */\n      0xffffffffffffffffffffffffffffffffffffffff\n      and\n      sub\n        /* \"TestSubmissionSystem.sol\":5831:5943  require(... */\n      tag_227\n      jumpi\n      mload(0x40)\n      0x08c379a000000000000000000000000000000000000000000000000000000000\n      dup2\n      mstore\n      0x04\n      add\n      tag_228\n      swap1\n      tag_75\n      jump\t// in\n    tag_228:\n      mload(0x40)\n      dup1\n      swap2\n      sub\n      swap1\n      revert\n    tag_227:\n        /* \"TestSubmissionSystem.sol\":5989:5990  0 */\n      0x00\n        /* \"TestSubmissionSystem.sol\":5967:5978  answersHash */\n      dup2\n        /* \"TestSubmissionSystem.sol\":5961:5986  bytes(answersHash).length */\n      mload\n        /* \"TestSubmissionSystem.sol\":5961:5990  bytes(answersHash).length > 0 */\n      gt\n        /* \"TestSubmissionSystem.sol\":5953:6023  require(bytes(answersHash).length > 0, \"Answers hash cannot be empty\") */\n      tag_229\n      jumpi\n      mload(0x40)\n      0x08c379a000000000000000000000000000000000000000000000000000000000\n      dup2\n      mstore\n      0x04\n      add\n      tag_230\n      swap1\n      tag_231\n      jump\t// in\n    tag_230:\n      mload(0x40)\n      dup1\n      swap2\n      sub\n      swap1\n      revert\n    tag_229:\n        /* \"TestSubmissionSystem.sol\":6034:6049  testSubmissions */\n      0x05\n        /* \"TestSubmissionSystem.sol\":6034:6061  testSubmissions[msg.sender] */\n      0x00\n        /* \"TestSubmissionSystem.sol\":6050:6060  msg.sender */\n      caller\n        /* \"TestSubmissionSystem.sol\":6034:6061  testSubmissions[msg.sender] */\n      0xffffffffffffffffffffffffffffffffffffffff\n      and\n      0xffffffffffffffffffffffffffffffffffffffff\n      and\n      dup2\n      mstore\n      0x20\n      add\n      swap1\n      dup2\n      mstore\n      0x20\n      add\n      0x00\n      keccak256\n        /* \"TestSubmissionSystem.sol\":6080:6134  TestSubmission(answersHash, block.timestamp, 0, false) */\n      mload(0x40)\n      dup1\n      0x80\n      add\n      0x40\n      mstore\n      dup1\n        /* \"TestSubmissionSystem.sol\":6095:6106  answersHash */\n      dup4\n        /* \"TestSubmissionSystem.sol\":6080:6134  TestSubmission(answersHash, block.timestamp, 0, false) */\n      dup2\n      mstore\n      0x20\n      add\n        /* \"TestSubmissionSystem.sol\":6108:6123  block.timestamp */\n      timestamp\n        /* \"TestSubmissionSystem.sol\":6080:6134  TestSubmission(answersHash, block.timestamp, 0, false) */\n      dup2\n      mstore\n      0x20\n      add\n        /* \"TestSubmissionSystem.sol\":6125:6126  0 */\n      0x00\n        /* \"TestSubmissionSystem.sol\":6080:6134  TestSubmission(answersHash, block.timestamp, 0, false) */\n      dup2\n      mstore\n      0x20\n      add\n        /* \"TestSubmissionSystem.sol\":6128:6133  false */\n      0x00\n        /* \"TestSubmissionSystem.sol\":6080:6134  TestSubmission(answersHash, block.timestamp, 0, false) */\n      iszero\n      iszero\n      dup2\n      mstore\n      pop\n        /* \"TestSubmissionSystem.sol\":6034:6144  testSubmissions[msg.sender].push(... */\n      swap1\n      dup1\n      0x01\n      dup2\n      sload\n      add\n      dup1\n      dup3\n      sstore\n      dup1\n      swap2\n      pop\n      pop\n      0x01\n      swap1\n      sub\n      swap1\n      0x00\n      mstore\n      keccak256(0x00, 0x20)\n      swap1\n      0x04\n      mul\n      add\n      0x00\n      swap1\n      swap2\n      swap1\n      swap2\n      swap1\n      swap2\n      pop\n      0x00\n      dup3\n      add\n      mload\n      dup2\n      0x00\n      add\n      swap1\n      dup2\n      tag_233\n      swap2\n      swap1\n      tag_86\n      jump\t// in\n    tag_233:\n      pop\n      0x20\n      dup3\n      add\n      mload\n      dup2\n      0x01\n      add\n      sstore\n      0x40\n      dup3\n      add\n      mload\n      dup2\n      0x02\n      add\n      sstore\n      0x60\n      dup3\n      add\n      mload\n      dup2\n      0x03\n      add\n      exp(0x0100, 0x00)\n      dup2\n      sload\n      dup2\n      0xff\n      mul\n      not\n      and\n      swap1\n      dup4\n      iszero\n      iszero\n      mul\n      or\n      swap1\n      sstore\n      pop\n      pop\n      pop\n        /* \"TestSubmissionSystem.sol\":6200:6201  1 */\n      0x01\n        /* \"TestSubmissionSystem.sol\":6155:6164  metadatas */\n      0x03\n        /* \"TestSubmissionSystem.sol\":6155:6176  metadatas[msg.sender] */\n      0x00\n        /* \"TestSubmissionSystem.sol\":6165:6175  msg.sender */\n      caller\n        /* \"TestSubmissionSystem.sol\":6155:6176  metadatas[msg.sender] */\n      0xffffffffffffffffffffffffffffffffffffffff\n      and\n      0xffffffffffffffffffffffffffffffffffffffff\n      and\n      dup2\n      mstore\n      0x20\n      add\n      swap1\n      dup2\n      mstore\n      0x20\n      add\n      0x00\n      keccak256\n        /* \"TestSubmissionSystem.sol\":6155:6196  metadatas[msg.sender].totalTestsSubmitted */\n      0x03\n      add\n      0x00\n        /* \"TestSubmissionSystem.sol\":6155:6201  metadatas[msg.sender].totalTestsSubmitted += 1 */\n      dup3\n      dup3\n      sload\n      tag_234\n      swap2\n      swap1\n      tag_235\n      jump\t// in\n    tag_234:\n      swap3\n      pop\n      pop\n      dup2\n      swap1\n      sstore\n      pop\n        /* \"TestSubmissionSystem.sol\":6231:6241  msg.sender */\n      caller\n        /* \"TestSubmissionSystem.sol\":6217:6272  TestSubmitted(msg.sender, answersHash, block.timestamp) */\n      0xffffffffffffffffffffffffffffffffffffffff\n      and\n      0x6253da222cb28e9028c656200e285440d573c04aad5ce44901c38e3836276efe\n        /* \"TestSubmissionSystem.sol\":6243:6254  answersHash */\n      dup3\n        /* \"TestSubmissionSystem.sol\":6256:6271  block.timestamp */\n      timestamp\n        /* \"TestSubmissionSystem.sol\":6217:6272  TestSubmitted(msg.sender, answersHash, block.timestamp) */\n      mload(0x40)\n      tag_236\n      swap3\n      swap2\n      swap1\n      tag_237\n      jump\t// in\n    tag_236:\n      mload(0x40)\n      dup1\n      swap2\n      sub\n      swap1\n      log2\n        /* \"TestSubmissionSystem.sol\":5767:6279  function submitTest(string memory answersHash) public {... */\n      pop\n      jump\t// out\n        /* \"TestSubmissionSystem.sol\":6896:7173  function getTestSubmissions()... */\n    tag_65:\n        /* \"TestSubmissionSystem.sol\":6971:6994  TestSubmission[] memory */\n      0x60\n        /* \"TestSubmissionSystem.sol\":7065:7066  0 */\n      0x00\n        /* \"TestSubmissionSystem.sol\":7031:7067  dids[msg.sender].owner != address(0) */\n      0xffffffffffffffffffffffffffffffffffffffff\n      and\n        /* \"TestSubmissionSystem.sol\":7031:7035  dids */\n      0x00\n        /* \"TestSubmissionSystem.sol\":7031:7047  dids[msg.sender] */\n      dup1\n        /* \"TestSubmissionSystem.sol\":7036:7046  msg.sender */\n      caller\n        /* \"TestSubmissionSystem.sol\":7031:7047  dids[msg.sender] */\n      0xffffffffffffffffffffffffffffffffffffffff\n      and\n      0xffffffffffffffffffffffffffffffffffffffff\n      and\n      dup2\n      mstore\n      0x20\n      add\n      swap1\n      dup2\n      mstore\n      0x20\n      add\n      0x00\n      keccak256\n        /* \"TestSubmissionSystem.sol\":7031:7053  dids[msg.sender].owner */\n      0x01\n      add\n      0x00\n      swap1\n      sload\n      swap1\n      0x0100\n      exp\n      swap1\n      div\n      0xffffffffffffffffffffffffffffffffffffffff\n      and\n        /* \"TestSubmissionSystem.sol\":7031:7067  dids[msg.sender].owner != address(0) */\n      0xffffffffffffffffffffffffffffffffffffffff\n      and\n      sub\n        /* \"TestSubmissionSystem.sol\":7010:7122  require(... */\n      tag_239\n      jumpi\n      mload(0x40)\n      0x08c379a000000000000000000000000000000000000000000000000000000000\n      dup2\n      mstore\n      0x04\n      add\n      tag_240\n      swap1\n      tag_75\n      jump\t// in\n    tag_240:\n      mload(0x40)\n      dup1\n      swap2\n      sub\n      swap1\n      revert\n    tag_239:\n        /* \"TestSubmissionSystem.sol\":7139:7154  testSubmissions */\n      0x05\n        /* \"TestSubmissionSystem.sol\":7139:7166  testSubmissions[msg.sender] */\n      0x00\n        /* \"TestSubmissionSystem.sol\":7155:7165  msg.sender */\n      caller\n        /* \"TestSubmissionSystem.sol\":7139:7166  testSubmissions[msg.sender] */\n      0xffffffffffffffffffffffffffffffffffffffff\n      and\n      0xffffffffffffffffffffffffffffffffffffffff\n      and\n      dup2\n      mstore\n      0x20\n      add\n      swap1\n      dup2\n      mstore\n      0x20\n      add\n      0x00\n      keccak256\n        /* \"TestSubmissionSystem.sol\":7132:7166  return testSubmissions[msg.sender] */\n      dup1\n      sload\n      dup1\n      0x20\n      mul\n      0x20\n      add\n      mload(0x40)\n      swap1\n      dup2\n      add\n      0x40\n      mstore\n      dup1\n      swap3\n      swap2\n      swap1\n      dup2\n      dup2\n      mstore\n      0x20\n      add\n      0x00\n      swap1\n    tag_241:\n      dup3\n      dup3\n      lt\n      iszero\n      tag_242\n      jumpi\n      dup4\n      dup3\n      swap1\n      0x00\n      mstore\n      keccak256(0x00, 0x20)\n      swap1\n      0x04\n      mul\n      add\n      mload(0x40)\n      dup1\n      0x80\n      add\n      0x40\n      mstore\n      swap1\n      dup2\n      0x00\n      dup3\n      add\n      dup1\n      sload\n      tag_244\n      swap1\n      tag_138\n      jump\t// in\n    tag_244:\n      dup1\n      0x1f\n      add\n      0x20\n      dup1\n      swap2\n      div\n      mul\n      0x20\n      add\n      mload(0x40)\n      swap1\n      dup2\n      add\n      0x40\n      mstore\n      dup1\n      swap3\n      swap2\n      swap1\n      dup2\n      dup2\n      mstore\n      0x20\n      add\n      dup3\n      dup1\n      sload\n      tag_245\n      swap1\n      tag_138\n      jump\t// in\n    tag_245:\n      dup1\n      iszero\n      tag_246\n      jumpi\n      dup1\n      0x1f\n      lt\n      tag_247\n      jumpi\n      0x0100\n      dup1\n      dup4\n      sload\n      div\n      mul\n      dup4\n      mstore\n      swap2\n      0x20\n      add\n      swap2\n      jump(tag_246)\n    tag_247:\n      dup3\n      add\n      swap2\n      swap1\n      0x00\n      mstore\n      keccak256(0x00, 0x20)\n      swap1\n    tag_248:\n      dup2\n      sload\n      dup2\n      mstore\n      swap1\n      0x01\n      add\n      swap1\n      0x20\n      add\n      dup1\n      dup4\n      gt\n      tag_248\n      jumpi\n      dup3\n      swap1\n      sub\n      0x1f\n      and\n      dup3\n      add\n      swap2\n    tag_246:\n      pop\n      pop\n      pop\n      pop\n      pop\n      dup2\n      mstore\n      0x20\n      add\n      0x01\n      dup3\n      add\n      sload\n      dup2\n      mstore\n      0x20\n      add\n      0x02\n      dup3\n      add\n      sload\n      dup2\n      mstore\n      0x20\n      add\n      0x03\n      dup3\n      add\n      0x00\n      swap1\n      sload\n      swap1\n      0x0100\n      exp\n      swap1\n      div\n      0xff\n      and\n      iszero\n      iszero\n      iszero\n      iszero\n      dup2\n      mstore\n      pop\n      pop\n      dup2\n      mstore\n      0x20\n      add\n      swap1\n      0x01\n      add\n      swap1\n      jump(tag_241)\n    tag_242:\n      pop\n      pop\n      pop\n      pop\n      swap1\n      pop\n        /* \"TestSubmissionSystem.sol\":6896:7173  function getTestSubmissions()... */\n      swap1\n      jump\t// out\n        /* \"TestSubmissionSystem.sol\":4426:4730  function getRole() public view returns (string[] memory) {... */\n    tag_69:\n        /* \"TestSubmissionSystem.sol\":4466:4481  string[] memory */\n      0x60\n        /* \"TestSubmissionSystem.sol\":4548:4549  0 */\n      0x00\n        /* \"TestSubmissionSystem.sol\":4514:4550  dids[msg.sender].owner != address(0) */\n      0xffffffffffffffffffffffffffffffffffffffff\n      and\n        /* \"TestSubmissionSystem.sol\":4514:4518  dids */\n      0x00\n        /* \"TestSubmissionSystem.sol\":4514:4530  dids[msg.sender] */\n      dup1\n        /* \"TestSubmissionSystem.sol\":4519:4529  msg.sender */\n      caller\n        /* \"TestSubmissionSystem.sol\":4514:4530  dids[msg.sender] */\n      0xffffffffffffffffffffffffffffffffffffffff\n      and\n      0xffffffffffffffffffffffffffffffffffffffff\n      and\n      dup2\n      mstore\n      0x20\n      add\n      swap1\n      dup2\n      mstore\n      0x20\n      add\n      0x00\n      keccak256\n        /* \"TestSubmissionSystem.sol\":4514:4536  dids[msg.sender].owner */\n      0x01\n      add\n      0x00\n      swap1\n      sload\n      swap1\n      0x0100\n      exp\n      swap1\n      div\n      0xffffffffffffffffffffffffffffffffffffffff\n      and\n        /* \"TestSubmissionSystem.sol\":4514:4550  dids[msg.sender].owner != address(0) */\n      0xffffffffffffffffffffffffffffffffffffffff\n      and\n      sub\n        /* \"TestSubmissionSystem.sol\":4493:4605  require(... */\n      tag_250\n      jumpi\n      mload(0x40)\n      0x08c379a000000000000000000000000000000000000000000000000000000000\n      dup2\n      mstore\n      0x04\n      add\n      tag_251\n      swap1\n      tag_75\n      jump\t// in\n    tag_251:\n      mload(0x40)\n      dup1\n      swap2\n      sub\n      swap1\n      revert\n    tag_250:\n        /* \"TestSubmissionSystem.sol\":4656:4657  0 */\n      0x00\n        /* \"TestSubmissionSystem.sol\":4623:4634  roleHistory */\n      0x02\n        /* \"TestSubmissionSystem.sol\":4623:4646  roleHistory[msg.sender] */\n      0x00\n        /* \"TestSubmissionSystem.sol\":4635:4645  msg.sender */\n      caller\n        /* \"TestSubmissionSystem.sol\":4623:4646  roleHistory[msg.sender] */\n      0xffffffffffffffffffffffffffffffffffffffff\n      and\n      0xffffffffffffffffffffffffffffffffffffffff\n      and\n      dup2\n      mstore\n      0x20\n      add\n      swap1\n      dup2\n      mstore\n      0x20\n      add\n      0x00\n      keccak256\n        /* \"TestSubmissionSystem.sol\":4623:4653  roleHistory[msg.sender].length */\n      dup1\n      sload\n      swap1\n      pop\n        /* \"TestSubmissionSystem.sol\":4623:4657  roleHistory[msg.sender].length > 0 */\n      gt\n        /* \"TestSubmissionSystem.sol\":4615:4683  require(roleHistory[msg.sender].length > 0, \"No roles assigned yet\") */\n      tag_252\n      jumpi\n      mload(0x40)\n      0x08c379a000000000000000000000000000000000000000000000000000000000\n      dup2\n      mstore\n      0x04\n      add\n      tag_253\n      swap1\n      tag_254\n      jump\t// in\n    tag_253:\n      mload(0x40)\n      dup1\n      swap2\n      sub\n      swap1\n      revert\n    tag_252:\n        /* \"TestSubmissionSystem.sol\":4700:4711  roleHistory */\n      0x02\n        /* \"TestSubmissionSystem.sol\":4700:4723  roleHistory[msg.sender] */\n      0x00\n        /* \"TestSubmissionSystem.sol\":4712:4722  msg.sender */\n      caller\n        /* \"TestSubmissionSystem.sol\":4700:4723  roleHistory[msg.sender] */\n      0xffffffffffffffffffffffffffffffffffffffff\n      and\n      0xffffffffffffffffffffffffffffffffffffffff\n      and\n      dup2\n      mstore\n      0x20\n      add\n      swap1\n      dup2\n      mstore\n      0x20\n      add\n      0x00\n      keccak256\n        /* \"TestSubmissionSystem.sol\":4693:4723  return roleHistory[msg.sender] */\n      dup1\n      sload\n      dup1\n      0x20\n      mul\n      0x20\n      add\n      mload(0x40)\n      swap1\n      dup2\n      add\n      0x40\n      mstore\n      dup1\n      swap3\n      swap2\n      swap1\n      dup2\n      dup2\n      mstore\n      0x20\n      add\n      0x00\n      swap1\n    tag_255:\n      dup3\n      dup3\n      lt\n      iszero\n      tag_256\n      jumpi\n      dup4\n      dup3\n      swap1\n      0x00\n      mstore\n      keccak256(0x00, 0x20)\n      add\n      dup1\n      sload\n      tag_258\n      swap1\n      tag_138\n      jump\t// in\n    tag_258:\n      dup1\n      0x1f\n      add\n      0x20\n      dup1\n      swap2\n      div\n      mul\n      0x20\n      add\n      mload(0x40)\n      swap1\n      dup2\n      add\n      0x40\n      mstore\n      dup1\n      swap3\n      swap2\n      swap1\n      dup2\n      dup2\n      mstore\n      0x20\n      add\n      dup3\n      dup1\n      sload\n      tag_259\n      swap1\n      tag_138\n      jump\t// in\n    tag_259:\n      dup1\n      iszero\n      tag_260\n      jumpi\n      dup1\n      0x1f\n      lt\n      tag_261\n      jumpi\n      0x0100\n      dup1\n      dup4\n      sload\n      div\n      mul\n      dup4\n      mstore\n      swap2\n      0x20\n      add\n      swap2\n      jump(tag_260)\n    tag_261:\n      dup3\n      add\n      swap2\n      swap1\n      0x00\n      mstore\n      keccak256(0x00, 0x20)\n      swap1\n    tag_262:\n      dup2\n      sload\n      dup2\n      mstore\n      swap1\n      0x01\n      add\n      swap1\n      0x20\n      add\n      dup1\n      dup4\n      gt\n      tag_262\n      jumpi\n      dup3\n      swap1\n      sub\n      0x1f\n      and\n      dup3\n      add\n      swap2\n    tag_260:\n      pop\n      pop\n      pop\n      pop\n      pop\n      dup2\n      mstore\n      0x20\n      add\n      swap1\n      0x01\n      add\n      swap1\n      jump(tag_255)\n    tag_256:\n      pop\n      pop\n      pop\n      pop\n      swap1\n      pop\n        /* \"TestSubmissionSystem.sol\":4426:4730  function getRole() public view returns (string[] memory) {... */\n      swap1\n      jump\t// out\n    tag_126:\n      mload(0x40)\n      dup1\n      0xc0\n      add\n      0x40\n      mstore\n      dup1\n      and(0xffffffffffffffffffffffffffffffffffffffff, 0x00)\n      dup2\n      mstore\n      0x20\n      add\n      0x60\n      dup2\n      mstore\n      0x20\n      add\n      0x00\n      dup2\n      mstore\n      0x20\n      add\n      0x00\n      dup1\n      not\n      and\n      dup2\n      mstore\n      0x20\n      add\n      0x00\n      dup1\n      not\n      and\n      dup2\n      mstore\n      0x20\n      add\n      0x00\n      dup1\n      not\n      and\n      dup2\n      mstore\n      pop\n      swap1\n      jump\t// out\n    tag_144:\n      mload(0x40)\n      dup1\n      0xa0\n      add\n      0x40\n      mstore\n      dup1\n      0x60\n      dup2\n      mstore\n      0x20\n      add\n      0x60\n      dup2\n      mstore\n      0x20\n      add\n      0x60\n      dup2\n      mstore\n      0x20\n      add\n      0x00\n      dup2\n      mstore\n      0x20\n      add\n      0x00\n      dup2\n      mstore\n      pop\n      swap1\n      jump\t// out\n        /* \"#utility.yul\":7:82   */\n    tag_263:\n        /* \"#utility.yul\":40:46   */\n      0x00\n        /* \"#utility.yul\":73:75   */\n      0x40\n        /* \"#utility.yul\":67:76   */\n      mload\n        /* \"#utility.yul\":57:76   */\n      swap1\n      pop\n        /* \"#utility.yul\":7:82   */\n      swap1\n      jump\t// out\n        /* \"#utility.yul\":88:205   */\n    tag_264:\n        /* \"#utility.yul\":197:198   */\n      0x00\n        /* \"#utility.yul\":194:195   */\n      dup1\n        /* \"#utility.yul\":187:199   */\n      revert\n        /* \"#utility.yul\":211:328   */\n    tag_265:\n        /* \"#utility.yul\":320:321   */\n      0x00\n        /* \"#utility.yul\":317:318   */\n      dup1\n        /* \"#utility.yul\":310:322   */\n      revert\n        /* \"#utility.yul\":334:451   */\n    tag_266:\n        /* \"#utility.yul\":443:444   */\n      0x00\n        /* \"#utility.yul\":440:441   */\n      dup1\n        /* \"#utility.yul\":433:445   */\n      revert\n        /* \"#utility.yul\":457:574   */\n    tag_267:\n        /* \"#utility.yul\":566:567   */\n      0x00\n        /* \"#utility.yul\":563:564   */\n      dup1\n        /* \"#utility.yul\":556:568   */\n      revert\n        /* \"#utility.yul\":580:682   */\n    tag_268:\n        /* \"#utility.yul\":621:627   */\n      0x00\n        /* \"#utility.yul\":672:674   */\n      0x1f\n        /* \"#utility.yul\":668:675   */\n      not\n        /* \"#utility.yul\":663:665   */\n      0x1f\n        /* \"#utility.yul\":656:661   */\n      dup4\n        /* \"#utility.yul\":652:666   */\n      add\n        /* \"#utility.yul\":648:676   */\n      and\n        /* \"#utility.yul\":638:676   */\n      swap1\n      pop\n        /* \"#utility.yul\":580:682   */\n      swap2\n      swap1\n      pop\n      jump\t// out\n        /* \"#utility.yul\":688:868   */\n    tag_269:\n        /* \"#utility.yul\":736:813   */\n      0x4e487b7100000000000000000000000000000000000000000000000000000000\n        /* \"#utility.yul\":733:734   */\n      0x00\n        /* \"#utility.yul\":726:814   */\n      mstore\n        /* \"#utility.yul\":833:837   */\n      0x41\n        /* \"#utility.yul\":830:831   */\n      0x04\n        /* \"#utility.yul\":823:838   */\n      mstore\n        /* \"#utility.yul\":857:861   */\n      0x24\n        /* \"#utility.yul\":854:855   */\n      0x00\n        /* \"#utility.yul\":847:862   */\n      revert\n        /* \"#utility.yul\":874:1155   */\n    tag_270:\n        /* \"#utility.yul\":957:984   */\n      tag_383\n        /* \"#utility.yul\":979:983   */\n      dup3\n        /* \"#utility.yul\":957:984   */\n      tag_268\n      jump\t// in\n    tag_383:\n        /* \"#utility.yul\":949:955   */\n      dup2\n        /* \"#utility.yul\":945:985   */\n      add\n        /* \"#utility.yul\":1087:1093   */\n      dup2\n        /* \"#utility.yul\":1075:1085   */\n      dup2\n        /* \"#utility.yul\":1072:1094   */\n      lt\n        /* \"#utility.yul\":1051:1069   */\n      0xffffffffffffffff\n        /* \"#utility.yul\":1039:1049   */\n      dup3\n        /* \"#utility.yul\":1036:1070   */\n      gt\n        /* \"#utility.yul\":1033:1095   */\n      or\n        /* \"#utility.yul\":1030:1118   */\n      iszero\n      tag_384\n      jumpi\n        /* \"#utility.yul\":1098:1116   */\n      tag_385\n      tag_269\n      jump\t// in\n    tag_385:\n        /* \"#utility.yul\":1030:1118   */\n    tag_384:\n        /* \"#utility.yul\":1138:1148   */\n      dup1\n        /* \"#utility.yul\":1134:1136   */\n      0x40\n        /* \"#utility.yul\":1127:1149   */\n      mstore\n        /* \"#utility.yul\":917:1155   */\n      pop\n        /* \"#utility.yul\":874:1155   */\n      pop\n      pop\n      jump\t// out\n        /* \"#utility.yul\":1161:1290   */\n    tag_271:\n        /* \"#utility.yul\":1195:1201   */\n      0x00\n        /* \"#utility.yul\":1222:1242   */\n      tag_387\n      tag_263\n      jump\t// in\n    tag_387:\n        /* \"#utility.yul\":1212:1242   */\n      swap1\n      pop\n        /* \"#utility.yul\":1251:1284   */\n      tag_388\n        /* \"#utility.yul\":1279:1283   */\n      dup3\n        /* \"#utility.yul\":1271:1277   */\n      dup3\n        /* \"#utility.yul\":1251:1284   */\n      tag_270\n      jump\t// in\n    tag_388:\n        /* \"#utility.yul\":1161:1290   */\n      swap2\n      swap1\n      pop\n      jump\t// out\n        /* \"#utility.yul\":1296:1604   */\n    tag_272:\n        /* \"#utility.yul\":1358:1362   */\n      0x00\n        /* \"#utility.yul\":1448:1466   */\n      0xffffffffffffffff\n        /* \"#utility.yul\":1440:1446   */\n      dup3\n        /* \"#utility.yul\":1437:1467   */\n      gt\n        /* \"#utility.yul\":1434:1490   */\n      iszero\n      tag_390\n      jumpi\n        /* \"#utility.yul\":1470:1488   */\n      tag_391\n      tag_269\n      jump\t// in\n    tag_391:\n        /* \"#utility.yul\":1434:1490   */\n    tag_390:\n        /* \"#utility.yul\":1508:1537   */\n      tag_392\n        /* \"#utility.yul\":1530:1536   */\n      dup3\n        /* \"#utility.yul\":1508:1537   */\n      tag_268\n      jump\t// in\n    tag_392:\n        /* \"#utility.yul\":1500:1537   */\n      swap1\n      pop\n        /* \"#utility.yul\":1592:1596   */\n      0x20\n        /* \"#utility.yul\":1586:1590   */\n      dup2\n        /* \"#utility.yul\":1582:1597   */\n      add\n        /* \"#utility.yul\":1574:1597   */\n      swap1\n      pop\n        /* \"#utility.yul\":1296:1604   */\n      swap2\n      swap1\n      pop\n      jump\t// out\n        /* \"#utility.yul\":1610:1758   */\n    tag_273:\n        /* \"#utility.yul\":1708:1714   */\n      dup3\n        /* \"#utility.yul\":1703:1706   */\n      dup2\n        /* \"#utility.yul\":1698:1701   */\n      dup4\n        /* \"#utility.yul\":1685:1715   */\n      calldatacopy\n        /* \"#utility.yul\":1749:1750   */\n      0x00\n        /* \"#utility.yul\":1740:1746   */\n      dup4\n        /* \"#utility.yul\":1735:1738   */\n      dup4\n        /* \"#utility.yul\":1731:1747   */\n      add\n        /* \"#utility.yul\":1724:1751   */\n      mstore\n        /* \"#utility.yul\":1610:1758   */\n      pop\n      pop\n      pop\n      jump\t// out\n        /* \"#utility.yul\":1764:2189   */\n    tag_274:\n        /* \"#utility.yul\":1842:1847   */\n      0x00\n        /* \"#utility.yul\":1867:1933   */\n      tag_395\n        /* \"#utility.yul\":1883:1932   */\n      tag_396\n        /* \"#utility.yul\":1925:1931   */\n      dup5\n        /* \"#utility.yul\":1883:1932   */\n      tag_272\n      jump\t// in\n    tag_396:\n        /* \"#utility.yul\":1867:1933   */\n      tag_271\n      jump\t// in\n    tag_395:\n        /* \"#utility.yul\":1858:1933   */\n      swap1\n      pop\n        /* \"#utility.yul\":1956:1962   */\n      dup3\n        /* \"#utility.yul\":1949:1954   */\n      dup2\n        /* \"#utility.yul\":1942:1963   */\n      mstore\n        /* \"#utility.yul\":1994:1998   */\n      0x20\n        /* \"#utility.yul\":1987:1992   */\n      dup2\n        /* \"#utility.yul\":1983:1999   */\n      add\n        /* \"#utility.yul\":2032:2035   */\n      dup5\n        /* \"#utility.yul\":2023:2029   */\n      dup5\n        /* \"#utility.yul\":2018:2021   */\n      dup5\n        /* \"#utility.yul\":2014:2030   */\n      add\n        /* \"#utility.yul\":2011:2036   */\n      gt\n        /* \"#utility.yul\":2008:2120   */\n      iszero\n      tag_397\n      jumpi\n        /* \"#utility.yul\":2039:2118   */\n      tag_398\n      tag_267\n      jump\t// in\n    tag_398:\n        /* \"#utility.yul\":2008:2120   */\n    tag_397:\n        /* \"#utility.yul\":2129:2183   */\n      tag_399\n        /* \"#utility.yul\":2176:2182   */\n      dup5\n        /* \"#utility.yul\":2171:2174   */\n      dup3\n        /* \"#utility.yul\":2166:2169   */\n      dup6\n        /* \"#utility.yul\":2129:2183   */\n      tag_273\n      jump\t// in\n    tag_399:\n        /* \"#utility.yul\":1848:2189   */\n      pop\n        /* \"#utility.yul\":1764:2189   */\n      swap4\n      swap3\n      pop\n      pop\n      pop\n      jump\t// out\n        /* \"#utility.yul\":2209:2549   */\n    tag_275:\n        /* \"#utility.yul\":2265:2270   */\n      0x00\n        /* \"#utility.yul\":2314:2317   */\n      dup3\n        /* \"#utility.yul\":2307:2311   */\n      0x1f\n        /* \"#utility.yul\":2299:2305   */\n      dup4\n        /* \"#utility.yul\":2295:2312   */\n      add\n        /* \"#utility.yul\":2291:2318   */\n      slt\n        /* \"#utility.yul\":2281:2403   */\n      tag_401\n      jumpi\n        /* \"#utility.yul\":2322:2401   */\n      tag_402\n      tag_266\n      jump\t// in\n    tag_402:\n        /* \"#utility.yul\":2281:2403   */\n    tag_401:\n        /* \"#utility.yul\":2439:2445   */\n      dup2\n        /* \"#utility.yul\":2426:2446   */\n      calldataload\n        /* \"#utility.yul\":2464:2543   */\n      tag_403\n        /* \"#utility.yul\":2539:2542   */\n      dup5\n        /* \"#utility.yul\":2531:2537   */\n      dup3\n        /* \"#utility.yul\":2524:2528   */\n      0x20\n        /* \"#utility.yul\":2516:2522   */\n      dup7\n        /* \"#utility.yul\":2512:2529   */\n      add\n        /* \"#utility.yul\":2464:2543   */\n      tag_274\n      jump\t// in\n    tag_403:\n        /* \"#utility.yul\":2455:2543   */\n      swap2\n      pop\n        /* \"#utility.yul\":2271:2549   */\n      pop\n        /* \"#utility.yul\":2209:2549   */\n      swap3\n      swap2\n      pop\n      pop\n      jump\t// out\n        /* \"#utility.yul\":2555:3714   */\n    tag_20:\n        /* \"#utility.yul\":2662:2668   */\n      0x00\n        /* \"#utility.yul\":2670:2676   */\n      dup1\n        /* \"#utility.yul\":2678:2684   */\n      0x00\n        /* \"#utility.yul\":2727:2729   */\n      0x60\n        /* \"#utility.yul\":2715:2724   */\n      dup5\n        /* \"#utility.yul\":2706:2713   */\n      dup7\n        /* \"#utility.yul\":2702:2725   */\n      sub\n        /* \"#utility.yul\":2698:2730   */\n      slt\n        /* \"#utility.yul\":2695:2814   */\n      iszero\n      tag_405\n      jumpi\n        /* \"#utility.yul\":2733:2812   */\n      tag_406\n      tag_264\n      jump\t// in\n    tag_406:\n        /* \"#utility.yul\":2695:2814   */\n    tag_405:\n        /* \"#utility.yul\":2881:2882   */\n      0x00\n        /* \"#utility.yul\":2870:2879   */\n      dup5\n        /* \"#utility.yul\":2866:2883   */\n      add\n        /* \"#utility.yul\":2853:2884   */\n      calldataload\n        /* \"#utility.yul\":2911:2929   */\n      0xffffffffffffffff\n        /* \"#utility.yul\":2903:2909   */\n      dup2\n        /* \"#utility.yul\":2900:2930   */\n      gt\n        /* \"#utility.yul\":2897:3014   */\n      iszero\n      tag_407\n      jumpi\n        /* \"#utility.yul\":2933:3012   */\n      tag_408\n      tag_265\n      jump\t// in\n    tag_408:\n        /* \"#utility.yul\":2897:3014   */\n    tag_407:\n        /* \"#utility.yul\":3038:3101   */\n      tag_409\n        /* \"#utility.yul\":3093:3100   */\n      dup7\n        /* \"#utility.yul\":3084:3090   */\n      dup3\n        /* \"#utility.yul\":3073:3082   */\n      dup8\n        /* \"#utility.yul\":3069:3091   */\n      add\n        /* \"#utility.yul\":3038:3101   */\n      tag_275\n      jump\t// in\n    tag_409:\n        /* \"#utility.yul\":3028:3101   */\n      swap4\n      pop\n        /* \"#utility.yul\":2824:3111   */\n      pop\n        /* \"#utility.yul\":3178:3180   */\n      0x20\n        /* \"#utility.yul\":3167:3176   */\n      dup5\n        /* \"#utility.yul\":3163:3181   */\n      add\n        /* \"#utility.yul\":3150:3182   */\n      calldataload\n        /* \"#utility.yul\":3209:3227   */\n      0xffffffffffffffff\n        /* \"#utility.yul\":3201:3207   */\n      dup2\n        /* \"#utility.yul\":3198:3228   */\n      gt\n        /* \"#utility.yul\":3195:3312   */\n      iszero\n      tag_410\n      jumpi\n        /* \"#utility.yul\":3231:3310   */\n      tag_411\n      tag_265\n      jump\t// in\n    tag_411:\n        /* \"#utility.yul\":3195:3312   */\n    tag_410:\n        /* \"#utility.yul\":3336:3399   */\n      tag_412\n        /* \"#utility.yul\":3391:3398   */\n      dup7\n        /* \"#utility.yul\":3382:3388   */\n      dup3\n        /* \"#utility.yul\":3371:3380   */\n      dup8\n        /* \"#utility.yul\":3367:3389   */\n      add\n        /* \"#utility.yul\":3336:3399   */\n      tag_275\n      jump\t// in\n    tag_412:\n        /* \"#utility.yul\":3326:3399   */\n      swap3\n      pop\n        /* \"#utility.yul\":3121:3409   */\n      pop\n        /* \"#utility.yul\":3476:3478   */\n      0x40\n        /* \"#utility.yul\":3465:3474   */\n      dup5\n        /* \"#utility.yul\":3461:3479   */\n      add\n        /* \"#utility.yul\":3448:3480   */\n      calldataload\n        /* \"#utility.yul\":3507:3525   */\n      0xffffffffffffffff\n        /* \"#utility.yul\":3499:3505   */\n      dup2\n        /* \"#utility.yul\":3496:3526   */\n      gt\n        /* \"#utility.yul\":3493:3610   */\n      iszero\n      tag_413\n      jumpi\n        /* \"#utility.yul\":3529:3608   */\n      tag_414\n      tag_265\n      jump\t// in\n    tag_414:\n        /* \"#utility.yul\":3493:3610   */\n    tag_413:\n        /* \"#utility.yul\":3634:3697   */\n      tag_415\n        /* \"#utility.yul\":3689:3696   */\n      dup7\n        /* \"#utility.yul\":3680:3686   */\n      dup3\n        /* \"#utility.yul\":3669:3678   */\n      dup8\n        /* \"#utility.yul\":3665:3687   */\n      add\n        /* \"#utility.yul\":3634:3697   */\n      tag_275\n      jump\t// in\n    tag_415:\n        /* \"#utility.yul\":3624:3697   */\n      swap2\n      pop\n        /* \"#utility.yul\":3419:3707   */\n      pop\n        /* \"#utility.yul\":2555:3714   */\n      swap3\n      pop\n      swap3\n      pop\n      swap3\n      jump\t// out\n        /* \"#utility.yul\":3720:4229   */\n    tag_24:\n        /* \"#utility.yul\":3789:3795   */\n      0x00\n        /* \"#utility.yul\":3838:3840   */\n      0x20\n        /* \"#utility.yul\":3826:3835   */\n      dup3\n        /* \"#utility.yul\":3817:3824   */\n      dup5\n        /* \"#utility.yul\":3813:3836   */\n      sub\n        /* \"#utility.yul\":3809:3841   */\n      slt\n        /* \"#utility.yul\":3806:3925   */\n      iszero\n      tag_417\n      jumpi\n        /* \"#utility.yul\":3844:3923   */\n      tag_418\n      tag_264\n      jump\t// in\n    tag_418:\n        /* \"#utility.yul\":3806:3925   */\n    tag_417:\n        /* \"#utility.yul\":3992:3993   */\n      0x00\n        /* \"#utility.yul\":3981:3990   */\n      dup3\n        /* \"#utility.yul\":3977:3994   */\n      add\n        /* \"#utility.yul\":3964:3995   */\n      calldataload\n        /* \"#utility.yul\":4022:4040   */\n      0xffffffffffffffff\n        /* \"#utility.yul\":4014:4020   */\n      dup2\n        /* \"#utility.yul\":4011:4041   */\n      gt\n        /* \"#utility.yul\":4008:4125   */\n      iszero\n      tag_419\n      jumpi\n        /* \"#utility.yul\":4044:4123   */\n      tag_420\n      tag_265\n      jump\t// in\n    tag_420:\n        /* \"#utility.yul\":4008:4125   */\n    tag_419:\n        /* \"#utility.yul\":4149:4212   */\n      tag_421\n        /* \"#utility.yul\":4204:4211   */\n      dup5\n        /* \"#utility.yul\":4195:4201   */\n      dup3\n        /* \"#utility.yul\":4184:4193   */\n      dup6\n        /* \"#utility.yul\":4180:4202   */\n      add\n        /* \"#utility.yul\":4149:4212   */\n      tag_275\n      jump\t// in\n    tag_421:\n        /* \"#utility.yul\":4139:4212   */\n      swap2\n      pop\n        /* \"#utility.yul\":3935:4222   */\n      pop\n        /* \"#utility.yul\":3720:4229   */\n      swap3\n      swap2\n      pop\n      pop\n      jump\t// out\n        /* \"#utility.yul\":4235:4361   */\n    tag_276:\n        /* \"#utility.yul\":4272:4279   */\n      0x00\n        /* \"#utility.yul\":4312:4354   */\n      0xffffffffffffffffffffffffffffffffffffffff\n        /* \"#utility.yul\":4305:4310   */\n      dup3\n        /* \"#utility.yul\":4301:4355   */\n      and\n        /* \"#utility.yul\":4290:4355   */\n      swap1\n      pop\n        /* \"#utility.yul\":4235:4361   */\n      swap2\n      swap1\n      pop\n      jump\t// out\n        /* \"#utility.yul\":4367:4463   */\n    tag_277:\n        /* \"#utility.yul\":4404:4411   */\n      0x00\n        /* \"#utility.yul\":4433:4457   */\n      tag_424\n        /* \"#utility.yul\":4451:4456   */\n      dup3\n        /* \"#utility.yul\":4433:4457   */\n      tag_276\n      jump\t// in\n    tag_424:\n        /* \"#utility.yul\":4422:4457   */\n      swap1\n      pop\n        /* \"#utility.yul\":4367:4463   */\n      swap2\n      swap1\n      pop\n      jump\t// out\n        /* \"#utility.yul\":4469:4591   */\n    tag_278:\n        /* \"#utility.yul\":4542:4566   */\n      tag_426\n        /* \"#utility.yul\":4560:4565   */\n      dup2\n        /* \"#utility.yul\":4542:4566   */\n      tag_277\n      jump\t// in\n    tag_426:\n        /* \"#utility.yul\":4535:4540   */\n      dup2\n        /* \"#utility.yul\":4532:4567   */\n      eq\n        /* \"#utility.yul\":4522:4585   */\n      tag_427\n      jumpi\n        /* \"#utility.yul\":4581:4582   */\n      0x00\n        /* \"#utility.yul\":4578:4579   */\n      dup1\n        /* \"#utility.yul\":4571:4583   */\n      revert\n        /* \"#utility.yul\":4522:4585   */\n    tag_427:\n        /* \"#utility.yul\":4469:4591   */\n      pop\n      jump\t// out\n        /* \"#utility.yul\":4597:4736   */\n    tag_279:\n        /* \"#utility.yul\":4643:4648   */\n      0x00\n        /* \"#utility.yul\":4681:4687   */\n      dup2\n        /* \"#utility.yul\":4668:4688   */\n      calldataload\n        /* \"#utility.yul\":4659:4688   */\n      swap1\n      pop\n        /* \"#utility.yul\":4697:4730   */\n      tag_429\n        /* \"#utility.yul\":4724:4729   */\n      dup2\n        /* \"#utility.yul\":4697:4730   */\n      tag_278\n      jump\t// in\n    tag_429:\n        /* \"#utility.yul\":4597:4736   */\n      swap3\n      swap2\n      pop\n      pop\n      jump\t// out\n        /* \"#utility.yul\":4742:4819   */\n    tag_280:\n        /* \"#utility.yul\":4779:4786   */\n      0x00\n        /* \"#utility.yul\":4808:4813   */\n      dup2\n        /* \"#utility.yul\":4797:4813   */\n      swap1\n      pop\n        /* \"#utility.yul\":4742:4819   */\n      swap2\n      swap1\n      pop\n      jump\t// out\n        /* \"#utility.yul\":4825:4947   */\n    tag_281:\n        /* \"#utility.yul\":4898:4922   */\n      tag_432\n        /* \"#utility.yul\":4916:4921   */\n      dup2\n        /* \"#utility.yul\":4898:4922   */\n      tag_280\n      jump\t// in\n    tag_432:\n        /* \"#utility.yul\":4891:4896   */\n      dup2\n        /* \"#utility.yul\":4888:4923   */\n      eq\n        /* \"#utility.yul\":4878:4941   */\n      tag_433\n      jumpi\n        /* \"#utility.yul\":4937:4938   */\n      0x00\n        /* \"#utility.yul\":4934:4935   */\n      dup1\n        /* \"#utility.yul\":4927:4939   */\n      revert\n        /* \"#utility.yul\":4878:4941   */\n    tag_433:\n        /* \"#utility.yul\":4825:4947   */\n      pop\n      jump\t// out\n        /* \"#utility.yul\":4953:5092   */\n    tag_282:\n        /* \"#utility.yul\":4999:5004   */\n      0x00\n        /* \"#utility.yul\":5037:5043   */\n      dup2\n        /* \"#utility.yul\":5024:5044   */\n      calldataload\n        /* \"#utility.yul\":5015:5044   */\n      swap1\n      pop\n        /* \"#utility.yul\":5053:5086   */\n      tag_435\n        /* \"#utility.yul\":5080:5085   */\n      dup2\n        /* \"#utility.yul\":5053:5086   */\n      tag_281\n      jump\t// in\n    tag_435:\n        /* \"#utility.yul\":4953:5092   */\n      swap3\n      swap2\n      pop\n      pop\n      jump\t// out\n        /* \"#utility.yul\":5098:6043   */\n    tag_28:\n        /* \"#utility.yul\":5194:5200   */\n      0x00\n        /* \"#utility.yul\":5202:5208   */\n      dup1\n        /* \"#utility.yul\":5210:5216   */\n      0x00\n        /* \"#utility.yul\":5218:5224   */\n      dup1\n        /* \"#utility.yul\":5267:5270   */\n      0x80\n        /* \"#utility.yul\":5255:5264   */\n      dup6\n        /* \"#utility.yul\":5246:5253   */\n      dup8\n        /* \"#utility.yul\":5242:5265   */\n      sub\n        /* \"#utility.yul\":5238:5271   */\n      slt\n        /* \"#utility.yul\":5235:5355   */\n      iszero\n      tag_437\n      jumpi\n        /* \"#utility.yul\":5274:5353   */\n      tag_438\n      tag_264\n      jump\t// in\n    tag_438:\n        /* \"#utility.yul\":5235:5355   */\n    tag_437:\n        /* \"#utility.yul\":5394:5395   */\n      0x00\n        /* \"#utility.yul\":5419:5472   */\n      tag_439\n        /* \"#utility.yul\":5464:5471   */\n      dup8\n        /* \"#utility.yul\":5455:5461   */\n      dup3\n        /* \"#utility.yul\":5444:5453   */\n      dup9\n        /* \"#utility.yul\":5440:5462   */\n      add\n        /* \"#utility.yul\":5419:5472   */\n      tag_279\n      jump\t// in\n    tag_439:\n        /* \"#utility.yul\":5409:5472   */\n      swap5\n      pop\n        /* \"#utility.yul\":5365:5482   */\n      pop\n        /* \"#utility.yul\":5549:5551   */\n      0x20\n        /* \"#utility.yul\":5538:5547   */\n      dup6\n        /* \"#utility.yul\":5534:5552   */\n      add\n        /* \"#utility.yul\":5521:5553   */\n      calldataload\n        /* \"#utility.yul\":5580:5598   */\n      0xffffffffffffffff\n        /* \"#utility.yul\":5572:5578   */\n      dup2\n        /* \"#utility.yul\":5569:5599   */\n      gt\n        /* \"#utility.yul\":5566:5683   */\n      iszero\n      tag_440\n      jumpi\n        /* \"#utility.yul\":5602:5681   */\n      tag_441\n      tag_265\n      jump\t// in\n    tag_441:\n        /* \"#utility.yul\":5566:5683   */\n    tag_440:\n        /* \"#utility.yul\":5707:5770   */\n      tag_442\n        /* \"#utility.yul\":5762:5769   */\n      dup8\n        /* \"#utility.yul\":5753:5759   */\n      dup3\n        /* \"#utility.yul\":5742:5751   */\n      dup9\n        /* \"#utility.yul\":5738:5760   */\n      add\n        /* \"#utility.yul\":5707:5770   */\n      tag_275\n      jump\t// in\n    tag_442:\n        /* \"#utility.yul\":5697:5770   */\n      swap4\n      pop\n        /* \"#utility.yul\":5492:5780   */\n      pop\n        /* \"#utility.yul\":5819:5821   */\n      0x40\n        /* \"#utility.yul\":5845:5898   */\n      tag_443\n        /* \"#utility.yul\":5890:5897   */\n      dup8\n        /* \"#utility.yul\":5881:5887   */\n      dup3\n        /* \"#utility.yul\":5870:5879   */\n      dup9\n        /* \"#utility.yul\":5866:5888   */\n      add\n        /* \"#utility.yul\":5845:5898   */\n      tag_282\n      jump\t// in\n    tag_443:\n        /* \"#utility.yul\":5835:5898   */\n      swap3\n      pop\n        /* \"#utility.yul\":5790:5908   */\n      pop\n        /* \"#utility.yul\":5947:5949   */\n      0x60\n        /* \"#utility.yul\":5973:6026   */\n      tag_444\n        /* \"#utility.yul\":6018:6025   */\n      dup8\n        /* \"#utility.yul\":6009:6015   */\n      dup3\n        /* \"#utility.yul\":5998:6007   */\n      dup9\n        /* \"#utility.yul\":5994:6016   */\n      add\n        /* \"#utility.yul\":5973:6026   */\n      tag_282\n      jump\t// in\n    tag_444:\n        /* \"#utility.yul\":5963:6026   */\n      swap2\n      pop\n        /* \"#utility.yul\":5918:6036   */\n      pop\n        /* \"#utility.yul\":5098:6043   */\n      swap3\n      swap6\n      swap2\n      swap5\n      pop\n      swap3\n      pop\n      jump\t// out\n        /* \"#utility.yul\":6049:6126   */\n    tag_283:\n        /* \"#utility.yul\":6086:6093   */\n      0x00\n        /* \"#utility.yul\":6115:6120   */\n      dup2\n        /* \"#utility.yul\":6104:6120   */\n      swap1\n      pop\n        /* \"#utility.yul\":6049:6126   */\n      swap2\n      swap1\n      pop\n      jump\t// out\n        /* \"#utility.yul\":6132:6254   */\n    tag_284:\n        /* \"#utility.yul\":6205:6229   */\n      tag_447\n        /* \"#utility.yul\":6223:6228   */\n      dup2\n        /* \"#utility.yul\":6205:6229   */\n      tag_283\n      jump\t// in\n    tag_447:\n        /* \"#utility.yul\":6198:6203   */\n      dup2\n        /* \"#utility.yul\":6195:6230   */\n      eq\n        /* \"#utility.yul\":6185:6248   */\n      tag_448\n      jumpi\n        /* \"#utility.yul\":6244:6245   */\n      0x00\n        /* \"#utility.yul\":6241:6242   */\n      dup1\n        /* \"#utility.yul\":6234:6246   */\n      revert\n        /* \"#utility.yul\":6185:6248   */\n    tag_448:\n        /* \"#utility.yul\":6132:6254   */\n      pop\n      jump\t// out\n        /* \"#utility.yul\":6260:6399   */\n    tag_285:\n        /* \"#utility.yul\":6306:6311   */\n      0x00\n        /* \"#utility.yul\":6344:6350   */\n      dup2\n        /* \"#utility.yul\":6331:6351   */\n      calldataload\n        /* \"#utility.yul\":6322:6351   */\n      swap1\n      pop\n        /* \"#utility.yul\":6360:6393   */\n      tag_450\n        /* \"#utility.yul\":6387:6392   */\n      dup2\n        /* \"#utility.yul\":6360:6393   */\n      tag_284\n      jump\t// in\n    tag_450:\n        /* \"#utility.yul\":6260:6399   */\n      swap3\n      swap2\n      pop\n      pop\n      jump\t// out\n        /* \"#utility.yul\":6405:6879   */\n    tag_35:\n        /* \"#utility.yul\":6473:6479   */\n      0x00\n        /* \"#utility.yul\":6481:6487   */\n      dup1\n        /* \"#utility.yul\":6530:6532   */\n      0x40\n        /* \"#utility.yul\":6518:6527   */\n      dup4\n        /* \"#utility.yul\":6509:6516   */\n      dup6\n        /* \"#utility.yul\":6505:6528   */\n      sub\n        /* \"#utility.yul\":6501:6533   */\n      slt\n        /* \"#utility.yul\":6498:6617   */\n      iszero\n      tag_452\n      jumpi\n        /* \"#utility.yul\":6536:6615   */\n      tag_453\n      tag_264\n      jump\t// in\n    tag_453:\n        /* \"#utility.yul\":6498:6617   */\n    tag_452:\n        /* \"#utility.yul\":6656:6657   */\n      0x00\n        /* \"#utility.yul\":6681:6734   */\n      tag_454\n        /* \"#utility.yul\":6726:6733   */\n      dup6\n        /* \"#utility.yul\":6717:6723   */\n      dup3\n        /* \"#utility.yul\":6706:6715   */\n      dup7\n        /* \"#utility.yul\":6702:6724   */\n      add\n        /* \"#utility.yul\":6681:6734   */\n      tag_279\n      jump\t// in\n    tag_454:\n        /* \"#utility.yul\":6671:6734   */\n      swap3\n      pop\n        /* \"#utility.yul\":6627:6744   */\n      pop\n        /* \"#utility.yul\":6783:6785   */\n      0x20\n        /* \"#utility.yul\":6809:6862   */\n      tag_455\n        /* \"#utility.yul\":6854:6861   */\n      dup6\n        /* \"#utility.yul\":6845:6851   */\n      dup3\n        /* \"#utility.yul\":6834:6843   */\n      dup7\n        /* \"#utility.yul\":6830:6852   */\n      add\n        /* \"#utility.yul\":6809:6862   */\n      tag_285\n      jump\t// in\n    tag_455:\n        /* \"#utility.yul\":6799:6862   */\n      swap2\n      pop\n        /* \"#utility.yul\":6754:6872   */\n      pop\n        /* \"#utility.yul\":6405:6879   */\n      swap3\n      pop\n      swap3\n      swap1\n      pop\n      jump\t// out\n        /* \"#utility.yul\":6885:6993   */\n    tag_286:\n        /* \"#utility.yul\":6962:6986   */\n      tag_457\n        /* \"#utility.yul\":6980:6985   */\n      dup2\n        /* \"#utility.yul\":6962:6986   */\n      tag_277\n      jump\t// in\n    tag_457:\n        /* \"#utility.yul\":6957:6960   */\n      dup3\n        /* \"#utility.yul\":6950:6987   */\n      mstore\n        /* \"#utility.yul\":6885:6993   */\n      pop\n      pop\n      jump\t// out\n        /* \"#utility.yul\":6999:7098   */\n    tag_287:\n        /* \"#utility.yul\":7051:7057   */\n      0x00\n        /* \"#utility.yul\":7085:7090   */\n      dup2\n        /* \"#utility.yul\":7079:7091   */\n      mload\n        /* \"#utility.yul\":7069:7091   */\n      swap1\n      pop\n        /* \"#utility.yul\":6999:7098   */\n      swap2\n      swap1\n      pop\n      jump\t// out\n        /* \"#utility.yul\":7104:7263   */\n    tag_288:\n        /* \"#utility.yul\":7178:7189   */\n      0x00\n        /* \"#utility.yul\":7212:7218   */\n      dup3\n        /* \"#utility.yul\":7207:7210   */\n      dup3\n        /* \"#utility.yul\":7200:7219   */\n      mstore\n        /* \"#utility.yul\":7252:7256   */\n      0x20\n        /* \"#utility.yul\":7247:7250   */\n      dup3\n        /* \"#utility.yul\":7243:7257   */\n      add\n        /* \"#utility.yul\":7228:7257   */\n      swap1\n      pop\n        /* \"#utility.yul\":7104:7263   */\n      swap3\n      swap2\n      pop\n      pop\n      jump\t// out\n        /* \"#utility.yul\":7269:7408   */\n    tag_289:\n        /* \"#utility.yul\":7358:7364   */\n      dup3\n        /* \"#utility.yul\":7353:7356   */\n      dup2\n        /* \"#utility.yul\":7348:7351   */\n      dup4\n        /* \"#utility.yul\":7342:7365   */\n      mcopy\n        /* \"#utility.yul\":7399:7400   */\n      0x00\n        /* \"#utility.yul\":7390:7396   */\n      dup4\n        /* \"#utility.yul\":7385:7388   */\n      dup4\n        /* \"#utility.yul\":7381:7397   */\n      add\n        /* \"#utility.yul\":7374:7401   */\n      mstore\n        /* \"#utility.yul\":7269:7408   */\n      pop\n      pop\n      pop\n      jump\t// out\n        /* \"#utility.yul\":7414:7771   */\n    tag_290:\n        /* \"#utility.yul\":7492:7495   */\n      0x00\n        /* \"#utility.yul\":7520:7559   */\n      tag_462\n        /* \"#utility.yul\":7553:7558   */\n      dup3\n        /* \"#utility.yul\":7520:7559   */\n      tag_287\n      jump\t// in\n    tag_462:\n        /* \"#utility.yul\":7575:7636   */\n      tag_463\n        /* \"#utility.yul\":7629:7635   */\n      dup2\n        /* \"#utility.yul\":7624:7627   */\n      dup6\n        /* \"#utility.yul\":7575:7636   */\n      tag_288\n      jump\t// in\n    tag_463:\n        /* \"#utility.yul\":7568:7636   */\n      swap4\n      pop\n        /* \"#utility.yul\":7645:7710   */\n      tag_464\n        /* \"#utility.yul\":7703:7709   */\n      dup2\n        /* \"#utility.yul\":7698:7701   */\n      dup6\n        /* \"#utility.yul\":7691:7695   */\n      0x20\n        /* \"#utility.yul\":7684:7689   */\n      dup7\n        /* \"#utility.yul\":7680:7696   */\n      add\n        /* \"#utility.yul\":7645:7710   */\n      tag_289\n      jump\t// in\n    tag_464:\n        /* \"#utility.yul\":7735:7764   */\n      tag_465\n        /* \"#utility.yul\":7757:7763   */\n      dup2\n        /* \"#utility.yul\":7735:7764   */\n      tag_268\n      jump\t// in\n    tag_465:\n        /* \"#utility.yul\":7730:7733   */\n      dup5\n        /* \"#utility.yul\":7726:7765   */\n      add\n        /* \"#utility.yul\":7719:7765   */\n      swap2\n      pop\n        /* \"#utility.yul\":7496:7771   */\n      pop\n        /* \"#utility.yul\":7414:7771   */\n      swap3\n      swap2\n      pop\n      pop\n      jump\t// out\n        /* \"#utility.yul\":7777:7885   */\n    tag_291:\n        /* \"#utility.yul\":7854:7878   */\n      tag_467\n        /* \"#utility.yul\":7872:7877   */\n      dup2\n        /* \"#utility.yul\":7854:7878   */\n      tag_283\n      jump\t// in\n    tag_467:\n        /* \"#utility.yul\":7849:7852   */\n      dup3\n        /* \"#utility.yul\":7842:7879   */\n      mstore\n        /* \"#utility.yul\":7777:7885   */\n      pop\n      pop\n      jump\t// out\n        /* \"#utility.yul\":7891:7999   */\n    tag_292:\n        /* \"#utility.yul\":7968:7992   */\n      tag_469\n        /* \"#utility.yul\":7986:7991   */\n      dup2\n        /* \"#utility.yul\":7968:7992   */\n      tag_280\n      jump\t// in\n    tag_469:\n        /* \"#utility.yul\":7963:7966   */\n      dup3\n        /* \"#utility.yul\":7956:7993   */\n      mstore\n        /* \"#utility.yul\":7891:7999   */\n      pop\n      pop\n      jump\t// out\n        /* \"#utility.yul\":8093:9419   */\n    tag_293:\n        /* \"#utility.yul\":8214:8217   */\n      0x00\n        /* \"#utility.yul\":8250:8254   */\n      0xc0\n        /* \"#utility.yul\":8245:8248   */\n      dup4\n        /* \"#utility.yul\":8241:8255   */\n      add\n        /* \"#utility.yul\":8339:8343   */\n      0x00\n        /* \"#utility.yul\":8332:8337   */\n      dup4\n        /* \"#utility.yul\":8328:8344   */\n      add\n        /* \"#utility.yul\":8322:8345   */\n      mload\n        /* \"#utility.yul\":8358:8421   */\n      tag_471\n        /* \"#utility.yul\":8415:8419   */\n      0x00\n        /* \"#utility.yul\":8410:8413   */\n      dup7\n        /* \"#utility.yul\":8406:8420   */\n      add\n        /* \"#utility.yul\":8392:8404   */\n      dup3\n        /* \"#utility.yul\":8358:8421   */\n      tag_286\n      jump\t// in\n    tag_471:\n        /* \"#utility.yul\":8265:8431   */\n      pop\n        /* \"#utility.yul\":8513:8517   */\n      0x20\n        /* \"#utility.yul\":8506:8511   */\n      dup4\n        /* \"#utility.yul\":8502:8518   */\n      add\n        /* \"#utility.yul\":8496:8519   */\n      mload\n        /* \"#utility.yul\":8566:8569   */\n      dup5\n        /* \"#utility.yul\":8560:8564   */\n      dup3\n        /* \"#utility.yul\":8556:8570   */\n      sub\n        /* \"#utility.yul\":8549:8553   */\n      0x20\n        /* \"#utility.yul\":8544:8547   */\n      dup7\n        /* \"#utility.yul\":8540:8554   */\n      add\n        /* \"#utility.yul\":8533:8571   */\n      mstore\n        /* \"#utility.yul\":8592:8665   */\n      tag_472\n        /* \"#utility.yul\":8660:8664   */\n      dup3\n        /* \"#utility.yul\":8646:8658   */\n      dup3\n        /* \"#utility.yul\":8592:8665   */\n      tag_290\n      jump\t// in\n    tag_472:\n        /* \"#utility.yul\":8584:8665   */\n      swap2\n      pop\n        /* \"#utility.yul\":8441:8676   */\n      pop\n        /* \"#utility.yul\":8761:8765   */\n      0x40\n        /* \"#utility.yul\":8754:8759   */\n      dup4\n        /* \"#utility.yul\":8750:8766   */\n      add\n        /* \"#utility.yul\":8744:8767   */\n      mload\n        /* \"#utility.yul\":8780:8843   */\n      tag_473\n        /* \"#utility.yul\":8837:8841   */\n      0x40\n        /* \"#utility.yul\":8832:8835   */\n      dup7\n        /* \"#utility.yul\":8828:8842   */\n      add\n        /* \"#utility.yul\":8814:8826   */\n      dup3\n        /* \"#utility.yul\":8780:8843   */\n      tag_291\n      jump\t// in\n    tag_473:\n        /* \"#utility.yul\":8686:8853   */\n      pop\n        /* \"#utility.yul\":8937:8941   */\n      0x60\n        /* \"#utility.yul\":8930:8935   */\n      dup4\n        /* \"#utility.yul\":8926:8942   */\n      add\n        /* \"#utility.yul\":8920:8943   */\n      mload\n        /* \"#utility.yul\":8956:9019   */\n      tag_474\n        /* \"#utility.yul\":9013:9017   */\n      0x60\n        /* \"#utility.yul\":9008:9011   */\n      dup7\n        /* \"#utility.yul\":9004:9018   */\n      add\n        /* \"#utility.yul\":8990:9002   */\n      dup3\n        /* \"#utility.yul\":8956:9019   */\n      tag_292\n      jump\t// in\n    tag_474:\n        /* \"#utility.yul\":8863:9029   */\n      pop\n        /* \"#utility.yul\":9117:9121   */\n      0x80\n        /* \"#utility.yul\":9110:9115   */\n      dup4\n        /* \"#utility.yul\":9106:9122   */\n      add\n        /* \"#utility.yul\":9100:9123   */\n      mload\n        /* \"#utility.yul\":9136:9199   */\n      tag_475\n        /* \"#utility.yul\":9193:9197   */\n      0x80\n        /* \"#utility.yul\":9188:9191   */\n      dup7\n        /* \"#utility.yul\":9184:9198   */\n      add\n        /* \"#utility.yul\":9170:9182   */\n      dup3\n        /* \"#utility.yul\":9136:9199   */\n      tag_292\n      jump\t// in\n    tag_475:\n        /* \"#utility.yul\":9039:9209   */\n      pop\n        /* \"#utility.yul\":9300:9304   */\n      0xa0\n        /* \"#utility.yul\":9293:9298   */\n      dup4\n        /* \"#utility.yul\":9289:9305   */\n      add\n        /* \"#utility.yul\":9283:9306   */\n      mload\n        /* \"#utility.yul\":9319:9382   */\n      tag_476\n        /* \"#utility.yul\":9376:9380   */\n      0xa0\n        /* \"#utility.yul\":9371:9374   */\n      dup7\n        /* \"#utility.yul\":9367:9381   */\n      add\n        /* \"#utility.yul\":9353:9365   */\n      dup3\n        /* \"#utility.yul\":9319:9382   */\n      tag_292\n      jump\t// in\n    tag_476:\n        /* \"#utility.yul\":9219:9392   */\n      pop\n        /* \"#utility.yul\":9409:9413   */\n      dup1\n        /* \"#utility.yul\":9402:9413   */\n      swap2\n      pop\n        /* \"#utility.yul\":8219:9419   */\n      pop\n        /* \"#utility.yul\":8093:9419   */\n      swap3\n      swap2\n      pop\n      pop\n      jump\t// out\n        /* \"#utility.yul\":9425:9802   */\n    tag_38:\n        /* \"#utility.yul\":9570:9574   */\n      0x00\n        /* \"#utility.yul\":9608:9610   */\n      0x20\n        /* \"#utility.yul\":9597:9606   */\n      dup3\n        /* \"#utility.yul\":9593:9611   */\n      add\n        /* \"#utility.yul\":9585:9611   */\n      swap1\n      pop\n        /* \"#utility.yul\":9657:9666   */\n      dup2\n        /* \"#utility.yul\":9651:9655   */\n      dup2\n        /* \"#utility.yul\":9647:9667   */\n      sub\n        /* \"#utility.yul\":9643:9644   */\n      0x00\n        /* \"#utility.yul\":9632:9641   */\n      dup4\n        /* \"#utility.yul\":9628:9645   */\n      add\n        /* \"#utility.yul\":9621:9668   */\n      mstore\n        /* \"#utility.yul\":9685:9795   */\n      tag_478\n        /* \"#utility.yul\":9790:9794   */\n      dup2\n        /* \"#utility.yul\":9781:9787   */\n      dup5\n        /* \"#utility.yul\":9685:9795   */\n      tag_293\n      jump\t// in\n    tag_478:\n        /* \"#utility.yul\":9677:9795   */\n      swap1\n      pop\n        /* \"#utility.yul\":9425:9802   */\n      swap3\n      swap2\n      pop\n      pop\n      jump\t// out\n        /* \"#utility.yul\":9892:11195   */\n    tag_294:\n        /* \"#utility.yul\":10009:10012   */\n      0x00\n        /* \"#utility.yul\":10045:10049   */\n      0xa0\n        /* \"#utility.yul\":10040:10043   */\n      dup4\n        /* \"#utility.yul\":10036:10050   */\n      add\n        /* \"#utility.yul\":10132:10136   */\n      0x00\n        /* \"#utility.yul\":10125:10130   */\n      dup4\n        /* \"#utility.yul\":10121:10137   */\n      add\n        /* \"#utility.yul\":10115:10138   */\n      mload\n        /* \"#utility.yul\":10185:10188   */\n      dup5\n        /* \"#utility.yul\":10179:10183   */\n      dup3\n        /* \"#utility.yul\":10175:10189   */\n      sub\n        /* \"#utility.yul\":10168:10172   */\n      0x00\n        /* \"#utility.yul\":10163:10166   */\n      dup7\n        /* \"#utility.yul\":10159:10173   */\n      add\n        /* \"#utility.yul\":10152:10190   */\n      mstore\n        /* \"#utility.yul\":10211:10284   */\n      tag_480\n        /* \"#utility.yul\":10279:10283   */\n      dup3\n        /* \"#utility.yul\":10265:10277   */\n      dup3\n        /* \"#utility.yul\":10211:10284   */\n      tag_290\n      jump\t// in\n    tag_480:\n        /* \"#utility.yul\":10203:10284   */\n      swap2\n      pop\n        /* \"#utility.yul\":10060:10295   */\n      pop\n        /* \"#utility.yul\":10378:10382   */\n      0x20\n        /* \"#utility.yul\":10371:10376   */\n      dup4\n        /* \"#utility.yul\":10367:10383   */\n      add\n        /* \"#utility.yul\":10361:10384   */\n      mload\n        /* \"#utility.yul\":10431:10434   */\n      dup5\n        /* \"#utility.yul\":10425:10429   */\n      dup3\n        /* \"#utility.yul\":10421:10435   */\n      sub\n        /* \"#utility.yul\":10414:10418   */\n      0x20\n        /* \"#utility.yul\":10409:10412   */\n      dup7\n        /* \"#utility.yul\":10405:10419   */\n      add\n        /* \"#utility.yul\":10398:10436   */\n      mstore\n        /* \"#utility.yul\":10457:10530   */\n      tag_481\n        /* \"#utility.yul\":10525:10529   */\n      dup3\n        /* \"#utility.yul\":10511:10523   */\n      dup3\n        /* \"#utility.yul\":10457:10530   */\n      tag_290\n      jump\t// in\n    tag_481:\n        /* \"#utility.yul\":10449:10530   */\n      swap2\n      pop\n        /* \"#utility.yul\":10305:10541   */\n      pop\n        /* \"#utility.yul\":10633:10637   */\n      0x40\n        /* \"#utility.yul\":10626:10631   */\n      dup4\n        /* \"#utility.yul\":10622:10638   */\n      add\n        /* \"#utility.yul\":10616:10639   */\n      mload\n        /* \"#utility.yul\":10686:10689   */\n      dup5\n        /* \"#utility.yul\":10680:10684   */\n      dup3\n        /* \"#utility.yul\":10676:10690   */\n      sub\n        /* \"#utility.yul\":10669:10673   */\n      0x40\n        /* \"#utility.yul\":10664:10667   */\n      dup7\n        /* \"#utility.yul\":10660:10674   */\n      add\n        /* \"#utility.yul\":10653:10691   */\n      mstore\n        /* \"#utility.yul\":10712:10785   */\n      tag_482\n        /* \"#utility.yul\":10780:10784   */\n      dup3\n        /* \"#utility.yul\":10766:10778   */\n      dup3\n        /* \"#utility.yul\":10712:10785   */\n      tag_290\n      jump\t// in\n    tag_482:\n        /* \"#utility.yul\":10704:10785   */\n      swap2\n      pop\n        /* \"#utility.yul\":10551:10796   */\n      pop\n        /* \"#utility.yul\":10893:10897   */\n      0x60\n        /* \"#utility.yul\":10886:10891   */\n      dup4\n        /* \"#utility.yul\":10882:10898   */\n      add\n        /* \"#utility.yul\":10876:10899   */\n      mload\n        /* \"#utility.yul\":10912:10975   */\n      tag_483\n        /* \"#utility.yul\":10969:10973   */\n      0x60\n        /* \"#utility.yul\":10964:10967   */\n      dup7\n        /* \"#utility.yul\":10960:10974   */\n      add\n        /* \"#utility.yul\":10946:10958   */\n      dup3\n        /* \"#utility.yul\":10912:10975   */\n      tag_291\n      jump\t// in\n    tag_483:\n        /* \"#utility.yul\":10806:10985   */\n      pop\n        /* \"#utility.yul\":11076:11080   */\n      0x80\n        /* \"#utility.yul\":11069:11074   */\n      dup4\n        /* \"#utility.yul\":11065:11081   */\n      add\n        /* \"#utility.yul\":11059:11082   */\n      mload\n        /* \"#utility.yul\":11095:11158   */\n      tag_484\n        /* \"#utility.yul\":11152:11156   */\n      0x80\n        /* \"#utility.yul\":11147:11150   */\n      dup7\n        /* \"#utility.yul\":11143:11157   */\n      add\n        /* \"#utility.yul\":11129:11141   */\n      dup3\n        /* \"#utility.yul\":11095:11158   */\n      tag_291\n      jump\t// in\n    tag_484:\n        /* \"#utility.yul\":10995:11168   */\n      pop\n        /* \"#utility.yul\":11185:11189   */\n      dup1\n        /* \"#utility.yul\":11178:11189   */\n      swap2\n      pop\n        /* \"#utility.yul\":10014:11195   */\n      pop\n        /* \"#utility.yul\":9892:11195   */\n      swap3\n      swap2\n      pop\n      pop\n      jump\t// out\n        /* \"#utility.yul\":11201:11570   */\n    tag_42:\n        /* \"#utility.yul\":11342:11346   */\n      0x00\n        /* \"#utility.yul\":11380:11382   */\n      0x20\n        /* \"#utility.yul\":11369:11378   */\n      dup3\n        /* \"#utility.yul\":11365:11383   */\n      add\n        /* \"#utility.yul\":11357:11383   */\n      swap1\n      pop\n        /* \"#utility.yul\":11429:11438   */\n      dup2\n        /* \"#utility.yul\":11423:11427   */\n      dup2\n        /* \"#utility.yul\":11419:11439   */\n      sub\n        /* \"#utility.yul\":11415:11416   */\n      0x00\n        /* \"#utility.yul\":11404:11413   */\n      dup4\n        /* \"#utility.yul\":11400:11417   */\n      add\n        /* \"#utility.yul\":11393:11440   */\n      mstore\n        /* \"#utility.yul\":11457:11563   */\n      tag_486\n        /* \"#utility.yul\":11558:11562   */\n      dup2\n        /* \"#utility.yul\":11549:11555   */\n      dup5\n        /* \"#utility.yul\":11457:11563   */\n      tag_294\n      jump\t// in\n    tag_486:\n        /* \"#utility.yul\":11449:11563   */\n      swap1\n      pop\n        /* \"#utility.yul\":11201:11570   */\n      swap3\n      swap2\n      pop\n      pop\n      jump\t// out\n        /* \"#utility.yul\":11576:12375   */\n    tag_45:\n        /* \"#utility.yul\":11663:11669   */\n      0x00\n        /* \"#utility.yul\":11671:11677   */\n      dup1\n        /* \"#utility.yul\":11679:11685   */\n      0x00\n        /* \"#utility.yul\":11728:11730   */\n      0x60\n        /* \"#utility.yul\":11716:11725   */\n      dup5\n        /* \"#utility.yul\":11707:11714   */\n      dup7\n        /* \"#utility.yul\":11703:11726   */\n      sub\n        /* \"#utility.yul\":11699:11731   */\n      slt\n        /* \"#utility.yul\":11696:11815   */\n      iszero\n      tag_488\n      jumpi\n        /* \"#utility.yul\":11734:11813   */\n      tag_489\n      tag_264\n      jump\t// in\n    tag_489:\n        /* \"#utility.yul\":11696:11815   */\n    tag_488:\n        /* \"#utility.yul\":11854:11855   */\n      0x00\n        /* \"#utility.yul\":11879:11932   */\n      tag_490\n        /* \"#utility.yul\":11924:11931   */\n      dup7\n        /* \"#utility.yul\":11915:11921   */\n      dup3\n        /* \"#utility.yul\":11904:11913   */\n      dup8\n        /* \"#utility.yul\":11900:11922   */\n      add\n        /* \"#utility.yul\":11879:11932   */\n      tag_279\n      jump\t// in\n    tag_490:\n        /* \"#utility.yul\":11869:11932   */\n      swap4\n      pop\n        /* \"#utility.yul\":11825:11942   */\n      pop\n        /* \"#utility.yul\":12009:12011   */\n      0x20\n        /* \"#utility.yul\":11998:12007   */\n      dup5\n        /* \"#utility.yul\":11994:12012   */\n      add\n        /* \"#utility.yul\":11981:12013   */\n      calldataload\n        /* \"#utility.yul\":12040:12058   */\n      0xffffffffffffffff\n        /* \"#utility.yul\":12032:12038   */\n      dup2\n        /* \"#utility.yul\":12029:12059   */\n      gt\n        /* \"#utility.yul\":12026:12143   */\n      iszero\n      tag_491\n      jumpi\n        /* \"#utility.yul\":12062:12141   */\n      tag_492\n      tag_265\n      jump\t// in\n    tag_492:\n        /* \"#utility.yul\":12026:12143   */\n    tag_491:\n        /* \"#utility.yul\":12167:12230   */\n      tag_493\n        /* \"#utility.yul\":12222:12229   */\n      dup7\n        /* \"#utility.yul\":12213:12219   */\n      dup3\n        /* \"#utility.yul\":12202:12211   */\n      dup8\n        /* \"#utility.yul\":12198:12220   */\n      add\n        /* \"#utility.yul\":12167:12230   */\n      tag_275\n      jump\t// in\n    tag_493:\n        /* \"#utility.yul\":12157:12230   */\n      swap3\n      pop\n        /* \"#utility.yul\":11952:12240   */\n      pop\n        /* \"#utility.yul\":12279:12281   */\n      0x40\n        /* \"#utility.yul\":12305:12358   */\n      tag_494\n        /* \"#utility.yul\":12350:12357   */\n      dup7\n        /* \"#utility.yul\":12341:12347   */\n      dup3\n        /* \"#utility.yul\":12330:12339   */\n      dup8\n        /* \"#utility.yul\":12326:12348   */\n      add\n        /* \"#utility.yul\":12305:12358   */\n      tag_279\n      jump\t// in\n    tag_494:\n        /* \"#utility.yul\":12295:12358   */\n      swap2\n      pop\n        /* \"#utility.yul\":12250:12368   */\n      pop\n        /* \"#utility.yul\":11576:12375   */\n      swap3\n      pop\n      swap3\n      pop\n      swap3\n      jump\t// out\n        /* \"#utility.yul\":12381:12471   */\n    tag_295:\n        /* \"#utility.yul\":12415:12422   */\n      0x00\n        /* \"#utility.yul\":12458:12463   */\n      dup2\n        /* \"#utility.yul\":12451:12464   */\n      iszero\n        /* \"#utility.yul\":12444:12465   */\n      iszero\n        /* \"#utility.yul\":12433:12465   */\n      swap1\n      pop\n        /* \"#utility.yul\":12381:12471   */\n      swap2\n      swap1\n      pop\n      jump\t// out\n        /* \"#utility.yul\":12477:12586   */\n    tag_296:\n        /* \"#utility.yul\":12558:12579   */\n      tag_497\n        /* \"#utility.yul\":12573:12578   */\n      dup2\n        /* \"#utility.yul\":12558:12579   */\n      tag_295\n      jump\t// in\n    tag_497:\n        /* \"#utility.yul\":12553:12556   */\n      dup3\n        /* \"#utility.yul\":12546:12580   */\n      mstore\n        /* \"#utility.yul\":12477:12586   */\n      pop\n      pop\n      jump\t// out\n        /* \"#utility.yul\":12592:12802   */\n    tag_48:\n        /* \"#utility.yul\":12679:12683   */\n      0x00\n        /* \"#utility.yul\":12717:12719   */\n      0x20\n        /* \"#utility.yul\":12706:12715   */\n      dup3\n        /* \"#utility.yul\":12702:12720   */\n      add\n        /* \"#utility.yul\":12694:12720   */\n      swap1\n      pop\n        /* \"#utility.yul\":12730:12795   */\n      tag_499\n        /* \"#utility.yul\":12792:12793   */\n      0x00\n        /* \"#utility.yul\":12781:12790   */\n      dup4\n        /* \"#utility.yul\":12777:12794   */\n      add\n        /* \"#utility.yul\":12768:12774   */\n      dup5\n        /* \"#utility.yul\":12730:12795   */\n      tag_296\n      jump\t// in\n    tag_499:\n        /* \"#utility.yul\":12592:12802   */\n      swap3\n      swap2\n      pop\n      pop\n      jump\t// out\n        /* \"#utility.yul\":12808:13427   */\n    tag_51:\n        /* \"#utility.yul\":12885:12891   */\n      0x00\n        /* \"#utility.yul\":12893:12899   */\n      dup1\n        /* \"#utility.yul\":12901:12907   */\n      0x00\n        /* \"#utility.yul\":12950:12952   */\n      0x60\n        /* \"#utility.yul\":12938:12947   */\n      dup5\n        /* \"#utility.yul\":12929:12936   */\n      dup7\n        /* \"#utility.yul\":12925:12948   */\n      sub\n        /* \"#utility.yul\":12921:12953   */\n      slt\n        /* \"#utility.yul\":12918:13037   */\n      iszero\n      tag_501\n      jumpi\n        /* \"#utility.yul\":12956:13035   */\n      tag_502\n      tag_264\n      jump\t// in\n    tag_502:\n        /* \"#utility.yul\":12918:13037   */\n    tag_501:\n        /* \"#utility.yul\":13076:13077   */\n      0x00\n        /* \"#utility.yul\":13101:13154   */\n      tag_503\n        /* \"#utility.yul\":13146:13153   */\n      dup7\n        /* \"#utility.yul\":13137:13143   */\n      dup3\n        /* \"#utility.yul\":13126:13135   */\n      dup8\n        /* \"#utility.yul\":13122:13144   */\n      add\n        /* \"#utility.yul\":13101:13154   */\n      tag_279\n      jump\t// in\n    tag_503:\n        /* \"#utility.yul\":13091:13154   */\n      swap4\n      pop\n        /* \"#utility.yul\":13047:13164   */\n      pop\n        /* \"#utility.yul\":13203:13205   */\n      0x20\n        /* \"#utility.yul\":13229:13282   */\n      tag_504\n        /* \"#utility.yul\":13274:13281   */\n      dup7\n        /* \"#utility.yul\":13265:13271   */\n      dup3\n        /* \"#utility.yul\":13254:13263   */\n      dup8\n        /* \"#utility.yul\":13250:13272   */\n      add\n        /* \"#utility.yul\":13229:13282   */\n      tag_285\n      jump\t// in\n    tag_504:\n        /* \"#utility.yul\":13219:13282   */\n      swap3\n      pop\n        /* \"#utility.yul\":13174:13292   */\n      pop\n        /* \"#utility.yul\":13331:13333   */\n      0x40\n        /* \"#utility.yul\":13357:13410   */\n      tag_505\n        /* \"#utility.yul\":13402:13409   */\n      dup7\n        /* \"#utility.yul\":13393:13399   */\n      dup3\n        /* \"#utility.yul\":13382:13391   */\n      dup8\n        /* \"#utility.yul\":13378:13400   */\n      add\n        /* \"#utility.yul\":13357:13410   */\n      tag_285\n      jump\t// in\n    tag_505:\n        /* \"#utility.yul\":13347:13410   */\n      swap2\n      pop\n        /* \"#utility.yul\":13302:13420   */\n      pop\n        /* \"#utility.yul\":12808:13427   */\n      swap3\n      pop\n      swap3\n      pop\n      swap3\n      jump\t// out\n        /* \"#utility.yul\":13433:14087   */\n    tag_55:\n        /* \"#utility.yul\":13511:13517   */\n      0x00\n        /* \"#utility.yul\":13519:13525   */\n      dup1\n        /* \"#utility.yul\":13568:13570   */\n      0x40\n        /* \"#utility.yul\":13556:13565   */\n      dup4\n        /* \"#utility.yul\":13547:13554   */\n      dup6\n        /* \"#utility.yul\":13543:13566   */\n      sub\n        /* \"#utility.yul\":13539:13571   */\n      slt\n        /* \"#utility.yul\":13536:13655   */\n      iszero\n      tag_507\n      jumpi\n        /* \"#utility.yul\":13574:13653   */\n      tag_508\n      tag_264\n      jump\t// in\n    tag_508:\n        /* \"#utility.yul\":13536:13655   */\n    tag_507:\n        /* \"#utility.yul\":13694:13695   */\n      0x00\n        /* \"#utility.yul\":13719:13772   */\n      tag_509\n        /* \"#utility.yul\":13764:13771   */\n      dup6\n        /* \"#utility.yul\":13755:13761   */\n      dup3\n        /* \"#utility.yul\":13744:13753   */\n      dup7\n        /* \"#utility.yul\":13740:13762   */\n      add\n        /* \"#utility.yul\":13719:13772   */\n      tag_279\n      jump\t// in\n    tag_509:\n        /* \"#utility.yul\":13709:13772   */\n      swap3\n      pop\n        /* \"#utility.yul\":13665:13782   */\n      pop\n        /* \"#utility.yul\":13849:13851   */\n      0x20\n        /* \"#utility.yul\":13838:13847   */\n      dup4\n        /* \"#utility.yul\":13834:13852   */\n      add\n        /* \"#utility.yul\":13821:13853   */\n      calldataload\n        /* \"#utility.yul\":13880:13898   */\n      0xffffffffffffffff\n        /* \"#utility.yul\":13872:13878   */\n      dup2\n        /* \"#utility.yul\":13869:13899   */\n      gt\n        /* \"#utility.yul\":13866:13983   */\n      iszero\n      tag_510\n      jumpi\n        /* \"#utility.yul\":13902:13981   */\n      tag_511\n      tag_265\n      jump\t// in\n    tag_511:\n        /* \"#utility.yul\":13866:13983   */\n    tag_510:\n        /* \"#utility.yul\":14007:14070   */\n      tag_512\n        /* \"#utility.yul\":14062:14069   */\n      dup6\n        /* \"#utility.yul\":14053:14059   */\n      dup3\n        /* \"#utility.yul\":14042:14051   */\n      dup7\n        /* \"#utility.yul\":14038:14060   */\n      add\n        /* \"#utility.yul\":14007:14070   */\n      tag_275\n      jump\t// in\n    tag_512:\n        /* \"#utility.yul\":13997:14070   */\n      swap2\n      pop\n        /* \"#utility.yul\":13792:14080   */\n      pop\n        /* \"#utility.yul\":13433:14087   */\n      swap3\n      pop\n      swap3\n      swap1\n      pop\n      jump\t// out\n        /* \"#utility.yul\":14093:14262   */\n    tag_297:\n        /* \"#utility.yul\":14177:14188   */\n      0x00\n        /* \"#utility.yul\":14211:14217   */\n      dup3\n        /* \"#utility.yul\":14206:14209   */\n      dup3\n        /* \"#utility.yul\":14199:14218   */\n      mstore\n        /* \"#utility.yul\":14251:14255   */\n      0x20\n        /* \"#utility.yul\":14246:14249   */\n      dup3\n        /* \"#utility.yul\":14242:14256   */\n      add\n        /* \"#utility.yul\":14227:14256   */\n      swap1\n      pop\n        /* \"#utility.yul\":14093:14262   */\n      swap3\n      swap2\n      pop\n      pop\n      jump\t// out\n        /* \"#utility.yul\":14268:14645   */\n    tag_298:\n        /* \"#utility.yul\":14356:14359   */\n      0x00\n        /* \"#utility.yul\":14384:14423   */\n      tag_515\n        /* \"#utility.yul\":14417:14422   */\n      dup3\n        /* \"#utility.yul\":14384:14423   */\n      tag_287\n      jump\t// in\n    tag_515:\n        /* \"#utility.yul\":14439:14510   */\n      tag_516\n        /* \"#utility.yul\":14503:14509   */\n      dup2\n        /* \"#utility.yul\":14498:14501   */\n      dup6\n        /* \"#utility.yul\":14439:14510   */\n      tag_297\n      jump\t// in\n    tag_516:\n        /* \"#utility.yul\":14432:14510   */\n      swap4\n      pop\n        /* \"#utility.yul\":14519:14584   */\n      tag_517\n        /* \"#utility.yul\":14577:14583   */\n      dup2\n        /* \"#utility.yul\":14572:14575   */\n      dup6\n        /* \"#utility.yul\":14565:14569   */\n      0x20\n        /* \"#utility.yul\":14558:14563   */\n      dup7\n        /* \"#utility.yul\":14554:14570   */\n      add\n        /* \"#utility.yul\":14519:14584   */\n      tag_289\n      jump\t// in\n    tag_517:\n        /* \"#utility.yul\":14609:14638   */\n      tag_518\n        /* \"#utility.yul\":14631:14637   */\n      dup2\n        /* \"#utility.yul\":14609:14638   */\n      tag_268\n      jump\t// in\n    tag_518:\n        /* \"#utility.yul\":14604:14607   */\n      dup5\n        /* \"#utility.yul\":14600:14639   */\n      add\n        /* \"#utility.yul\":14593:14639   */\n      swap2\n      pop\n        /* \"#utility.yul\":14360:14645   */\n      pop\n        /* \"#utility.yul\":14268:14645   */\n      swap3\n      swap2\n      pop\n      pop\n      jump\t// out\n        /* \"#utility.yul\":14651:14964   */\n    tag_60:\n        /* \"#utility.yul\":14764:14768   */\n      0x00\n        /* \"#utility.yul\":14802:14804   */\n      0x20\n        /* \"#utility.yul\":14791:14800   */\n      dup3\n        /* \"#utility.yul\":14787:14805   */\n      add\n        /* \"#utility.yul\":14779:14805   */\n      swap1\n      pop\n        /* \"#utility.yul\":14851:14860   */\n      dup2\n        /* \"#utility.yul\":14845:14849   */\n      dup2\n        /* \"#utility.yul\":14841:14861   */\n      sub\n        /* \"#utility.yul\":14837:14838   */\n      0x00\n        /* \"#utility.yul\":14826:14835   */\n      dup4\n        /* \"#utility.yul\":14822:14839   */\n      add\n        /* \"#utility.yul\":14815:14862   */\n      mstore\n        /* \"#utility.yul\":14879:14957   */\n      tag_520\n        /* \"#utility.yul\":14952:14956   */\n      dup2\n        /* \"#utility.yul\":14943:14949   */\n      dup5\n        /* \"#utility.yul\":14879:14957   */\n      tag_298\n      jump\t// in\n    tag_520:\n        /* \"#utility.yul\":14871:14957   */\n      swap1\n      pop\n        /* \"#utility.yul\":14651:14964   */\n      swap3\n      swap2\n      pop\n      pop\n      jump\t// out\n        /* \"#utility.yul\":14970:15114   */\n    tag_299:\n        /* \"#utility.yul\":15067:15073   */\n      0x00\n        /* \"#utility.yul\":15101:15106   */\n      dup2\n        /* \"#utility.yul\":15095:15107   */\n      mload\n        /* \"#utility.yul\":15085:15107   */\n      swap1\n      pop\n        /* \"#utility.yul\":14970:15114   */\n      swap2\n      swap1\n      pop\n      jump\t// out\n        /* \"#utility.yul\":15120:15334   */\n    tag_300:\n        /* \"#utility.yul\":15249:15260   */\n      0x00\n        /* \"#utility.yul\":15283:15289   */\n      dup3\n        /* \"#utility.yul\":15278:15281   */\n      dup3\n        /* \"#utility.yul\":15271:15290   */\n      mstore\n        /* \"#utility.yul\":15323:15327   */\n      0x20\n        /* \"#utility.yul\":15318:15321   */\n      dup3\n        /* \"#utility.yul\":15314:15328   */\n      add\n        /* \"#utility.yul\":15299:15328   */\n      swap1\n      pop\n        /* \"#utility.yul\":15120:15334   */\n      swap3\n      swap2\n      pop\n      pop\n      jump\t// out\n        /* \"#utility.yul\":15340:15502   */\n    tag_301:\n        /* \"#utility.yul\":15437:15441   */\n      0x00\n        /* \"#utility.yul\":15460:15463   */\n      dup2\n        /* \"#utility.yul\":15452:15463   */\n      swap1\n      pop\n        /* \"#utility.yul\":15490:15494   */\n      0x20\n        /* \"#utility.yul\":15485:15488   */\n      dup3\n        /* \"#utility.yul\":15481:15495   */\n      add\n        /* \"#utility.yul\":15473:15495   */\n      swap1\n      pop\n        /* \"#utility.yul\":15340:15502   */\n      swap2\n      swap1\n      pop\n      jump\t// out\n        /* \"#utility.yul\":15508:15607   */\n    tag_302:\n        /* \"#utility.yul\":15579:15600   */\n      tag_525\n        /* \"#utility.yul\":15594:15599   */\n      dup2\n        /* \"#utility.yul\":15579:15600   */\n      tag_295\n      jump\t// in\n    tag_525:\n        /* \"#utility.yul\":15574:15577   */\n      dup3\n        /* \"#utility.yul\":15567:15601   */\n      mstore\n        /* \"#utility.yul\":15508:15607   */\n      pop\n      pop\n      jump\t// out\n        /* \"#utility.yul\":15709:16677   */\n    tag_303:\n        /* \"#utility.yul\":15828:15831   */\n      0x00\n        /* \"#utility.yul\":15864:15868   */\n      0x80\n        /* \"#utility.yul\":15859:15862   */\n      dup4\n        /* \"#utility.yul\":15855:15869   */\n      add\n        /* \"#utility.yul\":15958:15962   */\n      0x00\n        /* \"#utility.yul\":15951:15956   */\n      dup4\n        /* \"#utility.yul\":15947:15963   */\n      add\n        /* \"#utility.yul\":15941:15964   */\n      mload\n        /* \"#utility.yul\":16011:16014   */\n      dup5\n        /* \"#utility.yul\":16005:16009   */\n      dup3\n        /* \"#utility.yul\":16001:16015   */\n      sub\n        /* \"#utility.yul\":15994:15998   */\n      0x00\n        /* \"#utility.yul\":15989:15992   */\n      dup7\n        /* \"#utility.yul\":15985:15999   */\n      add\n        /* \"#utility.yul\":15978:16016   */\n      mstore\n        /* \"#utility.yul\":16037:16110   */\n      tag_527\n        /* \"#utility.yul\":16105:16109   */\n      dup3\n        /* \"#utility.yul\":16091:16103   */\n      dup3\n        /* \"#utility.yul\":16037:16110   */\n      tag_290\n      jump\t// in\n    tag_527:\n        /* \"#utility.yul\":16029:16110   */\n      swap2\n      pop\n        /* \"#utility.yul\":15879:16121   */\n      pop\n        /* \"#utility.yul\":16213:16217   */\n      0x20\n        /* \"#utility.yul\":16206:16211   */\n      dup4\n        /* \"#utility.yul\":16202:16218   */\n      add\n        /* \"#utility.yul\":16196:16219   */\n      mload\n        /* \"#utility.yul\":16232:16295   */\n      tag_528\n        /* \"#utility.yul\":16289:16293   */\n      0x20\n        /* \"#utility.yul\":16284:16287   */\n      dup7\n        /* \"#utility.yul\":16280:16294   */\n      add\n        /* \"#utility.yul\":16266:16278   */\n      dup3\n        /* \"#utility.yul\":16232:16295   */\n      tag_291\n      jump\t// in\n    tag_528:\n        /* \"#utility.yul\":16131:16305   */\n      pop\n        /* \"#utility.yul\":16388:16392   */\n      0x40\n        /* \"#utility.yul\":16381:16386   */\n      dup4\n        /* \"#utility.yul\":16377:16393   */\n      add\n        /* \"#utility.yul\":16371:16394   */\n      mload\n        /* \"#utility.yul\":16407:16470   */\n      tag_529\n        /* \"#utility.yul\":16464:16468   */\n      0x40\n        /* \"#utility.yul\":16459:16462   */\n      dup7\n        /* \"#utility.yul\":16455:16469   */\n      add\n        /* \"#utility.yul\":16441:16453   */\n      dup3\n        /* \"#utility.yul\":16407:16470   */\n      tag_291\n      jump\t// in\n    tag_529:\n        /* \"#utility.yul\":16315:16480   */\n      pop\n        /* \"#utility.yul\":16564:16568   */\n      0x60\n        /* \"#utility.yul\":16557:16562   */\n      dup4\n        /* \"#utility.yul\":16553:16569   */\n      add\n        /* \"#utility.yul\":16547:16570   */\n      mload\n        /* \"#utility.yul\":16583:16640   */\n      tag_530\n        /* \"#utility.yul\":16634:16638   */\n      0x60\n        /* \"#utility.yul\":16629:16632   */\n      dup7\n        /* \"#utility.yul\":16625:16639   */\n      add\n        /* \"#utility.yul\":16611:16623   */\n      dup3\n        /* \"#utility.yul\":16583:16640   */\n      tag_302\n      jump\t// in\n    tag_530:\n        /* \"#utility.yul\":16490:16650   */\n      pop\n        /* \"#utility.yul\":16667:16671   */\n      dup1\n        /* \"#utility.yul\":16660:16671   */\n      swap2\n      pop\n        /* \"#utility.yul\":15833:16677   */\n      pop\n        /* \"#utility.yul\":15709:16677   */\n      swap3\n      swap2\n      pop\n      pop\n      jump\t// out\n        /* \"#utility.yul\":16683:16959   */\n    tag_304:\n        /* \"#utility.yul\":16812:16822   */\n      0x00\n        /* \"#utility.yul\":16847:16953   */\n      tag_532\n        /* \"#utility.yul\":16949:16952   */\n      dup4\n        /* \"#utility.yul\":16941:16947   */\n      dup4\n        /* \"#utility.yul\":16847:16953   */\n      tag_303\n      jump\t// in\n    tag_532:\n        /* \"#utility.yul\":16833:16953   */\n      swap1\n      pop\n        /* \"#utility.yul\":16683:16959   */\n      swap3\n      swap2\n      pop\n      pop\n      jump\t// out\n        /* \"#utility.yul\":16965:17108   */\n    tag_305:\n        /* \"#utility.yul\":17065:17069   */\n      0x00\n        /* \"#utility.yul\":17097:17101   */\n      0x20\n        /* \"#utility.yul\":17092:17095   */\n      dup3\n        /* \"#utility.yul\":17088:17102   */\n      add\n        /* \"#utility.yul\":17080:17102   */\n      swap1\n      pop\n        /* \"#utility.yul\":16965:17108   */\n      swap2\n      swap1\n      pop\n      jump\t// out\n        /* \"#utility.yul\":17214:18365   */\n    tag_306:\n        /* \"#utility.yul\":17393:17396   */\n      0x00\n        /* \"#utility.yul\":17422:17506   */\n      tag_535\n        /* \"#utility.yul\":17500:17505   */\n      dup3\n        /* \"#utility.yul\":17422:17506   */\n      tag_299\n      jump\t// in\n    tag_535:\n        /* \"#utility.yul\":17522:17638   */\n      tag_536\n        /* \"#utility.yul\":17631:17637   */\n      dup2\n        /* \"#utility.yul\":17626:17629   */\n      dup6\n        /* \"#utility.yul\":17522:17638   */\n      tag_300\n      jump\t// in\n    tag_536:\n        /* \"#utility.yul\":17515:17638   */\n      swap4\n      pop\n        /* \"#utility.yul\":17664:17667   */\n      dup4\n        /* \"#utility.yul\":17709:17713   */\n      0x20\n        /* \"#utility.yul\":17701:17707   */\n      dup3\n        /* \"#utility.yul\":17697:17714   */\n      mul\n        /* \"#utility.yul\":17692:17695   */\n      dup6\n        /* \"#utility.yul\":17688:17715   */\n      add\n        /* \"#utility.yul\":17739:17825   */\n      tag_537\n        /* \"#utility.yul\":17819:17824   */\n      dup6\n        /* \"#utility.yul\":17739:17825   */\n      tag_301\n      jump\t// in\n    tag_537:\n        /* \"#utility.yul\":17848:17855   */\n      dup1\n        /* \"#utility.yul\":17879:17880   */\n      0x00\n        /* \"#utility.yul\":17864:18320   */\n    tag_538:\n        /* \"#utility.yul\":17889:17895   */\n      dup6\n        /* \"#utility.yul\":17886:17887   */\n      dup2\n        /* \"#utility.yul\":17883:17896   */\n      lt\n        /* \"#utility.yul\":17864:18320   */\n      iszero\n      tag_540\n      jumpi\n        /* \"#utility.yul\":17960:17969   */\n      dup5\n        /* \"#utility.yul\":17954:17958   */\n      dup5\n        /* \"#utility.yul\":17950:17970   */\n      sub\n        /* \"#utility.yul\":17945:17948   */\n      dup10\n        /* \"#utility.yul\":17938:17971   */\n      mstore\n        /* \"#utility.yul\":18011:18017   */\n      dup2\n        /* \"#utility.yul\":18005:18018   */\n      mload\n        /* \"#utility.yul\":18039:18163   */\n      tag_541\n        /* \"#utility.yul\":18158:18162   */\n      dup6\n        /* \"#utility.yul\":18143:18156   */\n      dup3\n        /* \"#utility.yul\":18039:18163   */\n      tag_304\n      jump\t// in\n    tag_541:\n        /* \"#utility.yul\":18031:18163   */\n      swap5\n      pop\n        /* \"#utility.yul\":18186:18276   */\n      tag_542\n        /* \"#utility.yul\":18269:18275   */\n      dup4\n        /* \"#utility.yul\":18186:18276   */\n      tag_305\n      jump\t// in\n    tag_542:\n        /* \"#utility.yul\":18176:18276   */\n      swap3\n      pop\n        /* \"#utility.yul\":18305:18309   */\n      0x20\n        /* \"#utility.yul\":18300:18303   */\n      dup11\n        /* \"#utility.yul\":18296:18310   */\n      add\n        /* \"#utility.yul\":18289:18310   */\n      swap10\n      pop\n        /* \"#utility.yul\":17924:18320   */\n      pop\n        /* \"#utility.yul\":17911:17912   */\n      0x01\n        /* \"#utility.yul\":17908:17909   */\n      dup2\n        /* \"#utility.yul\":17904:17913   */\n      add\n        /* \"#utility.yul\":17899:17913   */\n      swap1\n      pop\n        /* \"#utility.yul\":17864:18320   */\n      jump(tag_538)\n    tag_540:\n        /* \"#utility.yul\":17868:17882   */\n      pop\n        /* \"#utility.yul\":18336:18340   */\n      dup3\n        /* \"#utility.yul\":18329:18340   */\n      swap8\n      pop\n        /* \"#utility.yul\":18356:18359   */\n      dup8\n        /* \"#utility.yul\":18349:18359   */\n      swap6\n      pop\n        /* \"#utility.yul\":17398:18365   */\n      pop\n      pop\n      pop\n      pop\n      pop\n        /* \"#utility.yul\":17214:18365   */\n      swap3\n      swap2\n      pop\n      pop\n      jump\t// out\n        /* \"#utility.yul\":18371:18864   */\n    tag_67:\n        /* \"#utility.yul\":18574:18578   */\n      0x00\n        /* \"#utility.yul\":18612:18614   */\n      0x20\n        /* \"#utility.yul\":18601:18610   */\n      dup3\n        /* \"#utility.yul\":18597:18615   */\n      add\n        /* \"#utility.yul\":18589:18615   */\n      swap1\n      pop\n        /* \"#utility.yul\":18661:18670   */\n      dup2\n        /* \"#utility.yul\":18655:18659   */\n      dup2\n        /* \"#utility.yul\":18651:18671   */\n      sub\n        /* \"#utility.yul\":18647:18648   */\n      0x00\n        /* \"#utility.yul\":18636:18645   */\n      dup4\n        /* \"#utility.yul\":18632:18649   */\n      add\n        /* \"#utility.yul\":18625:18672   */\n      mstore\n        /* \"#utility.yul\":18689:18857   */\n      tag_544\n        /* \"#utility.yul\":18852:18856   */\n      dup2\n        /* \"#utility.yul\":18843:18849   */\n      dup5\n        /* \"#utility.yul\":18689:18857   */\n      tag_306\n      jump\t// in\n    tag_544:\n        /* \"#utility.yul\":18681:18857   */\n      swap1\n      pop\n        /* \"#utility.yul\":18371:18864   */\n      swap3\n      swap2\n      pop\n      pop\n      jump\t// out\n        /* \"#utility.yul\":18870:18994   */\n    tag_307:\n        /* \"#utility.yul\":18947:18953   */\n      0x00\n        /* \"#utility.yul\":18981:18986   */\n      dup2\n        /* \"#utility.yul\":18975:18987   */\n      mload\n        /* \"#utility.yul\":18965:18987   */\n      swap1\n      pop\n        /* \"#utility.yul\":18870:18994   */\n      swap2\n      swap1\n      pop\n      jump\t// out\n        /* \"#utility.yul\":19000:19194   */\n    tag_308:\n        /* \"#utility.yul\":19109:19120   */\n      0x00\n        /* \"#utility.yul\":19143:19149   */\n      dup3\n        /* \"#utility.yul\":19138:19141   */\n      dup3\n        /* \"#utility.yul\":19131:19150   */\n      mstore\n        /* \"#utility.yul\":19183:19187   */\n      0x20\n        /* \"#utility.yul\":19178:19181   */\n      dup3\n        /* \"#utility.yul\":19174:19188   */\n      add\n        /* \"#utility.yul\":19159:19188   */\n      swap1\n      pop\n        /* \"#utility.yul\":19000:19194   */\n      swap3\n      swap2\n      pop\n      pop\n      jump\t// out\n        /* \"#utility.yul\":19200:19342   */\n    tag_309:\n        /* \"#utility.yul\":19277:19281   */\n      0x00\n        /* \"#utility.yul\":19300:19303   */\n      dup2\n        /* \"#utility.yul\":19292:19303   */\n      swap1\n      pop\n        /* \"#utility.yul\":19330:19334   */\n      0x20\n        /* \"#utility.yul\":19325:19328   */\n      dup3\n        /* \"#utility.yul\":19321:19335   */\n      add\n        /* \"#utility.yul\":19313:19335   */\n      swap1\n      pop\n        /* \"#utility.yul\":19200:19342   */\n      swap2\n      swap1\n      pop\n      jump\t// out\n        /* \"#utility.yul\":19348:19544   */\n    tag_310:\n        /* \"#utility.yul\":19437:19447   */\n      0x00\n        /* \"#utility.yul\":19472:19538   */\n      tag_549\n        /* \"#utility.yul\":19534:19537   */\n      dup4\n        /* \"#utility.yul\":19526:19532   */\n      dup4\n        /* \"#utility.yul\":19472:19538   */\n      tag_290\n      jump\t// in\n    tag_549:\n        /* \"#utility.yul\":19458:19538   */\n      swap1\n      pop\n        /* \"#utility.yul\":19348:19544   */\n      swap3\n      swap2\n      pop\n      pop\n      jump\t// out\n        /* \"#utility.yul\":19550:19673   */\n    tag_311:\n        /* \"#utility.yul\":19630:19634   */\n      0x00\n        /* \"#utility.yul\":19662:19666   */\n      0x20\n        /* \"#utility.yul\":19657:19660   */\n      dup3\n        /* \"#utility.yul\":19653:19667   */\n      add\n        /* \"#utility.yul\":19645:19667   */\n      swap1\n      pop\n        /* \"#utility.yul\":19550:19673   */\n      swap2\n      swap1\n      pop\n      jump\t// out\n        /* \"#utility.yul\":19707:20698   */\n    tag_312:\n        /* \"#utility.yul\":19846:19849   */\n      0x00\n        /* \"#utility.yul\":19875:19939   */\n      tag_552\n        /* \"#utility.yul\":19933:19938   */\n      dup3\n        /* \"#utility.yul\":19875:19939   */\n      tag_307\n      jump\t// in\n    tag_552:\n        /* \"#utility.yul\":19955:20051   */\n      tag_553\n        /* \"#utility.yul\":20044:20050   */\n      dup2\n        /* \"#utility.yul\":20039:20042   */\n      dup6\n        /* \"#utility.yul\":19955:20051   */\n      tag_308\n      jump\t// in\n    tag_553:\n        /* \"#utility.yul\":19948:20051   */\n      swap4\n      pop\n        /* \"#utility.yul\":20077:20080   */\n      dup4\n        /* \"#utility.yul\":20122:20126   */\n      0x20\n        /* \"#utility.yul\":20114:20120   */\n      dup3\n        /* \"#utility.yul\":20110:20127   */\n      mul\n        /* \"#utility.yul\":20105:20108   */\n      dup6\n        /* \"#utility.yul\":20101:20128   */\n      add\n        /* \"#utility.yul\":20152:20218   */\n      tag_554\n        /* \"#utility.yul\":20212:20217   */\n      dup6\n        /* \"#utility.yul\":20152:20218   */\n      tag_309\n      jump\t// in\n    tag_554:\n        /* \"#utility.yul\":20241:20248   */\n      dup1\n        /* \"#utility.yul\":20272:20273   */\n      0x00\n        /* \"#utility.yul\":20257:20653   */\n    tag_555:\n        /* \"#utility.yul\":20282:20288   */\n      dup6\n        /* \"#utility.yul\":20279:20280   */\n      dup2\n        /* \"#utility.yul\":20276:20289   */\n      lt\n        /* \"#utility.yul\":20257:20653   */\n      iszero\n      tag_557\n      jumpi\n        /* \"#utility.yul\":20353:20362   */\n      dup5\n        /* \"#utility.yul\":20347:20351   */\n      dup5\n        /* \"#utility.yul\":20343:20363   */\n      sub\n        /* \"#utility.yul\":20338:20341   */\n      dup10\n        /* \"#utility.yul\":20331:20364   */\n      mstore\n        /* \"#utility.yul\":20404:20410   */\n      dup2\n        /* \"#utility.yul\":20398:20411   */\n      mload\n        /* \"#utility.yul\":20432:20516   */\n      tag_558\n        /* \"#utility.yul\":20511:20515   */\n      dup6\n        /* \"#utility.yul\":20496:20509   */\n      dup3\n        /* \"#utility.yul\":20432:20516   */\n      tag_310\n      jump\t// in\n    tag_558:\n        /* \"#utility.yul\":20424:20516   */\n      swap5\n      pop\n        /* \"#utility.yul\":20539:20609   */\n      tag_559\n        /* \"#utility.yul\":20602:20608   */\n      dup4\n        /* \"#utility.yul\":20539:20609   */\n      tag_311\n      jump\t// in\n    tag_559:\n        /* \"#utility.yul\":20529:20609   */\n      swap3\n      pop\n        /* \"#utility.yul\":20638:20642   */\n      0x20\n        /* \"#utility.yul\":20633:20636   */\n      dup11\n        /* \"#utility.yul\":20629:20643   */\n      add\n        /* \"#utility.yul\":20622:20643   */\n      swap10\n      pop\n        /* \"#utility.yul\":20317:20653   */\n      pop\n        /* \"#utility.yul\":20304:20305   */\n      0x01\n        /* \"#utility.yul\":20301:20302   */\n      dup2\n        /* \"#utility.yul\":20297:20306   */\n      add\n        /* \"#utility.yul\":20292:20306   */\n      swap1\n      pop\n        /* \"#utility.yul\":20257:20653   */\n      jump(tag_555)\n    tag_557:\n        /* \"#utility.yul\":20261:20275   */\n      pop\n        /* \"#utility.yul\":20669:20673   */\n      dup3\n        /* \"#utility.yul\":20662:20673   */\n      swap8\n      pop\n        /* \"#utility.yul\":20689:20692   */\n      dup8\n        /* \"#utility.yul\":20682:20692   */\n      swap6\n      pop\n        /* \"#utility.yul\":19851:20698   */\n      pop\n      pop\n      pop\n      pop\n      pop\n        /* \"#utility.yul\":19707:20698   */\n      swap3\n      swap2\n      pop\n      pop\n      jump\t// out\n        /* \"#utility.yul\":20704:21117   */\n    tag_71:\n        /* \"#utility.yul\":20867:20871   */\n      0x00\n        /* \"#utility.yul\":20905:20907   */\n      0x20\n        /* \"#utility.yul\":20894:20903   */\n      dup3\n        /* \"#utility.yul\":20890:20908   */\n      add\n        /* \"#utility.yul\":20882:20908   */\n      swap1\n      pop\n        /* \"#utility.yul\":20954:20963   */\n      dup2\n        /* \"#utility.yul\":20948:20952   */\n      dup2\n        /* \"#utility.yul\":20944:20964   */\n      sub\n        /* \"#utility.yul\":20940:20941   */\n      0x00\n        /* \"#utility.yul\":20929:20938   */\n      dup4\n        /* \"#utility.yul\":20925:20942   */\n      add\n        /* \"#utility.yul\":20918:20965   */\n      mstore\n        /* \"#utility.yul\":20982:21110   */\n      tag_561\n        /* \"#utility.yul\":21105:21109   */\n      dup2\n        /* \"#utility.yul\":21096:21102   */\n      dup5\n        /* \"#utility.yul\":20982:21110   */\n      tag_312\n      jump\t// in\n    tag_561:\n        /* \"#utility.yul\":20974:21110   */\n      swap1\n      pop\n        /* \"#utility.yul\":20704:21117   */\n      swap3\n      swap2\n      pop\n      pop\n      jump\t// out\n        /* \"#utility.yul\":21123:21302   */\n    tag_313:\n        /* \"#utility.yul\":21263:21294   */\n      0x4e6f2044494420666f756e6420666f7220746869732061646472657373000000\n        /* \"#utility.yul\":21259:21260   */\n      0x00\n        /* \"#utility.yul\":21251:21257   */\n      dup3\n        /* \"#utility.yul\":21247:21261   */\n      add\n        /* \"#utility.yul\":21240:21295   */\n      mstore\n        /* \"#utility.yul\":21123:21302   */\n      pop\n      jump\t// out\n        /* \"#utility.yul\":21308:21674   */\n    tag_314:\n        /* \"#utility.yul\":21450:21453   */\n      0x00\n        /* \"#utility.yul\":21471:21538   */\n      tag_564\n        /* \"#utility.yul\":21535:21537   */\n      0x1d\n        /* \"#utility.yul\":21530:21533   */\n      dup4\n        /* \"#utility.yul\":21471:21538   */\n      tag_297\n      jump\t// in\n    tag_564:\n        /* \"#utility.yul\":21464:21538   */\n      swap2\n      pop\n        /* \"#utility.yul\":21547:21640   */\n      tag_565\n        /* \"#utility.yul\":21636:21639   */\n      dup3\n        /* \"#utility.yul\":21547:21640   */\n      tag_313\n      jump\t// in\n    tag_565:\n        /* \"#utility.yul\":21665:21667   */\n      0x20\n        /* \"#utility.yul\":21660:21663   */\n      dup3\n        /* \"#utility.yul\":21656:21668   */\n      add\n        /* \"#utility.yul\":21649:21668   */\n      swap1\n      pop\n        /* \"#utility.yul\":21308:21674   */\n      swap2\n      swap1\n      pop\n      jump\t// out\n        /* \"#utility.yul\":21680:22099   */\n    tag_75:\n        /* \"#utility.yul\":21846:21850   */\n      0x00\n        /* \"#utility.yul\":21884:21886   */\n      0x20\n        /* \"#utility.yul\":21873:21882   */\n      dup3\n        /* \"#utility.yul\":21869:21887   */\n      add\n        /* \"#utility.yul\":21861:21887   */\n      swap1\n      pop\n        /* \"#utility.yul\":21933:21942   */\n      dup2\n        /* \"#utility.yul\":21927:21931   */\n      dup2\n        /* \"#utility.yul\":21923:21943   */\n      sub\n        /* \"#utility.yul\":21919:21920   */\n      0x00\n        /* \"#utility.yul\":21908:21917   */\n      dup4\n        /* \"#utility.yul\":21904:21921   */\n      add\n        /* \"#utility.yul\":21897:21944   */\n      mstore\n        /* \"#utility.yul\":21961:22092   */\n      tag_567\n        /* \"#utility.yul\":22087:22091   */\n      dup2\n        /* \"#utility.yul\":21961:22092   */\n      tag_314\n      jump\t// in\n    tag_567:\n        /* \"#utility.yul\":21953:22092   */\n      swap1\n      pop\n        /* \"#utility.yul\":21680:22099   */\n      swap2\n      swap1\n      pop\n      jump\t// out\n        /* \"#utility.yul\":22105:22275   */\n    tag_315:\n        /* \"#utility.yul\":22245:22267   */\n      0x4e616d652063616e6e6f7420626520656d707479000000000000000000000000\n        /* \"#utility.yul\":22241:22242   */\n      0x00\n        /* \"#utility.yul\":22233:22239   */\n      dup3\n        /* \"#utility.yul\":22229:22243   */\n      add\n        /* \"#utility.yul\":22222:22268   */\n      mstore\n        /* \"#utility.yul\":22105:22275   */\n      pop\n      jump\t// out\n        /* \"#utility.yul\":22281:22647   */\n    tag_316:\n        /* \"#utility.yul\":22423:22426   */\n      0x00\n        /* \"#utility.yul\":22444:22511   */\n      tag_570\n        /* \"#utility.yul\":22508:22510   */\n      0x14\n        /* \"#utility.yul\":22503:22506   */\n      dup4\n        /* \"#utility.yul\":22444:22511   */\n      tag_297\n      jump\t// in\n    tag_570:\n        /* \"#utility.yul\":22437:22511   */\n      swap2\n      pop\n        /* \"#utility.yul\":22520:22613   */\n      tag_571\n        /* \"#utility.yul\":22609:22612   */\n      dup3\n        /* \"#utility.yul\":22520:22613   */\n      tag_315\n      jump\t// in\n    tag_571:\n        /* \"#utility.yul\":22638:22640   */\n      0x20\n        /* \"#utility.yul\":22633:22636   */\n      dup3\n        /* \"#utility.yul\":22629:22641   */\n      add\n        /* \"#utility.yul\":22622:22641   */\n      swap1\n      pop\n        /* \"#utility.yul\":22281:22647   */\n      swap2\n      swap1\n      pop\n      jump\t// out\n        /* \"#utility.yul\":22653:23072   */\n    tag_78:\n        /* \"#utility.yul\":22819:22823   */\n      0x00\n        /* \"#utility.yul\":22857:22859   */\n      0x20\n        /* \"#utility.yul\":22846:22855   */\n      dup3\n        /* \"#utility.yul\":22842:22860   */\n      add\n        /* \"#utility.yul\":22834:22860   */\n      swap1\n      pop\n        /* \"#utility.yul\":22906:22915   */\n      dup2\n        /* \"#utility.yul\":22900:22904   */\n      dup2\n        /* \"#utility.yul\":22896:22916   */\n      sub\n        /* \"#utility.yul\":22892:22893   */\n      0x00\n        /* \"#utility.yul\":22881:22890   */\n      dup4\n        /* \"#utility.yul\":22877:22894   */\n      add\n        /* \"#utility.yul\":22870:22917   */\n      mstore\n        /* \"#utility.yul\":22934:23065   */\n      tag_573\n        /* \"#utility.yul\":23060:23064   */\n      dup2\n        /* \"#utility.yul\":22934:23065   */\n      tag_316\n      jump\t// in\n    tag_573:\n        /* \"#utility.yul\":22926:23065   */\n      swap1\n      pop\n        /* \"#utility.yul\":22653:23072   */\n      swap2\n      swap1\n      pop\n      jump\t// out\n        /* \"#utility.yul\":23078:23249   */\n    tag_317:\n        /* \"#utility.yul\":23218:23241   */\n      0x456d61696c2063616e6e6f7420626520656d7074790000000000000000000000\n        /* \"#utility.yul\":23214:23215   */\n      0x00\n        /* \"#utility.yul\":23206:23212   */\n      dup3\n        /* \"#utility.yul\":23202:23216   */\n      add\n        /* \"#utility.yul\":23195:23242   */\n      mstore\n        /* \"#utility.yul\":23078:23249   */\n      pop\n      jump\t// out\n        /* \"#utility.yul\":23255:23621   */\n    tag_318:\n        /* \"#utility.yul\":23397:23400   */\n      0x00\n        /* \"#utility.yul\":23418:23485   */\n      tag_576\n        /* \"#utility.yul\":23482:23484   */\n      0x15\n        /* \"#utility.yul\":23477:23480   */\n      dup4\n        /* \"#utility.yul\":23418:23485   */\n      tag_297\n      jump\t// in\n    tag_576:\n        /* \"#utility.yul\":23411:23485   */\n      swap2\n      pop\n        /* \"#utility.yul\":23494:23587   */\n      tag_577\n        /* \"#utility.yul\":23583:23586   */\n      dup3\n        /* \"#utility.yul\":23494:23587   */\n      tag_317\n      jump\t// in\n    tag_577:\n        /* \"#utility.yul\":23612:23614   */\n      0x20\n        /* \"#utility.yul\":23607:23610   */\n      dup3\n        /* \"#utility.yul\":23603:23615   */\n      add\n        /* \"#utility.yul\":23596:23615   */\n      swap1\n      pop\n        /* \"#utility.yul\":23255:23621   */\n      swap2\n      swap1\n      pop\n      jump\t// out\n        /* \"#utility.yul\":23627:24046   */\n    tag_81:\n        /* \"#utility.yul\":23793:23797   */\n      0x00\n        /* \"#utility.yul\":23831:23833   */\n      0x20\n        /* \"#utility.yul\":23820:23829   */\n      dup3\n        /* \"#utility.yul\":23816:23834   */\n      add\n        /* \"#utility.yul\":23808:23834   */\n      swap1\n      pop\n        /* \"#utility.yul\":23880:23889   */\n      dup2\n        /* \"#utility.yul\":23874:23878   */\n      dup2\n        /* \"#utility.yul\":23870:23890   */\n      sub\n        /* \"#utility.yul\":23866:23867   */\n      0x00\n        /* \"#utility.yul\":23855:23864   */\n      dup4\n        /* \"#utility.yul\":23851:23868   */\n      add\n        /* \"#utility.yul\":23844:23891   */\n      mstore\n        /* \"#utility.yul\":23908:24039   */\n      tag_579\n        /* \"#utility.yul\":24034:24038   */\n      dup2\n        /* \"#utility.yul\":23908:24039   */\n      tag_318\n      jump\t// in\n    tag_579:\n        /* \"#utility.yul\":23900:24039   */\n      swap1\n      pop\n        /* \"#utility.yul\":23627:24046   */\n      swap2\n      swap1\n      pop\n      jump\t// out\n        /* \"#utility.yul\":24052:24233   */\n    tag_319:\n        /* \"#utility.yul\":24192:24225   */\n      0x50726f66696c6520706963747572652063616e6e6f7420626520656d70747900\n        /* \"#utility.yul\":24188:24189   */\n      0x00\n        /* \"#utility.yul\":24180:24186   */\n      dup3\n        /* \"#utility.yul\":24176:24190   */\n      add\n        /* \"#utility.yul\":24169:24226   */\n      mstore\n        /* \"#utility.yul\":24052:24233   */\n      pop\n      jump\t// out\n        /* \"#utility.yul\":24239:24605   */\n    tag_320:\n        /* \"#utility.yul\":24381:24384   */\n      0x00\n        /* \"#utility.yul\":24402:24469   */\n      tag_582\n        /* \"#utility.yul\":24466:24468   */\n      0x1f\n        /* \"#utility.yul\":24461:24464   */\n      dup4\n        /* \"#utility.yul\":24402:24469   */\n      tag_297\n      jump\t// in\n    tag_582:\n        /* \"#utility.yul\":24395:24469   */\n      swap2\n      pop\n        /* \"#utility.yul\":24478:24571   */\n      tag_583\n        /* \"#utility.yul\":24567:24570   */\n      dup3\n        /* \"#utility.yul\":24478:24571   */\n      tag_319\n      jump\t// in\n    tag_583:\n        /* \"#utility.yul\":24596:24598   */\n      0x20\n        /* \"#utility.yul\":24591:24594   */\n      dup3\n        /* \"#utility.yul\":24587:24599   */\n      add\n        /* \"#utility.yul\":24580:24599   */\n      swap1\n      pop\n        /* \"#utility.yul\":24239:24605   */\n      swap2\n      swap1\n      pop\n      jump\t// out\n        /* \"#utility.yul\":24611:25030   */\n    tag_84:\n        /* \"#utility.yul\":24777:24781   */\n      0x00\n        /* \"#utility.yul\":24815:24817   */\n      0x20\n        /* \"#utility.yul\":24804:24813   */\n      dup3\n        /* \"#utility.yul\":24800:24818   */\n      add\n        /* \"#utility.yul\":24792:24818   */\n      swap1\n      pop\n        /* \"#utility.yul\":24864:24873   */\n      dup2\n        /* \"#utility.yul\":24858:24862   */\n      dup2\n        /* \"#utility.yul\":24854:24874   */\n      sub\n        /* \"#utility.yul\":24850:24851   */\n      0x00\n        /* \"#utility.yul\":24839:24848   */\n      dup4\n        /* \"#utility.yul\":24835:24852   */\n      add\n        /* \"#utility.yul\":24828:24875   */\n      mstore\n        /* \"#utility.yul\":24892:25023   */\n      tag_585\n        /* \"#utility.yul\":25018:25022   */\n      dup2\n        /* \"#utility.yul\":24892:25023   */\n      tag_320\n      jump\t// in\n    tag_585:\n        /* \"#utility.yul\":24884:25023   */\n      swap1\n      pop\n        /* \"#utility.yul\":24611:25030   */\n      swap2\n      swap1\n      pop\n      jump\t// out\n        /* \"#utility.yul\":25036:25216   */\n    tag_321:\n        /* \"#utility.yul\":25084:25161   */\n      0x4e487b7100000000000000000000000000000000000000000000000000000000\n        /* \"#utility.yul\":25081:25082   */\n      0x00\n        /* \"#utility.yul\":25074:25162   */\n      mstore\n        /* \"#utility.yul\":25181:25185   */\n      0x22\n        /* \"#utility.yul\":25178:25179   */\n      0x04\n        /* \"#utility.yul\":25171:25186   */\n      mstore\n        /* \"#utility.yul\":25205:25209   */\n      0x24\n        /* \"#utility.yul\":25202:25203   */\n      0x00\n        /* \"#utility.yul\":25195:25210   */\n      revert\n        /* \"#utility.yul\":25222:25542   */\n    tag_138:\n        /* \"#utility.yul\":25266:25272   */\n      0x00\n        /* \"#utility.yul\":25303:25304   */\n      0x02\n        /* \"#utility.yul\":25297:25301   */\n      dup3\n        /* \"#utility.yul\":25293:25305   */\n      div\n        /* \"#utility.yul\":25283:25305   */\n      swap1\n      pop\n        /* \"#utility.yul\":25350:25351   */\n      0x01\n        /* \"#utility.yul\":25344:25348   */\n      dup3\n        /* \"#utility.yul\":25340:25352   */\n      and\n        /* \"#utility.yul\":25371:25389   */\n      dup1\n        /* \"#utility.yul\":25361:25442   */\n      tag_588\n      jumpi\n        /* \"#utility.yul\":25427:25431   */\n      0x7f\n        /* \"#utility.yul\":25419:25425   */\n      dup3\n        /* \"#utility.yul\":25415:25432   */\n      and\n        /* \"#utility.yul\":25405:25432   */\n      swap2\n      pop\n        /* \"#utility.yul\":25361:25442   */\n    tag_588:\n        /* \"#utility.yul\":25489:25491   */\n      0x20\n        /* \"#utility.yul\":25481:25487   */\n      dup3\n        /* \"#utility.yul\":25478:25492   */\n      lt\n        /* \"#utility.yul\":25458:25476   */\n      dup2\n        /* \"#utility.yul\":25455:25493   */\n      sub\n        /* \"#utility.yul\":25452:25536   */\n      tag_589\n      jumpi\n        /* \"#utility.yul\":25508:25526   */\n      tag_590\n      tag_321\n      jump\t// in\n    tag_590:\n        /* \"#utility.yul\":25452:25536   */\n    tag_589:\n        /* \"#utility.yul\":25273:25542   */\n      pop\n        /* \"#utility.yul\":25222:25542   */\n      swap2\n      swap1\n      pop\n      jump\t// out\n        /* \"#utility.yul\":25548:25689   */\n    tag_322:\n        /* \"#utility.yul\":25597:25601   */\n      0x00\n        /* \"#utility.yul\":25620:25623   */\n      dup2\n        /* \"#utility.yul\":25612:25623   */\n      swap1\n      pop\n        /* \"#utility.yul\":25643:25646   */\n      dup2\n        /* \"#utility.yul\":25640:25641   */\n      0x00\n        /* \"#utility.yul\":25633:25647   */\n      mstore\n        /* \"#utility.yul\":25677:25681   */\n      0x20\n        /* \"#utility.yul\":25674:25675   */\n      0x00\n        /* \"#utility.yul\":25664:25682   */\n      keccak256\n        /* \"#utility.yul\":25656:25682   */\n      swap1\n      pop\n        /* \"#utility.yul\":25548:25689   */\n      swap2\n      swap1\n      pop\n      jump\t// out\n        /* \"#utility.yul\":25695:25788   */\n    tag_323:\n        /* \"#utility.yul\":25732:25738   */\n      0x00\n        /* \"#utility.yul\":25779:25781   */\n      0x20\n        /* \"#utility.yul\":25774:25776   */\n      0x1f\n        /* \"#utility.yul\":25767:25772   */\n      dup4\n        /* \"#utility.yul\":25763:25777   */\n      add\n        /* \"#utility.yul\":25759:25782   */\n      div\n        /* \"#utility.yul\":25749:25782   */\n      swap1\n      pop\n        /* \"#utility.yul\":25695:25788   */\n      swap2\n      swap1\n      pop\n      jump\t// out\n        /* \"#utility.yul\":25794:25901   */\n    tag_324:\n        /* \"#utility.yul\":25838:25846   */\n      0x00\n        /* \"#utility.yul\":25888:25893   */\n      dup3\n        /* \"#utility.yul\":25882:25886   */\n      dup3\n        /* \"#utility.yul\":25878:25894   */\n      shl\n        /* \"#utility.yul\":25857:25894   */\n      swap1\n      pop\n        /* \"#utility.yul\":25794:25901   */\n      swap3\n      swap2\n      pop\n      pop\n      jump\t// out\n        /* \"#utility.yul\":25907:26300   */\n    tag_325:\n        /* \"#utility.yul\":25976:25982   */\n      0x00\n        /* \"#utility.yul\":26026:26027   */\n      0x08\n        /* \"#utility.yul\":26014:26024   */\n      dup4\n        /* \"#utility.yul\":26010:26028   */\n      mul\n        /* \"#utility.yul\":26049:26146   */\n      tag_595\n        /* \"#utility.yul\":26079:26145   */\n      0xffffffffffffffffffffffffffffffffffffffffffffffffffffffffffffffff\n        /* \"#utility.yul\":26068:26077   */\n      dup3\n        /* \"#utility.yul\":26049:26146   */\n      tag_324\n      jump\t// in\n    tag_595:\n        /* \"#utility.yul\":26167:26206   */\n      tag_596\n        /* \"#utility.yul\":26197:26205   */\n      dup7\n        /* \"#utility.yul\":26186:26195   */\n      dup4\n        /* \"#utility.yul\":26167:26206   */\n      tag_324\n      jump\t// in\n    tag_596:\n        /* \"#utility.yul\":26155:26206   */\n      swap6\n      pop\n        /* \"#utility.yul\":26239:26243   */\n      dup1\n        /* \"#utility.yul\":26235:26244   */\n      not\n        /* \"#utility.yul\":26228:26233   */\n      dup5\n        /* \"#utility.yul\":26224:26245   */\n      and\n        /* \"#utility.yul\":26215:26245   */\n      swap4\n      pop\n        /* \"#utility.yul\":26288:26292   */\n      dup1\n        /* \"#utility.yul\":26278:26286   */\n      dup7\n        /* \"#utility.yul\":26274:26293   */\n      and\n        /* \"#utility.yul\":26267:26272   */\n      dup5\n        /* \"#utility.yul\":26264:26294   */\n      or\n        /* \"#utility.yul\":26254:26294   */\n      swap3\n      pop\n        /* \"#utility.yul\":25983:26300   */\n      pop\n      pop\n        /* \"#utility.yul\":25907:26300   */\n      swap4\n      swap3\n      pop\n      pop\n      pop\n      jump\t// out\n        /* \"#utility.yul\":26306:26366   */\n    tag_326:\n        /* \"#utility.yul\":26334:26337   */\n      0x00\n        /* \"#utility.yul\":26355:26360   */\n      dup2\n        /* \"#utility.yul\":26348:26360   */\n      swap1\n      pop\n        /* \"#utility.yul\":26306:26366   */\n      swap2\n      swap1\n      pop\n      jump\t// out\n        /* \"#utility.yul\":26372:26514   */\n    tag_327:\n        /* \"#utility.yul\":26422:26431   */\n      0x00\n        /* \"#utility.yul\":26455:26508   */\n      tag_599\n        /* \"#utility.yul\":26473:26507   */\n      tag_600\n        /* \"#utility.yul\":26482:26506   */\n      tag_601\n        /* \"#utility.yul\":26500:26505   */\n      dup5\n        /* \"#utility.yul\":26482:26506   */\n      tag_283\n      jump\t// in\n    tag_601:\n        /* \"#utility.yul\":26473:26507   */\n      tag_326\n      jump\t// in\n    tag_600:\n        /* \"#utility.yul\":26455:26508   */\n      tag_283\n      jump\t// in\n    tag_599:\n        /* \"#utility.yul\":26442:26508   */\n      swap1\n      pop\n        /* \"#utility.yul\":26372:26514   */\n      swap2\n      swap1\n      pop\n      jump\t// out\n        /* \"#utility.yul\":26520:26595   */\n    tag_328:\n        /* \"#utility.yul\":26563:26566   */\n      0x00\n        /* \"#utility.yul\":26584:26589   */\n      dup2\n        /* \"#utility.yul\":26577:26589   */\n      swap1\n      pop\n        /* \"#utility.yul\":26520:26595   */\n      swap2\n      swap1\n      pop\n      jump\t// out\n        /* \"#utility.yul\":26601:26870   */\n    tag_329:\n        /* \"#utility.yul\":26711:26750   */\n      tag_604\n        /* \"#utility.yul\":26742:26749   */\n      dup4\n        /* \"#utility.yul\":26711:26750   */\n      tag_327\n      jump\t// in\n    tag_604:\n        /* \"#utility.yul\":26772:26863   */\n      tag_605\n        /* \"#utility.yul\":26821:26862   */\n      tag_606\n        /* \"#utility.yul\":26845:26861   */\n      dup3\n        /* \"#utility.yul\":26821:26862   */\n      tag_328\n      jump\t// in\n    tag_606:\n        /* \"#utility.yul\":26813:26819   */\n      dup5\n        /* \"#utility.yul\":26806:26810   */\n      dup5\n        /* \"#utility.yul\":26800:26811   */\n      sload\n        /* \"#utility.yul\":26772:26863   */\n      tag_325\n      jump\t// in\n    tag_605:\n        /* \"#utility.yul\":26766:26770   */\n      dup3\n        /* \"#utility.yul\":26759:26864   */\n      sstore\n        /* \"#utility.yul\":26677:26870   */\n      pop\n        /* \"#utility.yul\":26601:26870   */\n      pop\n      pop\n      pop\n      jump\t// out\n        /* \"#utility.yul\":26876:26949   */\n    tag_330:\n        /* \"#utility.yul\":26921:26924   */\n      0x00\n        /* \"#utility.yul\":26876:26949   */\n      swap1\n      jump\t// out\n        /* \"#utility.yul\":26955:27144   */\n    tag_331:\n        /* \"#utility.yul\":27032:27064   */\n      tag_609\n      tag_330\n      jump\t// in\n    tag_609:\n        /* \"#utility.yul\":27073:27138   */\n      tag_610\n        /* \"#utility.yul\":27131:27137   */\n      dup2\n        /* \"#utility.yul\":27123:27129   */\n      dup5\n        /* \"#utility.yul\":27117:27121   */\n      dup5\n        /* \"#utility.yul\":27073:27138   */\n      tag_329\n      jump\t// in\n    tag_610:\n        /* \"#utility.yul\":27008:27144   */\n      pop\n        /* \"#utility.yul\":26955:27144   */\n      pop\n      pop\n      jump\t// out\n        /* \"#utility.yul\":27150:27336   */\n    tag_332:\n        /* \"#utility.yul\":27210:27330   */\n    tag_612:\n        /* \"#utility.yul\":27227:27230   */\n      dup2\n        /* \"#utility.yul\":27220:27225   */\n      dup2\n        /* \"#utility.yul\":27217:27231   */\n      lt\n        /* \"#utility.yul\":27210:27330   */\n      iszero\n      tag_614\n      jumpi\n        /* \"#utility.yul\":27281:27320   */\n      tag_615\n        /* \"#utility.yul\":27318:27319   */\n      0x00\n        /* \"#utility.yul\":27311:27316   */\n      dup3\n        /* \"#utility.yul\":27281:27320   */\n      tag_331\n      jump\t// in\n    tag_615:\n        /* \"#utility.yul\":27254:27255   */\n      0x01\n        /* \"#utility.yul\":27247:27252   */\n      dup2\n        /* \"#utility.yul\":27243:27256   */\n      add\n        /* \"#utility.yul\":27234:27256   */\n      swap1\n      pop\n        /* \"#utility.yul\":27210:27330   */\n      jump(tag_612)\n    tag_614:\n        /* \"#utility.yul\":27150:27336   */\n      pop\n      pop\n      jump\t// out\n        /* \"#utility.yul\":27342:27885   */\n    tag_333:\n        /* \"#utility.yul\":27443:27445   */\n      0x1f\n        /* \"#utility.yul\":27438:27441   */\n      dup3\n        /* \"#utility.yul\":27435:27446   */\n      gt\n        /* \"#utility.yul\":27432:27878   */\n      iszero\n      tag_617\n      jumpi\n        /* \"#utility.yul\":27477:27515   */\n      tag_618\n        /* \"#utility.yul\":27509:27514   */\n      dup2\n        /* \"#utility.yul\":27477:27515   */\n      tag_322\n      jump\t// in\n    tag_618:\n        /* \"#utility.yul\":27561:27590   */\n      tag_619\n        /* \"#utility.yul\":27579:27589   */\n      dup5\n        /* \"#utility.yul\":27561:27590   */\n      tag_323\n      jump\t// in\n    tag_619:\n        /* \"#utility.yul\":27551:27559   */\n      dup2\n        /* \"#utility.yul\":27547:27591   */\n      add\n        /* \"#utility.yul\":27744:27746   */\n      0x20\n        /* \"#utility.yul\":27732:27742   */\n      dup6\n        /* \"#utility.yul\":27729:27747   */\n      lt\n        /* \"#utility.yul\":27726:27775   */\n      iszero\n      tag_620\n      jumpi\n        /* \"#utility.yul\":27765:27773   */\n      dup2\n        /* \"#utility.yul\":27750:27773   */\n      swap1\n      pop\n        /* \"#utility.yul\":27726:27775   */\n    tag_620:\n        /* \"#utility.yul\":27788:27868   */\n      tag_621\n        /* \"#utility.yul\":27844:27866   */\n      tag_622\n        /* \"#utility.yul\":27862:27865   */\n      dup6\n        /* \"#utility.yul\":27844:27866   */\n      tag_323\n      jump\t// in\n    tag_622:\n        /* \"#utility.yul\":27834:27842   */\n      dup4\n        /* \"#utility.yul\":27830:27867   */\n      add\n        /* \"#utility.yul\":27817:27828   */\n      dup3\n        /* \"#utility.yul\":27788:27868   */\n      tag_332\n      jump\t// in\n    tag_621:\n        /* \"#utility.yul\":27447:27878   */\n      pop\n      pop\n        /* \"#utility.yul\":27432:27878   */\n    tag_617:\n        /* \"#utility.yul\":27342:27885   */\n      pop\n      pop\n      pop\n      jump\t// out\n        /* \"#utility.yul\":27891:28008   */\n    tag_334:\n        /* \"#utility.yul\":27945:27953   */\n      0x00\n        /* \"#utility.yul\":27995:28000   */\n      dup3\n        /* \"#utility.yul\":27989:27993   */\n      dup3\n        /* \"#utility.yul\":27985:28001   */\n      shr\n        /* \"#utility.yul\":27964:28001   */\n      swap1\n      pop\n        /* \"#utility.yul\":27891:28008   */\n      swap3\n      swap2\n      pop\n      pop\n      jump\t// out\n        /* \"#utility.yul\":28014:28183   */\n    tag_335:\n        /* \"#utility.yul\":28058:28064   */\n      0x00\n        /* \"#utility.yul\":28091:28142   */\n      tag_625\n        /* \"#utility.yul\":28139:28140   */\n      0x00\n        /* \"#utility.yul\":28135:28141   */\n      not\n        /* \"#utility.yul\":28127:28132   */\n      dup5\n        /* \"#utility.yul\":28124:28125   */\n      0x08\n        /* \"#utility.yul\":28120:28133   */\n      mul\n        /* \"#utility.yul\":28091:28142   */\n      tag_334\n      jump\t// in\n    tag_625:\n        /* \"#utility.yul\":28087:28143   */\n      not\n        /* \"#utility.yul\":28172:28176   */\n      dup1\n        /* \"#utility.yul\":28166:28170   */\n      dup4\n        /* \"#utility.yul\":28162:28177   */\n      and\n        /* \"#utility.yul\":28152:28177   */\n      swap2\n      pop\n        /* \"#utility.yul\":28065:28183   */\n      pop\n        /* \"#utility.yul\":28014:28183   */\n      swap3\n      swap2\n      pop\n      pop\n      jump\t// out\n        /* \"#utility.yul\":28188:28483   */\n    tag_336:\n        /* \"#utility.yul\":28264:28268   */\n      0x00\n        /* \"#utility.yul\":28410:28439   */\n      tag_627\n        /* \"#utility.yul\":28435:28438   */\n      dup4\n        /* \"#utility.yul\":28429:28433   */\n      dup4\n        /* \"#utility.yul\":28410:28439   */\n      tag_335\n      jump\t// in\n    tag_627:\n        /* \"#utility.yul\":28402:28439   */\n      swap2\n      pop\n        /* \"#utility.yul\":28472:28475   */\n      dup3\n        /* \"#utility.yul\":28469:28470   */\n      0x02\n        /* \"#utility.yul\":28465:28476   */\n      mul\n        /* \"#utility.yul\":28459:28463   */\n      dup3\n        /* \"#utility.yul\":28456:28477   */\n      or\n        /* \"#utility.yul\":28448:28477   */\n      swap1\n      pop\n        /* \"#utility.yul\":28188:28483   */\n      swap3\n      swap2\n      pop\n      pop\n      jump\t// out\n        /* \"#utility.yul\":28488:29883   */\n    tag_86:\n        /* \"#utility.yul\":28605:28642   */\n      tag_629\n        /* \"#utility.yul\":28638:28641   */\n      dup3\n        /* \"#utility.yul\":28605:28642   */\n      tag_287\n      jump\t// in\n    tag_629:\n        /* \"#utility.yul\":28707:28725   */\n      0xffffffffffffffff\n        /* \"#utility.yul\":28699:28705   */\n      dup2\n        /* \"#utility.yul\":28696:28726   */\n      gt\n        /* \"#utility.yul\":28693:28749   */\n      iszero\n      tag_630\n      jumpi\n        /* \"#utility.yul\":28729:28747   */\n      tag_631\n      tag_269\n      jump\t// in\n    tag_631:\n        /* \"#utility.yul\":28693:28749   */\n    tag_630:\n        /* \"#utility.yul\":28773:28811   */\n      tag_632\n        /* \"#utility.yul\":28805:28809   */\n      dup3\n        /* \"#utility.yul\":28799:28810   */\n      sload\n        /* \"#utility.yul\":28773:28811   */\n      tag_138\n      jump\t// in\n    tag_632:\n        /* \"#utility.yul\":28858:28925   */\n      tag_633\n        /* \"#utility.yul\":28918:28924   */\n      dup3\n        /* \"#utility.yul\":28910:28916   */\n      dup3\n        /* \"#utility.yul\":28904:28908   */\n      dup6\n        /* \"#utility.yul\":28858:28925   */\n      tag_333\n      jump\t// in\n    tag_633:\n        /* \"#utility.yul\":28952:28953   */\n      0x00\n        /* \"#utility.yul\":28976:28980   */\n      0x20\n        /* \"#utility.yul\":28963:28980   */\n      swap1\n      pop\n        /* \"#utility.yul\":29008:29010   */\n      0x1f\n        /* \"#utility.yul\":29000:29006   */\n      dup4\n        /* \"#utility.yul\":28997:29011   */\n      gt\n        /* \"#utility.yul\":29025:29026   */\n      0x01\n        /* \"#utility.yul\":29020:29638   */\n      dup2\n      eq\n      tag_635\n      jumpi\n        /* \"#utility.yul\":29682:29683   */\n      0x00\n        /* \"#utility.yul\":29699:29705   */\n      dup5\n        /* \"#utility.yul\":29696:29773   */\n      iszero\n      tag_636\n      jumpi\n        /* \"#utility.yul\":29748:29757   */\n      dup3\n        /* \"#utility.yul\":29743:29746   */\n      dup8\n        /* \"#utility.yul\":29739:29758   */\n      add\n        /* \"#utility.yul\":29733:29759   */\n      mload\n        /* \"#utility.yul\":29724:29759   */\n      swap1\n      pop\n        /* \"#utility.yul\":29696:29773   */\n    tag_636:\n        /* \"#utility.yul\":29799:29866   */\n      tag_637\n        /* \"#utility.yul\":29859:29865   */\n      dup6\n        /* \"#utility.yul\":29852:29857   */\n      dup3\n        /* \"#utility.yul\":29799:29866   */\n      tag_336\n      jump\t// in\n    tag_637:\n        /* \"#utility.yul\":29793:29797   */\n      dup7\n        /* \"#utility.yul\":29786:29867   */\n      sstore\n        /* \"#utility.yul\":29655:29877   */\n      pop\n        /* \"#utility.yul\":28990:29877   */\n      jump(tag_634)\n        /* \"#utility.yul\":29020:29638   */\n    tag_635:\n        /* \"#utility.yul\":29072:29076   */\n      0x1f\n        /* \"#utility.yul\":29068:29077   */\n      not\n        /* \"#utility.yul\":29060:29066   */\n      dup5\n        /* \"#utility.yul\":29056:29078   */\n      and\n        /* \"#utility.yul\":29106:29143   */\n      tag_638\n        /* \"#utility.yul\":29138:29142   */\n      dup7\n        /* \"#utility.yul\":29106:29143   */\n      tag_322\n      jump\t// in\n    tag_638:\n        /* \"#utility.yul\":29165:29166   */\n      0x00\n        /* \"#utility.yul\":29179:29387   */\n    tag_639:\n        /* \"#utility.yul\":29193:29200   */\n      dup3\n        /* \"#utility.yul\":29190:29191   */\n      dup2\n        /* \"#utility.yul\":29187:29201   */\n      lt\n        /* \"#utility.yul\":29179:29387   */\n      iszero\n      tag_641\n      jumpi\n        /* \"#utility.yul\":29272:29281   */\n      dup5\n        /* \"#utility.yul\":29267:29270   */\n      dup10\n        /* \"#utility.yul\":29263:29282   */\n      add\n        /* \"#utility.yul\":29257:29283   */\n      mload\n        /* \"#utility.yul\":29249:29255   */\n      dup3\n        /* \"#utility.yul\":29242:29284   */\n      sstore\n        /* \"#utility.yul\":29323:29324   */\n      0x01\n        /* \"#utility.yul\":29315:29321   */\n      dup3\n        /* \"#utility.yul\":29311:29325   */\n      add\n        /* \"#utility.yul\":29301:29325   */\n      swap2\n      pop\n        /* \"#utility.yul\":29370:29372   */\n      0x20\n        /* \"#utility.yul\":29359:29368   */\n      dup6\n        /* \"#utility.yul\":29355:29373   */\n      add\n        /* \"#utility.yul\":29342:29373   */\n      swap5\n      pop\n        /* \"#utility.yul\":29216:29220   */\n      0x20\n        /* \"#utility.yul\":29213:29214   */\n      dup2\n        /* \"#utility.yul\":29209:29221   */\n      add\n        /* \"#utility.yul\":29204:29221   */\n      swap1\n      pop\n        /* \"#utility.yul\":29179:29387   */\n      jump(tag_639)\n    tag_641:\n        /* \"#utility.yul\":29415:29421   */\n      dup7\n        /* \"#utility.yul\":29406:29413   */\n      dup4\n        /* \"#utility.yul\":29403:29422   */\n      lt\n        /* \"#utility.yul\":29400:29579   */\n      iszero\n      tag_642\n      jumpi\n        /* \"#utility.yul\":29473:29482   */\n      dup5\n        /* \"#utility.yul\":29468:29471   */\n      dup10\n        /* \"#utility.yul\":29464:29483   */\n      add\n        /* \"#utility.yul\":29458:29484   */\n      mload\n        /* \"#utility.yul\":29516:29564   */\n      tag_643\n        /* \"#utility.yul\":29558:29562   */\n      0x1f\n        /* \"#utility.yul\":29550:29556   */\n      dup10\n        /* \"#utility.yul\":29546:29563   */\n      and\n        /* \"#utility.yul\":29535:29544   */\n      dup3\n        /* \"#utility.yul\":29516:29564   */\n      tag_335\n      jump\t// in\n    tag_643:\n        /* \"#utility.yul\":29508:29514   */\n      dup4\n        /* \"#utility.yul\":29501:29565   */\n      sstore\n        /* \"#utility.yul\":29423:29579   */\n      pop\n        /* \"#utility.yul\":29400:29579   */\n    tag_642:\n        /* \"#utility.yul\":29625:29626   */\n      0x01\n        /* \"#utility.yul\":29621:29622   */\n      0x02\n        /* \"#utility.yul\":29613:29619   */\n      dup9\n        /* \"#utility.yul\":29609:29623   */\n      mul\n        /* \"#utility.yul\":29605:29627   */\n      add\n        /* \"#utility.yul\":29599:29603   */\n      dup9\n        /* \"#utility.yul\":29592:29628   */\n      sstore\n        /* \"#utility.yul\":29027:29638   */\n      pop\n      pop\n      pop\n        /* \"#utility.yul\":28990:29877   */\n    tag_634:\n      pop\n        /* \"#utility.yul\":28580:29883   */\n      pop\n      pop\n      pop\n        /* \"#utility.yul\":28488:29883   */\n      pop\n      pop\n      jump\t// out\n        /* \"#utility.yul\":29889:30604   */\n    tag_90:\n        /* \"#utility.yul\":30098:30102   */\n      0x00\n        /* \"#utility.yul\":30136:30138   */\n      0x60\n        /* \"#utility.yul\":30125:30134   */\n      dup3\n        /* \"#utility.yul\":30121:30139   */\n      add\n        /* \"#utility.yul\":30113:30139   */\n      swap1\n      pop\n        /* \"#utility.yul\":30185:30194   */\n      dup2\n        /* \"#utility.yul\":30179:30183   */\n      dup2\n        /* \"#utility.yul\":30175:30195   */\n      sub\n        /* \"#utility.yul\":30171:30172   */\n      0x00\n        /* \"#utility.yul\":30160:30169   */\n      dup4\n        /* \"#utility.yul\":30156:30173   */\n      add\n        /* \"#utility.yul\":30149:30196   */\n      mstore\n        /* \"#utility.yul\":30213:30291   */\n      tag_645\n        /* \"#utility.yul\":30286:30290   */\n      dup2\n        /* \"#utility.yul\":30277:30283   */\n      dup7\n        /* \"#utility.yul\":30213:30291   */\n      tag_298\n      jump\t// in\n    tag_645:\n        /* \"#utility.yul\":30205:30291   */\n      swap1\n      pop\n        /* \"#utility.yul\":30338:30347   */\n      dup2\n        /* \"#utility.yul\":30332:30336   */\n      dup2\n        /* \"#utility.yul\":30328:30348   */\n      sub\n        /* \"#utility.yul\":30323:30325   */\n      0x20\n        /* \"#utility.yul\":30312:30321   */\n      dup4\n        /* \"#utility.yul\":30308:30326   */\n      add\n        /* \"#utility.yul\":30301:30349   */\n      mstore\n        /* \"#utility.yul\":30366:30444   */\n      tag_646\n        /* \"#utility.yul\":30439:30443   */\n      dup2\n        /* \"#utility.yul\":30430:30436   */\n      dup6\n        /* \"#utility.yul\":30366:30444   */\n      tag_298\n      jump\t// in\n    tag_646:\n        /* \"#utility.yul\":30358:30444   */\n      swap1\n      pop\n        /* \"#utility.yul\":30491:30500   */\n      dup2\n        /* \"#utility.yul\":30485:30489   */\n      dup2\n        /* \"#utility.yul\":30481:30501   */\n      sub\n        /* \"#utility.yul\":30476:30478   */\n      0x40\n        /* \"#utility.yul\":30465:30474   */\n      dup4\n        /* \"#utility.yul\":30461:30479   */\n      add\n        /* \"#utility.yul\":30454:30502   */\n      mstore\n        /* \"#utility.yul\":30519:30597   */\n      tag_647\n        /* \"#utility.yul\":30592:30596   */\n      dup2\n        /* \"#utility.yul\":30583:30589   */\n      dup5\n        /* \"#utility.yul\":30519:30597   */\n      tag_298\n      jump\t// in\n    tag_647:\n        /* \"#utility.yul\":30511:30597   */\n      swap1\n      pop\n        /* \"#utility.yul\":29889:30604   */\n      swap5\n      swap4\n      pop\n      pop\n      pop\n      pop\n      jump\t// out\n        /* \"#utility.yul\":30610:30831   */\n    tag_337:\n        /* \"#utility.yul\":30750:30784   */\n      0x53656c6563746564206461746120686173682063616e6e6f7420626520656d70\n        /* \"#utility.yul\":30746:30747   */\n      0x00\n        /* \"#utility.yul\":30738:30744   */\n      dup3\n        /* \"#utility.yul\":30734:30748   */\n      add\n        /* \"#utility.yul\":30727:30785   */\n      mstore\n        /* \"#utility.yul\":30819:30823   */\n      0x7479000000000000000000000000000000000000000000000000000000000000\n        /* \"#utility.yul\":30814:30816   */\n      0x20\n        /* \"#utility.yul\":30806:30812   */\n      dup3\n        /* \"#utility.yul\":30802:30817   */\n      add\n        /* \"#utility.yul\":30795:30824   */\n      mstore\n        /* \"#utility.yul\":30610:30831   */\n      pop\n      jump\t// out\n        /* \"#utility.yul\":30837:31203   */\n    tag_338:\n        /* \"#utility.yul\":30979:30982   */\n      0x00\n        /* \"#utility.yul\":31000:31067   */\n      tag_650\n        /* \"#utility.yul\":31064:31066   */\n      0x22\n        /* \"#utility.yul\":31059:31062   */\n      dup4\n        /* \"#utility.yul\":31000:31067   */\n      tag_297\n      jump\t// in\n    tag_650:\n        /* \"#utility.yul\":30993:31067   */\n      swap2\n      pop\n        /* \"#utility.yul\":31076:31169   */\n      tag_651\n        /* \"#utility.yul\":31165:31168   */\n      dup3\n        /* \"#utility.yul\":31076:31169   */\n      tag_337\n      jump\t// in\n    tag_651:\n        /* \"#utility.yul\":31194:31196   */\n      0x40\n        /* \"#utility.yul\":31189:31192   */\n      dup3\n        /* \"#utility.yul\":31185:31197   */\n      add\n        /* \"#utility.yul\":31178:31197   */\n      swap1\n      pop\n        /* \"#utility.yul\":30837:31203   */\n      swap2\n      swap1\n      pop\n      jump\t// out\n        /* \"#utility.yul\":31209:31628   */\n    tag_96:\n        /* \"#utility.yul\":31375:31379   */\n      0x00\n        /* \"#utility.yul\":31413:31415   */\n      0x20\n        /* \"#utility.yul\":31402:31411   */\n      dup3\n        /* \"#utility.yul\":31398:31416   */\n      add\n        /* \"#utility.yul\":31390:31416   */\n      swap1\n      pop\n        /* \"#utility.yul\":31462:31471   */\n      dup2\n        /* \"#utility.yul\":31456:31460   */\n      dup2\n        /* \"#utility.yul\":31452:31472   */\n      sub\n        /* \"#utility.yul\":31448:31449   */\n      0x00\n        /* \"#utility.yul\":31437:31446   */\n      dup4\n        /* \"#utility.yul\":31433:31450   */\n      add\n        /* \"#utility.yul\":31426:31473   */\n      mstore\n        /* \"#utility.yul\":31490:31621   */\n      tag_653\n        /* \"#utility.yul\":31616:31620   */\n      dup2\n        /* \"#utility.yul\":31490:31621   */\n      tag_338\n      jump\t// in\n    tag_653:\n        /* \"#utility.yul\":31482:31621   */\n      swap1\n      pop\n        /* \"#utility.yul\":31209:31628   */\n      swap2\n      swap1\n      pop\n      jump\t// out\n        /* \"#utility.yul\":31634:31728   */\n    tag_339:\n        /* \"#utility.yul\":31667:31675   */\n      0x00\n        /* \"#utility.yul\":31715:31720   */\n      dup2\n        /* \"#utility.yul\":31711:31713   */\n      0x60\n        /* \"#utility.yul\":31707:31721   */\n      shl\n        /* \"#utility.yul\":31686:31721   */\n      swap1\n      pop\n        /* \"#utility.yul\":31634:31728   */\n      swap2\n      swap1\n      pop\n      jump\t// out\n        /* \"#utility.yul\":31734:31828   */\n    tag_340:\n        /* \"#utility.yul\":31773:31780   */\n      0x00\n        /* \"#utility.yul\":31802:31822   */\n      tag_656\n        /* \"#utility.yul\":31816:31821   */\n      dup3\n        /* \"#utility.yul\":31802:31822   */\n      tag_339\n      jump\t// in\n    tag_656:\n        /* \"#utility.yul\":31791:31822   */\n      swap1\n      pop\n        /* \"#utility.yul\":31734:31828   */\n      swap2\n      swap1\n      pop\n      jump\t// out\n        /* \"#utility.yul\":31834:31934   */\n    tag_341:\n        /* \"#utility.yul\":31873:31880   */\n      0x00\n        /* \"#utility.yul\":31902:31928   */\n      tag_658\n        /* \"#utility.yul\":31922:31927   */\n      dup3\n        /* \"#utility.yul\":31902:31928   */\n      tag_340\n      jump\t// in\n    tag_658:\n        /* \"#utility.yul\":31891:31928   */\n      swap1\n      pop\n        /* \"#utility.yul\":31834:31934   */\n      swap2\n      swap1\n      pop\n      jump\t// out\n        /* \"#utility.yul\":31940:32097   */\n    tag_342:\n        /* \"#utility.yul\":32045:32090   */\n      tag_660\n        /* \"#utility.yul\":32065:32089   */\n      tag_661\n        /* \"#utility.yul\":32083:32088   */\n      dup3\n        /* \"#utility.yul\":32065:32089   */\n      tag_277\n      jump\t// in\n    tag_661:\n        /* \"#utility.yul\":32045:32090   */\n      tag_341\n      jump\t// in\n    tag_660:\n        /* \"#utility.yul\":32040:32043   */\n      dup3\n        /* \"#utility.yul\":32033:32091   */\n      mstore\n        /* \"#utility.yul\":31940:32097   */\n      pop\n      pop\n      jump\t// out\n        /* \"#utility.yul\":32103:32251   */\n    tag_343:\n        /* \"#utility.yul\":32205:32216   */\n      0x00\n        /* \"#utility.yul\":32242:32245   */\n      dup2\n        /* \"#utility.yul\":32227:32245   */\n      swap1\n      pop\n        /* \"#utility.yul\":32103:32251   */\n      swap3\n      swap2\n      pop\n      pop\n      jump\t// out\n        /* \"#utility.yul\":32257:32647   */\n    tag_344:\n        /* \"#utility.yul\":32363:32366   */\n      0x00\n        /* \"#utility.yul\":32391:32430   */\n      tag_664\n        /* \"#utility.yul\":32424:32429   */\n      dup3\n        /* \"#utility.yul\":32391:32430   */\n      tag_287\n      jump\t// in\n    tag_664:\n        /* \"#utility.yul\":32446:32535   */\n      tag_665\n        /* \"#utility.yul\":32528:32534   */\n      dup2\n        /* \"#utility.yul\":32523:32526   */\n      dup6\n        /* \"#utility.yul\":32446:32535   */\n      tag_343\n      jump\t// in\n    tag_665:\n        /* \"#utility.yul\":32439:32535   */\n      swap4\n      pop\n        /* \"#utility.yul\":32544:32609   */\n      tag_666\n        /* \"#utility.yul\":32602:32608   */\n      dup2\n        /* \"#utility.yul\":32597:32600   */\n      dup6\n        /* \"#utility.yul\":32590:32594   */\n      0x20\n        /* \"#utility.yul\":32583:32588   */\n      dup7\n        /* \"#utility.yul\":32579:32595   */\n      add\n        /* \"#utility.yul\":32544:32609   */\n      tag_289\n      jump\t// in\n    tag_666:\n        /* \"#utility.yul\":32634:32640   */\n      dup1\n        /* \"#utility.yul\":32629:32632   */\n      dup5\n        /* \"#utility.yul\":32625:32641   */\n      add\n        /* \"#utility.yul\":32618:32641   */\n      swap2\n      pop\n        /* \"#utility.yul\":32367:32647   */\n      pop\n        /* \"#utility.yul\":32257:32647   */\n      swap3\n      swap2\n      pop\n      pop\n      jump\t// out\n        /* \"#utility.yul\":32653:32732   */\n    tag_345:\n        /* \"#utility.yul\":32692:32699   */\n      0x00\n        /* \"#utility.yul\":32721:32726   */\n      dup2\n        /* \"#utility.yul\":32710:32726   */\n      swap1\n      pop\n        /* \"#utility.yul\":32653:32732   */\n      swap2\n      swap1\n      pop\n      jump\t// out\n        /* \"#utility.yul\":32738:32895   */\n    tag_346:\n        /* \"#utility.yul\":32843:32888   */\n      tag_669\n        /* \"#utility.yul\":32863:32887   */\n      tag_670\n        /* \"#utility.yul\":32881:32886   */\n      dup3\n        /* \"#utility.yul\":32863:32887   */\n      tag_283\n      jump\t// in\n    tag_670:\n        /* \"#utility.yul\":32843:32888   */\n      tag_345\n      jump\t// in\n    tag_669:\n        /* \"#utility.yul\":32838:32841   */\n      dup3\n        /* \"#utility.yul\":32831:32889   */\n      mstore\n        /* \"#utility.yul\":32738:32895   */\n      pop\n      pop\n      jump\t// out\n        /* \"#utility.yul\":32901:33458   */\n    tag_98:\n        /* \"#utility.yul\":33089:33092   */\n      0x00\n        /* \"#utility.yul\":33104:33179   */\n      tag_672\n        /* \"#utility.yul\":33175:33178   */\n      dup3\n        /* \"#utility.yul\":33166:33172   */\n      dup7\n        /* \"#utility.yul\":33104:33179   */\n      tag_342\n      jump\t// in\n    tag_672:\n        /* \"#utility.yul\":33204:33206   */\n      0x14\n        /* \"#utility.yul\":33199:33202   */\n      dup3\n        /* \"#utility.yul\":33195:33207   */\n      add\n        /* \"#utility.yul\":33188:33207   */\n      swap2\n      pop\n        /* \"#utility.yul\":33224:33319   */\n      tag_673\n        /* \"#utility.yul\":33315:33318   */\n      dup3\n        /* \"#utility.yul\":33306:33312   */\n      dup6\n        /* \"#utility.yul\":33224:33319   */\n      tag_344\n      jump\t// in\n    tag_673:\n        /* \"#utility.yul\":33217:33319   */\n      swap2\n      pop\n        /* \"#utility.yul\":33329:33404   */\n      tag_674\n        /* \"#utility.yul\":33400:33403   */\n      dup3\n        /* \"#utility.yul\":33391:33397   */\n      dup5\n        /* \"#utility.yul\":33329:33404   */\n      tag_346\n      jump\t// in\n    tag_674:\n        /* \"#utility.yul\":33429:33431   */\n      0x20\n        /* \"#utility.yul\":33424:33427   */\n      dup3\n        /* \"#utility.yul\":33420:33432   */\n      add\n        /* \"#utility.yul\":33413:33432   */\n      swap2\n      pop\n        /* \"#utility.yul\":33449:33452   */\n      dup2\n        /* \"#utility.yul\":33442:33452   */\n      swap1\n      pop\n        /* \"#utility.yul\":32901:33458   */\n      swap5\n      swap4\n      pop\n      pop\n      pop\n      pop\n      jump\t// out\n        /* \"#utility.yul\":33464:33582   */\n    tag_347:\n        /* \"#utility.yul\":33551:33575   */\n      tag_676\n        /* \"#utility.yul\":33569:33574   */\n      dup2\n        /* \"#utility.yul\":33551:33575   */\n      tag_280\n      jump\t// in\n    tag_676:\n        /* \"#utility.yul\":33546:33549   */\n      dup3\n        /* \"#utility.yul\":33539:33576   */\n      mstore\n        /* \"#utility.yul\":33464:33582   */\n      pop\n      pop\n      jump\t// out\n        /* \"#utility.yul\":33588:33706   */\n    tag_348:\n        /* \"#utility.yul\":33675:33699   */\n      tag_678\n        /* \"#utility.yul\":33693:33698   */\n      dup2\n        /* \"#utility.yul\":33675:33699   */\n      tag_283\n      jump\t// in\n    tag_678:\n        /* \"#utility.yul\":33670:33673   */\n      dup3\n        /* \"#utility.yul\":33663:33700   */\n      mstore\n        /* \"#utility.yul\":33588:33706   */\n      pop\n      pop\n      jump\t// out\n        /* \"#utility.yul\":33712:34044   */\n    tag_100:\n        /* \"#utility.yul\":33833:33837   */\n      0x00\n        /* \"#utility.yul\":33871:33873   */\n      0x40\n        /* \"#utility.yul\":33860:33869   */\n      dup3\n        /* \"#utility.yul\":33856:33874   */\n      add\n        /* \"#utility.yul\":33848:33874   */\n      swap1\n      pop\n        /* \"#utility.yul\":33884:33955   */\n      tag_680\n        /* \"#utility.yul\":33952:33953   */\n      0x00\n        /* \"#utility.yul\":33941:33950   */\n      dup4\n        /* \"#utility.yul\":33937:33954   */\n      add\n        /* \"#utility.yul\":33928:33934   */\n      dup6\n        /* \"#utility.yul\":33884:33955   */\n      tag_347\n      jump\t// in\n    tag_680:\n        /* \"#utility.yul\":33965:34037   */\n      tag_681\n        /* \"#utility.yul\":34033:34035   */\n      0x20\n        /* \"#utility.yul\":34022:34031   */\n      dup4\n        /* \"#utility.yul\":34018:34036   */\n      add\n        /* \"#utility.yul\":34009:34015   */\n      dup5\n        /* \"#utility.yul\":33965:34037   */\n      tag_348\n      jump\t// in\n    tag_681:\n        /* \"#utility.yul\":33712:34044   */\n      swap4\n      swap3\n      pop\n      pop\n      pop\n      jump\t// out\n        /* \"#utility.yul\":34050:34222   */\n    tag_349:\n        /* \"#utility.yul\":34190:34214   */\n      0x497373756572206d757374206861766520612044494400000000000000000000\n        /* \"#utility.yul\":34186:34187   */\n      0x00\n        /* \"#utility.yul\":34178:34184   */\n      dup3\n        /* \"#utility.yul\":34174:34188   */\n      add\n        /* \"#utility.yul\":34167:34215   */\n      mstore\n        /* \"#utility.yul\":34050:34222   */\n      pop\n      jump\t// out\n        /* \"#utility.yul\":34228:34594   */\n    tag_350:\n        /* \"#utility.yul\":34370:34373   */\n      0x00\n        /* \"#utility.yul\":34391:34458   */\n      tag_684\n        /* \"#utility.yul\":34455:34457   */\n      0x16\n        /* \"#utility.yul\":34450:34453   */\n      dup4\n        /* \"#utility.yul\":34391:34458   */\n      tag_297\n      jump\t// in\n    tag_684:\n        /* \"#utility.yul\":34384:34458   */\n      swap2\n      pop\n        /* \"#utility.yul\":34467:34560   */\n      tag_685\n        /* \"#utility.yul\":34556:34559   */\n      dup3\n        /* \"#utility.yul\":34467:34560   */\n      tag_349\n      jump\t// in\n    tag_685:\n        /* \"#utility.yul\":34585:34587   */\n      0x20\n        /* \"#utility.yul\":34580:34583   */\n      dup3\n        /* \"#utility.yul\":34576:34588   */\n      add\n        /* \"#utility.yul\":34569:34588   */\n      swap1\n      pop\n        /* \"#utility.yul\":34228:34594   */\n      swap2\n      swap1\n      pop\n      jump\t// out\n        /* \"#utility.yul\":34600:35019   */\n    tag_104:\n        /* \"#utility.yul\":34766:34770   */\n      0x00\n        /* \"#utility.yul\":34804:34806   */\n      0x20\n        /* \"#utility.yul\":34793:34802   */\n      dup3\n        /* \"#utility.yul\":34789:34807   */\n      add\n        /* \"#utility.yul\":34781:34807   */\n      swap1\n      pop\n        /* \"#utility.yul\":34853:34862   */\n      dup2\n        /* \"#utility.yul\":34847:34851   */\n      dup2\n        /* \"#utility.yul\":34843:34863   */\n      sub\n        /* \"#utility.yul\":34839:34840   */\n      0x00\n        /* \"#utility.yul\":34828:34837   */\n      dup4\n        /* \"#utility.yul\":34824:34841   */\n      add\n        /* \"#utility.yul\":34817:34864   */\n      mstore\n        /* \"#utility.yul\":34881:35012   */\n      tag_687\n        /* \"#utility.yul\":35007:35011   */\n      dup2\n        /* \"#utility.yul\":34881:35012   */\n      tag_350\n      jump\t// in\n    tag_687:\n        /* \"#utility.yul\":34873:35012   */\n      swap1\n      pop\n        /* \"#utility.yul\":34600:35019   */\n      swap2\n      swap1\n      pop\n      jump\t// out\n        /* \"#utility.yul\":35025:35195   */\n    tag_351:\n        /* \"#utility.yul\":35165:35187   */\n      0x526f6c652063616e6e6f7420626520656d707479000000000000000000000000\n        /* \"#utility.yul\":35161:35162   */\n      0x00\n        /* \"#utility.yul\":35153:35159   */\n      dup3\n        /* \"#utility.yul\":35149:35163   */\n      add\n        /* \"#utility.yul\":35142:35188   */\n      mstore\n        /* \"#utility.yul\":35025:35195   */\n      pop\n      jump\t// out\n        /* \"#utility.yul\":35201:35567   */\n    tag_352:\n        /* \"#utility.yul\":35343:35346   */\n      0x00\n        /* \"#utility.yul\":35364:35431   */\n      tag_690\n        /* \"#utility.yul\":35428:35430   */\n      0x14\n        /* \"#utility.yul\":35423:35426   */\n      dup4\n        /* \"#utility.yul\":35364:35431   */\n      tag_297\n      jump\t// in\n    tag_690:\n        /* \"#utility.yul\":35357:35431   */\n      swap2\n      pop\n        /* \"#utility.yul\":35440:35533   */\n      tag_691\n        /* \"#utility.yul\":35529:35532   */\n      dup3\n        /* \"#utility.yul\":35440:35533   */\n      tag_351\n      jump\t// in\n    tag_691:\n        /* \"#utility.yul\":35558:35560   */\n      0x20\n        /* \"#utility.yul\":35553:35556   */\n      dup3\n        /* \"#utility.yul\":35549:35561   */\n      add\n        /* \"#utility.yul\":35542:35561   */\n      swap1\n      pop\n        /* \"#utility.yul\":35201:35567   */\n      swap2\n      swap1\n      pop\n      jump\t// out\n        /* \"#utility.yul\":35573:35992   */\n    tag_107:\n        /* \"#utility.yul\":35739:35743   */\n      0x00\n        /* \"#utility.yul\":35777:35779   */\n      0x20\n        /* \"#utility.yul\":35766:35775   */\n      dup3\n        /* \"#utility.yul\":35762:35780   */\n      add\n        /* \"#utility.yul\":35754:35780   */\n      swap1\n      pop\n        /* \"#utility.yul\":35826:35835   */\n      dup2\n        /* \"#utility.yul\":35820:35824   */\n      dup2\n        /* \"#utility.yul\":35816:35836   */\n      sub\n        /* \"#utility.yul\":35812:35813   */\n      0x00\n        /* \"#utility.yul\":35801:35810   */\n      dup4\n        /* \"#utility.yul\":35797:35814   */\n      add\n        /* \"#utility.yul\":35790:35837   */\n      mstore\n        /* \"#utility.yul\":35854:35985   */\n      tag_693\n        /* \"#utility.yul\":35980:35984   */\n      dup2\n        /* \"#utility.yul\":35854:35985   */\n      tag_352\n      jump\t// in\n    tag_693:\n        /* \"#utility.yul\":35846:35985   */\n      swap1\n      pop\n        /* \"#utility.yul\":35573:35992   */\n      swap2\n      swap1\n      pop\n      jump\t// out\n        /* \"#utility.yul\":35998:36696   */\n    tag_109:\n        /* \"#utility.yul\":36214:36217   */\n      0x00\n        /* \"#utility.yul\":36229:36304   */\n      tag_695\n        /* \"#utility.yul\":36300:36303   */\n      dup3\n        /* \"#utility.yul\":36291:36297   */\n      dup8\n        /* \"#utility.yul\":36229:36304   */\n      tag_342\n      jump\t// in\n    tag_695:\n        /* \"#utility.yul\":36329:36331   */\n      0x14\n        /* \"#utility.yul\":36324:36327   */\n      dup3\n        /* \"#utility.yul\":36320:36332   */\n      add\n        /* \"#utility.yul\":36313:36332   */\n      swap2\n      pop\n        /* \"#utility.yul\":36342:36417   */\n      tag_696\n        /* \"#utility.yul\":36413:36416   */\n      dup3\n        /* \"#utility.yul\":36404:36410   */\n      dup7\n        /* \"#utility.yul\":36342:36417   */\n      tag_342\n      jump\t// in\n    tag_696:\n        /* \"#utility.yul\":36442:36444   */\n      0x14\n        /* \"#utility.yul\":36437:36440   */\n      dup3\n        /* \"#utility.yul\":36433:36445   */\n      add\n        /* \"#utility.yul\":36426:36445   */\n      swap2\n      pop\n        /* \"#utility.yul\":36462:36557   */\n      tag_697\n        /* \"#utility.yul\":36553:36556   */\n      dup3\n        /* \"#utility.yul\":36544:36550   */\n      dup6\n        /* \"#utility.yul\":36462:36557   */\n      tag_344\n      jump\t// in\n    tag_697:\n        /* \"#utility.yul\":36455:36557   */\n      swap2\n      pop\n        /* \"#utility.yul\":36567:36642   */\n      tag_698\n        /* \"#utility.yul\":36638:36641   */\n      dup3\n        /* \"#utility.yul\":36629:36635   */\n      dup5\n        /* \"#utility.yul\":36567:36642   */\n      tag_346\n      jump\t// in\n    tag_698:\n        /* \"#utility.yul\":36667:36669   */\n      0x20\n        /* \"#utility.yul\":36662:36665   */\n      dup3\n        /* \"#utility.yul\":36658:36670   */\n      add\n        /* \"#utility.yul\":36651:36670   */\n      swap2\n      pop\n        /* \"#utility.yul\":36687:36690   */\n      dup2\n        /* \"#utility.yul\":36680:36690   */\n      swap1\n      pop\n        /* \"#utility.yul\":35998:36696   */\n      swap6\n      swap5\n      pop\n      pop\n      pop\n      pop\n      pop\n      jump\t// out\n        /* \"#utility.yul\":36702:36820   */\n    tag_353:\n        /* \"#utility.yul\":36789:36813   */\n      tag_700\n        /* \"#utility.yul\":36807:36812   */\n      dup2\n        /* \"#utility.yul\":36789:36813   */\n      tag_277\n      jump\t// in\n    tag_700:\n        /* \"#utility.yul\":36784:36787   */\n      dup3\n        /* \"#utility.yul\":36777:36814   */\n      mstore\n        /* \"#utility.yul\":36702:36820   */\n      pop\n      pop\n      jump\t// out\n        /* \"#utility.yul\":36826:37359   */\n    tag_115:\n        /* \"#utility.yul\":36995:36999   */\n      0x00\n        /* \"#utility.yul\":37033:37035   */\n      0x60\n        /* \"#utility.yul\":37022:37031   */\n      dup3\n        /* \"#utility.yul\":37018:37036   */\n      add\n        /* \"#utility.yul\":37010:37036   */\n      swap1\n      pop\n        /* \"#utility.yul\":37046:37117   */\n      tag_702\n        /* \"#utility.yul\":37114:37115   */\n      0x00\n        /* \"#utility.yul\":37103:37112   */\n      dup4\n        /* \"#utility.yul\":37099:37116   */\n      add\n        /* \"#utility.yul\":37090:37096   */\n      dup7\n        /* \"#utility.yul\":37046:37117   */\n      tag_353\n      jump\t// in\n    tag_702:\n        /* \"#utility.yul\":37164:37173   */\n      dup2\n        /* \"#utility.yul\":37158:37162   */\n      dup2\n        /* \"#utility.yul\":37154:37174   */\n      sub\n        /* \"#utility.yul\":37149:37151   */\n      0x20\n        /* \"#utility.yul\":37138:37147   */\n      dup4\n        /* \"#utility.yul\":37134:37152   */\n      add\n        /* \"#utility.yul\":37127:37175   */\n      mstore\n        /* \"#utility.yul\":37192:37270   */\n      tag_703\n        /* \"#utility.yul\":37265:37269   */\n      dup2\n        /* \"#utility.yul\":37256:37262   */\n      dup6\n        /* \"#utility.yul\":37192:37270   */\n      tag_298\n      jump\t// in\n    tag_703:\n        /* \"#utility.yul\":37184:37270   */\n      swap1\n      pop\n        /* \"#utility.yul\":37280:37352   */\n      tag_704\n        /* \"#utility.yul\":37348:37350   */\n      0x40\n        /* \"#utility.yul\":37337:37346   */\n      dup4\n        /* \"#utility.yul\":37333:37351   */\n      add\n        /* \"#utility.yul\":37324:37330   */\n      dup5\n        /* \"#utility.yul\":37280:37352   */\n      tag_347\n      jump\t// in\n    tag_704:\n        /* \"#utility.yul\":36826:37359   */\n      swap5\n      swap4\n      pop\n      pop\n      pop\n      pop\n      jump\t// out\n        /* \"#utility.yul\":37365:37541   */\n    tag_354:\n        /* \"#utility.yul\":37505:37533   */\n      0x4964656e7469666965722063616e6e6f7420626520656d707479000000000000\n        /* \"#utility.yul\":37501:37502   */\n      0x00\n        /* \"#utility.yul\":37493:37499   */\n      dup3\n        /* \"#utility.yul\":37489:37503   */\n      add\n        /* \"#utility.yul\":37482:37534   */\n      mstore\n        /* \"#utility.yul\":37365:37541   */\n      pop\n      jump\t// out\n        /* \"#utility.yul\":37547:37913   */\n    tag_355:\n        /* \"#utility.yul\":37689:37692   */\n      0x00\n        /* \"#utility.yul\":37710:37777   */\n      tag_707\n        /* \"#utility.yul\":37774:37776   */\n      0x1a\n        /* \"#utility.yul\":37769:37772   */\n      dup4\n        /* \"#utility.yul\":37710:37777   */\n      tag_297\n      jump\t// in\n    tag_707:\n        /* \"#utility.yul\":37703:37777   */\n      swap2\n      pop\n        /* \"#utility.yul\":37786:37879   */\n      tag_708\n        /* \"#utility.yul\":37875:37878   */\n      dup3\n        /* \"#utility.yul\":37786:37879   */\n      tag_354\n      jump\t// in\n    tag_708:\n        /* \"#utility.yul\":37904:37906   */\n      0x20\n        /* \"#utility.yul\":37899:37902   */\n      dup3\n        /* \"#utility.yul\":37895:37907   */\n      add\n        /* \"#utility.yul\":37888:37907   */\n      swap1\n      pop\n        /* \"#utility.yul\":37547:37913   */\n      swap2\n      swap1\n      pop\n      jump\t// out\n        /* \"#utility.yul\":37919:38338   */\n    tag_119:\n        /* \"#utility.yul\":38085:38089   */\n      0x00\n        /* \"#utility.yul\":38123:38125   */\n      0x20\n        /* \"#utility.yul\":38112:38121   */\n      dup3\n        /* \"#utility.yul\":38108:38126   */\n      add\n        /* \"#utility.yul\":38100:38126   */\n      swap1\n      pop\n        /* \"#utility.yul\":38172:38181   */\n      dup2\n        /* \"#utility.yul\":38166:38170   */\n      dup2\n        /* \"#utility.yul\":38162:38182   */\n      sub\n        /* \"#utility.yul\":38158:38159   */\n      0x00\n        /* \"#utility.yul\":38147:38156   */\n      dup4\n        /* \"#utility.yul\":38143:38160   */\n      add\n        /* \"#utility.yul\":38136:38183   */\n      mstore\n        /* \"#utility.yul\":38200:38331   */\n      tag_710\n        /* \"#utility.yul\":38326:38330   */\n      dup2\n        /* \"#utility.yul\":38200:38331   */\n      tag_355\n      jump\t// in\n    tag_710:\n        /* \"#utility.yul\":38192:38331   */\n      swap1\n      pop\n        /* \"#utility.yul\":37919:38338   */\n      swap2\n      swap1\n      pop\n      jump\t// out\n        /* \"#utility.yul\":38344:38512   */\n    tag_356:\n        /* \"#utility.yul\":38484:38504   */\n      0x44494420616c7265616479206578697374730000000000000000000000000000\n        /* \"#utility.yul\":38480:38481   */\n      0x00\n        /* \"#utility.yul\":38472:38478   */\n      dup3\n        /* \"#utility.yul\":38468:38482   */\n      add\n        /* \"#utility.yul\":38461:38505   */\n      mstore\n        /* \"#utility.yul\":38344:38512   */\n      pop\n      jump\t// out\n        /* \"#utility.yul\":38518:38884   */\n    tag_357:\n        /* \"#utility.yul\":38660:38663   */\n      0x00\n        /* \"#utility.yul\":38681:38748   */\n      tag_713\n        /* \"#utility.yul\":38745:38747   */\n      0x12\n        /* \"#utility.yul\":38740:38743   */\n      dup4\n        /* \"#utility.yul\":38681:38748   */\n      tag_297\n      jump\t// in\n    tag_713:\n        /* \"#utility.yul\":38674:38748   */\n      swap2\n      pop\n        /* \"#utility.yul\":38757:38850   */\n      tag_714\n        /* \"#utility.yul\":38846:38849   */\n      dup3\n        /* \"#utility.yul\":38757:38850   */\n      tag_356\n      jump\t// in\n    tag_714:\n        /* \"#utility.yul\":38875:38877   */\n      0x20\n        /* \"#utility.yul\":38870:38873   */\n      dup3\n        /* \"#utility.yul\":38866:38878   */\n      add\n        /* \"#utility.yul\":38859:38878   */\n      swap1\n      pop\n        /* \"#utility.yul\":38518:38884   */\n      swap2\n      swap1\n      pop\n      jump\t// out\n        /* \"#utility.yul\":38890:39309   */\n    tag_122:\n        /* \"#utility.yul\":39056:39060   */\n      0x00\n        /* \"#utility.yul\":39094:39096   */\n      0x20\n        /* \"#utility.yul\":39083:39092   */\n      dup3\n        /* \"#utility.yul\":39079:39097   */\n      add\n        /* \"#utility.yul\":39071:39097   */\n      swap1\n      pop\n        /* \"#utility.yul\":39143:39152   */\n      dup2\n        /* \"#utility.yul\":39137:39141   */\n      dup2\n        /* \"#utility.yul\":39133:39153   */\n      sub\n        /* \"#utility.yul\":39129:39130   */\n      0x00\n        /* \"#utility.yul\":39118:39127   */\n      dup4\n        /* \"#utility.yul\":39114:39131   */\n      add\n        /* \"#utility.yul\":39107:39154   */\n      mstore\n        /* \"#utility.yul\":39171:39302   */\n      tag_716\n        /* \"#utility.yul\":39297:39301   */\n      dup2\n        /* \"#utility.yul\":39171:39302   */\n      tag_357\n      jump\t// in\n    tag_716:\n        /* \"#utility.yul\":39163:39302   */\n      swap1\n      pop\n        /* \"#utility.yul\":38890:39309   */\n      swap2\n      swap1\n      pop\n      jump\t// out\n        /* \"#utility.yul\":39315:39489   */\n    tag_358:\n        /* \"#utility.yul\":39455:39481   */\n      0x496e76616c69642063726564656e7469616c20696e6465780000000000000000\n        /* \"#utility.yul\":39451:39452   */\n      0x00\n        /* \"#utility.yul\":39443:39449   */\n      dup3\n        /* \"#utility.yul\":39439:39453   */\n      add\n        /* \"#utility.yul\":39432:39482   */\n      mstore\n        /* \"#utility.yul\":39315:39489   */\n      pop\n      jump\t// out\n        /* \"#utility.yul\":39495:39861   */\n    tag_359:\n        /* \"#utility.yul\":39637:39640   */\n      0x00\n        /* \"#utility.yul\":39658:39725   */\n      tag_719\n        /* \"#utility.yul\":39722:39724   */\n      0x18\n        /* \"#utility.yul\":39717:39720   */\n      dup4\n        /* \"#utility.yul\":39658:39725   */\n      tag_297\n      jump\t// in\n    tag_719:\n        /* \"#utility.yul\":39651:39725   */\n      swap2\n      pop\n        /* \"#utility.yul\":39734:39827   */\n      tag_720\n        /* \"#utility.yul\":39823:39826   */\n      dup3\n        /* \"#utility.yul\":39734:39827   */\n      tag_358\n      jump\t// in\n    tag_720:\n        /* \"#utility.yul\":39852:39854   */\n      0x20\n        /* \"#utility.yul\":39847:39850   */\n      dup3\n        /* \"#utility.yul\":39843:39855   */\n      add\n        /* \"#utility.yul\":39836:39855   */\n      swap1\n      pop\n        /* \"#utility.yul\":39495:39861   */\n      swap2\n      swap1\n      pop\n      jump\t// out\n        /* \"#utility.yul\":39867:40286   */\n    tag_132:\n        /* \"#utility.yul\":40033:40037   */\n      0x00\n        /* \"#utility.yul\":40071:40073   */\n      0x20\n        /* \"#utility.yul\":40060:40069   */\n      dup3\n        /* \"#utility.yul\":40056:40074   */\n      add\n        /* \"#utility.yul\":40048:40074   */\n      swap1\n      pop\n        /* \"#utility.yul\":40120:40129   */\n      dup2\n        /* \"#utility.yul\":40114:40118   */\n      dup2\n        /* \"#utility.yul\":40110:40130   */\n      sub\n        /* \"#utility.yul\":40106:40107   */\n      0x00\n        /* \"#utility.yul\":40095:40104   */\n      dup4\n        /* \"#utility.yul\":40091:40108   */\n      add\n        /* \"#utility.yul\":40084:40131   */\n      mstore\n        /* \"#utility.yul\":40148:40279   */\n      tag_722\n        /* \"#utility.yul\":40274:40278   */\n      dup2\n        /* \"#utility.yul\":40148:40279   */\n      tag_359\n      jump\t// in\n    tag_722:\n        /* \"#utility.yul\":40140:40279   */\n      swap1\n      pop\n        /* \"#utility.yul\":39867:40286   */\n      swap2\n      swap1\n      pop\n      jump\t// out\n        /* \"#utility.yul\":40292:40472   */\n    tag_135:\n        /* \"#utility.yul\":40340:40417   */\n      0x4e487b7100000000000000000000000000000000000000000000000000000000\n        /* \"#utility.yul\":40337:40338   */\n      0x00\n        /* \"#utility.yul\":40330:40418   */\n      mstore\n        /* \"#utility.yul\":40437:40441   */\n      0x32\n        /* \"#utility.yul\":40434:40435   */\n      0x04\n        /* \"#utility.yul\":40427:40442   */\n      mstore\n        /* \"#utility.yul\":40461:40465   */\n      0x24\n        /* \"#utility.yul\":40458:40459   */\n      0x00\n        /* \"#utility.yul\":40451:40466   */\n      revert\n        /* \"#utility.yul\":40478:40647   */\n    tag_360:\n        /* \"#utility.yul\":40618:40639   */\n      0x4461746120646f6573206e6f7420657869737400000000000000000000000000\n        /* \"#utility.yul\":40614:40615   */\n      0x00\n        /* \"#utility.yul\":40606:40612   */\n      dup3\n        /* \"#utility.yul\":40602:40616   */\n      add\n        /* \"#utility.yul\":40595:40640   */\n      mstore\n        /* \"#utility.yul\":40478:40647   */\n      pop\n      jump\t// out\n        /* \"#utility.yul\":40653:41019   */\n    tag_361:\n        /* \"#utility.yul\":40795:40798   */\n      0x00\n        /* \"#utility.yul\":40816:40883   */\n      tag_726\n        /* \"#utility.yul\":40880:40882   */\n      0x13\n        /* \"#utility.yul\":40875:40878   */\n      dup4\n        /* \"#utility.yul\":40816:40883   */\n      tag_297\n      jump\t// in\n    tag_726:\n        /* \"#utility.yul\":40809:40883   */\n      swap2\n      pop\n        /* \"#utility.yul\":40892:40985   */\n      tag_727\n        /* \"#utility.yul\":40981:40984   */\n      dup3\n        /* \"#utility.yul\":40892:40985   */\n      tag_360\n      jump\t// in\n    tag_727:\n        /* \"#utility.yul\":41010:41012   */\n      0x20\n        /* \"#utility.yul\":41005:41008   */\n      dup3\n        /* \"#utility.yul\":41001:41013   */\n      add\n        /* \"#utility.yul\":40994:41013   */\n      swap1\n      pop\n        /* \"#utility.yul\":40653:41019   */\n      swap2\n      swap1\n      pop\n      jump\t// out\n        /* \"#utility.yul\":41025:41444   */\n    tag_148:\n        /* \"#utility.yul\":41191:41195   */\n      0x00\n        /* \"#utility.yul\":41229:41231   */\n      0x20\n        /* \"#utility.yul\":41218:41227   */\n      dup3\n        /* \"#utility.yul\":41214:41232   */\n      add\n        /* \"#utility.yul\":41206:41232   */\n      swap1\n      pop\n        /* \"#utility.yul\":41278:41287   */\n      dup2\n        /* \"#utility.yul\":41272:41276   */\n      dup2\n        /* \"#utility.yul\":41268:41288   */\n      sub\n        /* \"#utility.yul\":41264:41265   */\n      0x00\n        /* \"#utility.yul\":41253:41262   */\n      dup4\n        /* \"#utility.yul\":41249:41266   */\n      add\n        /* \"#utility.yul\":41242:41289   */\n      mstore\n        /* \"#utility.yul\":41306:41437   */\n      tag_729\n        /* \"#utility.yul\":41432:41436   */\n      dup2\n        /* \"#utility.yul\":41306:41437   */\n      tag_361\n      jump\t// in\n    tag_729:\n        /* \"#utility.yul\":41298:41437   */\n      swap1\n      pop\n        /* \"#utility.yul\":41025:41444   */\n      swap2\n      swap1\n      pop\n      jump\t// out\n        /* \"#utility.yul\":41450:41674   */\n    tag_362:\n        /* \"#utility.yul\":41590:41624   */\n      0x5573657220646f6573206e6f74206861766520616e792061737369676e656420\n        /* \"#utility.yul\":41586:41587   */\n      0x00\n        /* \"#utility.yul\":41578:41584   */\n      dup3\n        /* \"#utility.yul\":41574:41588   */\n      add\n        /* \"#utility.yul\":41567:41625   */\n      mstore\n        /* \"#utility.yul\":41659:41666   */\n      0x726f6c6573000000000000000000000000000000000000000000000000000000\n        /* \"#utility.yul\":41654:41656   */\n      0x20\n        /* \"#utility.yul\":41646:41652   */\n      dup3\n        /* \"#utility.yul\":41642:41657   */\n      add\n        /* \"#utility.yul\":41635:41667   */\n      mstore\n        /* \"#utility.yul\":41450:41674   */\n      pop\n      jump\t// out\n        /* \"#utility.yul\":41680:42046   */\n    tag_363:\n        /* \"#utility.yul\":41822:41825   */\n      0x00\n        /* \"#utility.yul\":41843:41910   */\n      tag_732\n        /* \"#utility.yul\":41907:41909   */\n      0x25\n        /* \"#utility.yul\":41902:41905   */\n      dup4\n        /* \"#utility.yul\":41843:41910   */\n      tag_297\n      jump\t// in\n    tag_732:\n        /* \"#utility.yul\":41836:41910   */\n      swap2\n      pop\n        /* \"#utility.yul\":41919:42012   */\n      tag_733\n        /* \"#utility.yul\":42008:42011   */\n      dup3\n        /* \"#utility.yul\":41919:42012   */\n      tag_362\n      jump\t// in\n    tag_733:\n        /* \"#utility.yul\":42037:42039   */\n      0x40\n        /* \"#utility.yul\":42032:42035   */\n      dup3\n        /* \"#utility.yul\":42028:42040   */\n      add\n        /* \"#utility.yul\":42021:42040   */\n      swap1\n      pop\n        /* \"#utility.yul\":41680:42046   */\n      swap2\n      swap1\n      pop\n      jump\t// out\n        /* \"#utility.yul\":42052:42471   */\n    tag_170:\n        /* \"#utility.yul\":42218:42222   */\n      0x00\n        /* \"#utility.yul\":42256:42258   */\n      0x20\n        /* \"#utility.yul\":42245:42254   */\n      dup3\n        /* \"#utility.yul\":42241:42259   */\n      add\n        /* \"#utility.yul\":42233:42259   */\n      swap1\n      pop\n        /* \"#utility.yul\":42305:42314   */\n      dup2\n        /* \"#utility.yul\":42299:42303   */\n      dup2\n        /* \"#utility.yul\":42295:42315   */\n      sub\n        /* \"#utility.yul\":42291:42292   */\n      0x00\n        /* \"#utility.yul\":42280:42289   */\n      dup4\n        /* \"#utility.yul\":42276:42293   */\n      add\n        /* \"#utility.yul\":42269:42316   */\n      mstore\n        /* \"#utility.yul\":42333:42464   */\n      tag_735\n        /* \"#utility.yul\":42459:42463   */\n      dup2\n        /* \"#utility.yul\":42333:42464   */\n      tag_363\n      jump\t// in\n    tag_735:\n        /* \"#utility.yul\":42325:42464   */\n      swap1\n      pop\n        /* \"#utility.yul\":42052:42471   */\n      swap2\n      swap1\n      pop\n      jump\t// out\n        /* \"#utility.yul\":42477:42752   */\n    tag_172:\n        /* \"#utility.yul\":42609:42612   */\n      0x00\n        /* \"#utility.yul\":42631:42726   */\n      tag_737\n        /* \"#utility.yul\":42722:42725   */\n      dup3\n        /* \"#utility.yul\":42713:42719   */\n      dup5\n        /* \"#utility.yul\":42631:42726   */\n      tag_344\n      jump\t// in\n    tag_737:\n        /* \"#utility.yul\":42624:42726   */\n      swap2\n      pop\n        /* \"#utility.yul\":42743:42746   */\n      dup2\n        /* \"#utility.yul\":42736:42746   */\n      swap1\n      pop\n        /* \"#utility.yul\":42477:42752   */\n      swap3\n      swap2\n      pop\n      pop\n      jump\t// out\n        /* \"#utility.yul\":42782:43656   */\n    tag_364:\n        /* \"#utility.yul\":42885:42888   */\n      0x00\n        /* \"#utility.yul\":42922:42927   */\n      dup2\n        /* \"#utility.yul\":42916:42928   */\n      sload\n        /* \"#utility.yul\":42951:42987   */\n      tag_739\n        /* \"#utility.yul\":42977:42986   */\n      dup2\n        /* \"#utility.yul\":42951:42987   */\n      tag_138\n      jump\t// in\n    tag_739:\n        /* \"#utility.yul\":43003:43092   */\n      tag_740\n        /* \"#utility.yul\":43085:43091   */\n      dup2\n        /* \"#utility.yul\":43080:43083   */\n      dup7\n        /* \"#utility.yul\":43003:43092   */\n      tag_343\n      jump\t// in\n    tag_740:\n        /* \"#utility.yul\":42996:43092   */\n      swap5\n      pop\n        /* \"#utility.yul\":43123:43124   */\n      0x01\n        /* \"#utility.yul\":43112:43121   */\n      dup3\n        /* \"#utility.yul\":43108:43125   */\n      and\n        /* \"#utility.yul\":43139:43140   */\n      0x00\n        /* \"#utility.yul\":43134:43300   */\n      dup2\n      eq\n      tag_742\n      jumpi\n        /* \"#utility.yul\":43314:43315   */\n      0x01\n        /* \"#utility.yul\":43309:43650   */\n      dup2\n      eq\n      tag_743\n      jumpi\n        /* \"#utility.yul\":43101:43650   */\n      jump(tag_741)\n        /* \"#utility.yul\":43134:43300   */\n    tag_742:\n        /* \"#utility.yul\":43218:43222   */\n      0xff\n        /* \"#utility.yul\":43214:43223   */\n      not\n        /* \"#utility.yul\":43203:43212   */\n      dup4\n        /* \"#utility.yul\":43199:43224   */\n      and\n        /* \"#utility.yul\":43194:43197   */\n      dup7\n        /* \"#utility.yul\":43187:43225   */\n      mstore\n        /* \"#utility.yul\":43280:43286   */\n      dup2\n        /* \"#utility.yul\":43273:43287   */\n      iszero\n        /* \"#utility.yul\":43266:43288   */\n      iszero\n        /* \"#utility.yul\":43258:43264   */\n      dup3\n        /* \"#utility.yul\":43254:43289   */\n      mul\n        /* \"#utility.yul\":43249:43252   */\n      dup7\n        /* \"#utility.yul\":43245:43290   */\n      add\n        /* \"#utility.yul\":43238:43290   */\n      swap4\n      pop\n        /* \"#utility.yul\":43134:43300   */\n      jump(tag_741)\n        /* \"#utility.yul\":43309:43650   */\n    tag_743:\n        /* \"#utility.yul\":43376:43414   */\n      tag_744\n        /* \"#utility.yul\":43408:43413   */\n      dup6\n        /* \"#utility.yul\":43376:43414   */\n      tag_322\n      jump\t// in\n    tag_744:\n        /* \"#utility.yul\":43436:43437   */\n      0x00\n        /* \"#utility.yul\":43450:43604   */\n    tag_745:\n        /* \"#utility.yul\":43464:43470   */\n      dup4\n        /* \"#utility.yul\":43461:43462   */\n      dup2\n        /* \"#utility.yul\":43458:43471   */\n      lt\n        /* \"#utility.yul\":43450:43604   */\n      iszero\n      tag_747\n      jumpi\n        /* \"#utility.yul\":43538:43545   */\n      dup2\n        /* \"#utility.yul\":43532:43546   */\n      sload\n        /* \"#utility.yul\":43528:43529   */\n      dup2\n        /* \"#utility.yul\":43523:43526   */\n      dup10\n        /* \"#utility.yul\":43519:43530   */\n      add\n        /* \"#utility.yul\":43512:43547   */\n      mstore\n        /* \"#utility.yul\":43588:43589   */\n      0x01\n        /* \"#utility.yul\":43579:43586   */\n      dup3\n        /* \"#utility.yul\":43575:43590   */\n      add\n        /* \"#utility.yul\":43564:43590   */\n      swap2\n      pop\n        /* \"#utility.yul\":43486:43490   */\n      0x20\n        /* \"#utility.yul\":43483:43484   */\n      dup2\n        /* \"#utility.yul\":43479:43491   */\n      add\n        /* \"#utility.yul\":43474:43491   */\n      swap1\n      pop\n        /* \"#utility.yul\":43450:43604   */\n      jump(tag_745)\n    tag_747:\n        /* \"#utility.yul\":43633:43639   */\n      dup4\n        /* \"#utility.yul\":43628:43631   */\n      dup9\n        /* \"#utility.yul\":43624:43640   */\n      add\n        /* \"#utility.yul\":43617:43640   */\n      swap6\n      pop\n        /* \"#utility.yul\":43316:43650   */\n      pop\n      pop\n        /* \"#utility.yul\":43101:43650   */\n    tag_741:\n      pop\n        /* \"#utility.yul\":42889:43656   */\n      pop\n      pop\n        /* \"#utility.yul\":42782:43656   */\n      swap3\n      swap2\n      pop\n      pop\n      jump\t// out\n        /* \"#utility.yul\":43662:43931   */\n    tag_174:\n        /* \"#utility.yul\":43791:43794   */\n      0x00\n        /* \"#utility.yul\":43813:43905   */\n      tag_749\n        /* \"#utility.yul\":43901:43904   */\n      dup3\n        /* \"#utility.yul\":43892:43898   */\n      dup5\n        /* \"#utility.yul\":43813:43905   */\n      tag_364\n      jump\t// in\n    tag_749:\n        /* \"#utility.yul\":43806:43905   */\n      swap2\n      pop\n        /* \"#utility.yul\":43922:43925   */\n      dup2\n        /* \"#utility.yul\":43915:43925   */\n      swap1\n      pop\n        /* \"#utility.yul\":43662:43931   */\n      swap3\n      swap2\n      pop\n      pop\n      jump\t// out\n        /* \"#utility.yul\":43937:44105   */\n    tag_365:\n        /* \"#utility.yul\":44077:44097   */\n      0x496e76616c6964207465737420696e6465780000000000000000000000000000\n        /* \"#utility.yul\":44073:44074   */\n      0x00\n        /* \"#utility.yul\":44065:44071   */\n      dup3\n        /* \"#utility.yul\":44061:44075   */\n      add\n        /* \"#utility.yul\":44054:44098   */\n      mstore\n        /* \"#utility.yul\":43937:44105   */\n      pop\n      jump\t// out\n        /* \"#utility.yul\":44111:44477   */\n    tag_366:\n        /* \"#utility.yul\":44253:44256   */\n      0x00\n        /* \"#utility.yul\":44274:44341   */\n      tag_752\n        /* \"#utility.yul\":44338:44340   */\n      0x12\n        /* \"#utility.yul\":44333:44336   */\n      dup4\n        /* \"#utility.yul\":44274:44341   */\n      tag_297\n      jump\t// in\n    tag_752:\n        /* \"#utility.yul\":44267:44341   */\n      swap2\n      pop\n        /* \"#utility.yul\":44350:44443   */\n      tag_753\n        /* \"#utility.yul\":44439:44442   */\n      dup3\n        /* \"#utility.yul\":44350:44443   */\n      tag_365\n      jump\t// in\n    tag_753:\n        /* \"#utility.yul\":44468:44470   */\n      0x20\n        /* \"#utility.yul\":44463:44466   */\n      dup3\n        /* \"#utility.yul\":44459:44471   */\n      add\n        /* \"#utility.yul\":44452:44471   */\n      swap1\n      pop\n        /* \"#utility.yul\":44111:44477   */\n      swap2\n      swap1\n      pop\n      jump\t// out\n        /* \"#utility.yul\":44483:44902   */\n    tag_194:\n        /* \"#utility.yul\":44649:44653   */\n      0x00\n        /* \"#utility.yul\":44687:44689   */\n      0x20\n        /* \"#utility.yul\":44676:44685   */\n      dup3\n        /* \"#utility.yul\":44672:44690   */\n      add\n        /* \"#utility.yul\":44664:44690   */\n      swap1\n      pop\n        /* \"#utility.yul\":44736:44745   */\n      dup2\n        /* \"#utility.yul\":44730:44734   */\n      dup2\n        /* \"#utility.yul\":44726:44746   */\n      sub\n        /* \"#utility.yul\":44722:44723   */\n      0x00\n        /* \"#utility.yul\":44711:44720   */\n      dup4\n        /* \"#utility.yul\":44707:44724   */\n      add\n        /* \"#utility.yul\":44700:44747   */\n      mstore\n        /* \"#utility.yul\":44764:44895   */\n      tag_755\n        /* \"#utility.yul\":44890:44894   */\n      dup2\n        /* \"#utility.yul\":44764:44895   */\n      tag_366\n      jump\t// in\n    tag_755:\n        /* \"#utility.yul\":44756:44895   */\n      swap1\n      pop\n        /* \"#utility.yul\":44483:44902   */\n      swap2\n      swap1\n      pop\n      jump\t// out\n        /* \"#utility.yul\":44908:45077   */\n    tag_367:\n        /* \"#utility.yul\":45048:45069   */\n      0x5465737420616c72656164792067726164656400000000000000000000000000\n        /* \"#utility.yul\":45044:45045   */\n      0x00\n        /* \"#utility.yul\":45036:45042   */\n      dup3\n        /* \"#utility.yul\":45032:45046   */\n      add\n        /* \"#utility.yul\":45025:45070   */\n      mstore\n        /* \"#utility.yul\":44908:45077   */\n      pop\n      jump\t// out\n        /* \"#utility.yul\":45083:45449   */\n    tag_368:\n        /* \"#utility.yul\":45225:45228   */\n      0x00\n        /* \"#utility.yul\":45246:45313   */\n      tag_758\n        /* \"#utility.yul\":45310:45312   */\n      0x13\n        /* \"#utility.yul\":45305:45308   */\n      dup4\n        /* \"#utility.yul\":45246:45313   */\n      tag_297\n      jump\t// in\n    tag_758:\n        /* \"#utility.yul\":45239:45313   */\n      swap2\n      pop\n        /* \"#utility.yul\":45322:45415   */\n      tag_759\n        /* \"#utility.yul\":45411:45414   */\n      dup3\n        /* \"#utility.yul\":45322:45415   */\n      tag_367\n      jump\t// in\n    tag_759:\n        /* \"#utility.yul\":45440:45442   */\n      0x20\n        /* \"#utility.yul\":45435:45438   */\n      dup3\n        /* \"#utility.yul\":45431:45443   */\n      add\n        /* \"#utility.yul\":45424:45443   */\n      swap1\n      pop\n        /* \"#utility.yul\":45083:45449   */\n      swap2\n      swap1\n      pop\n      jump\t// out\n        /* \"#utility.yul\":45455:45874   */\n    tag_200:\n        /* \"#utility.yul\":45621:45625   */\n      0x00\n        /* \"#utility.yul\":45659:45661   */\n      0x20\n        /* \"#utility.yul\":45648:45657   */\n      dup3\n        /* \"#utility.yul\":45644:45662   */\n      add\n        /* \"#utility.yul\":45636:45662   */\n      swap1\n      pop\n        /* \"#utility.yul\":45708:45717   */\n      dup2\n        /* \"#utility.yul\":45702:45706   */\n      dup2\n        /* \"#utility.yul\":45698:45718   */\n      sub\n        /* \"#utility.yul\":45694:45695   */\n      0x00\n        /* \"#utility.yul\":45683:45692   */\n      dup4\n        /* \"#utility.yul\":45679:45696   */\n      add\n        /* \"#utility.yul\":45672:45719   */\n      mstore\n        /* \"#utility.yul\":45736:45867   */\n      tag_761\n        /* \"#utility.yul\":45862:45866   */\n      dup2\n        /* \"#utility.yul\":45736:45867   */\n      tag_368\n      jump\t// in\n    tag_761:\n        /* \"#utility.yul\":45728:45867   */\n      swap1\n      pop\n        /* \"#utility.yul\":45455:45874   */\n      swap2\n      swap1\n      pop\n      jump\t// out\n        /* \"#utility.yul\":45880:46212   */\n    tag_208:\n        /* \"#utility.yul\":46001:46005   */\n      0x00\n        /* \"#utility.yul\":46039:46041   */\n      0x40\n        /* \"#utility.yul\":46028:46037   */\n      dup3\n        /* \"#utility.yul\":46024:46042   */\n      add\n        /* \"#utility.yul\":46016:46042   */\n      swap1\n      pop\n        /* \"#utility.yul\":46052:46123   */\n      tag_763\n        /* \"#utility.yul\":46120:46121   */\n      0x00\n        /* \"#utility.yul\":46109:46118   */\n      dup4\n        /* \"#utility.yul\":46105:46122   */\n      add\n        /* \"#utility.yul\":46096:46102   */\n      dup6\n        /* \"#utility.yul\":46052:46123   */\n      tag_348\n      jump\t// in\n    tag_763:\n        /* \"#utility.yul\":46133:46205   */\n      tag_764\n        /* \"#utility.yul\":46201:46203   */\n      0x20\n        /* \"#utility.yul\":46190:46199   */\n      dup4\n        /* \"#utility.yul\":46186:46204   */\n      add\n        /* \"#utility.yul\":46177:46183   */\n      dup5\n        /* \"#utility.yul\":46133:46205   */\n      tag_348\n      jump\t// in\n    tag_764:\n        /* \"#utility.yul\":45880:46212   */\n      swap4\n      swap3\n      pop\n      pop\n      pop\n      jump\t// out\n        /* \"#utility.yul\":46218:46396   */\n    tag_369:\n        /* \"#utility.yul\":46358:46388   */\n      0x416e737765727320686173682063616e6e6f7420626520656d70747900000000\n        /* \"#utility.yul\":46354:46355   */\n      0x00\n        /* \"#utility.yul\":46346:46352   */\n      dup3\n        /* \"#utility.yul\":46342:46356   */\n      add\n        /* \"#utility.yul\":46335:46389   */\n      mstore\n        /* \"#utility.yul\":46218:46396   */\n      pop\n      jump\t// out\n        /* \"#utility.yul\":46402:46768   */\n    tag_370:\n        /* \"#utility.yul\":46544:46547   */\n      0x00\n        /* \"#utility.yul\":46565:46632   */\n      tag_767\n        /* \"#utility.yul\":46629:46631   */\n      0x1c\n        /* \"#utility.yul\":46624:46627   */\n      dup4\n        /* \"#utility.yul\":46565:46632   */\n      tag_297\n      jump\t// in\n    tag_767:\n        /* \"#utility.yul\":46558:46632   */\n      swap2\n      pop\n        /* \"#utility.yul\":46641:46734   */\n      tag_768\n        /* \"#utility.yul\":46730:46733   */\n      dup3\n        /* \"#utility.yul\":46641:46734   */\n      tag_369\n      jump\t// in\n    tag_768:\n        /* \"#utility.yul\":46759:46761   */\n      0x20\n        /* \"#utility.yul\":46754:46757   */\n      dup3\n        /* \"#utility.yul\":46750:46762   */\n      add\n        /* \"#utility.yul\":46743:46762   */\n      swap1\n      pop\n        /* \"#utility.yul\":46402:46768   */\n      swap2\n      swap1\n      pop\n      jump\t// out\n        /* \"#utility.yul\":46774:47193   */\n    tag_231:\n        /* \"#utility.yul\":46940:46944   */\n      0x00\n        /* \"#utility.yul\":46978:46980   */\n      0x20\n        /* \"#utility.yul\":46967:46976   */\n      dup3\n        /* \"#utility.yul\":46963:46981   */\n      add\n        /* \"#utility.yul\":46955:46981   */\n      swap1\n      pop\n        /* \"#utility.yul\":47027:47036   */\n      dup2\n        /* \"#utility.yul\":47021:47025   */\n      dup2\n        /* \"#utility.yul\":47017:47037   */\n      sub\n        /* \"#utility.yul\":47013:47014   */\n      0x00\n        /* \"#utility.yul\":47002:47011   */\n      dup4\n        /* \"#utility.yul\":46998:47015   */\n      add\n        /* \"#utility.yul\":46991:47038   */\n      mstore\n        /* \"#utility.yul\":47055:47186   */\n      tag_770\n        /* \"#utility.yul\":47181:47185   */\n      dup2\n        /* \"#utility.yul\":47055:47186   */\n      tag_370\n      jump\t// in\n    tag_770:\n        /* \"#utility.yul\":47047:47186   */\n      swap1\n      pop\n        /* \"#utility.yul\":46774:47193   */\n      swap2\n      swap1\n      pop\n      jump\t// out\n        /* \"#utility.yul\":47199:47379   */\n    tag_371:\n        /* \"#utility.yul\":47247:47324   */\n      0x4e487b7100000000000000000000000000000000000000000000000000000000\n        /* \"#utility.yul\":47244:47245   */\n      0x00\n        /* \"#utility.yul\":47237:47325   */\n      mstore\n        /* \"#utility.yul\":47344:47348   */\n      0x11\n        /* \"#utility.yul\":47341:47342   */\n      0x04\n        /* \"#utility.yul\":47334:47349   */\n      mstore\n        /* \"#utility.yul\":47368:47372   */\n      0x24\n        /* \"#utility.yul\":47365:47366   */\n      0x00\n        /* \"#utility.yul\":47358:47373   */\n      revert\n        /* \"#utility.yul\":47385:47576   */\n    tag_235:\n        /* \"#utility.yul\":47425:47428   */\n      0x00\n        /* \"#utility.yul\":47444:47464   */\n      tag_773\n        /* \"#utility.yul\":47462:47463   */\n      dup3\n        /* \"#utility.yul\":47444:47464   */\n      tag_283\n      jump\t// in\n    tag_773:\n        /* \"#utility.yul\":47439:47464   */\n      swap2\n      pop\n        /* \"#utility.yul\":47478:47498   */\n      tag_774\n        /* \"#utility.yul\":47496:47497   */\n      dup4\n        /* \"#utility.yul\":47478:47498   */\n      tag_283\n      jump\t// in\n    tag_774:\n        /* \"#utility.yul\":47473:47498   */\n      swap3\n      pop\n        /* \"#utility.yul\":47521:47522   */\n      dup3\n        /* \"#utility.yul\":47518:47519   */\n      dup3\n        /* \"#utility.yul\":47514:47523   */\n      add\n        /* \"#utility.yul\":47507:47523   */\n      swap1\n      pop\n        /* \"#utility.yul\":47542:47545   */\n      dup1\n        /* \"#utility.yul\":47539:47540   */\n      dup3\n        /* \"#utility.yul\":47536:47546   */\n      gt\n        /* \"#utility.yul\":47533:47569   */\n      iszero\n      tag_775\n      jumpi\n        /* \"#utility.yul\":47549:47567   */\n      tag_776\n      tag_371\n      jump\t// in\n    tag_776:\n        /* \"#utility.yul\":47533:47569   */\n    tag_775:\n        /* \"#utility.yul\":47385:47576   */\n      swap3\n      swap2\n      pop\n      pop\n      jump\t// out\n        /* \"#utility.yul\":47582:48005   */\n    tag_237:\n        /* \"#utility.yul\":47723:47727   */\n      0x00\n        /* \"#utility.yul\":47761:47763   */\n      0x40\n        /* \"#utility.yul\":47750:47759   */\n      dup3\n        /* \"#utility.yul\":47746:47764   */\n      add\n        /* \"#utility.yul\":47738:47764   */\n      swap1\n      pop\n        /* \"#utility.yul\":47810:47819   */\n      dup2\n        /* \"#utility.yul\":47804:47808   */\n      dup2\n        /* \"#utility.yul\":47800:47820   */\n      sub\n        /* \"#utility.yul\":47796:47797   */\n      0x00\n        /* \"#utility.yul\":47785:47794   */\n      dup4\n        /* \"#utility.yul\":47781:47798   */\n      add\n        /* \"#utility.yul\":47774:47821   */\n      mstore\n        /* \"#utility.yul\":47838:47916   */\n      tag_778\n        /* \"#utility.yul\":47911:47915   */\n      dup2\n        /* \"#utility.yul\":47902:47908   */\n      dup6\n        /* \"#utility.yul\":47838:47916   */\n      tag_298\n      jump\t// in\n    tag_778:\n        /* \"#utility.yul\":47830:47916   */\n      swap1\n      pop\n        /* \"#utility.yul\":47926:47998   */\n      tag_779\n        /* \"#utility.yul\":47994:47996   */\n      0x20\n        /* \"#utility.yul\":47983:47992   */\n      dup4\n        /* \"#utility.yul\":47979:47997   */\n      add\n        /* \"#utility.yul\":47970:47976   */\n      dup5\n        /* \"#utility.yul\":47926:47998   */\n      tag_348\n      jump\t// in\n    tag_779:\n        /* \"#utility.yul\":47582:48005   */\n      swap4\n      swap3\n      pop\n      pop\n      pop\n      jump\t// out\n        /* \"#utility.yul\":48011:48182   */\n    tag_372:\n        /* \"#utility.yul\":48151:48174   */\n      0x4e6f20726f6c65732061737369676e6564207965740000000000000000000000\n        /* \"#utility.yul\":48147:48148   */\n      0x00\n        /* \"#utility.yul\":48139:48145   */\n      dup3\n        /* \"#utility.yul\":48135:48149   */\n      add\n        /* \"#utility.yul\":48128:48175   */\n      mstore\n        /* \"#utility.yul\":48011:48182   */\n      pop\n      jump\t// out\n        /* \"#utility.yul\":48188:48554   */\n    tag_373:\n        /* \"#utility.yul\":48330:48333   */\n      0x00\n        /* \"#utility.yul\":48351:48418   */\n      tag_782\n        /* \"#utility.yul\":48415:48417   */\n      0x15\n        /* \"#utility.yul\":48410:48413   */\n      dup4\n        /* \"#utility.yul\":48351:48418   */\n      tag_297\n      jump\t// in\n    tag_782:\n        /* \"#utility.yul\":48344:48418   */\n      swap2\n      pop\n        /* \"#utility.yul\":48427:48520   */\n      tag_783\n        /* \"#utility.yul\":48516:48519   */\n      dup3\n        /* \"#utility.yul\":48427:48520   */\n      tag_372\n      jump\t// in\n    tag_783:\n        /* \"#utility.yul\":48545:48547   */\n      0x20\n        /* \"#utility.yul\":48540:48543   */\n      dup3\n        /* \"#utility.yul\":48536:48548   */\n      add\n        /* \"#utility.yul\":48529:48548   */\n      swap1\n      pop\n        /* \"#utility.yul\":48188:48554   */\n      swap2\n      swap1\n      pop\n      jump\t// out\n        /* \"#utility.yul\":48560:48979   */\n    tag_254:\n        /* \"#utility.yul\":48726:48730   */\n      0x00\n        /* \"#utility.yul\":48764:48766   */\n      0x20\n        /* \"#utility.yul\":48753:48762   */\n      dup3\n        /* \"#utility.yul\":48749:48767   */\n      add\n        /* \"#utility.yul\":48741:48767   */\n      swap1\n      pop\n        /* \"#utility.yul\":48813:48822   */\n      dup2\n        /* \"#utility.yul\":48807:48811   */\n      dup2\n        /* \"#utility.yul\":48803:48823   */\n      sub\n        /* \"#utility.yul\":48799:48800   */\n      0x00\n        /* \"#utility.yul\":48788:48797   */\n      dup4\n        /* \"#utility.yul\":48784:48801   */\n      add\n        /* \"#utility.yul\":48777:48824   */\n      mstore\n        /* \"#utility.yul\":48841:48972   */\n      tag_785\n        /* \"#utility.yul\":48967:48971   */\n      dup2\n        /* \"#utility.yul\":48841:48972   */\n      tag_373\n      jump\t// in\n    tag_785:\n        /* \"#utility.yul\":48833:48972   */\n      swap1\n      pop\n        /* \"#utility.yul\":48560:48979   */\n      swap2\n      swap1\n      pop\n      jump\t// out\n\n    auxdata: 0xa26469706673582212203410b9057f2c891f87198885b9f4b2cb08c2aaf4e62238e22ea830e4e1829fc364736f6c634300081a0033\n}\n",
				"bytecode": {
					"linkReferences": {},
					"object": "608060405234801561000f575f80fd5b506040518060400160405280600b81526020017f73757065722061646d696e00000000000000000000000000000000000000000081525060015f3373ffffffffffffffffffffffffffffffffffffffff1673ffffffffffffffffffffffffffffffffffffffff1681526020019081526020015f20908161008f919061036e565b5060025f3373ffffffffffffffffffffffffffffffffffffffff1673ffffffffffffffffffffffffffffffffffffffff1681526020019081526020015f208060018154018082558091505060019003905f5260205f20015f6040518060400160405280600b81526020017f73757065722061646d696e0000000000000000000000000000000000000000008152509091909150908161012e919061036e565b5061043d565b5f81519050919050565b7f4e487b71000000000000000000000000000000000000000000000000000000005f52604160045260245ffd5b7f4e487b71000000000000000000000000000000000000000000000000000000005f52602260045260245ffd5b5f60028204905060018216806101af57607f821691505b6020821081036101c2576101c161016b565b5b50919050565b5f819050815f5260205f209050919050565b5f6020601f8301049050919050565b5f82821b905092915050565b5f600883026102247fffffffffffffffffffffffffffffffffffffffffffffffffffffffffffffffff826101e9565b61022e86836101e9565b95508019841693508086168417925050509392505050565b5f819050919050565b5f819050919050565b5f61027261026d61026884610246565b61024f565b610246565b9050919050565b5f819050919050565b61028b83610258565b61029f61029782610279565b8484546101f5565b825550505050565b5f90565b6102b36102a7565b6102be818484610282565b505050565b5b818110156102e1576102d65f826102ab565b6001810190506102c4565b5050565b601f821115610326576102f7816101c8565b610300846101da565b8101602085101561030f578190505b61032361031b856101da565b8301826102c3565b50505b505050565b5f82821c905092915050565b5f6103465f198460080261032b565b1980831691505092915050565b5f61035e8383610337565b9150826002028217905092915050565b61037782610134565b67ffffffffffffffff8111156103905761038f61013e565b5b61039a8254610198565b6103a58282856102e5565b5f60209050601f8311600181146103d6575f84156103c4578287015190505b6103ce8582610353565b865550610435565b601f1984166103e4866101c8565b5f5b8281101561040b578489015182556001820191506020850194506020810190506103e6565b868310156104285784890151610424601f891682610337565b8355505b6001600288020188555050505b505050505050565b613acf8061044a5f395ff3fe608060405234801561000f575f80fd5b50600436106100cd575f3560e01c8063ab53c6ad1161008a578063bc9c2d5511610064578063bc9c2d55146101f7578063c303e54114610215578063de6db5c714610231578063fde081741461024f576100cd565b8063ab53c6ad1461018f578063b4f30a54146101bf578063b7dfcbee146101db576100cd565b80630890d80c146100d15780630ab82802146100ed5780631391168d146101095780633457d3e214610125578063783d57c5146101415780637a5b4f5914610171575b5f80fd5b6100eb60048036038101906100e69190612569565b61026d565b005b6101076004803603810190610102919061260d565b610514565b005b610123600480360381019061011e91906126e1565b6106a5565b005b61013f600480360381019061013a919061260d565b6109d4565b005b61015b60048036038101906101569190612794565b610c08565b60405161016891906128e5565b60405180910390f35b610179610ed8565b6040516101869190612986565b60405180910390f35b6101a960048036038101906101a491906129a6565b6111bc565b6040516101b69190612a2c565b60405180910390f35b6101d960048036038101906101d49190612a45565b61157d565b005b6101f560048036038101906101f09190612a95565b6118e9565b005b6101ff611b02565b60405161020c9190612b37565b60405180910390f35b61022f600480360381019061022a919061260d565b611c9a565b005b610239611f22565b6040516102469190612c81565b60405180910390f35b610257612142565b6040516102649190612d5c565b60405180910390f35b5f73ffffffffffffffffffffffffffffffffffffffff165f803373ffffffffffffffffffffffffffffffffffffffff1673ffffffffffffffffffffffffffffffffffffffff1681526020019081526020015f206001015f9054906101000a900473ffffffffffffffffffffffffffffffffffffffff1673ffffffffffffffffffffffffffffffffffffffff1603610339576040517f08c379a000000000000000000000000000000000000000000000000000000000815260040161033090612dc6565b60405180910390fd5b5f83511161037c576040517f08c379a000000000000000000000000000000000000000000000000000000000815260040161037390612e2e565b60405180910390fd5b5f8251116103bf576040517f08c379a00000000000000000000000000000000000000000000000000000000081526004016103b690612e96565b60405180910390fd5b5f815111610402576040517f08c379a00000000000000000000000000000000000000000000000000000000081526004016103f990612efe565b60405180910390fd5b6040518060a001604052808481526020018381526020018281526020015f81526020015f81525060035f3373ffffffffffffffffffffffffffffffffffffffff1673ffffffffffffffffffffffffffffffffffffffff1681526020019081526020015f205f820151815f0190816104799190613116565b50602082015181600101908161048f9190613116565b5060408201518160020190816104a59190613116565b5060608201518160030155608082015181600401559050503373ffffffffffffffffffffffffffffffffffffffff167f65d0ee13464c98c4cc59b1e8669c3b1e26d6ccc62ec1811070773f0c7903df2f848484604051610507939291906131e5565b60405180910390a2505050565b5f73ffffffffffffffffffffffffffffffffffffffff165f803373ffffffffffffffffffffffffffffffffffffffff1673ffffffffffffffffffffffffffffffffffffffff1681526020019081526020015f206001015f9054906101000a900473ffffffffffffffffffffffffffffffffffffffff1673ffffffffffffffffffffffffffffffffffffffff16036105e0576040517f08c379a00000000000000000000000000000000000000000000000000000000081526004016105d790612dc6565b60405180910390fd5b5f815111610623576040517f08c379a000000000000000000000000000000000000000000000000000000000815260040161061a9061329f565b60405180910390fd5b5f3382426040516020016106399392919061335c565b6040516020818303038152906040528051906020012090503373ffffffffffffffffffffffffffffffffffffffff167f5aeb6b13fc088ddbcc5740322767a110f7a1eb4071351d627c61c5e37edae83d82426040516106999291906133b2565b60405180910390a25050565b5f73ffffffffffffffffffffffffffffffffffffffff165f803373ffffffffffffffffffffffffffffffffffffffff1673ffffffffffffffffffffffffffffffffffffffff1681526020019081526020015f206001015f9054906101000a900473ffffffffffffffffffffffffffffffffffffffff1673ffffffffffffffffffffffffffffffffffffffff1603610771576040517f08c379a000000000000000000000000000000000000000000000000000000000815260040161076890613423565b60405180910390fd5b5f8351116107b4576040517f08c379a00000000000000000000000000000000000000000000000000000000081526004016107ab9061348b565b60405180910390fd5b5f338585426040516020016107cc94939291906134a9565b60405160208183030381529060405280519060200120905060045f8673ffffffffffffffffffffffffffffffffffffffff1673ffffffffffffffffffffffffffffffffffffffff1681526020019081526020015f206040518060c001604052803373ffffffffffffffffffffffffffffffffffffffff16815260200186815260200142815260200183815260200185815260200184815250908060018154018082558091505060019003905f5260205f2090600602015f909190919091505f820151815f015f6101000a81548173ffffffffffffffffffffffffffffffffffffffff021916908373ffffffffffffffffffffffffffffffffffffffff16021790555060208201518160010190816108e39190613116565b5060408201518160020155606082015181600301556080820151816004015560a08201518160050155505060025f8673ffffffffffffffffffffffffffffffffffffffff1673ffffffffffffffffffffffffffffffffffffffff1681526020019081526020015f2084908060018154018082558091505060019003905f5260205f20015f90919091909150908161097a9190613116565b503373ffffffffffffffffffffffffffffffffffffffff167ff4313cb022699889c6eddb590e42342301cdae4824fd424ffdfdeb23d4cdbbe98686846040516109c593929190613501565b60405180910390a25050505050565b5f815111610a17576040517f08c379a0000000000000000000000000000000000000000000000000000000008152600401610a0e90613587565b60405180910390fd5b5f73ffffffffffffffffffffffffffffffffffffffff165f803373ffffffffffffffffffffffffffffffffffffffff1673ffffffffffffffffffffffffffffffffffffffff1681526020019081526020015f206001015f9054906101000a900473ffffffffffffffffffffffffffffffffffffffff1673ffffffffffffffffffffffffffffffffffffffff1614610ae3576040517f08c379a0000000000000000000000000000000000000000000000000000000008152600401610ada906135ef565b60405180910390fd5b60405180606001604052808281526020013373ffffffffffffffffffffffffffffffffffffffff168152602001428152505f803373ffffffffffffffffffffffffffffffffffffffff1673ffffffffffffffffffffffffffffffffffffffff1681526020019081526020015f205f820151815f019081610b639190613116565b506020820151816001015f6101000a81548173ffffffffffffffffffffffffffffffffffffffff021916908373ffffffffffffffffffffffffffffffffffffffff160217905550604082015181600201559050503373ffffffffffffffffffffffffffffffffffffffff167f1b7934654ba536b6962955e057ce42885353bbaad8c605a5ce0678e632f2841082604051610bfd9190612b37565b60405180910390a250565b610c1061239f565b5f73ffffffffffffffffffffffffffffffffffffffff165f808573ffffffffffffffffffffffffffffffffffffffff1673ffffffffffffffffffffffffffffffffffffffff1681526020019081526020015f206001015f9054906101000a900473ffffffffffffffffffffffffffffffffffffffff1673ffffffffffffffffffffffffffffffffffffffff1603610cdc576040517f08c379a0000000000000000000000000000000000000000000000000000000008152600401610cd390612dc6565b60405180910390fd5b60045f8473ffffffffffffffffffffffffffffffffffffffff1673ffffffffffffffffffffffffffffffffffffffff1681526020019081526020015f20805490508210610d5e576040517f08c379a0000000000000000000000000000000000000000000000000000000008152600401610d5590613657565b60405180910390fd5b60045f8473ffffffffffffffffffffffffffffffffffffffff1673ffffffffffffffffffffffffffffffffffffffff1681526020019081526020015f208281548110610dad57610dac613675565b5b905f5260205f2090600602016040518060c00160405290815f82015f9054906101000a900473ffffffffffffffffffffffffffffffffffffffff1673ffffffffffffffffffffffffffffffffffffffff1673ffffffffffffffffffffffffffffffffffffffff168152602001600182018054610e2890612f49565b80601f0160208091040260200160405190810160405280929190818152602001828054610e5490612f49565b8015610e9f5780601f10610e7657610100808354040283529160200191610e9f565b820191905f5260205f20905b815481529060010190602001808311610e8257829003601f168201915b50505050508152602001600282015481526020016003820154815260200160048201548152602001600582015481525050905092915050565b610ee06123ef565b5f73ffffffffffffffffffffffffffffffffffffffff165f803373ffffffffffffffffffffffffffffffffffffffff1673ffffffffffffffffffffffffffffffffffffffff1681526020019081526020015f206001015f9054906101000a900473ffffffffffffffffffffffffffffffffffffffff1673ffffffffffffffffffffffffffffffffffffffff1603610fac576040517f08c379a0000000000000000000000000000000000000000000000000000000008152600401610fa3906136ec565b60405180910390fd5b60035f3373ffffffffffffffffffffffffffffffffffffffff1673ffffffffffffffffffffffffffffffffffffffff1681526020019081526020015f206040518060a00160405290815f8201805461100390612f49565b80601f016020809104026020016040519081016040528092919081815260200182805461102f90612f49565b801561107a5780601f106110515761010080835404028352916020019161107a565b820191905f5260205f20905b81548152906001019060200180831161105d57829003601f168201915b5050505050815260200160018201805461109390612f49565b80601f01602080910402602001604051908101604052809291908181526020018280546110bf90612f49565b801561110a5780601f106110e15761010080835404028352916020019161110a565b820191905f5260205f20905b8154815290600101906020018083116110ed57829003601f168201915b5050505050815260200160028201805461112390612f49565b80601f016020809104026020016040519081016040528092919081815260200182805461114f90612f49565b801561119a5780601f106111715761010080835404028352916020019161119a565b820191905f5260205f20905b81548152906001019060200180831161117d57829003601f168201915b5050505050815260200160038201548152602001600482015481525050905090565b5f8073ffffffffffffffffffffffffffffffffffffffff165f808673ffffffffffffffffffffffffffffffffffffffff1673ffffffffffffffffffffffffffffffffffffffff1681526020019081526020015f206001015f9054906101000a900473ffffffffffffffffffffffffffffffffffffffff1673ffffffffffffffffffffffffffffffffffffffff1603611289576040517f08c379a000000000000000000000000000000000000000000000000000000000815260040161128090612dc6565b60405180910390fd5b5f60015f8673ffffffffffffffffffffffffffffffffffffffff1673ffffffffffffffffffffffffffffffffffffffff1681526020019081526020015f2080546112d290612f49565b905011611314576040517f08c379a000000000000000000000000000000000000000000000000000000000815260040161130b9061377a565b60405180910390fd5b5f836040516020016113269190613798565b6040516020818303038152906040528051906020012060015f8773ffffffffffffffffffffffffffffffffffffffff1673ffffffffffffffffffffffffffffffffffffffff1681526020019081526020015f20604051602001611389919061382e565b604051602081830303815290604052805190602001201490505f805b60045f8873ffffffffffffffffffffffffffffffffffffffff1673ffffffffffffffffffffffffffffffffffffffff1681526020019081526020015f2080549050811015611567578473ffffffffffffffffffffffffffffffffffffffff1660045f8973ffffffffffffffffffffffffffffffffffffffff1673ffffffffffffffffffffffffffffffffffffffff1681526020019081526020015f20828154811061145357611452613675565b5b905f5260205f2090600602015f015f9054906101000a900473ffffffffffffffffffffffffffffffffffffffff1673ffffffffffffffffffffffffffffffffffffffff1614801561154c5750856040516020016114b09190613798565b6040516020818303038152906040528051906020012060045f8973ffffffffffffffffffffffffffffffffffffffff1673ffffffffffffffffffffffffffffffffffffffff1681526020019081526020015f20828154811061151557611514613675565b5b905f5260205f209060060201600101604051602001611534919061382e565b60405160208183030381529060405280519060200120145b1561155a5760019150611567565b80806001019150506113a5565b508180156115725750805b925050509392505050565b5f73ffffffffffffffffffffffffffffffffffffffff165f803373ffffffffffffffffffffffffffffffffffffffff1673ffffffffffffffffffffffffffffffffffffffff1681526020019081526020015f206001015f9054906101000a900473ffffffffffffffffffffffffffffffffffffffff1673ffffffffffffffffffffffffffffffffffffffff1603611649576040517f08c379a000000000000000000000000000000000000000000000000000000000815260040161164090613423565b60405180910390fd5b60055f8473ffffffffffffffffffffffffffffffffffffffff1673ffffffffffffffffffffffffffffffffffffffff1681526020019081526020015f208054905082106116cb576040517f08c379a00000000000000000000000000000000000000000000000000000000081526004016116c29061388e565b60405180910390fd5b60055f8473ffffffffffffffffffffffffffffffffffffffff1673ffffffffffffffffffffffffffffffffffffffff1681526020019081526020015f20828154811061171a57611719613675565b5b905f5260205f2090600402016003015f9054906101000a900460ff1615611776576040517f08c379a000000000000000000000000000000000000000000000000000000000815260040161176d906138f6565b60405180910390fd5b8060055f8573ffffffffffffffffffffffffffffffffffffffff1673ffffffffffffffffffffffffffffffffffffffff1681526020019081526020015f2083815481106117c6576117c5613675565b5b905f5260205f20906004020160020181905550600160055f8573ffffffffffffffffffffffffffffffffffffffff1673ffffffffffffffffffffffffffffffffffffffff1681526020019081526020015f20838154811061182a57611829613675565b5b905f5260205f2090600402016003015f6101000a81548160ff0219169083151502179055508060035f8573ffffffffffffffffffffffffffffffffffffffff1673ffffffffffffffffffffffffffffffffffffffff1681526020019081526020015f20600401819055508273ffffffffffffffffffffffffffffffffffffffff167f209c5757f1301fd786e1870f9a0a61aee25af7d7b1a9c3940a421b72b68cae2682426040516118dc929190613914565b60405180910390a2505050565b5f73ffffffffffffffffffffffffffffffffffffffff165f803373ffffffffffffffffffffffffffffffffffffffff1673ffffffffffffffffffffffffffffffffffffffff1681526020019081526020015f206001015f9054906101000a900473ffffffffffffffffffffffffffffffffffffffff1673ffffffffffffffffffffffffffffffffffffffff16036119b5576040517f08c379a00000000000000000000000000000000000000000000000000000000081526004016119ac90613423565b60405180910390fd5b5f8151116119f8576040517f08c379a00000000000000000000000000000000000000000000000000000000081526004016119ef9061348b565b60405180910390fd5b8060015f8473ffffffffffffffffffffffffffffffffffffffff1673ffffffffffffffffffffffffffffffffffffffff1681526020019081526020015f209081611a429190613116565b5060025f8373ffffffffffffffffffffffffffffffffffffffff1673ffffffffffffffffffffffffffffffffffffffff1681526020019081526020015f2081908060018154018082558091505060019003905f5260205f20015f909190919091509081611aaf9190613116565b508173ffffffffffffffffffffffffffffffffffffffff167f955a8164e26d3082026a4713bbcc2102183cd483ccf49d50cc35fb4e97d540d082604051611af69190612b37565b60405180910390a25050565b60605f73ffffffffffffffffffffffffffffffffffffffff165f803373ffffffffffffffffffffffffffffffffffffffff1673ffffffffffffffffffffffffffffffffffffffff1681526020019081526020015f206001015f9054906101000a900473ffffffffffffffffffffffffffffffffffffffff1673ffffffffffffffffffffffffffffffffffffffff1603611bd0576040517f08c379a0000000000000000000000000000000000000000000000000000000008152600401611bc790612dc6565b60405180910390fd5b5f803373ffffffffffffffffffffffffffffffffffffffff1673ffffffffffffffffffffffffffffffffffffffff1681526020019081526020015f205f018054611c1990612f49565b80601f0160208091040260200160405190810160405280929190818152602001828054611c4590612f49565b8015611c905780601f10611c6757610100808354040283529160200191611c90565b820191905f5260205f20905b815481529060010190602001808311611c7357829003601f168201915b5050505050905090565b5f73ffffffffffffffffffffffffffffffffffffffff165f803373ffffffffffffffffffffffffffffffffffffffff1673ffffffffffffffffffffffffffffffffffffffff1681526020019081526020015f206001015f9054906101000a900473ffffffffffffffffffffffffffffffffffffffff1673ffffffffffffffffffffffffffffffffffffffff1603611d66576040517f08c379a0000000000000000000000000000000000000000000000000000000008152600401611d5d90612dc6565b60405180910390fd5b5f815111611da9576040517f08c379a0000000000000000000000000000000000000000000000000000000008152600401611da090613985565b60405180910390fd5b60055f3373ffffffffffffffffffffffffffffffffffffffff1673ffffffffffffffffffffffffffffffffffffffff1681526020019081526020015f2060405180608001604052808381526020014281526020015f81526020015f1515815250908060018154018082558091505060019003905f5260205f2090600402015f909190919091505f820151815f019081611e429190613116565b5060208201518160010155604082015181600201556060820151816003015f6101000a81548160ff0219169083151502179055505050600160035f3373ffffffffffffffffffffffffffffffffffffffff1673ffffffffffffffffffffffffffffffffffffffff1681526020019081526020015f206003015f828254611ec891906139d0565b925050819055503373ffffffffffffffffffffffffffffffffffffffff167f6253da222cb28e9028c656200e285440d573c04aad5ce44901c38e3836276efe8242604051611f17929190613a03565b60405180910390a250565b60605f73ffffffffffffffffffffffffffffffffffffffff165f803373ffffffffffffffffffffffffffffffffffffffff1673ffffffffffffffffffffffffffffffffffffffff1681526020019081526020015f206001015f9054906101000a900473ffffffffffffffffffffffffffffffffffffffff1673ffffffffffffffffffffffffffffffffffffffff1603611ff0576040517f08c379a0000000000000000000000000000000000000000000000000000000008152600401611fe790612dc6565b60405180910390fd5b60055f3373ffffffffffffffffffffffffffffffffffffffff1673ffffffffffffffffffffffffffffffffffffffff1681526020019081526020015f20805480602002602001604051908101604052809291908181526020015f905b82821015612139578382905f5260205f2090600402016040518060800160405290815f8201805461207c90612f49565b80601f01602080910402602001604051908101604052809291908181526020018280546120a890612f49565b80156120f35780601f106120ca576101008083540402835291602001916120f3565b820191905f5260205f20905b8154815290600101906020018083116120d657829003601f168201915b505050505081526020016001820154815260200160028201548152602001600382015f9054906101000a900460ff1615151515815250508152602001906001019061204c565b50505050905090565b60605f73ffffffffffffffffffffffffffffffffffffffff165f803373ffffffffffffffffffffffffffffffffffffffff1673ffffffffffffffffffffffffffffffffffffffff1681526020019081526020015f206001015f9054906101000a900473ffffffffffffffffffffffffffffffffffffffff1673ffffffffffffffffffffffffffffffffffffffff1603612210576040517f08c379a000000000000000000000000000000000000000000000000000000000815260040161220790612dc6565b60405180910390fd5b5f60025f3373ffffffffffffffffffffffffffffffffffffffff1673ffffffffffffffffffffffffffffffffffffffff1681526020019081526020015f208054905011612292576040517f08c379a000000000000000000000000000000000000000000000000000000000815260040161228990613a7b565b60405180910390fd5b60025f3373ffffffffffffffffffffffffffffffffffffffff1673ffffffffffffffffffffffffffffffffffffffff1681526020019081526020015f20805480602002602001604051908101604052809291908181526020015f905b82821015612396578382905f5260205f2001805461230b90612f49565b80601f016020809104026020016040519081016040528092919081815260200182805461233790612f49565b80156123825780601f1061235957610100808354040283529160200191612382565b820191905f5260205f20905b81548152906001019060200180831161236557829003601f168201915b5050505050815260200190600101906122ee565b50505050905090565b6040518060c001604052805f73ffffffffffffffffffffffffffffffffffffffff168152602001606081526020015f81526020015f80191681526020015f80191681526020015f80191681525090565b6040518060a001604052806060815260200160608152602001606081526020015f81526020015f81525090565b5f604051905090565b5f80fd5b5f80fd5b5f80fd5b5f80fd5b5f601f19601f8301169050919050565b7f4e487b71000000000000000000000000000000000000000000000000000000005f52604160045260245ffd5b61247b82612435565b810181811067ffffffffffffffff8211171561249a57612499612445565b5b80604052505050565b5f6124ac61241c565b90506124b88282612472565b919050565b5f67ffffffffffffffff8211156124d7576124d6612445565b5b6124e082612435565b9050602081019050919050565b828183375f83830152505050565b5f61250d612508846124bd565b6124a3565b90508281526020810184848401111561252957612528612431565b5b6125348482856124ed565b509392505050565b5f82601f8301126125505761254f61242d565b5b81356125608482602086016124fb565b91505092915050565b5f805f606084860312156125805761257f612425565b5b5f84013567ffffffffffffffff81111561259d5761259c612429565b5b6125a98682870161253c565b935050602084013567ffffffffffffffff8111156125ca576125c9612429565b5b6125d68682870161253c565b925050604084013567ffffffffffffffff8111156125f7576125f6612429565b5b6126038682870161253c565b9150509250925092565b5f6020828403121561262257612621612425565b5b5f82013567ffffffffffffffff81111561263f5761263e612429565b5b61264b8482850161253c565b91505092915050565b5f73ffffffffffffffffffffffffffffffffffffffff82169050919050565b5f61267d82612654565b9050919050565b61268d81612673565b8114612697575f80fd5b50565b5f813590506126a881612684565b92915050565b5f819050919050565b6126c0816126ae565b81146126ca575f80fd5b50565b5f813590506126db816126b7565b92915050565b5f805f80608085870312156126f9576126f8612425565b5b5f6127068782880161269a565b945050602085013567ffffffffffffffff81111561272757612726612429565b5b6127338782880161253c565b9350506040612744878288016126cd565b9250506060612755878288016126cd565b91505092959194509250565b5f819050919050565b61277381612761565b811461277d575f80fd5b50565b5f8135905061278e8161276a565b92915050565b5f80604083850312156127aa576127a9612425565b5b5f6127b78582860161269a565b92505060206127c885828601612780565b9150509250929050565b6127db81612673565b82525050565b5f81519050919050565b5f82825260208201905092915050565b8281835e5f83830152505050565b5f612813826127e1565b61281d81856127eb565b935061282d8185602086016127fb565b61283681612435565b840191505092915050565b61284a81612761565b82525050565b612859816126ae565b82525050565b5f60c083015f8301516128745f8601826127d2565b506020830151848203602086015261288c8282612809565b91505060408301516128a16040860182612841565b5060608301516128b46060860182612850565b5060808301516128c76080860182612850565b5060a08301516128da60a0860182612850565b508091505092915050565b5f6020820190508181035f8301526128fd818461285f565b905092915050565b5f60a083015f8301518482035f86015261291f8282612809565b915050602083015184820360208601526129398282612809565b915050604083015184820360408601526129538282612809565b91505060608301516129686060860182612841565b50608083015161297b6080860182612841565b508091505092915050565b5f6020820190508181035f83015261299e8184612905565b905092915050565b5f805f606084860312156129bd576129bc612425565b5b5f6129ca8682870161269a565b935050602084013567ffffffffffffffff8111156129eb576129ea612429565b5b6129f78682870161253c565b9250506040612a088682870161269a565b9150509250925092565b5f8115159050919050565b612a2681612a12565b82525050565b5f602082019050612a3f5f830184612a1d565b92915050565b5f805f60608486031215612a5c57612a5b612425565b5b5f612a698682870161269a565b9350506020612a7a86828701612780565b9250506040612a8b86828701612780565b9150509250925092565b5f8060408385031215612aab57612aaa612425565b5b5f612ab88582860161269a565b925050602083013567ffffffffffffffff811115612ad957612ad8612429565b5b612ae58582860161253c565b9150509250929050565b5f82825260208201905092915050565b5f612b09826127e1565b612b138185612aef565b9350612b238185602086016127fb565b612b2c81612435565b840191505092915050565b5f6020820190508181035f830152612b4f8184612aff565b905092915050565b5f81519050919050565b5f82825260208201905092915050565b5f819050602082019050919050565b612b8981612a12565b82525050565b5f608083015f8301518482035f860152612ba98282612809565b9150506020830151612bbe6020860182612841565b506040830151612bd16040860182612841565b506060830151612be46060860182612b80565b508091505092915050565b5f612bfa8383612b8f565b905092915050565b5f602082019050919050565b5f612c1882612b57565b612c228185612b61565b935083602082028501612c3485612b71565b805f5b85811015612c6f5784840389528151612c508582612bef565b9450612c5b83612c02565b925060208a01995050600181019050612c37565b50829750879550505050505092915050565b5f6020820190508181035f830152612c998184612c0e565b905092915050565b5f81519050919050565b5f82825260208201905092915050565b5f819050602082019050919050565b5f612cd58383612809565b905092915050565b5f602082019050919050565b5f612cf382612ca1565b612cfd8185612cab565b935083602082028501612d0f85612cbb565b805f5b85811015612d4a5784840389528151612d2b8582612cca565b9450612d3683612cdd565b925060208a01995050600181019050612d12565b50829750879550505050505092915050565b5f6020820190508181035f830152612d748184612ce9565b905092915050565b7f4e6f2044494420666f756e6420666f72207468697320616464726573730000005f82015250565b5f612db0601d83612aef565b9150612dbb82612d7c565b602082019050919050565b5f6020820190508181035f830152612ddd81612da4565b9050919050565b7f4e616d652063616e6e6f7420626520656d7074790000000000000000000000005f82015250565b5f612e18601483612aef565b9150612e2382612de4565b602082019050919050565b5f6020820190508181035f830152612e4581612e0c565b9050919050565b7f456d61696c2063616e6e6f7420626520656d70747900000000000000000000005f82015250565b5f612e80601583612aef565b9150612e8b82612e4c565b602082019050919050565b5f6020820190508181035f830152612ead81612e74565b9050919050565b7f50726f66696c6520706963747572652063616e6e6f7420626520656d707479005f82015250565b5f612ee8601f83612aef565b9150612ef382612eb4565b602082019050919050565b5f6020820190508181035f830152612f1581612edc565b9050919050565b7f4e487b71000000000000000000000000000000000000000000000000000000005f52602260045260245ffd5b5f6002820490506001821680612f6057607f821691505b602082108103612f7357612f72612f1c565b5b50919050565b5f819050815f5260205f209050919050565b5f6020601f8301049050919050565b5f82821b905092915050565b5f60088302612fd57fffffffffffffffffffffffffffffffffffffffffffffffffffffffffffffffff82612f9a565b612fdf8683612f9a565b95508019841693508086168417925050509392505050565b5f819050919050565b5f61301a61301561301084612761565b612ff7565b612761565b9050919050565b5f819050919050565b61303383613000565b61304761303f82613021565b848454612fa6565b825550505050565b5f90565b61305b61304f565b61306681848461302a565b505050565b5b818110156130895761307e5f82613053565b60018101905061306c565b5050565b601f8211156130ce5761309f81612f79565b6130a884612f8b565b810160208510156130b7578190505b6130cb6130c385612f8b565b83018261306b565b50505b505050565b5f82821c905092915050565b5f6130ee5f19846008026130d3565b1980831691505092915050565b5f61310683836130df565b9150826002028217905092915050565b61311f826127e1565b67ffffffffffffffff81111561313857613137612445565b5b6131428254612f49565b61314d82828561308d565b5f60209050601f83116001811461317e575f841561316c578287015190505b61317685826130fb565b8655506131dd565b601f19841661318c86612f79565b5f5b828110156131b35784890151825560018201915060208501945060208101905061318e565b868310156131d057848901516131cc601f8916826130df565b8355505b6001600288020188555050505b505050505050565b5f6060820190508181035f8301526131fd8186612aff565b905081810360208301526132118185612aff565b905081810360408301526132258184612aff565b9050949350505050565b7f53656c6563746564206461746120686173682063616e6e6f7420626520656d705f8201527f7479000000000000000000000000000000000000000000000000000000000000602082015250565b5f613289602283612aef565b91506132948261322f565b604082019050919050565b5f6020820190508181035f8301526132b68161327d565b9050919050565b5f8160601b9050919050565b5f6132d3826132bd565b9050919050565b5f6132e4826132c9565b9050919050565b6132fc6132f782612673565b6132da565b82525050565b5f81905092915050565b5f613316826127e1565b6133208185613302565b93506133308185602086016127fb565b80840191505092915050565b5f819050919050565b61335661335182612761565b61333c565b82525050565b5f61336782866132eb565b601482019150613377828561330c565b91506133838284613345565b602082019150819050949350505050565b61339d816126ae565b82525050565b6133ac81612761565b82525050565b5f6040820190506133c55f830185613394565b6133d260208301846133a3565b9392505050565b7f497373756572206d7573742068617665206120444944000000000000000000005f82015250565b5f61340d601683612aef565b9150613418826133d9565b602082019050919050565b5f6020820190508181035f83015261343a81613401565b9050919050565b7f526f6c652063616e6e6f7420626520656d7074790000000000000000000000005f82015250565b5f613475601483612aef565b915061348082613441565b602082019050919050565b5f6020820190508181035f8301526134a281613469565b9050919050565b5f6134b482876132eb565b6014820191506134c482866132eb565b6014820191506134d4828561330c565b91506134e08284613345565b60208201915081905095945050505050565b6134fb81612673565b82525050565b5f6060820190506135145f8301866134f2565b81810360208301526135268185612aff565b90506135356040830184613394565b949350505050565b7f4964656e7469666965722063616e6e6f7420626520656d7074790000000000005f82015250565b5f613571601a83612aef565b915061357c8261353d565b602082019050919050565b5f6020820190508181035f83015261359e81613565565b9050919050565b7f44494420616c72656164792065786973747300000000000000000000000000005f82015250565b5f6135d9601283612aef565b91506135e4826135a5565b602082019050919050565b5f6020820190508181035f830152613606816135cd565b9050919050565b7f496e76616c69642063726564656e7469616c20696e64657800000000000000005f82015250565b5f613641601883612aef565b915061364c8261360d565b602082019050919050565b5f6020820190508181035f83015261366e81613635565b9050919050565b7f4e487b71000000000000000000000000000000000000000000000000000000005f52603260045260245ffd5b7f4461746120646f6573206e6f74206578697374000000000000000000000000005f82015250565b5f6136d6601383612aef565b91506136e1826136a2565b602082019050919050565b5f6020820190508181035f830152613703816136ca565b9050919050565b7f5573657220646f6573206e6f74206861766520616e792061737369676e6564205f8201527f726f6c6573000000000000000000000000000000000000000000000000000000602082015250565b5f613764602583612aef565b915061376f8261370a565b604082019050919050565b5f6020820190508181035f83015261379181613758565b9050919050565b5f6137a3828461330c565b915081905092915050565b5f81546137ba81612f49565b6137c48186613302565b9450600182165f81146137de57600181146137f357613825565b60ff1983168652811515820286019350613825565b6137fc85612f79565b5f5b8381101561381d578154818901526001820191506020810190506137fe565b838801955050505b50505092915050565b5f61383982846137ae565b915081905092915050565b7f496e76616c6964207465737420696e64657800000000000000000000000000005f82015250565b5f613878601283612aef565b915061388382613844565b602082019050919050565b5f6020820190508181035f8301526138a58161386c565b9050919050565b7f5465737420616c726561647920677261646564000000000000000000000000005f82015250565b5f6138e0601383612aef565b91506138eb826138ac565b602082019050919050565b5f6020820190508181035f83015261390d816138d4565b9050919050565b5f6040820190506139275f8301856133a3565b61393460208301846133a3565b9392505050565b7f416e737765727320686173682063616e6e6f7420626520656d707479000000005f82015250565b5f61396f601c83612aef565b915061397a8261393b565b602082019050919050565b5f6020820190508181035f83015261399c81613963565b9050919050565b7f4e487b71000000000000000000000000000000000000000000000000000000005f52601160045260245ffd5b5f6139da82612761565b91506139e583612761565b92508282019050808211156139fd576139fc6139a3565b5b92915050565b5f6040820190508181035f830152613a1b8185612aff565b9050613a2a60208301846133a3565b9392505050565b7f4e6f20726f6c65732061737369676e65642079657400000000000000000000005f82015250565b5f613a65601583612aef565b9150613a7082613a31565b602082019050919050565b5f6020820190508181035f830152613a9281613a59565b905091905056fea26469706673582212203410b9057f2c891f87198885b9f4b2cb08c2aaf4e62238e22ea830e4e1829fc364736f6c634300081a0033",
					"opcodes": "PUSH1 0x80 PUSH1 0x40 MSTORE CALLVALUE DUP1 ISZERO PUSH2 0xF JUMPI PUSH0 DUP1 REVERT JUMPDEST POP PUSH1 0x40 MLOAD DUP1 PUSH1 0x40 ADD PUSH1 0x40 MSTORE DUP1 PUSH1 0xB DUP2 MSTORE PUSH1 0x20 ADD PUSH32 0x73757065722061646D696E000000000000000000000000000000000000000000 DUP2 MSTORE POP PUSH1 0x1 PUSH0 CALLER PUSH20 0xFFFFFFFFFFFFFFFFFFFFFFFFFFFFFFFFFFFFFFFF AND PUSH20 0xFFFFFFFFFFFFFFFFFFFFFFFFFFFFFFFFFFFFFFFF AND DUP2 MSTORE PUSH1 0x20 ADD SWAP1 DUP2 MSTORE PUSH1 0x20 ADD PUSH0 KECCAK256 SWAP1 DUP2 PUSH2 0x8F SWAP2 SWAP1 PUSH2 0x36E JUMP JUMPDEST POP PUSH1 0x2 PUSH0 CALLER PUSH20 0xFFFFFFFFFFFFFFFFFFFFFFFFFFFFFFFFFFFFFFFF AND PUSH20 0xFFFFFFFFFFFFFFFFFFFFFFFFFFFFFFFFFFFFFFFF AND DUP2 MSTORE PUSH1 0x20 ADD SWAP1 DUP2 MSTORE PUSH1 0x20 ADD PUSH0 KECCAK256 DUP1 PUSH1 0x1 DUP2 SLOAD ADD DUP1 DUP3 SSTORE DUP1 SWAP2 POP POP PUSH1 0x1 SWAP1 SUB SWAP1 PUSH0 MSTORE PUSH1 0x20 PUSH0 KECCAK256 ADD PUSH0 PUSH1 0x40 MLOAD DUP1 PUSH1 0x40 ADD PUSH1 0x40 MSTORE DUP1 PUSH1 0xB DUP2 MSTORE PUSH1 0x20 ADD PUSH32 0x73757065722061646D696E000000000000000000000000000000000000000000 DUP2 MSTORE POP SWAP1 SWAP2 SWAP1 SWAP2 POP SWAP1 DUP2 PUSH2 0x12E SWAP2 SWAP1 PUSH2 0x36E JUMP JUMPDEST POP PUSH2 0x43D JUMP JUMPDEST PUSH0 DUP2 MLOAD SWAP1 POP SWAP2 SWAP1 POP JUMP JUMPDEST PUSH32 0x4E487B7100000000000000000000000000000000000000000000000000000000 PUSH0 MSTORE PUSH1 0x41 PUSH1 0x4 MSTORE PUSH1 0x24 PUSH0 REVERT JUMPDEST PUSH32 0x4E487B7100000000000000000000000000000000000000000000000000000000 PUSH0 MSTORE PUSH1 0x22 PUSH1 0x4 MSTORE PUSH1 0x24 PUSH0 REVERT JUMPDEST PUSH0 PUSH1 0x2 DUP3 DIV SWAP1 POP PUSH1 0x1 DUP3 AND DUP1 PUSH2 0x1AF JUMPI PUSH1 0x7F DUP3 AND SWAP2 POP JUMPDEST PUSH1 0x20 DUP3 LT DUP2 SUB PUSH2 0x1C2 JUMPI PUSH2 0x1C1 PUSH2 0x16B JUMP JUMPDEST JUMPDEST POP SWAP2 SWAP1 POP JUMP JUMPDEST PUSH0 DUP2 SWAP1 POP DUP2 PUSH0 MSTORE PUSH1 0x20 PUSH0 KECCAK256 SWAP1 POP SWAP2 SWAP1 POP JUMP JUMPDEST PUSH0 PUSH1 0x20 PUSH1 0x1F DUP4 ADD DIV SWAP1 POP SWAP2 SWAP1 POP JUMP JUMPDEST PUSH0 DUP3 DUP3 SHL SWAP1 POP SWAP3 SWAP2 POP POP JUMP JUMPDEST PUSH0 PUSH1 0x8 DUP4 MUL PUSH2 0x224 PUSH32 0xFFFFFFFFFFFFFFFFFFFFFFFFFFFFFFFFFFFFFFFFFFFFFFFFFFFFFFFFFFFFFFFF DUP3 PUSH2 0x1E9 JUMP JUMPDEST PUSH2 0x22E DUP7 DUP4 PUSH2 0x1E9 JUMP JUMPDEST SWAP6 POP DUP1 NOT DUP5 AND SWAP4 POP DUP1 DUP7 AND DUP5 OR SWAP3 POP POP POP SWAP4 SWAP3 POP POP POP JUMP JUMPDEST PUSH0 DUP2 SWAP1 POP SWAP2 SWAP1 POP JUMP JUMPDEST PUSH0 DUP2 SWAP1 POP SWAP2 SWAP1 POP JUMP JUMPDEST PUSH0 PUSH2 0x272 PUSH2 0x26D PUSH2 0x268 DUP5 PUSH2 0x246 JUMP JUMPDEST PUSH2 0x24F JUMP JUMPDEST PUSH2 0x246 JUMP JUMPDEST SWAP1 POP SWAP2 SWAP1 POP JUMP JUMPDEST PUSH0 DUP2 SWAP1 POP SWAP2 SWAP1 POP JUMP JUMPDEST PUSH2 0x28B DUP4 PUSH2 0x258 JUMP JUMPDEST PUSH2 0x29F PUSH2 0x297 DUP3 PUSH2 0x279 JUMP JUMPDEST DUP5 DUP5 SLOAD PUSH2 0x1F5 JUMP JUMPDEST DUP3 SSTORE POP POP POP POP JUMP JUMPDEST PUSH0 SWAP1 JUMP JUMPDEST PUSH2 0x2B3 PUSH2 0x2A7 JUMP JUMPDEST PUSH2 0x2BE DUP2 DUP5 DUP5 PUSH2 0x282 JUMP JUMPDEST POP POP POP JUMP JUMPDEST JUMPDEST DUP2 DUP2 LT ISZERO PUSH2 0x2E1 JUMPI PUSH2 0x2D6 PUSH0 DUP3 PUSH2 0x2AB JUMP JUMPDEST PUSH1 0x1 DUP2 ADD SWAP1 POP PUSH2 0x2C4 JUMP JUMPDEST POP POP JUMP JUMPDEST PUSH1 0x1F DUP3 GT ISZERO PUSH2 0x326 JUMPI PUSH2 0x2F7 DUP2 PUSH2 0x1C8 JUMP JUMPDEST PUSH2 0x300 DUP5 PUSH2 0x1DA JUMP JUMPDEST DUP2 ADD PUSH1 0x20 DUP6 LT ISZERO PUSH2 0x30F JUMPI DUP2 SWAP1 POP JUMPDEST PUSH2 0x323 PUSH2 0x31B DUP6 PUSH2 0x1DA JUMP JUMPDEST DUP4 ADD DUP3 PUSH2 0x2C3 JUMP JUMPDEST POP POP JUMPDEST POP POP POP JUMP JUMPDEST PUSH0 DUP3 DUP3 SHR SWAP1 POP SWAP3 SWAP2 POP POP JUMP JUMPDEST PUSH0 PUSH2 0x346 PUSH0 NOT DUP5 PUSH1 0x8 MUL PUSH2 0x32B JUMP JUMPDEST NOT DUP1 DUP4 AND SWAP2 POP POP SWAP3 SWAP2 POP POP JUMP JUMPDEST PUSH0 PUSH2 0x35E DUP4 DUP4 PUSH2 0x337 JUMP JUMPDEST SWAP2 POP DUP3 PUSH1 0x2 MUL DUP3 OR SWAP1 POP SWAP3 SWAP2 POP POP JUMP JUMPDEST PUSH2 0x377 DUP3 PUSH2 0x134 JUMP JUMPDEST PUSH8 0xFFFFFFFFFFFFFFFF DUP2 GT ISZERO PUSH2 0x390 JUMPI PUSH2 0x38F PUSH2 0x13E JUMP JUMPDEST JUMPDEST PUSH2 0x39A DUP3 SLOAD PUSH2 0x198 JUMP JUMPDEST PUSH2 0x3A5 DUP3 DUP3 DUP6 PUSH2 0x2E5 JUMP JUMPDEST PUSH0 PUSH1 0x20 SWAP1 POP PUSH1 0x1F DUP4 GT PUSH1 0x1 DUP2 EQ PUSH2 0x3D6 JUMPI PUSH0 DUP5 ISZERO PUSH2 0x3C4 JUMPI DUP3 DUP8 ADD MLOAD SWAP1 POP JUMPDEST PUSH2 0x3CE DUP6 DUP3 PUSH2 0x353 JUMP JUMPDEST DUP7 SSTORE POP PUSH2 0x435 JUMP JUMPDEST PUSH1 0x1F NOT DUP5 AND PUSH2 0x3E4 DUP7 PUSH2 0x1C8 JUMP JUMPDEST PUSH0 JUMPDEST DUP3 DUP2 LT ISZERO PUSH2 0x40B JUMPI DUP5 DUP10 ADD MLOAD DUP3 SSTORE PUSH1 0x1 DUP3 ADD SWAP2 POP PUSH1 0x20 DUP6 ADD SWAP5 POP PUSH1 0x20 DUP2 ADD SWAP1 POP PUSH2 0x3E6 JUMP JUMPDEST DUP7 DUP4 LT ISZERO PUSH2 0x428 JUMPI DUP5 DUP10 ADD MLOAD PUSH2 0x424 PUSH1 0x1F DUP10 AND DUP3 PUSH2 0x337 JUMP JUMPDEST DUP4 SSTORE POP JUMPDEST PUSH1 0x1 PUSH1 0x2 DUP9 MUL ADD DUP9 SSTORE POP POP POP JUMPDEST POP POP POP POP POP POP JUMP JUMPDEST PUSH2 0x3ACF DUP1 PUSH2 0x44A PUSH0 CODECOPY PUSH0 RETURN INVALID PUSH1 0x80 PUSH1 0x40 MSTORE CALLVALUE DUP1 ISZERO PUSH2 0xF JUMPI PUSH0 DUP1 REVERT JUMPDEST POP PUSH1 0x4 CALLDATASIZE LT PUSH2 0xCD JUMPI PUSH0 CALLDATALOAD PUSH1 0xE0 SHR DUP1 PUSH4 0xAB53C6AD GT PUSH2 0x8A JUMPI DUP1 PUSH4 0xBC9C2D55 GT PUSH2 0x64 JUMPI DUP1 PUSH4 0xBC9C2D55 EQ PUSH2 0x1F7 JUMPI DUP1 PUSH4 0xC303E541 EQ PUSH2 0x215 JUMPI DUP1 PUSH4 0xDE6DB5C7 EQ PUSH2 0x231 JUMPI DUP1 PUSH4 0xFDE08174 EQ PUSH2 0x24F JUMPI PUSH2 0xCD JUMP JUMPDEST DUP1 PUSH4 0xAB53C6AD EQ PUSH2 0x18F JUMPI DUP1 PUSH4 0xB4F30A54 EQ PUSH2 0x1BF JUMPI DUP1 PUSH4 0xB7DFCBEE EQ PUSH2 0x1DB JUMPI PUSH2 0xCD JUMP JUMPDEST DUP1 PUSH4 0x890D80C EQ PUSH2 0xD1 JUMPI DUP1 PUSH4 0xAB82802 EQ PUSH2 0xED JUMPI DUP1 PUSH4 0x1391168D EQ PUSH2 0x109 JUMPI DUP1 PUSH4 0x3457D3E2 EQ PUSH2 0x125 JUMPI DUP1 PUSH4 0x783D57C5 EQ PUSH2 0x141 JUMPI DUP1 PUSH4 0x7A5B4F59 EQ PUSH2 0x171 JUMPI JUMPDEST PUSH0 DUP1 REVERT JUMPDEST PUSH2 0xEB PUSH1 0x4 DUP1 CALLDATASIZE SUB DUP2 ADD SWAP1 PUSH2 0xE6 SWAP2 SWAP1 PUSH2 0x2569 JUMP JUMPDEST PUSH2 0x26D JUMP JUMPDEST STOP JUMPDEST PUSH2 0x107 PUSH1 0x4 DUP1 CALLDATASIZE SUB DUP2 ADD SWAP1 PUSH2 0x102 SWAP2 SWAP1 PUSH2 0x260D JUMP JUMPDEST PUSH2 0x514 JUMP JUMPDEST STOP JUMPDEST PUSH2 0x123 PUSH1 0x4 DUP1 CALLDATASIZE SUB DUP2 ADD SWAP1 PUSH2 0x11E SWAP2 SWAP1 PUSH2 0x26E1 JUMP JUMPDEST PUSH2 0x6A5 JUMP JUMPDEST STOP JUMPDEST PUSH2 0x13F PUSH1 0x4 DUP1 CALLDATASIZE SUB DUP2 ADD SWAP1 PUSH2 0x13A SWAP2 SWAP1 PUSH2 0x260D JUMP JUMPDEST PUSH2 0x9D4 JUMP JUMPDEST STOP JUMPDEST PUSH2 0x15B PUSH1 0x4 DUP1 CALLDATASIZE SUB DUP2 ADD SWAP1 PUSH2 0x156 SWAP2 SWAP1 PUSH2 0x2794 JUMP JUMPDEST PUSH2 0xC08 JUMP JUMPDEST PUSH1 0x40 MLOAD PUSH2 0x168 SWAP2 SWAP1 PUSH2 0x28E5 JUMP JUMPDEST PUSH1 0x40 MLOAD DUP1 SWAP2 SUB SWAP1 RETURN JUMPDEST PUSH2 0x179 PUSH2 0xED8 JUMP JUMPDEST PUSH1 0x40 MLOAD PUSH2 0x186 SWAP2 SWAP1 PUSH2 0x2986 JUMP JUMPDEST PUSH1 0x40 MLOAD DUP1 SWAP2 SUB SWAP1 RETURN JUMPDEST PUSH2 0x1A9 PUSH1 0x4 DUP1 CALLDATASIZE SUB DUP2 ADD SWAP1 PUSH2 0x1A4 SWAP2 SWAP1 PUSH2 0x29A6 JUMP JUMPDEST PUSH2 0x11BC JUMP JUMPDEST PUSH1 0x40 MLOAD PUSH2 0x1B6 SWAP2 SWAP1 PUSH2 0x2A2C JUMP JUMPDEST PUSH1 0x40 MLOAD DUP1 SWAP2 SUB SWAP1 RETURN JUMPDEST PUSH2 0x1D9 PUSH1 0x4 DUP1 CALLDATASIZE SUB DUP2 ADD SWAP1 PUSH2 0x1D4 SWAP2 SWAP1 PUSH2 0x2A45 JUMP JUMPDEST PUSH2 0x157D JUMP JUMPDEST STOP JUMPDEST PUSH2 0x1F5 PUSH1 0x4 DUP1 CALLDATASIZE SUB DUP2 ADD SWAP1 PUSH2 0x1F0 SWAP2 SWAP1 PUSH2 0x2A95 JUMP JUMPDEST PUSH2 0x18E9 JUMP JUMPDEST STOP JUMPDEST PUSH2 0x1FF PUSH2 0x1B02 JUMP JUMPDEST PUSH1 0x40 MLOAD PUSH2 0x20C SWAP2 SWAP1 PUSH2 0x2B37 JUMP JUMPDEST PUSH1 0x40 MLOAD DUP1 SWAP2 SUB SWAP1 RETURN JUMPDEST PUSH2 0x22F PUSH1 0x4 DUP1 CALLDATASIZE SUB DUP2 ADD SWAP1 PUSH2 0x22A SWAP2 SWAP1 PUSH2 0x260D JUMP JUMPDEST PUSH2 0x1C9A JUMP JUMPDEST STOP JUMPDEST PUSH2 0x239 PUSH2 0x1F22 JUMP JUMPDEST PUSH1 0x40 MLOAD PUSH2 0x246 SWAP2 SWAP1 PUSH2 0x2C81 JUMP JUMPDEST PUSH1 0x40 MLOAD DUP1 SWAP2 SUB SWAP1 RETURN JUMPDEST PUSH2 0x257 PUSH2 0x2142 JUMP JUMPDEST PUSH1 0x40 MLOAD PUSH2 0x264 SWAP2 SWAP1 PUSH2 0x2D5C JUMP JUMPDEST PUSH1 0x40 MLOAD DUP1 SWAP2 SUB SWAP1 RETURN JUMPDEST PUSH0 PUSH20 0xFFFFFFFFFFFFFFFFFFFFFFFFFFFFFFFFFFFFFFFF AND PUSH0 DUP1 CALLER PUSH20 0xFFFFFFFFFFFFFFFFFFFFFFFFFFFFFFFFFFFFFFFF AND PUSH20 0xFFFFFFFFFFFFFFFFFFFFFFFFFFFFFFFFFFFFFFFF AND DUP2 MSTORE PUSH1 0x20 ADD SWAP1 DUP2 MSTORE PUSH1 0x20 ADD PUSH0 KECCAK256 PUSH1 0x1 ADD PUSH0 SWAP1 SLOAD SWAP1 PUSH2 0x100 EXP SWAP1 DIV PUSH20 0xFFFFFFFFFFFFFFFFFFFFFFFFFFFFFFFFFFFFFFFF AND PUSH20 0xFFFFFFFFFFFFFFFFFFFFFFFFFFFFFFFFFFFFFFFF AND SUB PUSH2 0x339 JUMPI PUSH1 0x40 MLOAD PUSH32 0x8C379A000000000000000000000000000000000000000000000000000000000 DUP2 MSTORE PUSH1 0x4 ADD PUSH2 0x330 SWAP1 PUSH2 0x2DC6 JUMP JUMPDEST PUSH1 0x40 MLOAD DUP1 SWAP2 SUB SWAP1 REVERT JUMPDEST PUSH0 DUP4 MLOAD GT PUSH2 0x37C JUMPI PUSH1 0x40 MLOAD PUSH32 0x8C379A000000000000000000000000000000000000000000000000000000000 DUP2 MSTORE PUSH1 0x4 ADD PUSH2 0x373 SWAP1 PUSH2 0x2E2E JUMP JUMPDEST PUSH1 0x40 MLOAD DUP1 SWAP2 SUB SWAP1 REVERT JUMPDEST PUSH0 DUP3 MLOAD GT PUSH2 0x3BF JUMPI PUSH1 0x40 MLOAD PUSH32 0x8C379A000000000000000000000000000000000000000000000000000000000 DUP2 MSTORE PUSH1 0x4 ADD PUSH2 0x3B6 SWAP1 PUSH2 0x2E96 JUMP JUMPDEST PUSH1 0x40 MLOAD DUP1 SWAP2 SUB SWAP1 REVERT JUMPDEST PUSH0 DUP2 MLOAD GT PUSH2 0x402 JUMPI PUSH1 0x40 MLOAD PUSH32 0x8C379A000000000000000000000000000000000000000000000000000000000 DUP2 MSTORE PUSH1 0x4 ADD PUSH2 0x3F9 SWAP1 PUSH2 0x2EFE JUMP JUMPDEST PUSH1 0x40 MLOAD DUP1 SWAP2 SUB SWAP1 REVERT JUMPDEST PUSH1 0x40 MLOAD DUP1 PUSH1 0xA0 ADD PUSH1 0x40 MSTORE DUP1 DUP5 DUP2 MSTORE PUSH1 0x20 ADD DUP4 DUP2 MSTORE PUSH1 0x20 ADD DUP3 DUP2 MSTORE PUSH1 0x20 ADD PUSH0 DUP2 MSTORE PUSH1 0x20 ADD PUSH0 DUP2 MSTORE POP PUSH1 0x3 PUSH0 CALLER PUSH20 0xFFFFFFFFFFFFFFFFFFFFFFFFFFFFFFFFFFFFFFFF AND PUSH20 0xFFFFFFFFFFFFFFFFFFFFFFFFFFFFFFFFFFFFFFFF AND DUP2 MSTORE PUSH1 0x20 ADD SWAP1 DUP2 MSTORE PUSH1 0x20 ADD PUSH0 KECCAK256 PUSH0 DUP3 ADD MLOAD DUP2 PUSH0 ADD SWAP1 DUP2 PUSH2 0x479 SWAP2 SWAP1 PUSH2 0x3116 JUMP JUMPDEST POP PUSH1 0x20 DUP3 ADD MLOAD DUP2 PUSH1 0x1 ADD SWAP1 DUP2 PUSH2 0x48F SWAP2 SWAP1 PUSH2 0x3116 JUMP JUMPDEST POP PUSH1 0x40 DUP3 ADD MLOAD DUP2 PUSH1 0x2 ADD SWAP1 DUP2 PUSH2 0x4A5 SWAP2 SWAP1 PUSH2 0x3116 JUMP JUMPDEST POP PUSH1 0x60 DUP3 ADD MLOAD DUP2 PUSH1 0x3 ADD SSTORE PUSH1 0x80 DUP3 ADD MLOAD DUP2 PUSH1 0x4 ADD SSTORE SWAP1 POP POP CALLER PUSH20 0xFFFFFFFFFFFFFFFFFFFFFFFFFFFFFFFFFFFFFFFF AND PUSH32 0x65D0EE13464C98C4CC59B1E8669C3B1E26D6CCC62EC1811070773F0C7903DF2F DUP5 DUP5 DUP5 PUSH1 0x40 MLOAD PUSH2 0x507 SWAP4 SWAP3 SWAP2 SWAP1 PUSH2 0x31E5 JUMP JUMPDEST PUSH1 0x40 MLOAD DUP1 SWAP2 SUB SWAP1 LOG2 POP POP POP JUMP JUMPDEST PUSH0 PUSH20 0xFFFFFFFFFFFFFFFFFFFFFFFFFFFFFFFFFFFFFFFF AND PUSH0 DUP1 CALLER PUSH20 0xFFFFFFFFFFFFFFFFFFFFFFFFFFFFFFFFFFFFFFFF AND PUSH20 0xFFFFFFFFFFFFFFFFFFFFFFFFFFFFFFFFFFFFFFFF AND DUP2 MSTORE PUSH1 0x20 ADD SWAP1 DUP2 MSTORE PUSH1 0x20 ADD PUSH0 KECCAK256 PUSH1 0x1 ADD PUSH0 SWAP1 SLOAD SWAP1 PUSH2 0x100 EXP SWAP1 DIV PUSH20 0xFFFFFFFFFFFFFFFFFFFFFFFFFFFFFFFFFFFFFFFF AND PUSH20 0xFFFFFFFFFFFFFFFFFFFFFFFFFFFFFFFFFFFFFFFF AND SUB PUSH2 0x5E0 JUMPI PUSH1 0x40 MLOAD PUSH32 0x8C379A000000000000000000000000000000000000000000000000000000000 DUP2 MSTORE PUSH1 0x4 ADD PUSH2 0x5D7 SWAP1 PUSH2 0x2DC6 JUMP JUMPDEST PUSH1 0x40 MLOAD DUP1 SWAP2 SUB SWAP1 REVERT JUMPDEST PUSH0 DUP2 MLOAD GT PUSH2 0x623 JUMPI PUSH1 0x40 MLOAD PUSH32 0x8C379A000000000000000000000000000000000000000000000000000000000 DUP2 MSTORE PUSH1 0x4 ADD PUSH2 0x61A SWAP1 PUSH2 0x329F JUMP JUMPDEST PUSH1 0x40 MLOAD DUP1 SWAP2 SUB SWAP1 REVERT JUMPDEST PUSH0 CALLER DUP3 TIMESTAMP PUSH1 0x40 MLOAD PUSH1 0x20 ADD PUSH2 0x639 SWAP4 SWAP3 SWAP2 SWAP1 PUSH2 0x335C JUMP JUMPDEST PUSH1 0x40 MLOAD PUSH1 0x20 DUP2 DUP4 SUB SUB DUP2 MSTORE SWAP1 PUSH1 0x40 MSTORE DUP1 MLOAD SWAP1 PUSH1 0x20 ADD KECCAK256 SWAP1 POP CALLER PUSH20 0xFFFFFFFFFFFFFFFFFFFFFFFFFFFFFFFFFFFFFFFF AND PUSH32 0x5AEB6B13FC088DDBCC5740322767A110F7A1EB4071351D627C61C5E37EDAE83D DUP3 TIMESTAMP PUSH1 0x40 MLOAD PUSH2 0x699 SWAP3 SWAP2 SWAP1 PUSH2 0x33B2 JUMP JUMPDEST PUSH1 0x40 MLOAD DUP1 SWAP2 SUB SWAP1 LOG2 POP POP JUMP JUMPDEST PUSH0 PUSH20 0xFFFFFFFFFFFFFFFFFFFFFFFFFFFFFFFFFFFFFFFF AND PUSH0 DUP1 CALLER PUSH20 0xFFFFFFFFFFFFFFFFFFFFFFFFFFFFFFFFFFFFFFFF AND PUSH20 0xFFFFFFFFFFFFFFFFFFFFFFFFFFFFFFFFFFFFFFFF AND DUP2 MSTORE PUSH1 0x20 ADD SWAP1 DUP2 MSTORE PUSH1 0x20 ADD PUSH0 KECCAK256 PUSH1 0x1 ADD PUSH0 SWAP1 SLOAD SWAP1 PUSH2 0x100 EXP SWAP1 DIV PUSH20 0xFFFFFFFFFFFFFFFFFFFFFFFFFFFFFFFFFFFFFFFF AND PUSH20 0xFFFFFFFFFFFFFFFFFFFFFFFFFFFFFFFFFFFFFFFF AND SUB PUSH2 0x771 JUMPI PUSH1 0x40 MLOAD PUSH32 0x8C379A000000000000000000000000000000000000000000000000000000000 DUP2 MSTORE PUSH1 0x4 ADD PUSH2 0x768 SWAP1 PUSH2 0x3423 JUMP JUMPDEST PUSH1 0x40 MLOAD DUP1 SWAP2 SUB SWAP1 REVERT JUMPDEST PUSH0 DUP4 MLOAD GT PUSH2 0x7B4 JUMPI PUSH1 0x40 MLOAD PUSH32 0x8C379A000000000000000000000000000000000000000000000000000000000 DUP2 MSTORE PUSH1 0x4 ADD PUSH2 0x7AB SWAP1 PUSH2 0x348B JUMP JUMPDEST PUSH1 0x40 MLOAD DUP1 SWAP2 SUB SWAP1 REVERT JUMPDEST PUSH0 CALLER DUP6 DUP6 TIMESTAMP PUSH1 0x40 MLOAD PUSH1 0x20 ADD PUSH2 0x7CC SWAP5 SWAP4 SWAP3 SWAP2 SWAP1 PUSH2 0x34A9 JUMP JUMPDEST PUSH1 0x40 MLOAD PUSH1 0x20 DUP2 DUP4 SUB SUB DUP2 MSTORE SWAP1 PUSH1 0x40 MSTORE DUP1 MLOAD SWAP1 PUSH1 0x20 ADD KECCAK256 SWAP1 POP PUSH1 0x4 PUSH0 DUP7 PUSH20 0xFFFFFFFFFFFFFFFFFFFFFFFFFFFFFFFFFFFFFFFF AND PUSH20 0xFFFFFFFFFFFFFFFFFFFFFFFFFFFFFFFFFFFFFFFF AND DUP2 MSTORE PUSH1 0x20 ADD SWAP1 DUP2 MSTORE PUSH1 0x20 ADD PUSH0 KECCAK256 PUSH1 0x40 MLOAD DUP1 PUSH1 0xC0 ADD PUSH1 0x40 MSTORE DUP1 CALLER PUSH20 0xFFFFFFFFFFFFFFFFFFFFFFFFFFFFFFFFFFFFFFFF AND DUP2 MSTORE PUSH1 0x20 ADD DUP7 DUP2 MSTORE PUSH1 0x20 ADD TIMESTAMP DUP2 MSTORE PUSH1 0x20 ADD DUP4 DUP2 MSTORE PUSH1 0x20 ADD DUP6 DUP2 MSTORE PUSH1 0x20 ADD DUP5 DUP2 MSTORE POP SWAP1 DUP1 PUSH1 0x1 DUP2 SLOAD ADD DUP1 DUP3 SSTORE DUP1 SWAP2 POP POP PUSH1 0x1 SWAP1 SUB SWAP1 PUSH0 MSTORE PUSH1 0x20 PUSH0 KECCAK256 SWAP1 PUSH1 0x6 MUL ADD PUSH0 SWAP1 SWAP2 SWAP1 SWAP2 SWAP1 SWAP2 POP PUSH0 DUP3 ADD MLOAD DUP2 PUSH0 ADD PUSH0 PUSH2 0x100 EXP DUP2 SLOAD DUP2 PUSH20 0xFFFFFFFFFFFFFFFFFFFFFFFFFFFFFFFFFFFFFFFF MUL NOT AND SWAP1 DUP4 PUSH20 0xFFFFFFFFFFFFFFFFFFFFFFFFFFFFFFFFFFFFFFFF AND MUL OR SWAP1 SSTORE POP PUSH1 0x20 DUP3 ADD MLOAD DUP2 PUSH1 0x1 ADD SWAP1 DUP2 PUSH2 0x8E3 SWAP2 SWAP1 PUSH2 0x3116 JUMP JUMPDEST POP PUSH1 0x40 DUP3 ADD MLOAD DUP2 PUSH1 0x2 ADD SSTORE PUSH1 0x60 DUP3 ADD MLOAD DUP2 PUSH1 0x3 ADD SSTORE PUSH1 0x80 DUP3 ADD MLOAD DUP2 PUSH1 0x4 ADD SSTORE PUSH1 0xA0 DUP3 ADD MLOAD DUP2 PUSH1 0x5 ADD SSTORE POP POP PUSH1 0x2 PUSH0 DUP7 PUSH20 0xFFFFFFFFFFFFFFFFFFFFFFFFFFFFFFFFFFFFFFFF AND PUSH20 0xFFFFFFFFFFFFFFFFFFFFFFFFFFFFFFFFFFFFFFFF AND DUP2 MSTORE PUSH1 0x20 ADD SWAP1 DUP2 MSTORE PUSH1 0x20 ADD PUSH0 KECCAK256 DUP5 SWAP1 DUP1 PUSH1 0x1 DUP2 SLOAD ADD DUP1 DUP3 SSTORE DUP1 SWAP2 POP POP PUSH1 0x1 SWAP1 SUB SWAP1 PUSH0 MSTORE PUSH1 0x20 PUSH0 KECCAK256 ADD PUSH0 SWAP1 SWAP2 SWAP1 SWAP2 SWAP1 SWAP2 POP SWAP1 DUP2 PUSH2 0x97A SWAP2 SWAP1 PUSH2 0x3116 JUMP JUMPDEST POP CALLER PUSH20 0xFFFFFFFFFFFFFFFFFFFFFFFFFFFFFFFFFFFFFFFF AND PUSH32 0xF4313CB022699889C6EDDB590E42342301CDAE4824FD424FFDFDEB23D4CDBBE9 DUP7 DUP7 DUP5 PUSH1 0x40 MLOAD PUSH2 0x9C5 SWAP4 SWAP3 SWAP2 SWAP1 PUSH2 0x3501 JUMP JUMPDEST PUSH1 0x40 MLOAD DUP1 SWAP2 SUB SWAP1 LOG2 POP POP POP POP POP JUMP JUMPDEST PUSH0 DUP2 MLOAD GT PUSH2 0xA17 JUMPI PUSH1 0x40 MLOAD PUSH32 0x8C379A000000000000000000000000000000000000000000000000000000000 DUP2 MSTORE PUSH1 0x4 ADD PUSH2 0xA0E SWAP1 PUSH2 0x3587 JUMP JUMPDEST PUSH1 0x40 MLOAD DUP1 SWAP2 SUB SWAP1 REVERT JUMPDEST PUSH0 PUSH20 0xFFFFFFFFFFFFFFFFFFFFFFFFFFFFFFFFFFFFFFFF AND PUSH0 DUP1 CALLER PUSH20 0xFFFFFFFFFFFFFFFFFFFFFFFFFFFFFFFFFFFFFFFF AND PUSH20 0xFFFFFFFFFFFFFFFFFFFFFFFFFFFFFFFFFFFFFFFF AND DUP2 MSTORE PUSH1 0x20 ADD SWAP1 DUP2 MSTORE PUSH1 0x20 ADD PUSH0 KECCAK256 PUSH1 0x1 ADD PUSH0 SWAP1 SLOAD SWAP1 PUSH2 0x100 EXP SWAP1 DIV PUSH20 0xFFFFFFFFFFFFFFFFFFFFFFFFFFFFFFFFFFFFFFFF AND PUSH20 0xFFFFFFFFFFFFFFFFFFFFFFFFFFFFFFFFFFFFFFFF AND EQ PUSH2 0xAE3 JUMPI PUSH1 0x40 MLOAD PUSH32 0x8C379A000000000000000000000000000000000000000000000000000000000 DUP2 MSTORE PUSH1 0x4 ADD PUSH2 0xADA SWAP1 PUSH2 0x35EF JUMP JUMPDEST PUSH1 0x40 MLOAD DUP1 SWAP2 SUB SWAP1 REVERT JUMPDEST PUSH1 0x40 MLOAD DUP1 PUSH1 0x60 ADD PUSH1 0x40 MSTORE DUP1 DUP3 DUP2 MSTORE PUSH1 0x20 ADD CALLER PUSH20 0xFFFFFFFFFFFFFFFFFFFFFFFFFFFFFFFFFFFFFFFF AND DUP2 MSTORE PUSH1 0x20 ADD TIMESTAMP DUP2 MSTORE POP PUSH0 DUP1 CALLER PUSH20 0xFFFFFFFFFFFFFFFFFFFFFFFFFFFFFFFFFFFFFFFF AND PUSH20 0xFFFFFFFFFFFFFFFFFFFFFFFFFFFFFFFFFFFFFFFF AND DUP2 MSTORE PUSH1 0x20 ADD SWAP1 DUP2 MSTORE PUSH1 0x20 ADD PUSH0 KECCAK256 PUSH0 DUP3 ADD MLOAD DUP2 PUSH0 ADD SWAP1 DUP2 PUSH2 0xB63 SWAP2 SWAP1 PUSH2 0x3116 JUMP JUMPDEST POP PUSH1 0x20 DUP3 ADD MLOAD DUP2 PUSH1 0x1 ADD PUSH0 PUSH2 0x100 EXP DUP2 SLOAD DUP2 PUSH20 0xFFFFFFFFFFFFFFFFFFFFFFFFFFFFFFFFFFFFFFFF MUL NOT AND SWAP1 DUP4 PUSH20 0xFFFFFFFFFFFFFFFFFFFFFFFFFFFFFFFFFFFFFFFF AND MUL OR SWAP1 SSTORE POP PUSH1 0x40 DUP3 ADD MLOAD DUP2 PUSH1 0x2 ADD SSTORE SWAP1 POP POP CALLER PUSH20 0xFFFFFFFFFFFFFFFFFFFFFFFFFFFFFFFFFFFFFFFF AND PUSH32 0x1B7934654BA536B6962955E057CE42885353BBAAD8C605A5CE0678E632F28410 DUP3 PUSH1 0x40 MLOAD PUSH2 0xBFD SWAP2 SWAP1 PUSH2 0x2B37 JUMP JUMPDEST PUSH1 0x40 MLOAD DUP1 SWAP2 SUB SWAP1 LOG2 POP JUMP JUMPDEST PUSH2 0xC10 PUSH2 0x239F JUMP JUMPDEST PUSH0 PUSH20 0xFFFFFFFFFFFFFFFFFFFFFFFFFFFFFFFFFFFFFFFF AND PUSH0 DUP1 DUP6 PUSH20 0xFFFFFFFFFFFFFFFFFFFFFFFFFFFFFFFFFFFFFFFF AND PUSH20 0xFFFFFFFFFFFFFFFFFFFFFFFFFFFFFFFFFFFFFFFF AND DUP2 MSTORE PUSH1 0x20 ADD SWAP1 DUP2 MSTORE PUSH1 0x20 ADD PUSH0 KECCAK256 PUSH1 0x1 ADD PUSH0 SWAP1 SLOAD SWAP1 PUSH2 0x100 EXP SWAP1 DIV PUSH20 0xFFFFFFFFFFFFFFFFFFFFFFFFFFFFFFFFFFFFFFFF AND PUSH20 0xFFFFFFFFFFFFFFFFFFFFFFFFFFFFFFFFFFFFFFFF AND SUB PUSH2 0xCDC JUMPI PUSH1 0x40 MLOAD PUSH32 0x8C379A000000000000000000000000000000000000000000000000000000000 DUP2 MSTORE PUSH1 0x4 ADD PUSH2 0xCD3 SWAP1 PUSH2 0x2DC6 JUMP JUMPDEST PUSH1 0x40 MLOAD DUP1 SWAP2 SUB SWAP1 REVERT JUMPDEST PUSH1 0x4 PUSH0 DUP5 PUSH20 0xFFFFFFFFFFFFFFFFFFFFFFFFFFFFFFFFFFFFFFFF AND PUSH20 0xFFFFFFFFFFFFFFFFFFFFFFFFFFFFFFFFFFFFFFFF AND DUP2 MSTORE PUSH1 0x20 ADD SWAP1 DUP2 MSTORE PUSH1 0x20 ADD PUSH0 KECCAK256 DUP1 SLOAD SWAP1 POP DUP3 LT PUSH2 0xD5E JUMPI PUSH1 0x40 MLOAD PUSH32 0x8C379A000000000000000000000000000000000000000000000000000000000 DUP2 MSTORE PUSH1 0x4 ADD PUSH2 0xD55 SWAP1 PUSH2 0x3657 JUMP JUMPDEST PUSH1 0x40 MLOAD DUP1 SWAP2 SUB SWAP1 REVERT JUMPDEST PUSH1 0x4 PUSH0 DUP5 PUSH20 0xFFFFFFFFFFFFFFFFFFFFFFFFFFFFFFFFFFFFFFFF AND PUSH20 0xFFFFFFFFFFFFFFFFFFFFFFFFFFFFFFFFFFFFFFFF AND DUP2 MSTORE PUSH1 0x20 ADD SWAP1 DUP2 MSTORE PUSH1 0x20 ADD PUSH0 KECCAK256 DUP3 DUP2 SLOAD DUP2 LT PUSH2 0xDAD JUMPI PUSH2 0xDAC PUSH2 0x3675 JUMP JUMPDEST JUMPDEST SWAP1 PUSH0 MSTORE PUSH1 0x20 PUSH0 KECCAK256 SWAP1 PUSH1 0x6 MUL ADD PUSH1 0x40 MLOAD DUP1 PUSH1 0xC0 ADD PUSH1 0x40 MSTORE SWAP1 DUP2 PUSH0 DUP3 ADD PUSH0 SWAP1 SLOAD SWAP1 PUSH2 0x100 EXP SWAP1 DIV PUSH20 0xFFFFFFFFFFFFFFFFFFFFFFFFFFFFFFFFFFFFFFFF AND PUSH20 0xFFFFFFFFFFFFFFFFFFFFFFFFFFFFFFFFFFFFFFFF AND PUSH20 0xFFFFFFFFFFFFFFFFFFFFFFFFFFFFFFFFFFFFFFFF AND DUP2 MSTORE PUSH1 0x20 ADD PUSH1 0x1 DUP3 ADD DUP1 SLOAD PUSH2 0xE28 SWAP1 PUSH2 0x2F49 JUMP JUMPDEST DUP1 PUSH1 0x1F ADD PUSH1 0x20 DUP1 SWAP2 DIV MUL PUSH1 0x20 ADD PUSH1 0x40 MLOAD SWAP1 DUP2 ADD PUSH1 0x40 MSTORE DUP1 SWAP3 SWAP2 SWAP1 DUP2 DUP2 MSTORE PUSH1 0x20 ADD DUP3 DUP1 SLOAD PUSH2 0xE54 SWAP1 PUSH2 0x2F49 JUMP JUMPDEST DUP1 ISZERO PUSH2 0xE9F JUMPI DUP1 PUSH1 0x1F LT PUSH2 0xE76 JUMPI PUSH2 0x100 DUP1 DUP4 SLOAD DIV MUL DUP4 MSTORE SWAP2 PUSH1 0x20 ADD SWAP2 PUSH2 0xE9F JUMP JUMPDEST DUP3 ADD SWAP2 SWAP1 PUSH0 MSTORE PUSH1 0x20 PUSH0 KECCAK256 SWAP1 JUMPDEST DUP2 SLOAD DUP2 MSTORE SWAP1 PUSH1 0x1 ADD SWAP1 PUSH1 0x20 ADD DUP1 DUP4 GT PUSH2 0xE82 JUMPI DUP3 SWAP1 SUB PUSH1 0x1F AND DUP3 ADD SWAP2 JUMPDEST POP POP POP POP POP DUP2 MSTORE PUSH1 0x20 ADD PUSH1 0x2 DUP3 ADD SLOAD DUP2 MSTORE PUSH1 0x20 ADD PUSH1 0x3 DUP3 ADD SLOAD DUP2 MSTORE PUSH1 0x20 ADD PUSH1 0x4 DUP3 ADD SLOAD DUP2 MSTORE PUSH1 0x20 ADD PUSH1 0x5 DUP3 ADD SLOAD DUP2 MSTORE POP POP SWAP1 POP SWAP3 SWAP2 POP POP JUMP JUMPDEST PUSH2 0xEE0 PUSH2 0x23EF JUMP JUMPDEST PUSH0 PUSH20 0xFFFFFFFFFFFFFFFFFFFFFFFFFFFFFFFFFFFFFFFF AND PUSH0 DUP1 CALLER PUSH20 0xFFFFFFFFFFFFFFFFFFFFFFFFFFFFFFFFFFFFFFFF AND PUSH20 0xFFFFFFFFFFFFFFFFFFFFFFFFFFFFFFFFFFFFFFFF AND DUP2 MSTORE PUSH1 0x20 ADD SWAP1 DUP2 MSTORE PUSH1 0x20 ADD PUSH0 KECCAK256 PUSH1 0x1 ADD PUSH0 SWAP1 SLOAD SWAP1 PUSH2 0x100 EXP SWAP1 DIV PUSH20 0xFFFFFFFFFFFFFFFFFFFFFFFFFFFFFFFFFFFFFFFF AND PUSH20 0xFFFFFFFFFFFFFFFFFFFFFFFFFFFFFFFFFFFFFFFF AND SUB PUSH2 0xFAC JUMPI PUSH1 0x40 MLOAD PUSH32 0x8C379A000000000000000000000000000000000000000000000000000000000 DUP2 MSTORE PUSH1 0x4 ADD PUSH2 0xFA3 SWAP1 PUSH2 0x36EC JUMP JUMPDEST PUSH1 0x40 MLOAD DUP1 SWAP2 SUB SWAP1 REVERT JUMPDEST PUSH1 0x3 PUSH0 CALLER PUSH20 0xFFFFFFFFFFFFFFFFFFFFFFFFFFFFFFFFFFFFFFFF AND PUSH20 0xFFFFFFFFFFFFFFFFFFFFFFFFFFFFFFFFFFFFFFFF AND DUP2 MSTORE PUSH1 0x20 ADD SWAP1 DUP2 MSTORE PUSH1 0x20 ADD PUSH0 KECCAK256 PUSH1 0x40 MLOAD DUP1 PUSH1 0xA0 ADD PUSH1 0x40 MSTORE SWAP1 DUP2 PUSH0 DUP3 ADD DUP1 SLOAD PUSH2 0x1003 SWAP1 PUSH2 0x2F49 JUMP JUMPDEST DUP1 PUSH1 0x1F ADD PUSH1 0x20 DUP1 SWAP2 DIV MUL PUSH1 0x20 ADD PUSH1 0x40 MLOAD SWAP1 DUP2 ADD PUSH1 0x40 MSTORE DUP1 SWAP3 SWAP2 SWAP1 DUP2 DUP2 MSTORE PUSH1 0x20 ADD DUP3 DUP1 SLOAD PUSH2 0x102F SWAP1 PUSH2 0x2F49 JUMP JUMPDEST DUP1 ISZERO PUSH2 0x107A JUMPI DUP1 PUSH1 0x1F LT PUSH2 0x1051 JUMPI PUSH2 0x100 DUP1 DUP4 SLOAD DIV MUL DUP4 MSTORE SWAP2 PUSH1 0x20 ADD SWAP2 PUSH2 0x107A JUMP JUMPDEST DUP3 ADD SWAP2 SWAP1 PUSH0 MSTORE PUSH1 0x20 PUSH0 KECCAK256 SWAP1 JUMPDEST DUP2 SLOAD DUP2 MSTORE SWAP1 PUSH1 0x1 ADD SWAP1 PUSH1 0x20 ADD DUP1 DUP4 GT PUSH2 0x105D JUMPI DUP3 SWAP1 SUB PUSH1 0x1F AND DUP3 ADD SWAP2 JUMPDEST POP POP POP POP POP DUP2 MSTORE PUSH1 0x20 ADD PUSH1 0x1 DUP3 ADD DUP1 SLOAD PUSH2 0x1093 SWAP1 PUSH2 0x2F49 JUMP JUMPDEST DUP1 PUSH1 0x1F ADD PUSH1 0x20 DUP1 SWAP2 DIV MUL PUSH1 0x20 ADD PUSH1 0x40 MLOAD SWAP1 DUP2 ADD PUSH1 0x40 MSTORE DUP1 SWAP3 SWAP2 SWAP1 DUP2 DUP2 MSTORE PUSH1 0x20 ADD DUP3 DUP1 SLOAD PUSH2 0x10BF SWAP1 PUSH2 0x2F49 JUMP JUMPDEST DUP1 ISZERO PUSH2 0x110A JUMPI DUP1 PUSH1 0x1F LT PUSH2 0x10E1 JUMPI PUSH2 0x100 DUP1 DUP4 SLOAD DIV MUL DUP4 MSTORE SWAP2 PUSH1 0x20 ADD SWAP2 PUSH2 0x110A JUMP JUMPDEST DUP3 ADD SWAP2 SWAP1 PUSH0 MSTORE PUSH1 0x20 PUSH0 KECCAK256 SWAP1 JUMPDEST DUP2 SLOAD DUP2 MSTORE SWAP1 PUSH1 0x1 ADD SWAP1 PUSH1 0x20 ADD DUP1 DUP4 GT PUSH2 0x10ED JUMPI DUP3 SWAP1 SUB PUSH1 0x1F AND DUP3 ADD SWAP2 JUMPDEST POP POP POP POP POP DUP2 MSTORE PUSH1 0x20 ADD PUSH1 0x2 DUP3 ADD DUP1 SLOAD PUSH2 0x1123 SWAP1 PUSH2 0x2F49 JUMP JUMPDEST DUP1 PUSH1 0x1F ADD PUSH1 0x20 DUP1 SWAP2 DIV MUL PUSH1 0x20 ADD PUSH1 0x40 MLOAD SWAP1 DUP2 ADD PUSH1 0x40 MSTORE DUP1 SWAP3 SWAP2 SWAP1 DUP2 DUP2 MSTORE PUSH1 0x20 ADD DUP3 DUP1 SLOAD PUSH2 0x114F SWAP1 PUSH2 0x2F49 JUMP JUMPDEST DUP1 ISZERO PUSH2 0x119A JUMPI DUP1 PUSH1 0x1F LT PUSH2 0x1171 JUMPI PUSH2 0x100 DUP1 DUP4 SLOAD DIV MUL DUP4 MSTORE SWAP2 PUSH1 0x20 ADD SWAP2 PUSH2 0x119A JUMP JUMPDEST DUP3 ADD SWAP2 SWAP1 PUSH0 MSTORE PUSH1 0x20 PUSH0 KECCAK256 SWAP1 JUMPDEST DUP2 SLOAD DUP2 MSTORE SWAP1 PUSH1 0x1 ADD SWAP1 PUSH1 0x20 ADD DUP1 DUP4 GT PUSH2 0x117D JUMPI DUP3 SWAP1 SUB PUSH1 0x1F AND DUP3 ADD SWAP2 JUMPDEST POP POP POP POP POP DUP2 MSTORE PUSH1 0x20 ADD PUSH1 0x3 DUP3 ADD SLOAD DUP2 MSTORE PUSH1 0x20 ADD PUSH1 0x4 DUP3 ADD SLOAD DUP2 MSTORE POP POP SWAP1 POP SWAP1 JUMP JUMPDEST PUSH0 DUP1 PUSH20 0xFFFFFFFFFFFFFFFFFFFFFFFFFFFFFFFFFFFFFFFF AND PUSH0 DUP1 DUP7 PUSH20 0xFFFFFFFFFFFFFFFFFFFFFFFFFFFFFFFFFFFFFFFF AND PUSH20 0xFFFFFFFFFFFFFFFFFFFFFFFFFFFFFFFFFFFFFFFF AND DUP2 MSTORE PUSH1 0x20 ADD SWAP1 DUP2 MSTORE PUSH1 0x20 ADD PUSH0 KECCAK256 PUSH1 0x1 ADD PUSH0 SWAP1 SLOAD SWAP1 PUSH2 0x100 EXP SWAP1 DIV PUSH20 0xFFFFFFFFFFFFFFFFFFFFFFFFFFFFFFFFFFFFFFFF AND PUSH20 0xFFFFFFFFFFFFFFFFFFFFFFFFFFFFFFFFFFFFFFFF AND SUB PUSH2 0x1289 JUMPI PUSH1 0x40 MLOAD PUSH32 0x8C379A000000000000000000000000000000000000000000000000000000000 DUP2 MSTORE PUSH1 0x4 ADD PUSH2 0x1280 SWAP1 PUSH2 0x2DC6 JUMP JUMPDEST PUSH1 0x40 MLOAD DUP1 SWAP2 SUB SWAP1 REVERT JUMPDEST PUSH0 PUSH1 0x1 PUSH0 DUP7 PUSH20 0xFFFFFFFFFFFFFFFFFFFFFFFFFFFFFFFFFFFFFFFF AND PUSH20 0xFFFFFFFFFFFFFFFFFFFFFFFFFFFFFFFFFFFFFFFF AND DUP2 MSTORE PUSH1 0x20 ADD SWAP1 DUP2 MSTORE PUSH1 0x20 ADD PUSH0 KECCAK256 DUP1 SLOAD PUSH2 0x12D2 SWAP1 PUSH2 0x2F49 JUMP JUMPDEST SWAP1 POP GT PUSH2 0x1314 JUMPI PUSH1 0x40 MLOAD PUSH32 0x8C379A000000000000000000000000000000000000000000000000000000000 DUP2 MSTORE PUSH1 0x4 ADD PUSH2 0x130B SWAP1 PUSH2 0x377A JUMP JUMPDEST PUSH1 0x40 MLOAD DUP1 SWAP2 SUB SWAP1 REVERT JUMPDEST PUSH0 DUP4 PUSH1 0x40 MLOAD PUSH1 0x20 ADD PUSH2 0x1326 SWAP2 SWAP1 PUSH2 0x3798 JUMP JUMPDEST PUSH1 0x40 MLOAD PUSH1 0x20 DUP2 DUP4 SUB SUB DUP2 MSTORE SWAP1 PUSH1 0x40 MSTORE DUP1 MLOAD SWAP1 PUSH1 0x20 ADD KECCAK256 PUSH1 0x1 PUSH0 DUP8 PUSH20 0xFFFFFFFFFFFFFFFFFFFFFFFFFFFFFFFFFFFFFFFF AND PUSH20 0xFFFFFFFFFFFFFFFFFFFFFFFFFFFFFFFFFFFFFFFF AND DUP2 MSTORE PUSH1 0x20 ADD SWAP1 DUP2 MSTORE PUSH1 0x20 ADD PUSH0 KECCAK256 PUSH1 0x40 MLOAD PUSH1 0x20 ADD PUSH2 0x1389 SWAP2 SWAP1 PUSH2 0x382E JUMP JUMPDEST PUSH1 0x40 MLOAD PUSH1 0x20 DUP2 DUP4 SUB SUB DUP2 MSTORE SWAP1 PUSH1 0x40 MSTORE DUP1 MLOAD SWAP1 PUSH1 0x20 ADD KECCAK256 EQ SWAP1 POP PUSH0 DUP1 JUMPDEST PUSH1 0x4 PUSH0 DUP9 PUSH20 0xFFFFFFFFFFFFFFFFFFFFFFFFFFFFFFFFFFFFFFFF AND PUSH20 0xFFFFFFFFFFFFFFFFFFFFFFFFFFFFFFFFFFFFFFFF AND DUP2 MSTORE PUSH1 0x20 ADD SWAP1 DUP2 MSTORE PUSH1 0x20 ADD PUSH0 KECCAK256 DUP1 SLOAD SWAP1 POP DUP2 LT ISZERO PUSH2 0x1567 JUMPI DUP5 PUSH20 0xFFFFFFFFFFFFFFFFFFFFFFFFFFFFFFFFFFFFFFFF AND PUSH1 0x4 PUSH0 DUP10 PUSH20 0xFFFFFFFFFFFFFFFFFFFFFFFFFFFFFFFFFFFFFFFF AND PUSH20 0xFFFFFFFFFFFFFFFFFFFFFFFFFFFFFFFFFFFFFFFF AND DUP2 MSTORE PUSH1 0x20 ADD SWAP1 DUP2 MSTORE PUSH1 0x20 ADD PUSH0 KECCAK256 DUP3 DUP2 SLOAD DUP2 LT PUSH2 0x1453 JUMPI PUSH2 0x1452 PUSH2 0x3675 JUMP JUMPDEST JUMPDEST SWAP1 PUSH0 MSTORE PUSH1 0x20 PUSH0 KECCAK256 SWAP1 PUSH1 0x6 MUL ADD PUSH0 ADD PUSH0 SWAP1 SLOAD SWAP1 PUSH2 0x100 EXP SWAP1 DIV PUSH20 0xFFFFFFFFFFFFFFFFFFFFFFFFFFFFFFFFFFFFFFFF AND PUSH20 0xFFFFFFFFFFFFFFFFFFFFFFFFFFFFFFFFFFFFFFFF AND EQ DUP1 ISZERO PUSH2 0x154C JUMPI POP DUP6 PUSH1 0x40 MLOAD PUSH1 0x20 ADD PUSH2 0x14B0 SWAP2 SWAP1 PUSH2 0x3798 JUMP JUMPDEST PUSH1 0x40 MLOAD PUSH1 0x20 DUP2 DUP4 SUB SUB DUP2 MSTORE SWAP1 PUSH1 0x40 MSTORE DUP1 MLOAD SWAP1 PUSH1 0x20 ADD KECCAK256 PUSH1 0x4 PUSH0 DUP10 PUSH20 0xFFFFFFFFFFFFFFFFFFFFFFFFFFFFFFFFFFFFFFFF AND PUSH20 0xFFFFFFFFFFFFFFFFFFFFFFFFFFFFFFFFFFFFFFFF AND DUP2 MSTORE PUSH1 0x20 ADD SWAP1 DUP2 MSTORE PUSH1 0x20 ADD PUSH0 KECCAK256 DUP3 DUP2 SLOAD DUP2 LT PUSH2 0x1515 JUMPI PUSH2 0x1514 PUSH2 0x3675 JUMP JUMPDEST JUMPDEST SWAP1 PUSH0 MSTORE PUSH1 0x20 PUSH0 KECCAK256 SWAP1 PUSH1 0x6 MUL ADD PUSH1 0x1 ADD PUSH1 0x40 MLOAD PUSH1 0x20 ADD PUSH2 0x1534 SWAP2 SWAP1 PUSH2 0x382E JUMP JUMPDEST PUSH1 0x40 MLOAD PUSH1 0x20 DUP2 DUP4 SUB SUB DUP2 MSTORE SWAP1 PUSH1 0x40 MSTORE DUP1 MLOAD SWAP1 PUSH1 0x20 ADD KECCAK256 EQ JUMPDEST ISZERO PUSH2 0x155A JUMPI PUSH1 0x1 SWAP2 POP PUSH2 0x1567 JUMP JUMPDEST DUP1 DUP1 PUSH1 0x1 ADD SWAP2 POP POP PUSH2 0x13A5 JUMP JUMPDEST POP DUP2 DUP1 ISZERO PUSH2 0x1572 JUMPI POP DUP1 JUMPDEST SWAP3 POP POP POP SWAP4 SWAP3 POP POP POP JUMP JUMPDEST PUSH0 PUSH20 0xFFFFFFFFFFFFFFFFFFFFFFFFFFFFFFFFFFFFFFFF AND PUSH0 DUP1 CALLER PUSH20 0xFFFFFFFFFFFFFFFFFFFFFFFFFFFFFFFFFFFFFFFF AND PUSH20 0xFFFFFFFFFFFFFFFFFFFFFFFFFFFFFFFFFFFFFFFF AND DUP2 MSTORE PUSH1 0x20 ADD SWAP1 DUP2 MSTORE PUSH1 0x20 ADD PUSH0 KECCAK256 PUSH1 0x1 ADD PUSH0 SWAP1 SLOAD SWAP1 PUSH2 0x100 EXP SWAP1 DIV PUSH20 0xFFFFFFFFFFFFFFFFFFFFFFFFFFFFFFFFFFFFFFFF AND PUSH20 0xFFFFFFFFFFFFFFFFFFFFFFFFFFFFFFFFFFFFFFFF AND SUB PUSH2 0x1649 JUMPI PUSH1 0x40 MLOAD PUSH32 0x8C379A000000000000000000000000000000000000000000000000000000000 DUP2 MSTORE PUSH1 0x4 ADD PUSH2 0x1640 SWAP1 PUSH2 0x3423 JUMP JUMPDEST PUSH1 0x40 MLOAD DUP1 SWAP2 SUB SWAP1 REVERT JUMPDEST PUSH1 0x5 PUSH0 DUP5 PUSH20 0xFFFFFFFFFFFFFFFFFFFFFFFFFFFFFFFFFFFFFFFF AND PUSH20 0xFFFFFFFFFFFFFFFFFFFFFFFFFFFFFFFFFFFFFFFF AND DUP2 MSTORE PUSH1 0x20 ADD SWAP1 DUP2 MSTORE PUSH1 0x20 ADD PUSH0 KECCAK256 DUP1 SLOAD SWAP1 POP DUP3 LT PUSH2 0x16CB JUMPI PUSH1 0x40 MLOAD PUSH32 0x8C379A000000000000000000000000000000000000000000000000000000000 DUP2 MSTORE PUSH1 0x4 ADD PUSH2 0x16C2 SWAP1 PUSH2 0x388E JUMP JUMPDEST PUSH1 0x40 MLOAD DUP1 SWAP2 SUB SWAP1 REVERT JUMPDEST PUSH1 0x5 PUSH0 DUP5 PUSH20 0xFFFFFFFFFFFFFFFFFFFFFFFFFFFFFFFFFFFFFFFF AND PUSH20 0xFFFFFFFFFFFFFFFFFFFFFFFFFFFFFFFFFFFFFFFF AND DUP2 MSTORE PUSH1 0x20 ADD SWAP1 DUP2 MSTORE PUSH1 0x20 ADD PUSH0 KECCAK256 DUP3 DUP2 SLOAD DUP2 LT PUSH2 0x171A JUMPI PUSH2 0x1719 PUSH2 0x3675 JUMP JUMPDEST JUMPDEST SWAP1 PUSH0 MSTORE PUSH1 0x20 PUSH0 KECCAK256 SWAP1 PUSH1 0x4 MUL ADD PUSH1 0x3 ADD PUSH0 SWAP1 SLOAD SWAP1 PUSH2 0x100 EXP SWAP1 DIV PUSH1 0xFF AND ISZERO PUSH2 0x1776 JUMPI PUSH1 0x40 MLOAD PUSH32 0x8C379A000000000000000000000000000000000000000000000000000000000 DUP2 MSTORE PUSH1 0x4 ADD PUSH2 0x176D SWAP1 PUSH2 0x38F6 JUMP JUMPDEST PUSH1 0x40 MLOAD DUP1 SWAP2 SUB SWAP1 REVERT JUMPDEST DUP1 PUSH1 0x5 PUSH0 DUP6 PUSH20 0xFFFFFFFFFFFFFFFFFFFFFFFFFFFFFFFFFFFFFFFF AND PUSH20 0xFFFFFFFFFFFFFFFFFFFFFFFFFFFFFFFFFFFFFFFF AND DUP2 MSTORE PUSH1 0x20 ADD SWAP1 DUP2 MSTORE PUSH1 0x20 ADD PUSH0 KECCAK256 DUP4 DUP2 SLOAD DUP2 LT PUSH2 0x17C6 JUMPI PUSH2 0x17C5 PUSH2 0x3675 JUMP JUMPDEST JUMPDEST SWAP1 PUSH0 MSTORE PUSH1 0x20 PUSH0 KECCAK256 SWAP1 PUSH1 0x4 MUL ADD PUSH1 0x2 ADD DUP2 SWAP1 SSTORE POP PUSH1 0x1 PUSH1 0x5 PUSH0 DUP6 PUSH20 0xFFFFFFFFFFFFFFFFFFFFFFFFFFFFFFFFFFFFFFFF AND PUSH20 0xFFFFFFFFFFFFFFFFFFFFFFFFFFFFFFFFFFFFFFFF AND DUP2 MSTORE PUSH1 0x20 ADD SWAP1 DUP2 MSTORE PUSH1 0x20 ADD PUSH0 KECCAK256 DUP4 DUP2 SLOAD DUP2 LT PUSH2 0x182A JUMPI PUSH2 0x1829 PUSH2 0x3675 JUMP JUMPDEST JUMPDEST SWAP1 PUSH0 MSTORE PUSH1 0x20 PUSH0 KECCAK256 SWAP1 PUSH1 0x4 MUL ADD PUSH1 0x3 ADD PUSH0 PUSH2 0x100 EXP DUP2 SLOAD DUP2 PUSH1 0xFF MUL NOT AND SWAP1 DUP4 ISZERO ISZERO MUL OR SWAP1 SSTORE POP DUP1 PUSH1 0x3 PUSH0 DUP6 PUSH20 0xFFFFFFFFFFFFFFFFFFFFFFFFFFFFFFFFFFFFFFFF AND PUSH20 0xFFFFFFFFFFFFFFFFFFFFFFFFFFFFFFFFFFFFFFFF AND DUP2 MSTORE PUSH1 0x20 ADD SWAP1 DUP2 MSTORE PUSH1 0x20 ADD PUSH0 KECCAK256 PUSH1 0x4 ADD DUP2 SWAP1 SSTORE POP DUP3 PUSH20 0xFFFFFFFFFFFFFFFFFFFFFFFFFFFFFFFFFFFFFFFF AND PUSH32 0x209C5757F1301FD786E1870F9A0A61AEE25AF7D7B1A9C3940A421B72B68CAE26 DUP3 TIMESTAMP PUSH1 0x40 MLOAD PUSH2 0x18DC SWAP3 SWAP2 SWAP1 PUSH2 0x3914 JUMP JUMPDEST PUSH1 0x40 MLOAD DUP1 SWAP2 SUB SWAP1 LOG2 POP POP POP JUMP JUMPDEST PUSH0 PUSH20 0xFFFFFFFFFFFFFFFFFFFFFFFFFFFFFFFFFFFFFFFF AND PUSH0 DUP1 CALLER PUSH20 0xFFFFFFFFFFFFFFFFFFFFFFFFFFFFFFFFFFFFFFFF AND PUSH20 0xFFFFFFFFFFFFFFFFFFFFFFFFFFFFFFFFFFFFFFFF AND DUP2 MSTORE PUSH1 0x20 ADD SWAP1 DUP2 MSTORE PUSH1 0x20 ADD PUSH0 KECCAK256 PUSH1 0x1 ADD PUSH0 SWAP1 SLOAD SWAP1 PUSH2 0x100 EXP SWAP1 DIV PUSH20 0xFFFFFFFFFFFFFFFFFFFFFFFFFFFFFFFFFFFFFFFF AND PUSH20 0xFFFFFFFFFFFFFFFFFFFFFFFFFFFFFFFFFFFFFFFF AND SUB PUSH2 0x19B5 JUMPI PUSH1 0x40 MLOAD PUSH32 0x8C379A000000000000000000000000000000000000000000000000000000000 DUP2 MSTORE PUSH1 0x4 ADD PUSH2 0x19AC SWAP1 PUSH2 0x3423 JUMP JUMPDEST PUSH1 0x40 MLOAD DUP1 SWAP2 SUB SWAP1 REVERT JUMPDEST PUSH0 DUP2 MLOAD GT PUSH2 0x19F8 JUMPI PUSH1 0x40 MLOAD PUSH32 0x8C379A000000000000000000000000000000000000000000000000000000000 DUP2 MSTORE PUSH1 0x4 ADD PUSH2 0x19EF SWAP1 PUSH2 0x348B JUMP JUMPDEST PUSH1 0x40 MLOAD DUP1 SWAP2 SUB SWAP1 REVERT JUMPDEST DUP1 PUSH1 0x1 PUSH0 DUP5 PUSH20 0xFFFFFFFFFFFFFFFFFFFFFFFFFFFFFFFFFFFFFFFF AND PUSH20 0xFFFFFFFFFFFFFFFFFFFFFFFFFFFFFFFFFFFFFFFF AND DUP2 MSTORE PUSH1 0x20 ADD SWAP1 DUP2 MSTORE PUSH1 0x20 ADD PUSH0 KECCAK256 SWAP1 DUP2 PUSH2 0x1A42 SWAP2 SWAP1 PUSH2 0x3116 JUMP JUMPDEST POP PUSH1 0x2 PUSH0 DUP4 PUSH20 0xFFFFFFFFFFFFFFFFFFFFFFFFFFFFFFFFFFFFFFFF AND PUSH20 0xFFFFFFFFFFFFFFFFFFFFFFFFFFFFFFFFFFFFFFFF AND DUP2 MSTORE PUSH1 0x20 ADD SWAP1 DUP2 MSTORE PUSH1 0x20 ADD PUSH0 KECCAK256 DUP2 SWAP1 DUP1 PUSH1 0x1 DUP2 SLOAD ADD DUP1 DUP3 SSTORE DUP1 SWAP2 POP POP PUSH1 0x1 SWAP1 SUB SWAP1 PUSH0 MSTORE PUSH1 0x20 PUSH0 KECCAK256 ADD PUSH0 SWAP1 SWAP2 SWAP1 SWAP2 SWAP1 SWAP2 POP SWAP1 DUP2 PUSH2 0x1AAF SWAP2 SWAP1 PUSH2 0x3116 JUMP JUMPDEST POP DUP2 PUSH20 0xFFFFFFFFFFFFFFFFFFFFFFFFFFFFFFFFFFFFFFFF AND PUSH32 0x955A8164E26D3082026A4713BBCC2102183CD483CCF49D50CC35FB4E97D540D0 DUP3 PUSH1 0x40 MLOAD PUSH2 0x1AF6 SWAP2 SWAP1 PUSH2 0x2B37 JUMP JUMPDEST PUSH1 0x40 MLOAD DUP1 SWAP2 SUB SWAP1 LOG2 POP POP JUMP JUMPDEST PUSH1 0x60 PUSH0 PUSH20 0xFFFFFFFFFFFFFFFFFFFFFFFFFFFFFFFFFFFFFFFF AND PUSH0 DUP1 CALLER PUSH20 0xFFFFFFFFFFFFFFFFFFFFFFFFFFFFFFFFFFFFFFFF AND PUSH20 0xFFFFFFFFFFFFFFFFFFFFFFFFFFFFFFFFFFFFFFFF AND DUP2 MSTORE PUSH1 0x20 ADD SWAP1 DUP2 MSTORE PUSH1 0x20 ADD PUSH0 KECCAK256 PUSH1 0x1 ADD PUSH0 SWAP1 SLOAD SWAP1 PUSH2 0x100 EXP SWAP1 DIV PUSH20 0xFFFFFFFFFFFFFFFFFFFFFFFFFFFFFFFFFFFFFFFF AND PUSH20 0xFFFFFFFFFFFFFFFFFFFFFFFFFFFFFFFFFFFFFFFF AND SUB PUSH2 0x1BD0 JUMPI PUSH1 0x40 MLOAD PUSH32 0x8C379A000000000000000000000000000000000000000000000000000000000 DUP2 MSTORE PUSH1 0x4 ADD PUSH2 0x1BC7 SWAP1 PUSH2 0x2DC6 JUMP JUMPDEST PUSH1 0x40 MLOAD DUP1 SWAP2 SUB SWAP1 REVERT JUMPDEST PUSH0 DUP1 CALLER PUSH20 0xFFFFFFFFFFFFFFFFFFFFFFFFFFFFFFFFFFFFFFFF AND PUSH20 0xFFFFFFFFFFFFFFFFFFFFFFFFFFFFFFFFFFFFFFFF AND DUP2 MSTORE PUSH1 0x20 ADD SWAP1 DUP2 MSTORE PUSH1 0x20 ADD PUSH0 KECCAK256 PUSH0 ADD DUP1 SLOAD PUSH2 0x1C19 SWAP1 PUSH2 0x2F49 JUMP JUMPDEST DUP1 PUSH1 0x1F ADD PUSH1 0x20 DUP1 SWAP2 DIV MUL PUSH1 0x20 ADD PUSH1 0x40 MLOAD SWAP1 DUP2 ADD PUSH1 0x40 MSTORE DUP1 SWAP3 SWAP2 SWAP1 DUP2 DUP2 MSTORE PUSH1 0x20 ADD DUP3 DUP1 SLOAD PUSH2 0x1C45 SWAP1 PUSH2 0x2F49 JUMP JUMPDEST DUP1 ISZERO PUSH2 0x1C90 JUMPI DUP1 PUSH1 0x1F LT PUSH2 0x1C67 JUMPI PUSH2 0x100 DUP1 DUP4 SLOAD DIV MUL DUP4 MSTORE SWAP2 PUSH1 0x20 ADD SWAP2 PUSH2 0x1C90 JUMP JUMPDEST DUP3 ADD SWAP2 SWAP1 PUSH0 MSTORE PUSH1 0x20 PUSH0 KECCAK256 SWAP1 JUMPDEST DUP2 SLOAD DUP2 MSTORE SWAP1 PUSH1 0x1 ADD SWAP1 PUSH1 0x20 ADD DUP1 DUP4 GT PUSH2 0x1C73 JUMPI DUP3 SWAP1 SUB PUSH1 0x1F AND DUP3 ADD SWAP2 JUMPDEST POP POP POP POP POP SWAP1 POP SWAP1 JUMP JUMPDEST PUSH0 PUSH20 0xFFFFFFFFFFFFFFFFFFFFFFFFFFFFFFFFFFFFFFFF AND PUSH0 DUP1 CALLER PUSH20 0xFFFFFFFFFFFFFFFFFFFFFFFFFFFFFFFFFFFFFFFF AND PUSH20 0xFFFFFFFFFFFFFFFFFFFFFFFFFFFFFFFFFFFFFFFF AND DUP2 MSTORE PUSH1 0x20 ADD SWAP1 DUP2 MSTORE PUSH1 0x20 ADD PUSH0 KECCAK256 PUSH1 0x1 ADD PUSH0 SWAP1 SLOAD SWAP1 PUSH2 0x100 EXP SWAP1 DIV PUSH20 0xFFFFFFFFFFFFFFFFFFFFFFFFFFFFFFFFFFFFFFFF AND PUSH20 0xFFFFFFFFFFFFFFFFFFFFFFFFFFFFFFFFFFFFFFFF AND SUB PUSH2 0x1D66 JUMPI PUSH1 0x40 MLOAD PUSH32 0x8C379A000000000000000000000000000000000000000000000000000000000 DUP2 MSTORE PUSH1 0x4 ADD PUSH2 0x1D5D SWAP1 PUSH2 0x2DC6 JUMP JUMPDEST PUSH1 0x40 MLOAD DUP1 SWAP2 SUB SWAP1 REVERT JUMPDEST PUSH0 DUP2 MLOAD GT PUSH2 0x1DA9 JUMPI PUSH1 0x40 MLOAD PUSH32 0x8C379A000000000000000000000000000000000000000000000000000000000 DUP2 MSTORE PUSH1 0x4 ADD PUSH2 0x1DA0 SWAP1 PUSH2 0x3985 JUMP JUMPDEST PUSH1 0x40 MLOAD DUP1 SWAP2 SUB SWAP1 REVERT JUMPDEST PUSH1 0x5 PUSH0 CALLER PUSH20 0xFFFFFFFFFFFFFFFFFFFFFFFFFFFFFFFFFFFFFFFF AND PUSH20 0xFFFFFFFFFFFFFFFFFFFFFFFFFFFFFFFFFFFFFFFF AND DUP2 MSTORE PUSH1 0x20 ADD SWAP1 DUP2 MSTORE PUSH1 0x20 ADD PUSH0 KECCAK256 PUSH1 0x40 MLOAD DUP1 PUSH1 0x80 ADD PUSH1 0x40 MSTORE DUP1 DUP4 DUP2 MSTORE PUSH1 0x20 ADD TIMESTAMP DUP2 MSTORE PUSH1 0x20 ADD PUSH0 DUP2 MSTORE PUSH1 0x20 ADD PUSH0 ISZERO ISZERO DUP2 MSTORE POP SWAP1 DUP1 PUSH1 0x1 DUP2 SLOAD ADD DUP1 DUP3 SSTORE DUP1 SWAP2 POP POP PUSH1 0x1 SWAP1 SUB SWAP1 PUSH0 MSTORE PUSH1 0x20 PUSH0 KECCAK256 SWAP1 PUSH1 0x4 MUL ADD PUSH0 SWAP1 SWAP2 SWAP1 SWAP2 SWAP1 SWAP2 POP PUSH0 DUP3 ADD MLOAD DUP2 PUSH0 ADD SWAP1 DUP2 PUSH2 0x1E42 SWAP2 SWAP1 PUSH2 0x3116 JUMP JUMPDEST POP PUSH1 0x20 DUP3 ADD MLOAD DUP2 PUSH1 0x1 ADD SSTORE PUSH1 0x40 DUP3 ADD MLOAD DUP2 PUSH1 0x2 ADD SSTORE PUSH1 0x60 DUP3 ADD MLOAD DUP2 PUSH1 0x3 ADD PUSH0 PUSH2 0x100 EXP DUP2 SLOAD DUP2 PUSH1 0xFF MUL NOT AND SWAP1 DUP4 ISZERO ISZERO MUL OR SWAP1 SSTORE POP POP POP PUSH1 0x1 PUSH1 0x3 PUSH0 CALLER PUSH20 0xFFFFFFFFFFFFFFFFFFFFFFFFFFFFFFFFFFFFFFFF AND PUSH20 0xFFFFFFFFFFFFFFFFFFFFFFFFFFFFFFFFFFFFFFFF AND DUP2 MSTORE PUSH1 0x20 ADD SWAP1 DUP2 MSTORE PUSH1 0x20 ADD PUSH0 KECCAK256 PUSH1 0x3 ADD PUSH0 DUP3 DUP3 SLOAD PUSH2 0x1EC8 SWAP2 SWAP1 PUSH2 0x39D0 JUMP JUMPDEST SWAP3 POP POP DUP2 SWAP1 SSTORE POP CALLER PUSH20 0xFFFFFFFFFFFFFFFFFFFFFFFFFFFFFFFFFFFFFFFF AND PUSH32 0x6253DA222CB28E9028C656200E285440D573C04AAD5CE44901C38E3836276EFE DUP3 TIMESTAMP PUSH1 0x40 MLOAD PUSH2 0x1F17 SWAP3 SWAP2 SWAP1 PUSH2 0x3A03 JUMP JUMPDEST PUSH1 0x40 MLOAD DUP1 SWAP2 SUB SWAP1 LOG2 POP JUMP JUMPDEST PUSH1 0x60 PUSH0 PUSH20 0xFFFFFFFFFFFFFFFFFFFFFFFFFFFFFFFFFFFFFFFF AND PUSH0 DUP1 CALLER PUSH20 0xFFFFFFFFFFFFFFFFFFFFFFFFFFFFFFFFFFFFFFFF AND PUSH20 0xFFFFFFFFFFFFFFFFFFFFFFFFFFFFFFFFFFFFFFFF AND DUP2 MSTORE PUSH1 0x20 ADD SWAP1 DUP2 MSTORE PUSH1 0x20 ADD PUSH0 KECCAK256 PUSH1 0x1 ADD PUSH0 SWAP1 SLOAD SWAP1 PUSH2 0x100 EXP SWAP1 DIV PUSH20 0xFFFFFFFFFFFFFFFFFFFFFFFFFFFFFFFFFFFFFFFF AND PUSH20 0xFFFFFFFFFFFFFFFFFFFFFFFFFFFFFFFFFFFFFFFF AND SUB PUSH2 0x1FF0 JUMPI PUSH1 0x40 MLOAD PUSH32 0x8C379A000000000000000000000000000000000000000000000000000000000 DUP2 MSTORE PUSH1 0x4 ADD PUSH2 0x1FE7 SWAP1 PUSH2 0x2DC6 JUMP JUMPDEST PUSH1 0x40 MLOAD DUP1 SWAP2 SUB SWAP1 REVERT JUMPDEST PUSH1 0x5 PUSH0 CALLER PUSH20 0xFFFFFFFFFFFFFFFFFFFFFFFFFFFFFFFFFFFFFFFF AND PUSH20 0xFFFFFFFFFFFFFFFFFFFFFFFFFFFFFFFFFFFFFFFF AND DUP2 MSTORE PUSH1 0x20 ADD SWAP1 DUP2 MSTORE PUSH1 0x20 ADD PUSH0 KECCAK256 DUP1 SLOAD DUP1 PUSH1 0x20 MUL PUSH1 0x20 ADD PUSH1 0x40 MLOAD SWAP1 DUP2 ADD PUSH1 0x40 MSTORE DUP1 SWAP3 SWAP2 SWAP1 DUP2 DUP2 MSTORE PUSH1 0x20 ADD PUSH0 SWAP1 JUMPDEST DUP3 DUP3 LT ISZERO PUSH2 0x2139 JUMPI DUP4 DUP3 SWAP1 PUSH0 MSTORE PUSH1 0x20 PUSH0 KECCAK256 SWAP1 PUSH1 0x4 MUL ADD PUSH1 0x40 MLOAD DUP1 PUSH1 0x80 ADD PUSH1 0x40 MSTORE SWAP1 DUP2 PUSH0 DUP3 ADD DUP1 SLOAD PUSH2 0x207C SWAP1 PUSH2 0x2F49 JUMP JUMPDEST DUP1 PUSH1 0x1F ADD PUSH1 0x20 DUP1 SWAP2 DIV MUL PUSH1 0x20 ADD PUSH1 0x40 MLOAD SWAP1 DUP2 ADD PUSH1 0x40 MSTORE DUP1 SWAP3 SWAP2 SWAP1 DUP2 DUP2 MSTORE PUSH1 0x20 ADD DUP3 DUP1 SLOAD PUSH2 0x20A8 SWAP1 PUSH2 0x2F49 JUMP JUMPDEST DUP1 ISZERO PUSH2 0x20F3 JUMPI DUP1 PUSH1 0x1F LT PUSH2 0x20CA JUMPI PUSH2 0x100 DUP1 DUP4 SLOAD DIV MUL DUP4 MSTORE SWAP2 PUSH1 0x20 ADD SWAP2 PUSH2 0x20F3 JUMP JUMPDEST DUP3 ADD SWAP2 SWAP1 PUSH0 MSTORE PUSH1 0x20 PUSH0 KECCAK256 SWAP1 JUMPDEST DUP2 SLOAD DUP2 MSTORE SWAP1 PUSH1 0x1 ADD SWAP1 PUSH1 0x20 ADD DUP1 DUP4 GT PUSH2 0x20D6 JUMPI DUP3 SWAP1 SUB PUSH1 0x1F AND DUP3 ADD SWAP2 JUMPDEST POP POP POP POP POP DUP2 MSTORE PUSH1 0x20 ADD PUSH1 0x1 DUP3 ADD SLOAD DUP2 MSTORE PUSH1 0x20 ADD PUSH1 0x2 DUP3 ADD SLOAD DUP2 MSTORE PUSH1 0x20 ADD PUSH1 0x3 DUP3 ADD PUSH0 SWAP1 SLOAD SWAP1 PUSH2 0x100 EXP SWAP1 DIV PUSH1 0xFF AND ISZERO ISZERO ISZERO ISZERO DUP2 MSTORE POP POP DUP2 MSTORE PUSH1 0x20 ADD SWAP1 PUSH1 0x1 ADD SWAP1 PUSH2 0x204C JUMP JUMPDEST POP POP POP POP SWAP1 POP SWAP1 JUMP JUMPDEST PUSH1 0x60 PUSH0 PUSH20 0xFFFFFFFFFFFFFFFFFFFFFFFFFFFFFFFFFFFFFFFF AND PUSH0 DUP1 CALLER PUSH20 0xFFFFFFFFFFFFFFFFFFFFFFFFFFFFFFFFFFFFFFFF AND PUSH20 0xFFFFFFFFFFFFFFFFFFFFFFFFFFFFFFFFFFFFFFFF AND DUP2 MSTORE PUSH1 0x20 ADD SWAP1 DUP2 MSTORE PUSH1 0x20 ADD PUSH0 KECCAK256 PUSH1 0x1 ADD PUSH0 SWAP1 SLOAD SWAP1 PUSH2 0x100 EXP SWAP1 DIV PUSH20 0xFFFFFFFFFFFFFFFFFFFFFFFFFFFFFFFFFFFFFFFF AND PUSH20 0xFFFFFFFFFFFFFFFFFFFFFFFFFFFFFFFFFFFFFFFF AND SUB PUSH2 0x2210 JUMPI PUSH1 0x40 MLOAD PUSH32 0x8C379A000000000000000000000000000000000000000000000000000000000 DUP2 MSTORE PUSH1 0x4 ADD PUSH2 0x2207 SWAP1 PUSH2 0x2DC6 JUMP JUMPDEST PUSH1 0x40 MLOAD DUP1 SWAP2 SUB SWAP1 REVERT JUMPDEST PUSH0 PUSH1 0x2 PUSH0 CALLER PUSH20 0xFFFFFFFFFFFFFFFFFFFFFFFFFFFFFFFFFFFFFFFF AND PUSH20 0xFFFFFFFFFFFFFFFFFFFFFFFFFFFFFFFFFFFFFFFF AND DUP2 MSTORE PUSH1 0x20 ADD SWAP1 DUP2 MSTORE PUSH1 0x20 ADD PUSH0 KECCAK256 DUP1 SLOAD SWAP1 POP GT PUSH2 0x2292 JUMPI PUSH1 0x40 MLOAD PUSH32 0x8C379A000000000000000000000000000000000000000000000000000000000 DUP2 MSTORE PUSH1 0x4 ADD PUSH2 0x2289 SWAP1 PUSH2 0x3A7B JUMP JUMPDEST PUSH1 0x40 MLOAD DUP1 SWAP2 SUB SWAP1 REVERT JUMPDEST PUSH1 0x2 PUSH0 CALLER PUSH20 0xFFFFFFFFFFFFFFFFFFFFFFFFFFFFFFFFFFFFFFFF AND PUSH20 0xFFFFFFFFFFFFFFFFFFFFFFFFFFFFFFFFFFFFFFFF AND DUP2 MSTORE PUSH1 0x20 ADD SWAP1 DUP2 MSTORE PUSH1 0x20 ADD PUSH0 KECCAK256 DUP1 SLOAD DUP1 PUSH1 0x20 MUL PUSH1 0x20 ADD PUSH1 0x40 MLOAD SWAP1 DUP2 ADD PUSH1 0x40 MSTORE DUP1 SWAP3 SWAP2 SWAP1 DUP2 DUP2 MSTORE PUSH1 0x20 ADD PUSH0 SWAP1 JUMPDEST DUP3 DUP3 LT ISZERO PUSH2 0x2396 JUMPI DUP4 DUP3 SWAP1 PUSH0 MSTORE PUSH1 0x20 PUSH0 KECCAK256 ADD DUP1 SLOAD PUSH2 0x230B SWAP1 PUSH2 0x2F49 JUMP JUMPDEST DUP1 PUSH1 0x1F ADD PUSH1 0x20 DUP1 SWAP2 DIV MUL PUSH1 0x20 ADD PUSH1 0x40 MLOAD SWAP1 DUP2 ADD PUSH1 0x40 MSTORE DUP1 SWAP3 SWAP2 SWAP1 DUP2 DUP2 MSTORE PUSH1 0x20 ADD DUP3 DUP1 SLOAD PUSH2 0x2337 SWAP1 PUSH2 0x2F49 JUMP JUMPDEST DUP1 ISZERO PUSH2 0x2382 JUMPI DUP1 PUSH1 0x1F LT PUSH2 0x2359 JUMPI PUSH2 0x100 DUP1 DUP4 SLOAD DIV MUL DUP4 MSTORE SWAP2 PUSH1 0x20 ADD SWAP2 PUSH2 0x2382 JUMP JUMPDEST DUP3 ADD SWAP2 SWAP1 PUSH0 MSTORE PUSH1 0x20 PUSH0 KECCAK256 SWAP1 JUMPDEST DUP2 SLOAD DUP2 MSTORE SWAP1 PUSH1 0x1 ADD SWAP1 PUSH1 0x20 ADD DUP1 DUP4 GT PUSH2 0x2365 JUMPI DUP3 SWAP1 SUB PUSH1 0x1F AND DUP3 ADD SWAP2 JUMPDEST POP POP POP POP POP DUP2 MSTORE PUSH1 0x20 ADD SWAP1 PUSH1 0x1 ADD SWAP1 PUSH2 0x22EE JUMP JUMPDEST POP POP POP POP SWAP1 POP SWAP1 JUMP JUMPDEST PUSH1 0x40 MLOAD DUP1 PUSH1 0xC0 ADD PUSH1 0x40 MSTORE DUP1 PUSH0 PUSH20 0xFFFFFFFFFFFFFFFFFFFFFFFFFFFFFFFFFFFFFFFF AND DUP2 MSTORE PUSH1 0x20 ADD PUSH1 0x60 DUP2 MSTORE PUSH1 0x20 ADD PUSH0 DUP2 MSTORE PUSH1 0x20 ADD PUSH0 DUP1 NOT AND DUP2 MSTORE PUSH1 0x20 ADD PUSH0 DUP1 NOT AND DUP2 MSTORE PUSH1 0x20 ADD PUSH0 DUP1 NOT AND DUP2 MSTORE POP SWAP1 JUMP JUMPDEST PUSH1 0x40 MLOAD DUP1 PUSH1 0xA0 ADD PUSH1 0x40 MSTORE DUP1 PUSH1 0x60 DUP2 MSTORE PUSH1 0x20 ADD PUSH1 0x60 DUP2 MSTORE PUSH1 0x20 ADD PUSH1 0x60 DUP2 MSTORE PUSH1 0x20 ADD PUSH0 DUP2 MSTORE PUSH1 0x20 ADD PUSH0 DUP2 MSTORE POP SWAP1 JUMP JUMPDEST PUSH0 PUSH1 0x40 MLOAD SWAP1 POP SWAP1 JUMP JUMPDEST PUSH0 DUP1 REVERT JUMPDEST PUSH0 DUP1 REVERT JUMPDEST PUSH0 DUP1 REVERT JUMPDEST PUSH0 DUP1 REVERT JUMPDEST PUSH0 PUSH1 0x1F NOT PUSH1 0x1F DUP4 ADD AND SWAP1 POP SWAP2 SWAP1 POP JUMP JUMPDEST PUSH32 0x4E487B7100000000000000000000000000000000000000000000000000000000 PUSH0 MSTORE PUSH1 0x41 PUSH1 0x4 MSTORE PUSH1 0x24 PUSH0 REVERT JUMPDEST PUSH2 0x247B DUP3 PUSH2 0x2435 JUMP JUMPDEST DUP2 ADD DUP2 DUP2 LT PUSH8 0xFFFFFFFFFFFFFFFF DUP3 GT OR ISZERO PUSH2 0x249A JUMPI PUSH2 0x2499 PUSH2 0x2445 JUMP JUMPDEST JUMPDEST DUP1 PUSH1 0x40 MSTORE POP POP POP JUMP JUMPDEST PUSH0 PUSH2 0x24AC PUSH2 0x241C JUMP JUMPDEST SWAP1 POP PUSH2 0x24B8 DUP3 DUP3 PUSH2 0x2472 JUMP JUMPDEST SWAP2 SWAP1 POP JUMP JUMPDEST PUSH0 PUSH8 0xFFFFFFFFFFFFFFFF DUP3 GT ISZERO PUSH2 0x24D7 JUMPI PUSH2 0x24D6 PUSH2 0x2445 JUMP JUMPDEST JUMPDEST PUSH2 0x24E0 DUP3 PUSH2 0x2435 JUMP JUMPDEST SWAP1 POP PUSH1 0x20 DUP2 ADD SWAP1 POP SWAP2 SWAP1 POP JUMP JUMPDEST DUP3 DUP2 DUP4 CALLDATACOPY PUSH0 DUP4 DUP4 ADD MSTORE POP POP POP JUMP JUMPDEST PUSH0 PUSH2 0x250D PUSH2 0x2508 DUP5 PUSH2 0x24BD JUMP JUMPDEST PUSH2 0x24A3 JUMP JUMPDEST SWAP1 POP DUP3 DUP2 MSTORE PUSH1 0x20 DUP2 ADD DUP5 DUP5 DUP5 ADD GT ISZERO PUSH2 0x2529 JUMPI PUSH2 0x2528 PUSH2 0x2431 JUMP JUMPDEST JUMPDEST PUSH2 0x2534 DUP5 DUP3 DUP6 PUSH2 0x24ED JUMP JUMPDEST POP SWAP4 SWAP3 POP POP POP JUMP JUMPDEST PUSH0 DUP3 PUSH1 0x1F DUP4 ADD SLT PUSH2 0x2550 JUMPI PUSH2 0x254F PUSH2 0x242D JUMP JUMPDEST JUMPDEST DUP2 CALLDATALOAD PUSH2 0x2560 DUP5 DUP3 PUSH1 0x20 DUP7 ADD PUSH2 0x24FB JUMP JUMPDEST SWAP2 POP POP SWAP3 SWAP2 POP POP JUMP JUMPDEST PUSH0 DUP1 PUSH0 PUSH1 0x60 DUP5 DUP7 SUB SLT ISZERO PUSH2 0x2580 JUMPI PUSH2 0x257F PUSH2 0x2425 JUMP JUMPDEST JUMPDEST PUSH0 DUP5 ADD CALLDATALOAD PUSH8 0xFFFFFFFFFFFFFFFF DUP2 GT ISZERO PUSH2 0x259D JUMPI PUSH2 0x259C PUSH2 0x2429 JUMP JUMPDEST JUMPDEST PUSH2 0x25A9 DUP7 DUP3 DUP8 ADD PUSH2 0x253C JUMP JUMPDEST SWAP4 POP POP PUSH1 0x20 DUP5 ADD CALLDATALOAD PUSH8 0xFFFFFFFFFFFFFFFF DUP2 GT ISZERO PUSH2 0x25CA JUMPI PUSH2 0x25C9 PUSH2 0x2429 JUMP JUMPDEST JUMPDEST PUSH2 0x25D6 DUP7 DUP3 DUP8 ADD PUSH2 0x253C JUMP JUMPDEST SWAP3 POP POP PUSH1 0x40 DUP5 ADD CALLDATALOAD PUSH8 0xFFFFFFFFFFFFFFFF DUP2 GT ISZERO PUSH2 0x25F7 JUMPI PUSH2 0x25F6 PUSH2 0x2429 JUMP JUMPDEST JUMPDEST PUSH2 0x2603 DUP7 DUP3 DUP8 ADD PUSH2 0x253C JUMP JUMPDEST SWAP2 POP POP SWAP3 POP SWAP3 POP SWAP3 JUMP JUMPDEST PUSH0 PUSH1 0x20 DUP3 DUP5 SUB SLT ISZERO PUSH2 0x2622 JUMPI PUSH2 0x2621 PUSH2 0x2425 JUMP JUMPDEST JUMPDEST PUSH0 DUP3 ADD CALLDATALOAD PUSH8 0xFFFFFFFFFFFFFFFF DUP2 GT ISZERO PUSH2 0x263F JUMPI PUSH2 0x263E PUSH2 0x2429 JUMP JUMPDEST JUMPDEST PUSH2 0x264B DUP5 DUP3 DUP6 ADD PUSH2 0x253C JUMP JUMPDEST SWAP2 POP POP SWAP3 SWAP2 POP POP JUMP JUMPDEST PUSH0 PUSH20 0xFFFFFFFFFFFFFFFFFFFFFFFFFFFFFFFFFFFFFFFF DUP3 AND SWAP1 POP SWAP2 SWAP1 POP JUMP JUMPDEST PUSH0 PUSH2 0x267D DUP3 PUSH2 0x2654 JUMP JUMPDEST SWAP1 POP SWAP2 SWAP1 POP JUMP JUMPDEST PUSH2 0x268D DUP2 PUSH2 0x2673 JUMP JUMPDEST DUP2 EQ PUSH2 0x2697 JUMPI PUSH0 DUP1 REVERT JUMPDEST POP JUMP JUMPDEST PUSH0 DUP2 CALLDATALOAD SWAP1 POP PUSH2 0x26A8 DUP2 PUSH2 0x2684 JUMP JUMPDEST SWAP3 SWAP2 POP POP JUMP JUMPDEST PUSH0 DUP2 SWAP1 POP SWAP2 SWAP1 POP JUMP JUMPDEST PUSH2 0x26C0 DUP2 PUSH2 0x26AE JUMP JUMPDEST DUP2 EQ PUSH2 0x26CA JUMPI PUSH0 DUP1 REVERT JUMPDEST POP JUMP JUMPDEST PUSH0 DUP2 CALLDATALOAD SWAP1 POP PUSH2 0x26DB DUP2 PUSH2 0x26B7 JUMP JUMPDEST SWAP3 SWAP2 POP POP JUMP JUMPDEST PUSH0 DUP1 PUSH0 DUP1 PUSH1 0x80 DUP6 DUP8 SUB SLT ISZERO PUSH2 0x26F9 JUMPI PUSH2 0x26F8 PUSH2 0x2425 JUMP JUMPDEST JUMPDEST PUSH0 PUSH2 0x2706 DUP8 DUP3 DUP9 ADD PUSH2 0x269A JUMP JUMPDEST SWAP5 POP POP PUSH1 0x20 DUP6 ADD CALLDATALOAD PUSH8 0xFFFFFFFFFFFFFFFF DUP2 GT ISZERO PUSH2 0x2727 JUMPI PUSH2 0x2726 PUSH2 0x2429 JUMP JUMPDEST JUMPDEST PUSH2 0x2733 DUP8 DUP3 DUP9 ADD PUSH2 0x253C JUMP JUMPDEST SWAP4 POP POP PUSH1 0x40 PUSH2 0x2744 DUP8 DUP3 DUP9 ADD PUSH2 0x26CD JUMP JUMPDEST SWAP3 POP POP PUSH1 0x60 PUSH2 0x2755 DUP8 DUP3 DUP9 ADD PUSH2 0x26CD JUMP JUMPDEST SWAP2 POP POP SWAP3 SWAP6 SWAP2 SWAP5 POP SWAP3 POP JUMP JUMPDEST PUSH0 DUP2 SWAP1 POP SWAP2 SWAP1 POP JUMP JUMPDEST PUSH2 0x2773 DUP2 PUSH2 0x2761 JUMP JUMPDEST DUP2 EQ PUSH2 0x277D JUMPI PUSH0 DUP1 REVERT JUMPDEST POP JUMP JUMPDEST PUSH0 DUP2 CALLDATALOAD SWAP1 POP PUSH2 0x278E DUP2 PUSH2 0x276A JUMP JUMPDEST SWAP3 SWAP2 POP POP JUMP JUMPDEST PUSH0 DUP1 PUSH1 0x40 DUP4 DUP6 SUB SLT ISZERO PUSH2 0x27AA JUMPI PUSH2 0x27A9 PUSH2 0x2425 JUMP JUMPDEST JUMPDEST PUSH0 PUSH2 0x27B7 DUP6 DUP3 DUP7 ADD PUSH2 0x269A JUMP JUMPDEST SWAP3 POP POP PUSH1 0x20 PUSH2 0x27C8 DUP6 DUP3 DUP7 ADD PUSH2 0x2780 JUMP JUMPDEST SWAP2 POP POP SWAP3 POP SWAP3 SWAP1 POP JUMP JUMPDEST PUSH2 0x27DB DUP2 PUSH2 0x2673 JUMP JUMPDEST DUP3 MSTORE POP POP JUMP JUMPDEST PUSH0 DUP2 MLOAD SWAP1 POP SWAP2 SWAP1 POP JUMP JUMPDEST PUSH0 DUP3 DUP3 MSTORE PUSH1 0x20 DUP3 ADD SWAP1 POP SWAP3 SWAP2 POP POP JUMP JUMPDEST DUP3 DUP2 DUP4 MCOPY PUSH0 DUP4 DUP4 ADD MSTORE POP POP POP JUMP JUMPDEST PUSH0 PUSH2 0x2813 DUP3 PUSH2 0x27E1 JUMP JUMPDEST PUSH2 0x281D DUP2 DUP6 PUSH2 0x27EB JUMP JUMPDEST SWAP4 POP PUSH2 0x282D DUP2 DUP6 PUSH1 0x20 DUP7 ADD PUSH2 0x27FB JUMP JUMPDEST PUSH2 0x2836 DUP2 PUSH2 0x2435 JUMP JUMPDEST DUP5 ADD SWAP2 POP POP SWAP3 SWAP2 POP POP JUMP JUMPDEST PUSH2 0x284A DUP2 PUSH2 0x2761 JUMP JUMPDEST DUP3 MSTORE POP POP JUMP JUMPDEST PUSH2 0x2859 DUP2 PUSH2 0x26AE JUMP JUMPDEST DUP3 MSTORE POP POP JUMP JUMPDEST PUSH0 PUSH1 0xC0 DUP4 ADD PUSH0 DUP4 ADD MLOAD PUSH2 0x2874 PUSH0 DUP7 ADD DUP3 PUSH2 0x27D2 JUMP JUMPDEST POP PUSH1 0x20 DUP4 ADD MLOAD DUP5 DUP3 SUB PUSH1 0x20 DUP7 ADD MSTORE PUSH2 0x288C DUP3 DUP3 PUSH2 0x2809 JUMP JUMPDEST SWAP2 POP POP PUSH1 0x40 DUP4 ADD MLOAD PUSH2 0x28A1 PUSH1 0x40 DUP7 ADD DUP3 PUSH2 0x2841 JUMP JUMPDEST POP PUSH1 0x60 DUP4 ADD MLOAD PUSH2 0x28B4 PUSH1 0x60 DUP7 ADD DUP3 PUSH2 0x2850 JUMP JUMPDEST POP PUSH1 0x80 DUP4 ADD MLOAD PUSH2 0x28C7 PUSH1 0x80 DUP7 ADD DUP3 PUSH2 0x2850 JUMP JUMPDEST POP PUSH1 0xA0 DUP4 ADD MLOAD PUSH2 0x28DA PUSH1 0xA0 DUP7 ADD DUP3 PUSH2 0x2850 JUMP JUMPDEST POP DUP1 SWAP2 POP POP SWAP3 SWAP2 POP POP JUMP JUMPDEST PUSH0 PUSH1 0x20 DUP3 ADD SWAP1 POP DUP2 DUP2 SUB PUSH0 DUP4 ADD MSTORE PUSH2 0x28FD DUP2 DUP5 PUSH2 0x285F JUMP JUMPDEST SWAP1 POP SWAP3 SWAP2 POP POP JUMP JUMPDEST PUSH0 PUSH1 0xA0 DUP4 ADD PUSH0 DUP4 ADD MLOAD DUP5 DUP3 SUB PUSH0 DUP7 ADD MSTORE PUSH2 0x291F DUP3 DUP3 PUSH2 0x2809 JUMP JUMPDEST SWAP2 POP POP PUSH1 0x20 DUP4 ADD MLOAD DUP5 DUP3 SUB PUSH1 0x20 DUP7 ADD MSTORE PUSH2 0x2939 DUP3 DUP3 PUSH2 0x2809 JUMP JUMPDEST SWAP2 POP POP PUSH1 0x40 DUP4 ADD MLOAD DUP5 DUP3 SUB PUSH1 0x40 DUP7 ADD MSTORE PUSH2 0x2953 DUP3 DUP3 PUSH2 0x2809 JUMP JUMPDEST SWAP2 POP POP PUSH1 0x60 DUP4 ADD MLOAD PUSH2 0x2968 PUSH1 0x60 DUP7 ADD DUP3 PUSH2 0x2841 JUMP JUMPDEST POP PUSH1 0x80 DUP4 ADD MLOAD PUSH2 0x297B PUSH1 0x80 DUP7 ADD DUP3 PUSH2 0x2841 JUMP JUMPDEST POP DUP1 SWAP2 POP POP SWAP3 SWAP2 POP POP JUMP JUMPDEST PUSH0 PUSH1 0x20 DUP3 ADD SWAP1 POP DUP2 DUP2 SUB PUSH0 DUP4 ADD MSTORE PUSH2 0x299E DUP2 DUP5 PUSH2 0x2905 JUMP JUMPDEST SWAP1 POP SWAP3 SWAP2 POP POP JUMP JUMPDEST PUSH0 DUP1 PUSH0 PUSH1 0x60 DUP5 DUP7 SUB SLT ISZERO PUSH2 0x29BD JUMPI PUSH2 0x29BC PUSH2 0x2425 JUMP JUMPDEST JUMPDEST PUSH0 PUSH2 0x29CA DUP7 DUP3 DUP8 ADD PUSH2 0x269A JUMP JUMPDEST SWAP4 POP POP PUSH1 0x20 DUP5 ADD CALLDATALOAD PUSH8 0xFFFFFFFFFFFFFFFF DUP2 GT ISZERO PUSH2 0x29EB JUMPI PUSH2 0x29EA PUSH2 0x2429 JUMP JUMPDEST JUMPDEST PUSH2 0x29F7 DUP7 DUP3 DUP8 ADD PUSH2 0x253C JUMP JUMPDEST SWAP3 POP POP PUSH1 0x40 PUSH2 0x2A08 DUP7 DUP3 DUP8 ADD PUSH2 0x269A JUMP JUMPDEST SWAP2 POP POP SWAP3 POP SWAP3 POP SWAP3 JUMP JUMPDEST PUSH0 DUP2 ISZERO ISZERO SWAP1 POP SWAP2 SWAP1 POP JUMP JUMPDEST PUSH2 0x2A26 DUP2 PUSH2 0x2A12 JUMP JUMPDEST DUP3 MSTORE POP POP JUMP JUMPDEST PUSH0 PUSH1 0x20 DUP3 ADD SWAP1 POP PUSH2 0x2A3F PUSH0 DUP4 ADD DUP5 PUSH2 0x2A1D JUMP JUMPDEST SWAP3 SWAP2 POP POP JUMP JUMPDEST PUSH0 DUP1 PUSH0 PUSH1 0x60 DUP5 DUP7 SUB SLT ISZERO PUSH2 0x2A5C JUMPI PUSH2 0x2A5B PUSH2 0x2425 JUMP JUMPDEST JUMPDEST PUSH0 PUSH2 0x2A69 DUP7 DUP3 DUP8 ADD PUSH2 0x269A JUMP JUMPDEST SWAP4 POP POP PUSH1 0x20 PUSH2 0x2A7A DUP7 DUP3 DUP8 ADD PUSH2 0x2780 JUMP JUMPDEST SWAP3 POP POP PUSH1 0x40 PUSH2 0x2A8B DUP7 DUP3 DUP8 ADD PUSH2 0x2780 JUMP JUMPDEST SWAP2 POP POP SWAP3 POP SWAP3 POP SWAP3 JUMP JUMPDEST PUSH0 DUP1 PUSH1 0x40 DUP4 DUP6 SUB SLT ISZERO PUSH2 0x2AAB JUMPI PUSH2 0x2AAA PUSH2 0x2425 JUMP JUMPDEST JUMPDEST PUSH0 PUSH2 0x2AB8 DUP6 DUP3 DUP7 ADD PUSH2 0x269A JUMP JUMPDEST SWAP3 POP POP PUSH1 0x20 DUP4 ADD CALLDATALOAD PUSH8 0xFFFFFFFFFFFFFFFF DUP2 GT ISZERO PUSH2 0x2AD9 JUMPI PUSH2 0x2AD8 PUSH2 0x2429 JUMP JUMPDEST JUMPDEST PUSH2 0x2AE5 DUP6 DUP3 DUP7 ADD PUSH2 0x253C JUMP JUMPDEST SWAP2 POP POP SWAP3 POP SWAP3 SWAP1 POP JUMP JUMPDEST PUSH0 DUP3 DUP3 MSTORE PUSH1 0x20 DUP3 ADD SWAP1 POP SWAP3 SWAP2 POP POP JUMP JUMPDEST PUSH0 PUSH2 0x2B09 DUP3 PUSH2 0x27E1 JUMP JUMPDEST PUSH2 0x2B13 DUP2 DUP6 PUSH2 0x2AEF JUMP JUMPDEST SWAP4 POP PUSH2 0x2B23 DUP2 DUP6 PUSH1 0x20 DUP7 ADD PUSH2 0x27FB JUMP JUMPDEST PUSH2 0x2B2C DUP2 PUSH2 0x2435 JUMP JUMPDEST DUP5 ADD SWAP2 POP POP SWAP3 SWAP2 POP POP JUMP JUMPDEST PUSH0 PUSH1 0x20 DUP3 ADD SWAP1 POP DUP2 DUP2 SUB PUSH0 DUP4 ADD MSTORE PUSH2 0x2B4F DUP2 DUP5 PUSH2 0x2AFF JUMP JUMPDEST SWAP1 POP SWAP3 SWAP2 POP POP JUMP JUMPDEST PUSH0 DUP2 MLOAD SWAP1 POP SWAP2 SWAP1 POP JUMP JUMPDEST PUSH0 DUP3 DUP3 MSTORE PUSH1 0x20 DUP3 ADD SWAP1 POP SWAP3 SWAP2 POP POP JUMP JUMPDEST PUSH0 DUP2 SWAP1 POP PUSH1 0x20 DUP3 ADD SWAP1 POP SWAP2 SWAP1 POP JUMP JUMPDEST PUSH2 0x2B89 DUP2 PUSH2 0x2A12 JUMP JUMPDEST DUP3 MSTORE POP POP JUMP JUMPDEST PUSH0 PUSH1 0x80 DUP4 ADD PUSH0 DUP4 ADD MLOAD DUP5 DUP3 SUB PUSH0 DUP7 ADD MSTORE PUSH2 0x2BA9 DUP3 DUP3 PUSH2 0x2809 JUMP JUMPDEST SWAP2 POP POP PUSH1 0x20 DUP4 ADD MLOAD PUSH2 0x2BBE PUSH1 0x20 DUP7 ADD DUP3 PUSH2 0x2841 JUMP JUMPDEST POP PUSH1 0x40 DUP4 ADD MLOAD PUSH2 0x2BD1 PUSH1 0x40 DUP7 ADD DUP3 PUSH2 0x2841 JUMP JUMPDEST POP PUSH1 0x60 DUP4 ADD MLOAD PUSH2 0x2BE4 PUSH1 0x60 DUP7 ADD DUP3 PUSH2 0x2B80 JUMP JUMPDEST POP DUP1 SWAP2 POP POP SWAP3 SWAP2 POP POP JUMP JUMPDEST PUSH0 PUSH2 0x2BFA DUP4 DUP4 PUSH2 0x2B8F JUMP JUMPDEST SWAP1 POP SWAP3 SWAP2 POP POP JUMP JUMPDEST PUSH0 PUSH1 0x20 DUP3 ADD SWAP1 POP SWAP2 SWAP1 POP JUMP JUMPDEST PUSH0 PUSH2 0x2C18 DUP3 PUSH2 0x2B57 JUMP JUMPDEST PUSH2 0x2C22 DUP2 DUP6 PUSH2 0x2B61 JUMP JUMPDEST SWAP4 POP DUP4 PUSH1 0x20 DUP3 MUL DUP6 ADD PUSH2 0x2C34 DUP6 PUSH2 0x2B71 JUMP JUMPDEST DUP1 PUSH0 JUMPDEST DUP6 DUP2 LT ISZERO PUSH2 0x2C6F JUMPI DUP5 DUP5 SUB DUP10 MSTORE DUP2 MLOAD PUSH2 0x2C50 DUP6 DUP3 PUSH2 0x2BEF JUMP JUMPDEST SWAP5 POP PUSH2 0x2C5B DUP4 PUSH2 0x2C02 JUMP JUMPDEST SWAP3 POP PUSH1 0x20 DUP11 ADD SWAP10 POP POP PUSH1 0x1 DUP2 ADD SWAP1 POP PUSH2 0x2C37 JUMP JUMPDEST POP DUP3 SWAP8 POP DUP8 SWAP6 POP POP POP POP POP POP SWAP3 SWAP2 POP POP JUMP JUMPDEST PUSH0 PUSH1 0x20 DUP3 ADD SWAP1 POP DUP2 DUP2 SUB PUSH0 DUP4 ADD MSTORE PUSH2 0x2C99 DUP2 DUP5 PUSH2 0x2C0E JUMP JUMPDEST SWAP1 POP SWAP3 SWAP2 POP POP JUMP JUMPDEST PUSH0 DUP2 MLOAD SWAP1 POP SWAP2 SWAP1 POP JUMP JUMPDEST PUSH0 DUP3 DUP3 MSTORE PUSH1 0x20 DUP3 ADD SWAP1 POP SWAP3 SWAP2 POP POP JUMP JUMPDEST PUSH0 DUP2 SWAP1 POP PUSH1 0x20 DUP3 ADD SWAP1 POP SWAP2 SWAP1 POP JUMP JUMPDEST PUSH0 PUSH2 0x2CD5 DUP4 DUP4 PUSH2 0x2809 JUMP JUMPDEST SWAP1 POP SWAP3 SWAP2 POP POP JUMP JUMPDEST PUSH0 PUSH1 0x20 DUP3 ADD SWAP1 POP SWAP2 SWAP1 POP JUMP JUMPDEST PUSH0 PUSH2 0x2CF3 DUP3 PUSH2 0x2CA1 JUMP JUMPDEST PUSH2 0x2CFD DUP2 DUP6 PUSH2 0x2CAB JUMP JUMPDEST SWAP4 POP DUP4 PUSH1 0x20 DUP3 MUL DUP6 ADD PUSH2 0x2D0F DUP6 PUSH2 0x2CBB JUMP JUMPDEST DUP1 PUSH0 JUMPDEST DUP6 DUP2 LT ISZERO PUSH2 0x2D4A JUMPI DUP5 DUP5 SUB DUP10 MSTORE DUP2 MLOAD PUSH2 0x2D2B DUP6 DUP3 PUSH2 0x2CCA JUMP JUMPDEST SWAP5 POP PUSH2 0x2D36 DUP4 PUSH2 0x2CDD JUMP JUMPDEST SWAP3 POP PUSH1 0x20 DUP11 ADD SWAP10 POP POP PUSH1 0x1 DUP2 ADD SWAP1 POP PUSH2 0x2D12 JUMP JUMPDEST POP DUP3 SWAP8 POP DUP8 SWAP6 POP POP POP POP POP POP SWAP3 SWAP2 POP POP JUMP JUMPDEST PUSH0 PUSH1 0x20 DUP3 ADD SWAP1 POP DUP2 DUP2 SUB PUSH0 DUP4 ADD MSTORE PUSH2 0x2D74 DUP2 DUP5 PUSH2 0x2CE9 JUMP JUMPDEST SWAP1 POP SWAP3 SWAP2 POP POP JUMP JUMPDEST PUSH32 0x4E6F2044494420666F756E6420666F7220746869732061646472657373000000 PUSH0 DUP3 ADD MSTORE POP JUMP JUMPDEST PUSH0 PUSH2 0x2DB0 PUSH1 0x1D DUP4 PUSH2 0x2AEF JUMP JUMPDEST SWAP2 POP PUSH2 0x2DBB DUP3 PUSH2 0x2D7C JUMP JUMPDEST PUSH1 0x20 DUP3 ADD SWAP1 POP SWAP2 SWAP1 POP JUMP JUMPDEST PUSH0 PUSH1 0x20 DUP3 ADD SWAP1 POP DUP2 DUP2 SUB PUSH0 DUP4 ADD MSTORE PUSH2 0x2DDD DUP2 PUSH2 0x2DA4 JUMP JUMPDEST SWAP1 POP SWAP2 SWAP1 POP JUMP JUMPDEST PUSH32 0x4E616D652063616E6E6F7420626520656D707479000000000000000000000000 PUSH0 DUP3 ADD MSTORE POP JUMP JUMPDEST PUSH0 PUSH2 0x2E18 PUSH1 0x14 DUP4 PUSH2 0x2AEF JUMP JUMPDEST SWAP2 POP PUSH2 0x2E23 DUP3 PUSH2 0x2DE4 JUMP JUMPDEST PUSH1 0x20 DUP3 ADD SWAP1 POP SWAP2 SWAP1 POP JUMP JUMPDEST PUSH0 PUSH1 0x20 DUP3 ADD SWAP1 POP DUP2 DUP2 SUB PUSH0 DUP4 ADD MSTORE PUSH2 0x2E45 DUP2 PUSH2 0x2E0C JUMP JUMPDEST SWAP1 POP SWAP2 SWAP1 POP JUMP JUMPDEST PUSH32 0x456D61696C2063616E6E6F7420626520656D7074790000000000000000000000 PUSH0 DUP3 ADD MSTORE POP JUMP JUMPDEST PUSH0 PUSH2 0x2E80 PUSH1 0x15 DUP4 PUSH2 0x2AEF JUMP JUMPDEST SWAP2 POP PUSH2 0x2E8B DUP3 PUSH2 0x2E4C JUMP JUMPDEST PUSH1 0x20 DUP3 ADD SWAP1 POP SWAP2 SWAP1 POP JUMP JUMPDEST PUSH0 PUSH1 0x20 DUP3 ADD SWAP1 POP DUP2 DUP2 SUB PUSH0 DUP4 ADD MSTORE PUSH2 0x2EAD DUP2 PUSH2 0x2E74 JUMP JUMPDEST SWAP1 POP SWAP2 SWAP1 POP JUMP JUMPDEST PUSH32 0x50726F66696C6520706963747572652063616E6E6F7420626520656D70747900 PUSH0 DUP3 ADD MSTORE POP JUMP JUMPDEST PUSH0 PUSH2 0x2EE8 PUSH1 0x1F DUP4 PUSH2 0x2AEF JUMP JUMPDEST SWAP2 POP PUSH2 0x2EF3 DUP3 PUSH2 0x2EB4 JUMP JUMPDEST PUSH1 0x20 DUP3 ADD SWAP1 POP SWAP2 SWAP1 POP JUMP JUMPDEST PUSH0 PUSH1 0x20 DUP3 ADD SWAP1 POP DUP2 DUP2 SUB PUSH0 DUP4 ADD MSTORE PUSH2 0x2F15 DUP2 PUSH2 0x2EDC JUMP JUMPDEST SWAP1 POP SWAP2 SWAP1 POP JUMP JUMPDEST PUSH32 0x4E487B7100000000000000000000000000000000000000000000000000000000 PUSH0 MSTORE PUSH1 0x22 PUSH1 0x4 MSTORE PUSH1 0x24 PUSH0 REVERT JUMPDEST PUSH0 PUSH1 0x2 DUP3 DIV SWAP1 POP PUSH1 0x1 DUP3 AND DUP1 PUSH2 0x2F60 JUMPI PUSH1 0x7F DUP3 AND SWAP2 POP JUMPDEST PUSH1 0x20 DUP3 LT DUP2 SUB PUSH2 0x2F73 JUMPI PUSH2 0x2F72 PUSH2 0x2F1C JUMP JUMPDEST JUMPDEST POP SWAP2 SWAP1 POP JUMP JUMPDEST PUSH0 DUP2 SWAP1 POP DUP2 PUSH0 MSTORE PUSH1 0x20 PUSH0 KECCAK256 SWAP1 POP SWAP2 SWAP1 POP JUMP JUMPDEST PUSH0 PUSH1 0x20 PUSH1 0x1F DUP4 ADD DIV SWAP1 POP SWAP2 SWAP1 POP JUMP JUMPDEST PUSH0 DUP3 DUP3 SHL SWAP1 POP SWAP3 SWAP2 POP POP JUMP JUMPDEST PUSH0 PUSH1 0x8 DUP4 MUL PUSH2 0x2FD5 PUSH32 0xFFFFFFFFFFFFFFFFFFFFFFFFFFFFFFFFFFFFFFFFFFFFFFFFFFFFFFFFFFFFFFFF DUP3 PUSH2 0x2F9A JUMP JUMPDEST PUSH2 0x2FDF DUP7 DUP4 PUSH2 0x2F9A JUMP JUMPDEST SWAP6 POP DUP1 NOT DUP5 AND SWAP4 POP DUP1 DUP7 AND DUP5 OR SWAP3 POP POP POP SWAP4 SWAP3 POP POP POP JUMP JUMPDEST PUSH0 DUP2 SWAP1 POP SWAP2 SWAP1 POP JUMP JUMPDEST PUSH0 PUSH2 0x301A PUSH2 0x3015 PUSH2 0x3010 DUP5 PUSH2 0x2761 JUMP JUMPDEST PUSH2 0x2FF7 JUMP JUMPDEST PUSH2 0x2761 JUMP JUMPDEST SWAP1 POP SWAP2 SWAP1 POP JUMP JUMPDEST PUSH0 DUP2 SWAP1 POP SWAP2 SWAP1 POP JUMP JUMPDEST PUSH2 0x3033 DUP4 PUSH2 0x3000 JUMP JUMPDEST PUSH2 0x3047 PUSH2 0x303F DUP3 PUSH2 0x3021 JUMP JUMPDEST DUP5 DUP5 SLOAD PUSH2 0x2FA6 JUMP JUMPDEST DUP3 SSTORE POP POP POP POP JUMP JUMPDEST PUSH0 SWAP1 JUMP JUMPDEST PUSH2 0x305B PUSH2 0x304F JUMP JUMPDEST PUSH2 0x3066 DUP2 DUP5 DUP5 PUSH2 0x302A JUMP JUMPDEST POP POP POP JUMP JUMPDEST JUMPDEST DUP2 DUP2 LT ISZERO PUSH2 0x3089 JUMPI PUSH2 0x307E PUSH0 DUP3 PUSH2 0x3053 JUMP JUMPDEST PUSH1 0x1 DUP2 ADD SWAP1 POP PUSH2 0x306C JUMP JUMPDEST POP POP JUMP JUMPDEST PUSH1 0x1F DUP3 GT ISZERO PUSH2 0x30CE JUMPI PUSH2 0x309F DUP2 PUSH2 0x2F79 JUMP JUMPDEST PUSH2 0x30A8 DUP5 PUSH2 0x2F8B JUMP JUMPDEST DUP2 ADD PUSH1 0x20 DUP6 LT ISZERO PUSH2 0x30B7 JUMPI DUP2 SWAP1 POP JUMPDEST PUSH2 0x30CB PUSH2 0x30C3 DUP6 PUSH2 0x2F8B JUMP JUMPDEST DUP4 ADD DUP3 PUSH2 0x306B JUMP JUMPDEST POP POP JUMPDEST POP POP POP JUMP JUMPDEST PUSH0 DUP3 DUP3 SHR SWAP1 POP SWAP3 SWAP2 POP POP JUMP JUMPDEST PUSH0 PUSH2 0x30EE PUSH0 NOT DUP5 PUSH1 0x8 MUL PUSH2 0x30D3 JUMP JUMPDEST NOT DUP1 DUP4 AND SWAP2 POP POP SWAP3 SWAP2 POP POP JUMP JUMPDEST PUSH0 PUSH2 0x3106 DUP4 DUP4 PUSH2 0x30DF JUMP JUMPDEST SWAP2 POP DUP3 PUSH1 0x2 MUL DUP3 OR SWAP1 POP SWAP3 SWAP2 POP POP JUMP JUMPDEST PUSH2 0x311F DUP3 PUSH2 0x27E1 JUMP JUMPDEST PUSH8 0xFFFFFFFFFFFFFFFF DUP2 GT ISZERO PUSH2 0x3138 JUMPI PUSH2 0x3137 PUSH2 0x2445 JUMP JUMPDEST JUMPDEST PUSH2 0x3142 DUP3 SLOAD PUSH2 0x2F49 JUMP JUMPDEST PUSH2 0x314D DUP3 DUP3 DUP6 PUSH2 0x308D JUMP JUMPDEST PUSH0 PUSH1 0x20 SWAP1 POP PUSH1 0x1F DUP4 GT PUSH1 0x1 DUP2 EQ PUSH2 0x317E JUMPI PUSH0 DUP5 ISZERO PUSH2 0x316C JUMPI DUP3 DUP8 ADD MLOAD SWAP1 POP JUMPDEST PUSH2 0x3176 DUP6 DUP3 PUSH2 0x30FB JUMP JUMPDEST DUP7 SSTORE POP PUSH2 0x31DD JUMP JUMPDEST PUSH1 0x1F NOT DUP5 AND PUSH2 0x318C DUP7 PUSH2 0x2F79 JUMP JUMPDEST PUSH0 JUMPDEST DUP3 DUP2 LT ISZERO PUSH2 0x31B3 JUMPI DUP5 DUP10 ADD MLOAD DUP3 SSTORE PUSH1 0x1 DUP3 ADD SWAP2 POP PUSH1 0x20 DUP6 ADD SWAP5 POP PUSH1 0x20 DUP2 ADD SWAP1 POP PUSH2 0x318E JUMP JUMPDEST DUP7 DUP4 LT ISZERO PUSH2 0x31D0 JUMPI DUP5 DUP10 ADD MLOAD PUSH2 0x31CC PUSH1 0x1F DUP10 AND DUP3 PUSH2 0x30DF JUMP JUMPDEST DUP4 SSTORE POP JUMPDEST PUSH1 0x1 PUSH1 0x2 DUP9 MUL ADD DUP9 SSTORE POP POP POP JUMPDEST POP POP POP POP POP POP JUMP JUMPDEST PUSH0 PUSH1 0x60 DUP3 ADD SWAP1 POP DUP2 DUP2 SUB PUSH0 DUP4 ADD MSTORE PUSH2 0x31FD DUP2 DUP7 PUSH2 0x2AFF JUMP JUMPDEST SWAP1 POP DUP2 DUP2 SUB PUSH1 0x20 DUP4 ADD MSTORE PUSH2 0x3211 DUP2 DUP6 PUSH2 0x2AFF JUMP JUMPDEST SWAP1 POP DUP2 DUP2 SUB PUSH1 0x40 DUP4 ADD MSTORE PUSH2 0x3225 DUP2 DUP5 PUSH2 0x2AFF JUMP JUMPDEST SWAP1 POP SWAP5 SWAP4 POP POP POP POP JUMP JUMPDEST PUSH32 0x53656C6563746564206461746120686173682063616E6E6F7420626520656D70 PUSH0 DUP3 ADD MSTORE PUSH32 0x7479000000000000000000000000000000000000000000000000000000000000 PUSH1 0x20 DUP3 ADD MSTORE POP JUMP JUMPDEST PUSH0 PUSH2 0x3289 PUSH1 0x22 DUP4 PUSH2 0x2AEF JUMP JUMPDEST SWAP2 POP PUSH2 0x3294 DUP3 PUSH2 0x322F JUMP JUMPDEST PUSH1 0x40 DUP3 ADD SWAP1 POP SWAP2 SWAP1 POP JUMP JUMPDEST PUSH0 PUSH1 0x20 DUP3 ADD SWAP1 POP DUP2 DUP2 SUB PUSH0 DUP4 ADD MSTORE PUSH2 0x32B6 DUP2 PUSH2 0x327D JUMP JUMPDEST SWAP1 POP SWAP2 SWAP1 POP JUMP JUMPDEST PUSH0 DUP2 PUSH1 0x60 SHL SWAP1 POP SWAP2 SWAP1 POP JUMP JUMPDEST PUSH0 PUSH2 0x32D3 DUP3 PUSH2 0x32BD JUMP JUMPDEST SWAP1 POP SWAP2 SWAP1 POP JUMP JUMPDEST PUSH0 PUSH2 0x32E4 DUP3 PUSH2 0x32C9 JUMP JUMPDEST SWAP1 POP SWAP2 SWAP1 POP JUMP JUMPDEST PUSH2 0x32FC PUSH2 0x32F7 DUP3 PUSH2 0x2673 JUMP JUMPDEST PUSH2 0x32DA JUMP JUMPDEST DUP3 MSTORE POP POP JUMP JUMPDEST PUSH0 DUP2 SWAP1 POP SWAP3 SWAP2 POP POP JUMP JUMPDEST PUSH0 PUSH2 0x3316 DUP3 PUSH2 0x27E1 JUMP JUMPDEST PUSH2 0x3320 DUP2 DUP6 PUSH2 0x3302 JUMP JUMPDEST SWAP4 POP PUSH2 0x3330 DUP2 DUP6 PUSH1 0x20 DUP7 ADD PUSH2 0x27FB JUMP JUMPDEST DUP1 DUP5 ADD SWAP2 POP POP SWAP3 SWAP2 POP POP JUMP JUMPDEST PUSH0 DUP2 SWAP1 POP SWAP2 SWAP1 POP JUMP JUMPDEST PUSH2 0x3356 PUSH2 0x3351 DUP3 PUSH2 0x2761 JUMP JUMPDEST PUSH2 0x333C JUMP JUMPDEST DUP3 MSTORE POP POP JUMP JUMPDEST PUSH0 PUSH2 0x3367 DUP3 DUP7 PUSH2 0x32EB JUMP JUMPDEST PUSH1 0x14 DUP3 ADD SWAP2 POP PUSH2 0x3377 DUP3 DUP6 PUSH2 0x330C JUMP JUMPDEST SWAP2 POP PUSH2 0x3383 DUP3 DUP5 PUSH2 0x3345 JUMP JUMPDEST PUSH1 0x20 DUP3 ADD SWAP2 POP DUP2 SWAP1 POP SWAP5 SWAP4 POP POP POP POP JUMP JUMPDEST PUSH2 0x339D DUP2 PUSH2 0x26AE JUMP JUMPDEST DUP3 MSTORE POP POP JUMP JUMPDEST PUSH2 0x33AC DUP2 PUSH2 0x2761 JUMP JUMPDEST DUP3 MSTORE POP POP JUMP JUMPDEST PUSH0 PUSH1 0x40 DUP3 ADD SWAP1 POP PUSH2 0x33C5 PUSH0 DUP4 ADD DUP6 PUSH2 0x3394 JUMP JUMPDEST PUSH2 0x33D2 PUSH1 0x20 DUP4 ADD DUP5 PUSH2 0x33A3 JUMP JUMPDEST SWAP4 SWAP3 POP POP POP JUMP JUMPDEST PUSH32 0x497373756572206D757374206861766520612044494400000000000000000000 PUSH0 DUP3 ADD MSTORE POP JUMP JUMPDEST PUSH0 PUSH2 0x340D PUSH1 0x16 DUP4 PUSH2 0x2AEF JUMP JUMPDEST SWAP2 POP PUSH2 0x3418 DUP3 PUSH2 0x33D9 JUMP JUMPDEST PUSH1 0x20 DUP3 ADD SWAP1 POP SWAP2 SWAP1 POP JUMP JUMPDEST PUSH0 PUSH1 0x20 DUP3 ADD SWAP1 POP DUP2 DUP2 SUB PUSH0 DUP4 ADD MSTORE PUSH2 0x343A DUP2 PUSH2 0x3401 JUMP JUMPDEST SWAP1 POP SWAP2 SWAP1 POP JUMP JUMPDEST PUSH32 0x526F6C652063616E6E6F7420626520656D707479000000000000000000000000 PUSH0 DUP3 ADD MSTORE POP JUMP JUMPDEST PUSH0 PUSH2 0x3475 PUSH1 0x14 DUP4 PUSH2 0x2AEF JUMP JUMPDEST SWAP2 POP PUSH2 0x3480 DUP3 PUSH2 0x3441 JUMP JUMPDEST PUSH1 0x20 DUP3 ADD SWAP1 POP SWAP2 SWAP1 POP JUMP JUMPDEST PUSH0 PUSH1 0x20 DUP3 ADD SWAP1 POP DUP2 DUP2 SUB PUSH0 DUP4 ADD MSTORE PUSH2 0x34A2 DUP2 PUSH2 0x3469 JUMP JUMPDEST SWAP1 POP SWAP2 SWAP1 POP JUMP JUMPDEST PUSH0 PUSH2 0x34B4 DUP3 DUP8 PUSH2 0x32EB JUMP JUMPDEST PUSH1 0x14 DUP3 ADD SWAP2 POP PUSH2 0x34C4 DUP3 DUP7 PUSH2 0x32EB JUMP JUMPDEST PUSH1 0x14 DUP3 ADD SWAP2 POP PUSH2 0x34D4 DUP3 DUP6 PUSH2 0x330C JUMP JUMPDEST SWAP2 POP PUSH2 0x34E0 DUP3 DUP5 PUSH2 0x3345 JUMP JUMPDEST PUSH1 0x20 DUP3 ADD SWAP2 POP DUP2 SWAP1 POP SWAP6 SWAP5 POP POP POP POP POP JUMP JUMPDEST PUSH2 0x34FB DUP2 PUSH2 0x2673 JUMP JUMPDEST DUP3 MSTORE POP POP JUMP JUMPDEST PUSH0 PUSH1 0x60 DUP3 ADD SWAP1 POP PUSH2 0x3514 PUSH0 DUP4 ADD DUP7 PUSH2 0x34F2 JUMP JUMPDEST DUP2 DUP2 SUB PUSH1 0x20 DUP4 ADD MSTORE PUSH2 0x3526 DUP2 DUP6 PUSH2 0x2AFF JUMP JUMPDEST SWAP1 POP PUSH2 0x3535 PUSH1 0x40 DUP4 ADD DUP5 PUSH2 0x3394 JUMP JUMPDEST SWAP5 SWAP4 POP POP POP POP JUMP JUMPDEST PUSH32 0x4964656E7469666965722063616E6E6F7420626520656D707479000000000000 PUSH0 DUP3 ADD MSTORE POP JUMP JUMPDEST PUSH0 PUSH2 0x3571 PUSH1 0x1A DUP4 PUSH2 0x2AEF JUMP JUMPDEST SWAP2 POP PUSH2 0x357C DUP3 PUSH2 0x353D JUMP JUMPDEST PUSH1 0x20 DUP3 ADD SWAP1 POP SWAP2 SWAP1 POP JUMP JUMPDEST PUSH0 PUSH1 0x20 DUP3 ADD SWAP1 POP DUP2 DUP2 SUB PUSH0 DUP4 ADD MSTORE PUSH2 0x359E DUP2 PUSH2 0x3565 JUMP JUMPDEST SWAP1 POP SWAP2 SWAP1 POP JUMP JUMPDEST PUSH32 0x44494420616C7265616479206578697374730000000000000000000000000000 PUSH0 DUP3 ADD MSTORE POP JUMP JUMPDEST PUSH0 PUSH2 0x35D9 PUSH1 0x12 DUP4 PUSH2 0x2AEF JUMP JUMPDEST SWAP2 POP PUSH2 0x35E4 DUP3 PUSH2 0x35A5 JUMP JUMPDEST PUSH1 0x20 DUP3 ADD SWAP1 POP SWAP2 SWAP1 POP JUMP JUMPDEST PUSH0 PUSH1 0x20 DUP3 ADD SWAP1 POP DUP2 DUP2 SUB PUSH0 DUP4 ADD MSTORE PUSH2 0x3606 DUP2 PUSH2 0x35CD JUMP JUMPDEST SWAP1 POP SWAP2 SWAP1 POP JUMP JUMPDEST PUSH32 0x496E76616C69642063726564656E7469616C20696E6465780000000000000000 PUSH0 DUP3 ADD MSTORE POP JUMP JUMPDEST PUSH0 PUSH2 0x3641 PUSH1 0x18 DUP4 PUSH2 0x2AEF JUMP JUMPDEST SWAP2 POP PUSH2 0x364C DUP3 PUSH2 0x360D JUMP JUMPDEST PUSH1 0x20 DUP3 ADD SWAP1 POP SWAP2 SWAP1 POP JUMP JUMPDEST PUSH0 PUSH1 0x20 DUP3 ADD SWAP1 POP DUP2 DUP2 SUB PUSH0 DUP4 ADD MSTORE PUSH2 0x366E DUP2 PUSH2 0x3635 JUMP JUMPDEST SWAP1 POP SWAP2 SWAP1 POP JUMP JUMPDEST PUSH32 0x4E487B7100000000000000000000000000000000000000000000000000000000 PUSH0 MSTORE PUSH1 0x32 PUSH1 0x4 MSTORE PUSH1 0x24 PUSH0 REVERT JUMPDEST PUSH32 0x4461746120646F6573206E6F7420657869737400000000000000000000000000 PUSH0 DUP3 ADD MSTORE POP JUMP JUMPDEST PUSH0 PUSH2 0x36D6 PUSH1 0x13 DUP4 PUSH2 0x2AEF JUMP JUMPDEST SWAP2 POP PUSH2 0x36E1 DUP3 PUSH2 0x36A2 JUMP JUMPDEST PUSH1 0x20 DUP3 ADD SWAP1 POP SWAP2 SWAP1 POP JUMP JUMPDEST PUSH0 PUSH1 0x20 DUP3 ADD SWAP1 POP DUP2 DUP2 SUB PUSH0 DUP4 ADD MSTORE PUSH2 0x3703 DUP2 PUSH2 0x36CA JUMP JUMPDEST SWAP1 POP SWAP2 SWAP1 POP JUMP JUMPDEST PUSH32 0x5573657220646F6573206E6F74206861766520616E792061737369676E656420 PUSH0 DUP3 ADD MSTORE PUSH32 0x726F6C6573000000000000000000000000000000000000000000000000000000 PUSH1 0x20 DUP3 ADD MSTORE POP JUMP JUMPDEST PUSH0 PUSH2 0x3764 PUSH1 0x25 DUP4 PUSH2 0x2AEF JUMP JUMPDEST SWAP2 POP PUSH2 0x376F DUP3 PUSH2 0x370A JUMP JUMPDEST PUSH1 0x40 DUP3 ADD SWAP1 POP SWAP2 SWAP1 POP JUMP JUMPDEST PUSH0 PUSH1 0x20 DUP3 ADD SWAP1 POP DUP2 DUP2 SUB PUSH0 DUP4 ADD MSTORE PUSH2 0x3791 DUP2 PUSH2 0x3758 JUMP JUMPDEST SWAP1 POP SWAP2 SWAP1 POP JUMP JUMPDEST PUSH0 PUSH2 0x37A3 DUP3 DUP5 PUSH2 0x330C JUMP JUMPDEST SWAP2 POP DUP2 SWAP1 POP SWAP3 SWAP2 POP POP JUMP JUMPDEST PUSH0 DUP2 SLOAD PUSH2 0x37BA DUP2 PUSH2 0x2F49 JUMP JUMPDEST PUSH2 0x37C4 DUP2 DUP7 PUSH2 0x3302 JUMP JUMPDEST SWAP5 POP PUSH1 0x1 DUP3 AND PUSH0 DUP2 EQ PUSH2 0x37DE JUMPI PUSH1 0x1 DUP2 EQ PUSH2 0x37F3 JUMPI PUSH2 0x3825 JUMP JUMPDEST PUSH1 0xFF NOT DUP4 AND DUP7 MSTORE DUP2 ISZERO ISZERO DUP3 MUL DUP7 ADD SWAP4 POP PUSH2 0x3825 JUMP JUMPDEST PUSH2 0x37FC DUP6 PUSH2 0x2F79 JUMP JUMPDEST PUSH0 JUMPDEST DUP4 DUP2 LT ISZERO PUSH2 0x381D JUMPI DUP2 SLOAD DUP2 DUP10 ADD MSTORE PUSH1 0x1 DUP3 ADD SWAP2 POP PUSH1 0x20 DUP2 ADD SWAP1 POP PUSH2 0x37FE JUMP JUMPDEST DUP4 DUP9 ADD SWAP6 POP POP POP JUMPDEST POP POP POP SWAP3 SWAP2 POP POP JUMP JUMPDEST PUSH0 PUSH2 0x3839 DUP3 DUP5 PUSH2 0x37AE JUMP JUMPDEST SWAP2 POP DUP2 SWAP1 POP SWAP3 SWAP2 POP POP JUMP JUMPDEST PUSH32 0x496E76616C6964207465737420696E6465780000000000000000000000000000 PUSH0 DUP3 ADD MSTORE POP JUMP JUMPDEST PUSH0 PUSH2 0x3878 PUSH1 0x12 DUP4 PUSH2 0x2AEF JUMP JUMPDEST SWAP2 POP PUSH2 0x3883 DUP3 PUSH2 0x3844 JUMP JUMPDEST PUSH1 0x20 DUP3 ADD SWAP1 POP SWAP2 SWAP1 POP JUMP JUMPDEST PUSH0 PUSH1 0x20 DUP3 ADD SWAP1 POP DUP2 DUP2 SUB PUSH0 DUP4 ADD MSTORE PUSH2 0x38A5 DUP2 PUSH2 0x386C JUMP JUMPDEST SWAP1 POP SWAP2 SWAP1 POP JUMP JUMPDEST PUSH32 0x5465737420616C72656164792067726164656400000000000000000000000000 PUSH0 DUP3 ADD MSTORE POP JUMP JUMPDEST PUSH0 PUSH2 0x38E0 PUSH1 0x13 DUP4 PUSH2 0x2AEF JUMP JUMPDEST SWAP2 POP PUSH2 0x38EB DUP3 PUSH2 0x38AC JUMP JUMPDEST PUSH1 0x20 DUP3 ADD SWAP1 POP SWAP2 SWAP1 POP JUMP JUMPDEST PUSH0 PUSH1 0x20 DUP3 ADD SWAP1 POP DUP2 DUP2 SUB PUSH0 DUP4 ADD MSTORE PUSH2 0x390D DUP2 PUSH2 0x38D4 JUMP JUMPDEST SWAP1 POP SWAP2 SWAP1 POP JUMP JUMPDEST PUSH0 PUSH1 0x40 DUP3 ADD SWAP1 POP PUSH2 0x3927 PUSH0 DUP4 ADD DUP6 PUSH2 0x33A3 JUMP JUMPDEST PUSH2 0x3934 PUSH1 0x20 DUP4 ADD DUP5 PUSH2 0x33A3 JUMP JUMPDEST SWAP4 SWAP3 POP POP POP JUMP JUMPDEST PUSH32 0x416E737765727320686173682063616E6E6F7420626520656D70747900000000 PUSH0 DUP3 ADD MSTORE POP JUMP JUMPDEST PUSH0 PUSH2 0x396F PUSH1 0x1C DUP4 PUSH2 0x2AEF JUMP JUMPDEST SWAP2 POP PUSH2 0x397A DUP3 PUSH2 0x393B JUMP JUMPDEST PUSH1 0x20 DUP3 ADD SWAP1 POP SWAP2 SWAP1 POP JUMP JUMPDEST PUSH0 PUSH1 0x20 DUP3 ADD SWAP1 POP DUP2 DUP2 SUB PUSH0 DUP4 ADD MSTORE PUSH2 0x399C DUP2 PUSH2 0x3963 JUMP JUMPDEST SWAP1 POP SWAP2 SWAP1 POP JUMP JUMPDEST PUSH32 0x4E487B7100000000000000000000000000000000000000000000000000000000 PUSH0 MSTORE PUSH1 0x11 PUSH1 0x4 MSTORE PUSH1 0x24 PUSH0 REVERT JUMPDEST PUSH0 PUSH2 0x39DA DUP3 PUSH2 0x2761 JUMP JUMPDEST SWAP2 POP PUSH2 0x39E5 DUP4 PUSH2 0x2761 JUMP JUMPDEST SWAP3 POP DUP3 DUP3 ADD SWAP1 POP DUP1 DUP3 GT ISZERO PUSH2 0x39FD JUMPI PUSH2 0x39FC PUSH2 0x39A3 JUMP JUMPDEST JUMPDEST SWAP3 SWAP2 POP POP JUMP JUMPDEST PUSH0 PUSH1 0x40 DUP3 ADD SWAP1 POP DUP2 DUP2 SUB PUSH0 DUP4 ADD MSTORE PUSH2 0x3A1B DUP2 DUP6 PUSH2 0x2AFF JUMP JUMPDEST SWAP1 POP PUSH2 0x3A2A PUSH1 0x20 DUP4 ADD DUP5 PUSH2 0x33A3 JUMP JUMPDEST SWAP4 SWAP3 POP POP POP JUMP JUMPDEST PUSH32 0x4E6F20726F6C65732061737369676E6564207965740000000000000000000000 PUSH0 DUP3 ADD MSTORE POP JUMP JUMPDEST PUSH0 PUSH2 0x3A65 PUSH1 0x15 DUP4 PUSH2 0x2AEF JUMP JUMPDEST SWAP2 POP PUSH2 0x3A70 DUP3 PUSH2 0x3A31 JUMP JUMPDEST PUSH1 0x20 DUP3 ADD SWAP1 POP SWAP2 SWAP1 POP JUMP JUMPDEST PUSH0 PUSH1 0x20 DUP3 ADD SWAP1 POP DUP2 DUP2 SUB PUSH0 DUP4 ADD MSTORE PUSH2 0x3A92 DUP2 PUSH2 0x3A59 JUMP JUMPDEST SWAP1 POP SWAP2 SWAP1 POP JUMP INVALID LOG2 PUSH5 0x6970667358 0x22 SLT KECCAK256 CALLVALUE LT 0xB9 SDIV PUSH32 0x2C891F87198885B9F4B2CB08C2AAF4E62238E22EA830E4E1829FC364736F6C63 NUMBER STOP ADDMOD BYTE STOP CALLER "
				},
				"gasEstimates": {
					"creation": {
						"codeDepositCost": "3011000",
						"executionCost": "infinite",
						"totalCost": "infinite"
					},
					"external": {
						"assignRole(address,string)": "infinite",
						"createCredentialPresentation(string)": "infinite",
						"createDID(string)": "infinite",
						"getCredentialPresentation(address,uint256)": "infinite",
						"getDID()": "infinite",
						"getMetadata()": "infinite",
						"getRole()": "infinite",
						"getTestSubmissions()": "infinite",
						"gradeTest(address,uint256,uint256)": "infinite",
						"issueRole(address,string,bytes32,bytes32)": "infinite",
						"setMetadata(string,string,string)": "infinite",
						"submitTest(string)": "infinite",
						"verifyRole(address,string,address)": "infinite"
					}
				},
				"methodIdentifiers": {
					"assignRole(address,string)": "b7dfcbee",
					"createCredentialPresentation(string)": "0ab82802",
					"createDID(string)": "3457d3e2",
					"getCredentialPresentation(address,uint256)": "783d57c5",
					"getDID()": "bc9c2d55",
					"getMetadata()": "7a5b4f59",
					"getRole()": "fde08174",
					"getTestSubmissions()": "de6db5c7",
					"gradeTest(address,uint256,uint256)": "b4f30a54",
					"issueRole(address,string,bytes32,bytes32)": "1391168d",
					"setMetadata(string,string,string)": "0890d80c",
					"submitTest(string)": "c303e541",
					"verifyRole(address,string,address)": "ab53c6ad"
				}
			},
			"storageLayout": {
				"storage": [
					{
						"astId": 46,
						"contract": "TestSubmissionSystem.sol:TestSubmissionSystem",
						"label": "dids",
						"offset": 0,
						"slot": "0",
						"type": "t_mapping(t_address,t_struct(DID)8_storage)"
					},
					{
						"astId": 50,
						"contract": "TestSubmissionSystem.sol:TestSubmissionSystem",
						"label": "roles",
						"offset": 0,
						"slot": "1",
						"type": "t_mapping(t_address,t_string_storage)"
					},
					{
						"astId": 55,
						"contract": "TestSubmissionSystem.sol:TestSubmissionSystem",
						"label": "roleHistory",
						"offset": 0,
						"slot": "2",
						"type": "t_mapping(t_address,t_array(t_string_storage)dyn_storage)"
					},
					{
						"astId": 60,
						"contract": "TestSubmissionSystem.sol:TestSubmissionSystem",
						"label": "metadatas",
						"offset": 0,
						"slot": "3",
						"type": "t_mapping(t_address,t_struct(MetaData)19_storage)"
					},
					{
						"astId": 66,
						"contract": "TestSubmissionSystem.sol:TestSubmissionSystem",
						"label": "credentials",
						"offset": 0,
						"slot": "4",
						"type": "t_mapping(t_address,t_array(t_struct(Credential)41_storage)dyn_storage)"
					},
					{
						"astId": 72,
						"contract": "TestSubmissionSystem.sol:TestSubmissionSystem",
						"label": "testSubmissions",
						"offset": 0,
						"slot": "5",
						"type": "t_mapping(t_address,t_array(t_struct(TestSubmission)28_storage)dyn_storage)"
					}
				],
				"types": {
					"t_address": {
						"encoding": "inplace",
						"label": "address",
						"numberOfBytes": "20"
					},
					"t_array(t_string_storage)dyn_storage": {
						"base": "t_string_storage",
						"encoding": "dynamic_array",
						"label": "string[]",
						"numberOfBytes": "32"
					},
					"t_array(t_struct(Credential)41_storage)dyn_storage": {
						"base": "t_struct(Credential)41_storage",
						"encoding": "dynamic_array",
						"label": "struct TestSubmissionSystem.Credential[]",
						"numberOfBytes": "32"
					},
					"t_array(t_struct(TestSubmission)28_storage)dyn_storage": {
						"base": "t_struct(TestSubmission)28_storage",
						"encoding": "dynamic_array",
						"label": "struct TestSubmissionSystem.TestSubmission[]",
						"numberOfBytes": "32"
					},
					"t_bool": {
						"encoding": "inplace",
						"label": "bool",
						"numberOfBytes": "1"
					},
					"t_bytes32": {
						"encoding": "inplace",
						"label": "bytes32",
						"numberOfBytes": "32"
					},
					"t_mapping(t_address,t_array(t_string_storage)dyn_storage)": {
						"encoding": "mapping",
						"key": "t_address",
						"label": "mapping(address => string[])",
						"numberOfBytes": "32",
						"value": "t_array(t_string_storage)dyn_storage"
					},
					"t_mapping(t_address,t_array(t_struct(Credential)41_storage)dyn_storage)": {
						"encoding": "mapping",
						"key": "t_address",
						"label": "mapping(address => struct TestSubmissionSystem.Credential[])",
						"numberOfBytes": "32",
						"value": "t_array(t_struct(Credential)41_storage)dyn_storage"
					},
					"t_mapping(t_address,t_array(t_struct(TestSubmission)28_storage)dyn_storage)": {
						"encoding": "mapping",
						"key": "t_address",
						"label": "mapping(address => struct TestSubmissionSystem.TestSubmission[])",
						"numberOfBytes": "32",
						"value": "t_array(t_struct(TestSubmission)28_storage)dyn_storage"
					},
					"t_mapping(t_address,t_string_storage)": {
						"encoding": "mapping",
						"key": "t_address",
						"label": "mapping(address => string)",
						"numberOfBytes": "32",
						"value": "t_string_storage"
					},
					"t_mapping(t_address,t_struct(DID)8_storage)": {
						"encoding": "mapping",
						"key": "t_address",
						"label": "mapping(address => struct TestSubmissionSystem.DID)",
						"numberOfBytes": "32",
						"value": "t_struct(DID)8_storage"
					},
					"t_mapping(t_address,t_struct(MetaData)19_storage)": {
						"encoding": "mapping",
						"key": "t_address",
						"label": "mapping(address => struct TestSubmissionSystem.MetaData)",
						"numberOfBytes": "32",
						"value": "t_struct(MetaData)19_storage"
					},
					"t_string_storage": {
						"encoding": "bytes",
						"label": "string",
						"numberOfBytes": "32"
					},
					"t_struct(Credential)41_storage": {
						"encoding": "inplace",
						"label": "struct TestSubmissionSystem.Credential",
						"members": [
							{
								"astId": 30,
								"contract": "TestSubmissionSystem.sol:TestSubmissionSystem",
								"label": "issuer",
								"offset": 0,
								"slot": "0",
								"type": "t_address"
							},
							{
								"astId": 32,
								"contract": "TestSubmissionSystem.sol:TestSubmissionSystem",
								"label": "role",
								"offset": 0,
								"slot": "1",
								"type": "t_string_storage"
							},
							{
								"astId": 34,
								"contract": "TestSubmissionSystem.sol:TestSubmissionSystem",
								"label": "issueAt",
								"offset": 0,
								"slot": "2",
								"type": "t_uint256"
							},
							{
								"astId": 36,
								"contract": "TestSubmissionSystem.sol:TestSubmissionSystem",
								"label": "hashes",
								"offset": 0,
								"slot": "3",
								"type": "t_bytes32"
							},
							{
								"astId": 38,
								"contract": "TestSubmissionSystem.sol:TestSubmissionSystem",
								"label": "salaryHash",
								"offset": 0,
								"slot": "4",
								"type": "t_bytes32"
							},
							{
								"astId": 40,
								"contract": "TestSubmissionSystem.sol:TestSubmissionSystem",
								"label": "salary300Hash",
								"offset": 0,
								"slot": "5",
								"type": "t_bytes32"
							}
						],
						"numberOfBytes": "192"
					},
					"t_struct(DID)8_storage": {
						"encoding": "inplace",
						"label": "struct TestSubmissionSystem.DID",
						"members": [
							{
								"astId": 3,
								"contract": "TestSubmissionSystem.sol:TestSubmissionSystem",
								"label": "identifier",
								"offset": 0,
								"slot": "0",
								"type": "t_string_storage"
							},
							{
								"astId": 5,
								"contract": "TestSubmissionSystem.sol:TestSubmissionSystem",
								"label": "owner",
								"offset": 0,
								"slot": "1",
								"type": "t_address"
							},
							{
								"astId": 7,
								"contract": "TestSubmissionSystem.sol:TestSubmissionSystem",
								"label": "createdAt",
								"offset": 0,
								"slot": "2",
								"type": "t_uint256"
							}
						],
						"numberOfBytes": "96"
					},
					"t_struct(MetaData)19_storage": {
						"encoding": "inplace",
						"label": "struct TestSubmissionSystem.MetaData",
						"members": [
							{
								"astId": 10,
								"contract": "TestSubmissionSystem.sol:TestSubmissionSystem",
								"label": "name",
								"offset": 0,
								"slot": "0",
								"type": "t_string_storage"
							},
							{
								"astId": 12,
								"contract": "TestSubmissionSystem.sol:TestSubmissionSystem",
								"label": "email",
								"offset": 0,
								"slot": "1",
								"type": "t_string_storage"
							},
							{
								"astId": 14,
								"contract": "TestSubmissionSystem.sol:TestSubmissionSystem",
								"label": "profilePicture",
								"offset": 0,
								"slot": "2",
								"type": "t_string_storage"
							},
							{
								"astId": 16,
								"contract": "TestSubmissionSystem.sol:TestSubmissionSystem",
								"label": "totalTestsSubmitted",
								"offset": 0,
								"slot": "3",
								"type": "t_uint256"
							},
							{
								"astId": 18,
								"contract": "TestSubmissionSystem.sol:TestSubmissionSystem",
								"label": "lastTestScore",
								"offset": 0,
								"slot": "4",
								"type": "t_uint256"
							}
						],
						"numberOfBytes": "160"
					},
					"t_struct(TestSubmission)28_storage": {
						"encoding": "inplace",
						"label": "struct TestSubmissionSystem.TestSubmission",
						"members": [
							{
								"astId": 21,
								"contract": "TestSubmissionSystem.sol:TestSubmissionSystem",
								"label": "answersHash",
								"offset": 0,
								"slot": "0",
								"type": "t_string_storage"
							},
							{
								"astId": 23,
								"contract": "TestSubmissionSystem.sol:TestSubmissionSystem",
								"label": "submissionTime",
								"offset": 0,
								"slot": "1",
								"type": "t_uint256"
							},
							{
								"astId": 25,
								"contract": "TestSubmissionSystem.sol:TestSubmissionSystem",
								"label": "grade",
								"offset": 0,
								"slot": "2",
								"type": "t_uint256"
							},
							{
								"astId": 27,
								"contract": "TestSubmissionSystem.sol:TestSubmissionSystem",
								"label": "graded",
								"offset": 0,
								"slot": "3",
								"type": "t_bool"
							}
						],
						"numberOfBytes": "128"
					},
					"t_uint256": {
						"encoding": "inplace",
						"label": "uint256",
						"numberOfBytes": "32"
					}
				}
			},
			"userdoc": {
				"kind": "user",
				"methods": {},
				"version": 1
			}
		}
	}
}